:020000040800F2
:10000000809101208D020008116C0008E357000860
:100010000D6C0008910A000833AB000800000000D6
:10002000000000000000000000000000CD010008FA
:10003000330D00080000000029020008217F00089D
:10004000A7020008A7020008A7020008A7020008EC
:10005000A7020008A7020008A7020008A7020008DC
:10006000A7020008A7020008A7020008A7020008CC
:10007000A7020008A7020008A7020008A7020008BC
:10008000A7020008A7020008A7020008A7020008AC
:10009000F10A0008A7020008A7020008A70200084A
:1000A000A7020008A7020008A7020008A70200088C
:1000B000A7020008A7020008A7020008A70200087C
:1000C000A7020008A7020008A7020008A70200086C
:1000D000A7020008A5880008A7020008A7020008D8
:1000E000A7020008A7020008A7020008A70200084C
:1000F000A702000839810008A7020008A70200082B
:10010000A7020008A7020008A7020008A70200082B
:10011000A7020008A7020008A7020008A70200081B
:10012000A7020008A7020008190C0008A70200088F
:10013000A7020008ED0D0008A7020008A7020008AA
:10014000A7020008A7020008A7020008A7020008EB
:10015000A7020008A7020008A7020008A7020008DB
:10016000A7020008A7020008A7020008A7020008CB
:10017000A7020008156C0008A70200080000000094
:10018000A7020008A7020008A7020008A7020008AB
:10019000A7020008A7020008A7020008A70200089B
:1001A000A7020008A7020008A7020008DFF818D07D
:1001B00000F030FC00F00EF9004800473D1801083F
:1001C000AFF3008000F040FB809101202C4B1968B8
:1001D0000868B0E8F04F80F30988BFF36F8F4FF0E5
:1001E000000080F311887047000000000848006894
:1001F000006880F308884FF0000080F3148862B62E
:1002000061B6BFF34F8FBFF36F8F00DF00BF00BF3A
:1002100008ED00E0DFF80C00016841F470010160B6
:10022000704700BF88ED00E0EFF30980BFF36F8FE8
:10023000134B1A681EF0100F08BF20ED108A20E93A
:10024000F04F106009B44FF0500080F31188BFF3F5
:100250004F8FBFF36F8F1DF031FB4FF0000080F325
:10026000118809BC19680868B0E8F04F1EF0100F3B
:1002700008BFB0EC108A80F30988BFF36F8F704716
:100280004C010020EFF305807047000006488047CE
:1002900006480047FEE7FEE7FEE7FEE7FEE7FEE76B
:1002A000FEE7FEE7FEE7FEE70D800008AD0100086F
:1002B0002DE9F05F0546002092469B46884606469B
:1002C000814640241BE0284641464746224600F02E
:1002D00095FA53465A46C01A914110D31146184612
:1002E000224600F07CFA2D1A67EB01084F462246A1
:1002F0000120002100F073FA17EB00094E41201E87
:10030000A4F10104DFDC484631462A464346BDE8F5
:10031000F09F00000649074A0868504343F239023B
:1003200010440860400870470149086070470000A9
:10033000380800206D4EC64110B5431A934209D2C9
:100340008318881803E010F8011D03F8011D521EE0
:10035000F9D210BD40EA01039B0703D009E008C9A8
:10036000121F08C0042AFAD203E011F8013B00F87A
:10037000013B521EF9D210BDD2B201E000F8012BB0
:10038000491EFBD270470022F6E710B513460A4615
:1003900004461946FFF7F0FF204610BD30B504466D
:1003A0000020034600E05B1C934203D2E05CCD5C7E
:1003B000401BF8D030BD10B54843044611F08EFA0A
:1003C000002805D00021002C02D0641E0155FAE758
:1003D00010BD000070B5054C054D03E020682044B9
:1003E0008047241DAC42F9D170BD000004F3010820
:1003F00008F301082DE9F041074615460E46102086
:1004000011F06CFA04000AD06760C4E9026500F0DC
:1004100017FA0168216004600020BDE8F081012026
:10042000FBE72DE9FE4F804681EA0300C00F0C4632
:10043000009021F0004123F00045B8EB0200A941F3
:1004400005D24046214690461C460B46024623F004
:100450000040104347D0270DC7F30A00C3F30A51E9
:100460000290401A019040286BDAC3F3130040F465
:10047000801B0098924620B10023D2EB030A63EB65
:100480000B0B01985946C0F14002504600F0A7F905
:1004900006460D4650465946019A00F0BFF910EB4A
:1004A00008006141002487EA115284EAE7731A4385
:1004B00040D0009A62B3019A012A4FEA075215DC34
:1004C000001B61EB02014FF0004202EA0752CDE946
:1004D0000042001C41F5801132462B4600F01BFA09
:1004E00003B0BDE8F08F40462146F9E7001B61EB01
:1004F0000201001C41F5801300185B412018A2F591
:10050000001747EB030140EAD570B6196D4111E0C1
:100510006D084FEA360645EAC0754FEA0752001BE0
:1005200061EB0201001C41F5801149084FEA3000DF
:100530000019514132462B4603B0BDE8F04F00F0A0
:10054000DBB90098012240000023D0EB020263EBEC
:10055000E073009821464FEAE074B8EB000061EBCD
:100560000401E9E783F000435BE781F0004158E7CD
:100570002DE9FE4F81EA030404F0004421F000411C
:1005800000944FF0000B23F0004350EA01045ED0CA
:1005900052EA03045BD0C3F30A54C1F30A552C4456
:1005A000A4F2F3340194A0FB0254C1F3130141F40B
:1005B0008011C3F3130343F4801301FB024400FBD7
:1005C000034E840A970A44EA815447EA8357A4FBFE
:1005D000076802958D0A05FB07854FEA932C04FBFB
:1005E0000C542705029D4FEA065847EA1637B5EB2B
:1005F00008056EEB070C870E920E47EA811742EA58
:100600008312A7FB0201B6EB0B0164EB00042B0D78
:1006100043EA0C335E1844EB1C50DA465146E7FBC4
:100620000201C5F313044FEA0B3343EA14534FEAB4
:100630000432019C43EA0603A4F10C040294009CDA
:10064000CDE900B400F067F903B0BDE8F08F0020F9
:100650000146F9E72DE9F04D81EA030404F0004B6F
:1006600021F0004514464FF0000A23F0004150EA03
:10067000050220D054EA01021DD0C5F30A570246F4
:10068000C5F31303C1F31300C1F30A5640F48015F8
:1006900043F48013A7EB0608101BD64608F2FD387A
:1006A00073EB050002D308F1010801E092185B41E9
:1006B000B8F1000F03DA00200146BDE8F08D0020FC
:1006C0004FF48011064684460EE0171B73EB0507B6
:1006D00005D3121B63EB050306434CEA010C4908E2
:1006E0004FEA300092185B4150EA0107EDD152EA1F
:1006F000030012D082EA040083EA0501084305D012
:10070000101BAB4106D20122002306E000224FF06D
:10071000004302E06FF0010253101AEB06004CEBAD
:10072000085110EB0A0041EB0B01BDE8F04D00F061
:10073000E3B80EB5C10F80EAE0700844CA07002193
:1007400040F233438DE80E000A460B4600F0E3F812
:1007500003B000BD00F0004230F000400AD0C10DEF
:1007600001F56071C0F3160042EA0151C20840076A
:100770001143704700200146704701F0004330B438
:1007800021F0004150EA010206D00A0DA2F5607284
:10079000C1F31301002A02DC30BC00207047440F73
:1007A00044EAC104C100E01830BC00EBC25000F0C4
:1007B0006CB830B50B46014600202022012409E028
:1007C00021FA02F59D4205D303FA02F5491B04FA0A
:1007D00002F52844151EA2F10102F1DC30BD202AE9
:1007E00004DB203A00FA02F1002070479140C2F188
:1007F000200320FA03F3194390407047202A04DBBA
:10080000203A21FA02F00021704721FA02F3D04089
:10081000C2F120029140084319467047202A06DBA6
:10082000CB17203A41FA02F043EAE07306E041FABE
:1008300002F3D040C2F120029140084319467047AC
:10084000004870474C0800202DE9F0410646FFF7AC
:10085000F7FF8046454613E016B1E068B0420ED17E
:1008600020682860D4E90101D8F800708847204644
:100870000FF046F9D8F80000B842EBD100E0254669
:100880002C68002CE8D1BDE8F0810029A8BF704792
:10089000401C490008BF20F00100704710B4B0FAB6
:1008A00080FC00FA0CF050EA010404BF10BC704751
:1008B00049B1CCF1200421FA04F411FA0CF118BF6B
:1008C000012121430843A3EB0C01CB1D4FEA00613A
:1008D0004FEA102042BF002010BC704700EBC3500D
:1008E00010440029A4BF10BC7047401C490008BF39
:1008F00020F0010010BC704710B5141E73F1000405
:1009000008DA401C41F1000192185B411A4301D101
:1009100020F0010010BD2DE9F04D92469B4611B12B
:10092000B1FA81F202E0B0FA80F220329046FFF78D
:1009300056FF04460F4640EA0A0041EA0B015346BF
:100940005A46084313D0114653EA010019D0C8F1A2
:1009500040025046FFF752FF05460E4650465946A4
:100960004246FFF73CFF084305D0012004E0204643
:100970003946BDE8F08D0020054346EAE0762C4379
:1009800037430A986305E40AA0EB08000022FD0A39
:1009900044EA47540A3002D500200146E9E7010540
:1009A00010196941DDE9084500196941BDE8F04DBC
:1009B000A2E7C1F30A52C1F3130140F2FF3341F43D
:1009C00080119A4202DA00200146704740F2334318
:1009D0009A42A2F2334202DC5242FFF70FBFFFF706
:1009E000FEBE000030B5041E71F1000404DB4FF0C0
:1009F0000044404264EB0101141E73F1000405DB66
:100A00001C464FF00043524263EB0403994208BF77
:100A1000904230BD064C074D06E0E06840F001030F
:100A200094E8070098471034AC42F6D3FFF7C2FBB6
:100A3000E4F2010804F30108704770B58C1810F84F
:100A4000015B15F0070301D110F8013B2A1106D113
:100A500010F8012B03E010F8016B01F8016B5B1E2D
:100A6000F9D12B0705D40023521E0DD401F8013B08
:100A7000FAE710F8013BCB1A921C03E013F8015B74
:100A800001F8015B521EF9D5A142D8D3002070BDF8
:100A900000BFFEE700B58BB0012009900020069052
:100AA000079001200890002005900190029003908B
:100AB000049001A90D4800F043FC08B100F02AFBA6
:100AC0000A4800F02BF8094800F01AF8074801F02E
:100AD00002F808B100F01EFB0221044800F070FB90
:100AE00008B100F017FB0BB000BD0000500800205B
:100AF00010B5024800F074FD10BD00005008002041
:100B00001221054A11605160082111610021916094
:100B1000D160916151617047580A002010B50446B8
:100B2000122007490860486008200861002088609A
:100B3000C8600875034B044A204600F056FB10BD00
:100B4000400A00204C0000203C00002010B52DED94
:100B5000028B04461D480088401C1C49088008463A
:100B600000880A2190FBF1F201FB120000282AD133
:100B7000174805F0B1FA1648B0F90430B0F9022070
:100B8000B0F9001013A00BF0F5F8174805F0C4FAFF
:100B90001548B0F90430B0F90220B0F9001013A0E4
:100BA0000BF0E8F8164805F0FFFA15480068FFF763
:100BB000D1FD41EC180B53EC182B12A00BF0DAF816
:100BC0001448FFF7ABFFBDEC028B10BD28000020DE
:100BD00018000020BCD3CBD9B6C8A3BA25386425E9
:100BE00038642538640D0A001E000020CDD3C2DD14
:100BF000D2C72538642538642538640D0A00000002
:100C000024000020CEC2B6C825382E3266A1E60DDB
:100C10000A0D0A005008002010B5024800F0FAFF43
:100C200010BD000064090020014608781038182320
:100C3000B0FBF3F20848805CC865032A05D9086850
:100C40006FF30900001D886503E008686FF3090071
:100C50008865886D704700000CEE01080146002091
:100C60008A6A8B69CBB932B1012A0DD0022A03D02E
:100C7000032A10D10EE000BFCB6A03F08073B3F1FA
:100C8000807F00D1012007E0CB6AB3F1C07F00D1A3
:100C9000012001E000E000BF34E08B69B3F5005FA4
:100CA0001AD132B1012A07D0022A03D0032A11D166
:100CB0000AE000BF01200EE0CB6A03F08073B3F1BD
:100CC000807F00D1012006E0CB6AB3F1C07F00D164
:100CD000012000E000BF15E032B1012A05D0022A50
:100CE00004D0032A0CD103E000BF00BF012008E0BC
:100CF000CB6A03F08073B3F1807F00D1012000E064
:100D000000BF00BF704730B50468246824F4802415
:100D100005682C60046863608468402C04D1046812
:100D2000A2600468E16003E00468A1600468E26016
:100D300030BD7047016801F58051896921F00202D8
:100D4000016801F580518A617047016801F58051A1
:100D5000896941F00202016801F580518A6170479A
:100D6000016801F58051896921F40052016801F59B
:100D700080518A617047016801F58051896941F4A9
:100D80000052016801F580518A61704708B5084931
:100D90000968C9084FF47A72B1FBF2F1414300913E
:100DA00000BF00BF00994A1E00920029F9D108BD7A
:100DB0003800002038B5044600200090206800F577
:100DC0008050806940F48011206800F58050816176
:100DD000206800F58050806900900120FFF7D6FF61
:100DE0000099206800F58050816138BD10B5024837
:100DF00001F08AFA10BD0000144B002030B5034604
:100E00001479557944EA0520084C0C442064D478C0
:100E10002406957844EA0544557844EA0524157873
:100E200044EA0500014C0C44606430BD008002407F
:100E300070B5AEB004460E46002526B14FF40061F1
:100E4000E160C900A16000201190129013901490ED
:100E500015901690E06918B94FF48060179001E082
:100E6000002017904FF400701890002019901A90ED
:100E70001B901C901D9040201E9000201F902090E1
:100E800021902290239024902590269080202790D6
:100E90000020289029902A902B902C902D9020684B
:100EA000056871480540DDE91101084313990843BD
:100EB00014990843A16808431599084316990843F3
:100EC000E16808431799084318990843199908439A
:100ED0001A9908431B990843054320680560206858
:100EE0000568012001F076F820680560DDE91C0145
:100EF00008431E9908431F990843209908432199E4
:100F000008432299084323990843216848602068D0
:100F10004568012001F05EF820684560249821684A
:100F2000886025982168C860206885694FF64170FF
:100F30000540DDE9261040EA014028990843299937
:100F400008432A9908432B99084305432068856183
:100F500020688569012001F03DF820688561DDE9A0
:100F60002C0108432168C8612068C569012001F08F
:100F700031F82068C561002001904FF000700290A8
:100F8000002003904FF4001004900020059006907C
:100F90000790089004200990C0050A9040120B9019
:100FA00080010C9040120D9080200E9000200F9038
:100FB0001090206800F5805085692C480540DDE9D7
:100FC000010108430399084304990843059908431C
:100FD0000699084307990843089908430999084363
:100FE0000543206800F580508561206800F5805039
:100FF0008569012000F0EEFF206800F580508561D2
:10100000DDE90A0108430C9908430D9908430E993C
:1010100008430F9940EA81001099084340F4000109
:10102000206800F580500160206800F58050056858
:10103000012000F0CFFF206800F580500560A06916
:10104000012809D1206800F58050C069084908438B
:10105000216801F58051C861002120466269FFF7CF
:10106000CDFE2EB070BD00000F8120FF233FDEF8C3
:101070004000010038B50446002000902068006858
:1010800020F00400216808602068006800900120BA
:10109000FFF77CFE00982168086038BD38B504462B
:1010A000002000902068006840F00400216808607B
:1010B0002068006800900120FFF768FE0098216812
:1010C000086038BD38B504460020009020680068EC
:1010D00020F0080021680860206800680090012066
:1010E000FFF754FE00982168086038BD38B5044603
:1010F000002000902068006840F008002168086027
:101100002068006800900120FFF740FE00982168E9
:10111000086038BD704730B504460D4600222946A8
:10112000204600F001F830BDF0B50346012500244B
:101130001148407A01281CDA00200F4E767A0E4FB3
:10114000B8553846467A001D40F82630001F467ACA
:10115000083082553E46707A461C7E72044604F181
:10116000300008703A2048702F2088700020C87026
:1011700000252846F0BD00008400012010B50EF0C7
:10118000AFFA0BF07DFE14F041F910BD70B50A48BE
:101190000468001D0568001D0668344454B1082227
:1011A0000649204604F0AAFD0422044910312846CD
:1011B00004F0A4FD70BD0000107AFF1F5202002051
:1011C00010B5024692F82030012B01D0022B06D137
:1011D00010684069084314686061002010BD506ABF
:1011E00040F4802050620120F8E7F0B504460D4637
:1011F0001E4694F8207020688368A86800B900E053
:1012000000BF012F01D0022F7CD103F0806030B9E4
:1012100003F0006018B903F08050002873D0C3F3C6
:101220000161022905D9606A40F400006062012072
:10123000F0BD012088403060A86860B9B5F800C0F2
:10124000E86840EA4C5C206800F5C07000EB0110D3
:10125000C0F800C00FE0D5E901C040EACC00D5F8E5
:101260000CC040EA0C00D4F800C00CF5C07C0CEBBC
:10127000011CCCF80000D5F810C0206800F5C07043
:1012800000EB0110C0F804C0287D01280ED12068B1
:1012900000F5C07000EB0110406840F4807C2068CD
:1012A00000F5C07000EB0110C0F804C0D079000652
:1012B00092F806C040EA0C4092F805C040EA0C2CB7
:1012C00010794CEA000C206800F5C07000EB0110AA
:1012D000C0F80CC0D078000692F802C040EA0C407A
:1012E00092F801C040EA0C2092F800C040EA0C00DD
:1012F000D4F800C00CF5C07C0CEB011CCCF8080045
:10130000206801E016E00FE000F5C07000EB01106E
:10131000006840F0010C206800F5C07000EB01107F
:10132000C0F800C0002083E7606A40F400106062EB
:1013300001207DE7606A40F480206062012077E749
:10134000F0B504460A46216894F82050012D01D0DA
:10135000022D7ED1424901F50071086840F001007C
:101360000860086820F47C5008600868566A40EA03
:1013700006200860107D00F01F06012000FA06F329
:10138000C8699843C861A1F50071D069C8B9D1F89E
:101390000C029843C1F80C02908880B2968940EA0A
:1013A000064601F51070576940F83760108880B222
:1013B000168940EA064601F51070576900EBC70030
:1013C0004660D069012819D1D1F80C021843C1F840
:1013D0000C02908880B2168840EA064601F510702B
:1013E000576940F83760908980B2168940EA06460E
:1013F00001F51070576900EBC7004660906928B985
:10140000D1F804029843C1F8040204E0D1F80402C0
:101410001843C1F80402106928B9D1F8140298439E
:10142000C1F8140204E0D1F814021843C1F8140200
:10143000106A012804D1D1F81C021843C1F81C021B
:10144000D1F8000220F00100C1F800020020F0BD38
:10145000FFE7606A40F4802060620120F7E7000047
:1014600000640040704770B5044694F82050012D88
:1014700001D0022D7DD151B92068C06800F0030071
:1014800080B9606A40F400106062012070BD20687D
:10149000006900F0030028B9606A40F4001060623F
:1014A0000120F3E7206800F5D87000EB0110006818
:1014B00000F004009060906840B9206800F5D87092
:1014C00000EB01100068400D106007E0206800F597
:1014D000D87000EB01100068C0085060206800F56B
:1014E000D87000EB0110006800F00200D0602068A6
:1014F00000F5D87000EB0110406800F00F0010619B
:10150000206800F5D87000EB0110406800F47F40BF
:10151000000A9061206800F5D87000EB0110406867
:10152000000C5061206800F5D87000EB0110806855
:101530001870206800F5D87000EB0110806800F486
:101540007F40000A5870206800F5D87000EB011049
:10155000806800F47F00000C9870206800F5D87057
:1015600000EB01108068000ED870206800F5D8707C
:1015700000E02FE000EB0110C0681871206800F552
:10158000D87000EB0110C06800F47F40000A587169
:10159000206800F5D87000EB0110C06800F47F00EF
:1015A000000C9871206800F5D87000EB0110C0683D
:1015B000000ED87131B92068C06840F0200026685C
:1015C000F06005E02068006940F020002668306186
:1015D00000205BE7606A40F480206062012055E7EC
:1015E0002DE9F05F04460025206846692068D0F8A0
:1015F0000490206887682068D0F80CA02068D0F894
:1016000010B02068D0F8188006F00100002855D0EE
:1016100007F00100C0B101202168886007F00200D6
:1016200018B1204600F087FA0EE007F0040010B170
:1016300045F4006508E007F0080010B145F4805556
:1016400002E0204600F076FA07F48070C8B14FF44B
:1016500080702168886007F4007018B1204600F09F
:101660006CFA0EE007F4806010B145F4005508E014
:1016700007F4006010B145F4804502E0204600F018
:101680005BFA07F48030C8B14FF48030216888607D
:1016900007F4003018B1204600F051FA0EE007F4CC
:1016A000802010B145F4004508E007F4002010B197
:1016B00045F4803502E0204600F040FA06F00800CC
:1016C00038B10AF0100020B145F4007510202168EF
:1016D000C86006F0040040B10AF0080028B10820F4
:1016E0002168C860204600F0A9F906F0020038B170
:1016F0002068C06800F0030010B1204600F0A0F997
:1017000006F0400038B10BF0100020B145F48065C0
:1017100010202168086106F0200040B10BF008009D
:1017200028B1082021680861204600F0D1F906F0B0
:10173000100038B12068006900F0030010B12046A5
:1017400000F0C7F906F4003040B109F0100028B1EC
:10175000102021684860204600F0BCF906F4803073
:1017600040B109F0080028B10820216848602046EF
:1017700000F0E6F906F4004088B309F0040078B3FD
:1017800006F4807020B108F0010008B145F00105B1
:1017900006F4007020B108F0020008B145F002051F
:1017A00006F4806020B108F0040008B145F004059B
:1017B00006F40060A0B108F0700088B108F0700075
:1017C000402817D006DC10280BD020280CD0302859
:1017D00019D10CE0502810D0602814D110E01DE081
:1017E00019E045F008050FE045F010050CE045F064
:1017F000200509E045F0400506E045F0800503E0DE
:1018000045F4807500E000BF00BF2068806920F0CB
:101810007000216888610420216848602DB1606AE9
:10182000284360622046FFF71DFEBDE8F09F70B5BB
:1018300004460CB9012070BD94F8200010B9204670
:1018400000F0B0F82068006820F00200216808600D
:1018500001F030FB05460DE001F02CFB401B0A288F
:1018600008D9606A40F400306062052084F82000E6
:101870000120E0E72068406800F002000028EBD17A
:101880002068006840F001002168086001F012FB48
:1018900005460DE001F00EFB401B0A2808D9606ADE
:1018A00040F400306062052084F820000120C2E787
:1018B0002068406800F001000028EBD0207E01285D
:1018C00006D12068006840F080002168086005E0CB
:1018D0002068006820F0800021680860607E012890
:1018E00006D12068006840F040002168086005E0EB
:1018F0002068006820F0400021680860A07E012870
:1019000006D12068006840F020002168086005E0EA
:101910002068006820F0200021680860E07E01282F
:1019200006D12068006820F010002168086005E0FA
:101930002068006840F0100021680860207F0128BE
:1019400006D12068006840F008002168086005E0C2
:101950002068006820F0080021680860607F012886
:1019600006D12068006840F004002168086005E0A6
:101970002068006820F0040021680860D4E90201B2
:10198000084321690843616908436168491E0843A7
:101990002168C86100206062012084F820000020D6
:1019A00049E7000010B586B00446142101A8FEF7EF
:1019B000EAFC1F492068884238D100BF002000900F
:1019C0001C48006840F000701A490860084600682A
:1019D00000F00070009000BF00BF00BF002000902A
:1019E00014481038006840F00200124910390860AD
:1019F0000846006800F00200009000BF00BF4FF4EE
:101A00004070019002200290002003900320049077
:101A10000920059001A9084801F030F900220621AB
:101A2000142001F0B1FF142001F09EFF06B010BD9C
:101A3000006400404038024000040240704700004B
:101A400010B586B0044616492068884226D1154B49
:101A5000154A00212046FFF706FD1348406812286A
:101A60001CD111488068C8B90F480069082815D1F1
:101A70000C48C0790B4989790A4A5279094B1B797C
:101A8000CDE90132CDE903100648C0780090054841
:101A900083784278017805A00AF06CF906B010BD91
:101AA0000064004044000020580A0020526563652D
:101AB000697665206D657373616765202578257883
:101AC0002578257825782578257825780D0A000051
:101AD00070477047704770B5044694F8200001289D
:101AE00022D1022084F820002068006820F0010044
:101AF0002168086001F0DEF905460DE001F0DAF931
:101B0000401B0A2808D9606A40F400306062052052
:101B100084F82000012070BD2068406800F00100BA
:101B20000028EBD16062F6E7606A40F40020606252
:101B30000120F0E770477047704770477047704763
:101B4000704770B50446A56D01F0B4F9064694F8E7
:101B50003500022808D08020606500BF002084F88E
:101B6000340000BF012070BD2068006820F016001E
:101B7000216808602068406920F080002168486181
:101B8000206C08B9A06C28B12068006820F008001B
:101B9000216808602068006820F001002168086062
:101BA0000FE001F087F9801B05280AD92020606525
:101BB00000BF002084F8340000BF032084F8350003
:101BC000D1E72068006800F001000028E9D194F80E
:101BD0005C103F208840A86000BF002084F83400DB
:101BE00000BF012084F835000020BCE7014691F8D1
:101BF0003500022803D08020486501207047052069
:101C000081F835000868006820F001000A6810605B
:101C10000020F3E7F8B50446002000908C480068E7
:101C20004FF41651B0FBF1F7A56D2E6894F85C10D7
:101C300008208840304098B12068006800F0040017
:101C400070B12068006820F004002168086094F8F2
:101C50005C1008208840A860606D40F0010060655D
:101C600094F85C1001208840304068B120684069D9
:101C700000F0800040B194F85C1001208840A8601A
:101C8000606D40F00200606594F85C1004208840AC
:101C9000304068B12068006800F0020040B194F85C
:101CA0005C1004208840A860606D40F0040060650E
:101CB00094F85C1010208840304078B320680068A9
:101CC00000F0080050B394F85C1010208840A86021
:101CD0002068006800F4802080B12068006800F46B
:101CE000002028B9206CC8B12046216C884715E037
:101CF000A06C98B12046A16C88470FE0206800686E
:101D000000F4807028B92068006820F0080021687D
:101D10000860206C10B12046216C884794F85C1054
:101D2000202088403040002865D02068006800F0FE
:101D3000100000285FD094F85C1020208840A86034
:101D400094F83500052828D12068006820F0160096
:101D5000216808602068406920F08000216848619F
:101D6000206C08B9A06C28B12068006820F0080039
:101D70002168086094F85C103F208840A86000BF8C
:101D8000002084F8340000BF012084F83500206D65
:101D900010B12046216D8847F8BD2068006800F426
:101DA000802080B12068006800F4002028B9606CB1
:101DB00010B12046616C88471DE0E06BD8B1204629
:101DC000E16B884717E02068006800F4807068B90C
:101DD0002068006820F010002168086000BF002023
:101DE00084F8340000BF012084F83500E06B10B1A6
:101DF0002046E16B8847606D38B3606D00F00100EC
:101E0000F0B1052084F835002068006820F001005A
:101E10002168086000BF0098401C0090B84200D9BB
:101E200005E02068006800F001000028F3D100BF41
:101E300000BF002084F8340000BF012084F8350082
:101E4000E06C10B12046E16C884700BFA4E70000B9
:101E5000380000202DE9F0410446002501F02AF861
:101E6000074614B90120BDE8F081606A00B100BFE7
:101E700000BF002084F8340000BF022084F8350041
:101E80002068006820F00100216808600AE001F085
:101E900011F8C01B052805D920206065032084F8AF
:101EA0003500E0E72068006800F001000028EED16E
:101EB0002068056821480540D4E901010843E1682C
:101EC00008432169084361690843A1690843E1693E
:101ED0000843216A08430543606A042803D1D4E912
:101EE0000B0108430543206805602068456925F01B
:101EF0000705606A0543606A04280DD1A06A05439E
:101F0000E06A48B12046FEF7A9FE28B1402060658E
:101F1000012084F83500A6E7206845612046FEF7D9
:101F200083FE064694F85C103F208840B060002095
:101F30006065012084F83500002094E73F8010F0B0
:101F40002DE9F04704460D4616461F464FF000089F
:101F5000D4F8589000BF94F83400012802D1022030
:101F6000BDE8F087012084F8340000BF94F8350004
:101F7000012825D1022084F83500002060653B4609
:101F8000324629462046FEF7BEFE94F85C103F20FC
:101F90008840C9F808002068006840F016002168F1
:101FA0000860206C28B12068006840F008002168B3
:101FB00008602068006840F001002168086006E0C1
:101FC00000BF002084F8340000BF4FF002084046F4
:101FD000C6E7000070B5044600F06CFF06462546D3
:101FE000681C10B104480078054400BF00F062FF8F
:101FF000801BA842FAD370BD3400002070B505469E
:102000000C46002600BF95F84500012801D10220AA
:1020100070BD012085F8450000BF022085F844000E
:10202000002C6DD02868066843480640D4E90001BA
:102030000843A1680843E1680843A9680843216987
:10204000084361690843E9680843A1690843E169F5
:102050000843216A0843616A0843A16A08430643AA
:1020600028680660286806680120FFF7B3FF286823
:102070000660D4E90B010843616B0843A16B084378
:10208000E16B0843216C0843616C0843A16C084371
:1020900029684860286846680120FFF79BFF286888
:1020A0004660E06C29688860206D2968C8602868EF
:1020B00086694FF641700640B4F85410A06D40EAAE
:1020C0000140E16D0843216E0843616E0843A16E33
:1020D0000843064328688661286886690120FFF75F
:1020E00079FF28688661D4E91B0108432968C86123
:1020F0002868C6690120FFF76DFF2868C66110E0F7
:102100002868066826F49046D5E90201084306438C
:1021100028680660286806680120FFF75BFF2868CA
:102120000660012085F8440000BF002085F84500C6
:1021300000BF00BF6CE700000F8120FF70B50446B0
:102140000D461646002200BF94F84500012801D133
:10215000022070BD012084F8450000BF022084F8F1
:102160004400A56200221FE005EB42114FF0004041
:10217000086044F2F4504860C2EBC21000EB40002B
:1021800006EB80008860A069012803D1486820F030
:1021900000404860581E904204D905EB42102030A0
:1021A000C86000E0CD60521C9A42DDD3206800F583
:1021B0008050C560012084F8440000BF002084F8EE
:1021C000450000BF00BFC4E770B504460D46164683
:1021D000002200BF94F84500012801D1022070BD03
:1021E000012084F8450000BF022084F84400E56225
:1021F00000221BE005EB42114FF480100860C2EB97
:10220000C21000EB400006EB80008860E06918B95E
:10221000086840F440000860581E904204D905EB5D
:1022200042102030C86000E0CD60521C9A42E1D3D9
:10223000206800F580500561012084F8440000BF4B
:10224000002084F8450000BF00BFC8E77047014682
:10225000002200BF91F84500012801D102207047FB
:10226000012081F8450000BF022081F844003AE0D7
:10227000521C886A006800F44070B0F5007F07D1F6
:10228000886A086301238B63886AC06888622AE0D1
:10229000886A006800F4407030B9886B401C88631D
:1022A000886AC06888621EE08B6A4B63886B401C3A
:1022B0008863886B012801D1886A0863886A00688E
:1022C000C0F30D40001FC863086B83680B64886A05
:1022D000C0688862012081F8440000BF002081F8B6
:1022E000450000BFBBE7886A006800F0004008B9FD
:1022F000042ABDD3012081F8440000BF002081F8EA
:10230000450000BF0120AAE710B50446206800F58B
:102310008050406900F0400040280FD1204600F076
:10232000A9FA4021206800F580504161012084F81D
:10233000440000BF002084F8450016E0206800F546
:102340008050406900F0010078B1204600F08DFB1C
:102350000121206800F580504161012084F844008B
:1023600000BF002084F8450000BF4FF48031206892
:1023700000F580504161206800F58050406900F40C
:102380000040B0F5004F10D12046FFF75FFF4FF43B
:102390000041206800F580504161012084F844002C
:1023A00000BF002084F8450000BF10BD2DE9FC41AE
:1023B00004460025002001909D4E0027804614B958
:1023C0000120BDE8FC8194F8440028B9002084F87D
:1023D0004500204600F03AF900BF002000909548E3
:1023E000006840F48040934908600846006800F4A3
:1023F0008040009000BF00BF8F48006820F40000BC
:102400008D49086008460068216A08438A490860C7
:10241000206800F58050006840F00101206800F558
:102420008050016000F046FD07460FE000F042FDDD
:10243000C01BB0F5FA7F09D9032084F8440000BF1F
:10244000002084F8450000BF0320BAE7206800F5AB
:102450008050006800F001000028E7D1206805697D
:1024600025F01C0502F0ECF906467448864205D3B7
:102470007348864202D245F008051AE07048864249
:1024800005D36B48864202D245F00C0511E068483E
:10249000864203D36B48864200D20AE069488642EE
:1024A00005D36948864202D245F0040501E045F0B3
:1024B0001005206805614FF400420021204600F01D
:1024C000D5FA48B14FF0010841462046FEF7B0FC6E
:1024D000012084F8440074E7FF20FFF77BFD60686B
:1024E000002871D000F0E6FC074600BF01AA0121D8
:1024F000204600F075F900F0DDFCC01B41F2883188
:1025000088420FD94FF0010841462046FEF790FC63
:10251000012084F8440000BF002084F8450000BF7B
:1025200003204EE7019800F004000428DED1820267
:102530000021204600F09AFA48B14FF001084146C8
:102540002046FEF775FC012084F8440039E700F0CE
:10255000B1FC074600BF01AA0121204600F040F966
:1025600000F0A8FCC01B41F2883188420FD94FF01F
:10257000010841462046FEF75BFC012084F8440038
:1025800000BF002084F8450000BF032019E7019830
:1025900000F020002028DED101AA1021204600F002
:1025A0001FF948B14FF0010841462046FEF740FCB4
:1025B000012084F8440004E7019800F0040020B1F1
:1025C0004FF40061E16002E00DE00021E16001985C
:1025D00000F00200022802D10021A1601EE04FF4A9
:1025E0008041A1601AE0E068C0F3CF00A168C1F3A8
:1025F0004F0140EA01020021204600F037FA48B1BD
:102600004FF0010841462046FEF712FC012084F8F5
:102610004400D6E640F6FF70FFF7DCFC414620465A
:10262000FEF706FC012084F844000020C9E6000003
:10263000008793034438024004380140002D3101E3
:10264000C00E160200E1F50580D1F00810B586B085
:102650000446142101A8FDF796FE5B4920688842D4
:102660007ED100BF00BF002000905848006840F0B5
:102670000070564908600846006800F0007000903D
:1026800000BF00BF00BF002000900846006840F077
:10269000806008600846006800F08060009000BF1D
:1026A00000BF00BF002000900846006840F00060B6
:1026B00008600846006800F00060009000BF00BF9E
:1026C00000BF00BF002000900846006840F04000B6
:1026D00008600846006800F04000009000BF00BF9E
:1026E00000BF002000900846006840F00400086029
:1026F0000846006800F00400009000BF00BF00BF63
:10270000002000900846006840F00100086008467C
:10271000006800F00100009000BF00BF00BF002073
:1027200000900846006840F0020008600846006813
:1027300000F00200009000BF00BF4FF4C0400190C5
:102740000220029000200390032004900B200590AB
:1027500001A91F4800F092FA32200190022000E007
:102760002FE0029000200390032004900B2005909E
:1027700001A9184800F082FA8620019002200290F8
:1027800000200390032004900B20059001A912481B
:1027900000F074FA4FF400600190022002900020D3
:1027A0000390032004900B20059001A90B4800F032
:1027B00065FA002206213D2001F0E6F83D2001F0F7
:1027C000D3F806B010BD000000800240303802404F
:1027D00000180240000802400000024000040240CD
:1027E0002DE9F04104460E4617460025A84694F808
:1027F0004400822802D10220BDE8F081822084F8C2
:1028000044002068056905F01C05208A4FF47841D2
:1028100001EAC0200543481100EA8610054325F06F
:10282000020545F001052068056100F043FB804684
:1028300012E000F03FFBA0EB0800B0F5803F09D3A9
:10284000012084F8440000BF002084F8450000BF48
:102850000320D1E72068056905F001000028E8D1D0
:102860002068406980B23860012084F8440000206C
:10287000C2E7000010B504460248006810F0FAFCF8
:1028800010BD00006000002010B5044600BF94F8A1
:102890004500012801D1022010BD012084F8450027
:1028A00000BF022084F844002046FEF71FFC2046AB
:1028B000FEF7F4FB2046FEF77DFA2046FEF75BFAB2
:1028C0002046FEF742FA012084F8440000BF0020B1
:1028D00084F8450000BF00BFDEE710B5044600BF26
:1028E00094F84500012801D1022010BD012084F890
:1028F000450000BF022084F844002046FEF730FA6D
:102900002046FEF717FA2046FEF7B4FB2046FEF7F6
:1029100051FA2046FEF7D6FB012084F8440000BFA0
:10292000002084F8450000BF00BFDEE770B5024616
:1029300000230025002400BF92F84500012801D1A2
:10294000022070BD012082F8450000BF022082F8FD
:10295000440049B9012082F8440000BF002082F8F9
:10296000450000BF0120ECE7D06A006800F000409D
:1029700048B1122082F8440000BF002082F84500D0
:1029800000BF0120DDE740F2F450814208D9B1FBDD
:10299000F0F3B1FBF0F600FB161010B15B1C00E089
:1029A0000123012B13D1D06A006840F04050D66A51
:1029B0003060C1F30C00D66A7060D06A006840F0E5
:1029C0000040D66A3060D06AC068D06232E000242D
:1029D0002EE0D06A006820F04050D66A30602CB9F2
:1029E000D06A006840F08050D66A306040F2F450FF
:1029F000D66A7060581EA04210D1D06A006840F0BC
:102A00000050D66A3060581EC0EBC01000EB40008A
:102A1000A1EB8005C5F30C00D66A7060D06A00682F
:102A200040F00040D66A3060D06AC068D062641C52
:102A30009C42CED3106800F58050406900F004003D
:102A400048B10426106800F58050466100261068E1
:102A500000F580504660012082F8440000BF00204D
:102A600082F8450000BF00BF6BE770472DE9F041D9
:102A700004460E4617460025A84694F8440042280E
:102A800002D10220BDE8F081422084F84400206891
:102A9000056905F01C05208A4FF4784101EAC02041
:102AA0000543481100EA8610054345F0020545F04C
:102AB0000105B8B2216848612068056100F0FAF9A3
:102AC000804612E000F0F6F9A0EB0800B0F5803F78
:102AD00009D3012084F8440000BF002084F8450099
:102AE00000BF0320CEE72068056905F0010000283B
:102AF000E8D1012084F844000020C3E7F0B50C467B
:102B000000250022002300219CE0012606FA01F5A1
:102B100004EA0502AA427CD14C4E8F0856F82730B1
:102B20008E07370F0F26BE403340494EB04201D1C9
:102B300000262DE0474EB04201D1012628E0464E46
:102B4000B04201D1022623E0444EB04201D1032617
:102B50001EE0434EB04201D1042619E0414EB0427E
:102B600001D1052614E0404EB04201D106260FE007
:102B70003E4EB04201D107260AE03D4EB04201D19F
:102B8000082605E03B4EB04201D1092600E00A26A6
:102B90008F073F0FBE409E4222D1374E3668964384
:102BA000354F3E603E1D366896433F1D3E603E1DDC
:102BB000366896433F1D3E603E1D366896433F1D76
:102BC0003E608E07370F0F2606FA07F31F4E8F0859
:102BD00056F827609E431D4F4FEA910C47F82C6032
:102BE00006684FEA410C032707FA0CF7BE4306605C
:102BF000CF0800F1200656F827604F074FEAD76C40
:102C00000F2707FA0CF7BE434FEAD10C00F120075B
:102C100000E016E047F82C60C6684FEA410C032735
:102C200007FA0CF7BE43C660476801268E40B743DB
:102C3000476086684FEA410C032707FA0CF7BE434A
:102C40008660491C1029FFF460AFF0BD08380140D0
:102C5000000002400004024000080240000C024054
:102C6000001002400014024000180240001C024004
:102C70000020024000240240003C0140F8B502461A
:102C80000B460025002400200021E6E0012606FA7C
:102C900001F51E6806EA0504AC4273D15E68012E98
:102CA00008D05E68022E05D05E68112E02D05E68E4
:102CB000122E13D190684F000326BE40B0434F0040
:102CC000DE68BE4030439060506801268E40B043BD
:102CD0001E79C6F300168E4030435060D0684F0016
:102CE0000326BE40B0434F009E68BE403043D060D4
:102CF0005E68022E02D05E68122E13D1CF0802F158
:102D0000200656F827004E07F70E0F26BE40B043A8
:102D10004F07FF0E1E69BE403043CF0802F1200668
:102D200046F8270010684F000326BE40B0431E79C6
:102D300006F003064F00BE40304310605E6806F0A8
:102D40008056B6F1805FA8D100BF00260096454EA0
:102D5000366846F48046434F3E603E46366806F489
:102D60008046009600BF00BF3F4E8F0856F82700F0
:102D70008E07370F0F26BE40B0433C4EB24202D101
:102D800000262EE068E03A4EB24201D1012628E04A
:102D9000384EB24201D1022623E0374EB24201D171
:102DA00003261EE0354EB24201D1042619E0344E0E
:102DB000B24201D1052614E0324EB24201D10626BC
:102DC0000FE0314EB24201D107260AE02F4EB24247
:102DD00001D1082605E02E4EB24201D1092600E0BD
:102DE0000A268F073F0FBE4030431F4E8F0846F81C
:102DF0002700284E3068A0435E6806F48036B6F59A
:102E0000803F00D12043234E3060361D3068A04300
:102E10005E6806F40036B6F5003F00D120431D4E33
:102E2000361D3060361D3068A0435E6806F480169B
:102E3000B6F5801F00D12043164E08363060361D8F
:102E40003068A0435E6806F40016B6F5001F00D196
:102E50002043104E0C363060491C1029FFF416AF89
:102E6000F8BD00004438024008380140000002402C
:102E70000004024000080240000C02400010024022
:102E80000014024000180240001C024000200240D2
:102E900000240240003C0140024613690B400BB184
:102EA000012000E0002070470AB1816101E00B04BD
:102EB0008361704701480068704700002C000020C3
:102EC000024692F83D0020281ED1242082F83D00C1
:102ED0001068006820F00100136818601068406AEC
:102EE00020F01000136858621068406A08431368A5
:102EF00058621068006840F00100136818602020D4
:102F000082F83D00002070470220FCE710B5024621
:102F10000B46002192F83D0020281DD1242082F884
:102F20003D001068006820F00100146820601068FF
:102F3000406A81B221F00F0141EA030081B21068BA
:102F400041621068006840F0010014682060202091
:102F500082F83D00002010BD0220FCE710B50446B9
:102F60000CB9012010BD242084F83D0020680068C1
:102F700020F0010021680860204600F001FC0020DC
:102F8000206484F83D00206384F83E0000BF84F88C
:102F90003C0000BF00BFE5E7014691F83D007047E7
:102FA00070B504460CB9012070BD94F83D0028B9F5
:102FB000002084F83C00204600F0FEFB242084F82A
:102FC0003D002068006820F001002168086020684A
:102FD000006840F40040216808602068006820F420
:102FE00000402168086001F031FC05465C496068DA
:102FF000884206D85B48854201D2012007E00020C4
:1030000005E05948854201D2012000E00020012856
:1030100000D1C9E75548B5FBF0F62068406820F0BC
:103020003F003043216848604D496068884201D8BC
:10303000701C07E04FF4967070434FF47A71B0FB48
:10304000F1F0401C2168096A21F03F010843216822
:10305000086243496068884214D8681E6168490064
:10306000B0FBF1F0401CC0F30B00042801D2042097
:103070003DE0681E61684900B0FBF1F0401CC0F300
:103080000B0034E0A06838B9681E616801EB4101AB
:10309000B0FBF1F0401C0AE0681E616801EBC10260
:1030A00002EB0111B0FBF1F0401C40F48040C0F392
:1030B0000B0008B901201AE0A06848B9681E6168D1
:1030C00001EB4101B0FBF1F0401CC0F30B000CE040
:1030D000681E616801EBC10202EB0111B0FBF1F067
:1030E000401CC0F30B0040F4804040F400402168D5
:1030F000C9694CF6FF72914308432168C861D4E95D
:10310000070108432168096821F0C00108432168CC
:103110000860D4E9031008432168896848F2FF3247
:103120009143084321688860D4E905010843216878
:10313000C96821F0FF0108432168C8602068006861
:1031400040F001002168086000202064202084F8FD
:103150003D000020206384F83E0000BF24E700000B
:10316000A086010080841E0000093D0040420F003F
:103170002DE9F84F04460F4690461E46FFF79AFE8B
:1031800005464FF0010994F83D0020287ED119230F
:10319000012263492046009502F092FC10B1022002
:1031A000BDE8F88F00BF94F83C00012801D102204F
:1031B000F6E7012084F83C0000BF2068006800F0BA
:1031C000010028B92068006840F00100216808600B
:1031D0002068006820F4006021680860242084F8DA
:1031E0003D00002020644F48E06200BF2068006876
:1031F00040F4807021680860334600224FF00111CE
:103200002046009502F05CFC58B12068006800F48C
:103210008070B0F5807F02D14FF4007020640320ED
:10322000BEE707F0FE0021680861FFF743FE054690
:1032300020684069C0F3400A20684069C0F3802BD1
:1032400010E0FFF737FE401BB04200D816B9A020AF
:1032500084F83D0020684069C0F3400A2068406956
:10326000C0F3802B94F83D00A02805D0BAF1000FE0
:1032700002D1BBF1000FE4D0202084F83D0020688B
:103280004069C0F3400028B3206800E045E00068D2
:1032900040F400702168086000BF002000902068A2
:1032A0004069009020688069009000BF00BF19232A
:1032B00001221B492046009502F002FC08B10120C2
:1032C0006EE7202084F83D0000BF002084F83C0019
:1032D00000BF65E72068006840F40070216808605E
:1032E0006FF4806021684861192301220C4920464F
:1032F000009502F0E5FB08B1012051E709F1010951
:10330000C145FFF473AF202084F83D0000BF0020CA
:1033100084F83C0000BF012042E7022040E70000A3
:10332000020010000000FFFF2DE9FC5F04460F467D
:1033300090469946DDE90CAB0E9EFFF7BBFD0546B6
:1033400094F83D00202870D119230122B04920466D
:10335000009502F0B5FB10B10220BDE8FC9F00BF54
:1033600094F83C00012801D10220F6E7012084F8FE
:103370003C0000BF2068006800F0010028B9206808
:10338000006840F00100216808602068006820F4AF
:10339000006021680860222084F83D00402084F805
:1033A0003E0000202064C4F824A0A4F82AB0608D58
:1033B00020859848E0624B46424639462046CDE992
:1033C000006502F02FFA08B10120C6E7208D88B908
:1033D00000BF00200190206840690190206880694A
:1033E000019000BF00BF2068006840F400702168B1
:1033F000086040E0208D012818D12068006820F482
:1034000080602168086000BF00200190206840694A
:10341000019020688069019000BF00BF20680068AB
:1034200040F400702168086025E0EFE0208D02285C
:1034300016D12068006820F4806021680860206848
:10344000006840F400602168086000BF002001901F
:1034500020684069019020688069019000BF0AE0FF
:1034600000BF0020019020684069019020688069B9
:10347000019000BF00BFBAE0208D03287ED8208DC8
:10348000012815D12A463146204602F0BEFB08B17C
:10349000012062E720680069616A0870606A401C68
:1034A0006062208D401E2085608D401E60859EE0FC
:1034B000208D02282AD13346002257492046009504
:1034C00002F0FEFA08B1012047E72068006840F4E6
:1034D00000702168086020680069616A0870606A8D
:1034E000401C6062208D401E2085608D401E6085DE
:1034F00020680069616A0870606A401C6062208D03
:10350000401E2085608D401E608570E0334600229D
:1035100041492046009502F0D3FA08B101201CE78A
:103520002068006820F480602168086020680069D5
:10353000616A0870606A401C6062208D401E2085B0
:10354000608D401E60853346002233492046009539
:1035500002F0B6FA08B10120FFE62068006840F4E6
:1035600000702168086020680069616A0870606AFC
:10357000401C6062208D401E208500E010E0608DC0
:10358000401E608520680069616A0870606A401C9E
:103590006062208D401E2085608D401E608526E083
:1035A0002A463146204602F030FB08B10120D4E61D
:1035B00020680069616A0870606A401C6062208D42
:1035C000401E2085608D401E608520684069C0F3E4
:1035D000800060B120680069616A0870606A401C00
:1035E0006062208D401E2085608D401E6085208D8C
:1035F00000287FF441AF202084F83D00002084F8AB
:103600003E0000BF84F83C0000BFA6E60220A4E60E
:10361000020010000000FFFF040001002DE9FC5F24
:1036200004460F4690469946DDE90CAB0E9EFFF727
:1036300041FC054694F83D0020287DD11923012244
:103640004D492046009502F03BFA10B10220BDE83A
:10365000FC9F00BF94F83C00012801D10220F6E74E
:10366000012084F83C0000BF2068006800F00100E1
:1036700028B92068006840F00100216808602068CF
:10368000006820F4006021680860212084F83D0073
:10369000402084F83E0000202064C4F824A0A4F850
:1036A0002AB0608D20853548E0624B464246394657
:1036B0002046CDE9006502F065F908B10120C6E7B2
:1036C00031E02A463146204602F0DFFA50B1206C44
:1036D000042805D12068006840F400702168086063
:1036E0000120B4E7606A007821680861606A401CC4
:1036F0006062208D401E2085608D401E60852068A0
:103700004069C0F3800070B1208D60B1606A0078BC
:1037100021680861606A401C6062208D401E20851F
:10372000608D401E6085208D0028CAD12A46314612
:10373000204602F097F900E01CE050B1206C04280C
:1037400005D12068006840F40070216808600120FD
:103750007DE72068006840F4007021680860202040
:1037600084F83D00002084F83E0000BF84F83C004F
:1037700000BF6CE702206AE7020010000000FFFFB4
:1037800010B504460949206888420DD108480068F0
:1037900020F400100649086080210648FFF7AEF9C2
:1037A00040210448FFF7AAF910BD00000054004072
:1037B000403802400004024010B586B0044614218F
:1037C00001A8FCF7E0FD1B49206888422FD100BF0B
:1037D000002000901848006840F002001649086078
:1037E0000846006800F00200009000BF00BFC02043
:1037F00001901220029001200390032004900420E5
:10380000059001A90D48FFF739FA00BF002000908C
:1038100009481030006840F4001007491031086072
:103820000846006800F40010009000BF00BF06B01A
:1038300010BD000000540040303802400004024037
:103840000348006803490978084401490860704743
:103850002C0000203400002010B50D48006840F412
:1038600000700B4908600846006840F480600860FA
:103870000846006840F480700860032000F0C2F839
:10388000002000F007F800F04BF8002010BD000009
:10389000003C024070B588B0044600250026002296
:1038A00021462D2000F070F82D2000F05DF800BFBB
:1038B000002001901648006840F4807014490860A8
:1038C0000846006800F48070019000BF00BF02A9A4
:1038D00003A800F093FF00F0B9FF45000D48B5FBC9
:1038E000F0F0461E0C480D49086040F2E7310B48E5
:1038F000C160466000210161816001F00EFC20B9C9
:10390000064801F025FC08B070BD0120FBE700006F
:103910004038024040420F0000200040C40900200F
:1039200008B500BF002000900E48006840F48040B9
:103930000C4908600846006800F48040009000BF11
:1039400000BF00BF00200090081F006840F08050BA
:10395000091F08600846006800F08050009000BF12
:1039600000BF08BD4438024001460846002809DB74
:1039700000F01F0301229A4043099B0003F1E0235A
:10398000C3F8002100BF70472DE9F05F80460D4667
:103990001646002708F0FEF9074639462A46334600
:1039A00001F00700C0F1070ABAF1040F02D94FF085
:1039B000040A01E0C0F1070AD14600F1040ABAF195
:1039C000070F02D24FF0000A01E0A0F1030AD4462B
:1039D0004FF0010A0AFA09FAAAF1010A0AEA020AF0
:1039E0000AFA0CFA4FF0010B0BFA0CFBABF1010BCE
:1039F0000BEA030B4AEA0B042146404608F0D2F9D1
:103A0000BDE8F09F00BF00F00702064B19684FF6B3
:103A1000FF031940044B0B4343EA0221014B196099
:103A200000BF70470CED00E00000FA057047024649
:103A30001068416200207047F0B5034615461868CB
:103A4000446A21B944EA05401E68B06219E018686A
:103A5000806A04EB1044002208E0186800F58270C8
:103A600050F8220004EB1044501CC2B2481E904291
:103A7000F3D844EA0547186800F582704E1E40F8F6
:103A800026700020F0BD10B50446D4F8040405F0FB
:103A9000BBFA10BD70B504460D46C5EBC50304F175
:103AA0003C0101EB8301CA682946D4F8040405F0FF
:103AB000EFF970BD70B504460D46C5EBC50304F5BE
:103AC000FE7101EB8301CA682946D4F8040405F0AD
:103AD00052FA70BD10B50446D4F8040405F097FA04
:103AE00010BD70B504460E4606F0800080280AD14D
:103AF00006F00F00C0EBC00104F13C0000EB8105B3
:103B00000120687009E006F00F00C0EBC00104F569
:103B1000FE7000EB81050020687006F00F00287031
:103B200000BF94F8BC03012801D1022070BD012020
:103B300084F8BC0300BF2946206806F0BFF800BF28
:103B4000002084F8BC0300BF00BFEFE770B5044657
:103B50000E4606F00F006168884201D9012070BD51
:103B600006F0800080280AD106F00F00C0EBC001EB
:103B700004F13C0000EB81050120687009E006F0CB
:103B80000F00C0EBC00104F5FE7000EB81050020C2
:103B900068700020A87006F00F00287000BF94F82D
:103BA000BC03012801D10220D9E7012084F8BC031D
:103BB00000BF2946206806F067FB00BF002084F89C
:103BC000BC0300BF00BFCAE770B504460D4600BF86
:103BD00094F8BC03012801D1022070BD012084F8B3
:103BE000BC0300BF05F08000802805D105F00F015F
:103BF000206806F09DFD02E0206806F083FD00BF0E
:103C0000002084F8BC0300BF00BFE6E7024601F0D5
:103C10000F00C0EBC00302F5FE7000EB830080696B
:103C200070472DE9F04705460E4690461F464FF077
:103C3000000906F0800080280AD106F00F00C0EBD2
:103C4000C00105F13C0000EB81040120607009E037
:103C500006F00F00C0EBC00105F5FE7000EB81041B
:103C60000020607006F00F002070C4F80880E77034
:103C7000607808B12078E080022F01D10020207107
:103C800000BF95F8BC03012802D10220BDE8F087EF
:103C9000012085F8BC0300BF2146286805F02AFFF3
:103CA00000BF002085F8BC0300BF4846EEE72DE9C1
:103CB000F04104460E461746984606F00F00C0EB4A
:103CC000C00104F5FE7000EB8105EF60C5F81480BB
:103CD0000020A861687006F00F0028702069012894
:103CE00000D12F6106F00F0028B9227C29462068F8
:103CF00006F0A6F904E0227C2946206806F058FB6D
:103D00000020BDE8F08170B504460D4605F00F00B7
:103D10006168884201D9012070BD05F080008028CB
:103D20000AD105F00F00C0EBC00104F13C0000EB2C
:103D300081060120707007E0C5EBC50104F5FE7037
:103D400000EB8106002070700120B07005F00F00BC
:103D5000307000BF94F8BC03012801D10220DBE7DA
:103D6000012084F8BC0300BF3146206806F0D3FA76
:103D700005F00F0028B9217C04F57172206806F067
:103D80004BFA00BF002084F8BC0300BF00BFC3E7AC
:103D90002DE9F04104460E461746984606F00F00FE
:103DA000C0EBC00104F13C0000EB8105EF60C5F8F9
:103DB00014800020A8610120687006F00F002870B0
:103DC0002069012800D12F6106F00F0028B9227C5C
:103DD0002946206806F034F904E0227C2946206850
:103DE00006F0E6FA0020BDE8F0812DE9FE4F04461A
:103DF00020680290029D206806F0C5FC00287DD155
:103E0000206806F0FFFC08B9BDE8FE8F206806F0C8
:103E1000F9FC00F00200022805D12068406900F09A
:103E2000020021684861206806F0ECFC00F01000F8
:103E3000102846D12068806920F010002168886130
:103E40000298D0F8209009F00F00C0EBC00104F5F3
:103E5000FE7000EB810BC9F3434002281AD147F6EC
:103E6000F07009EA000030B3C9F30A12DBF80C1055
:103E7000029806F0CCFCC9F30A11DBF80C000844E8
:103E8000CBF80C00C9F30A11DBF818000844CBF892
:103E9000180010E0C9F3434006280CD1082204F5AD
:103EA0007171029806F0B3FCC9F30A11DBF818002F
:103EB0000844CBF818002068806940F010002168A1
:103EC0008861206806F09EFC00F40020B0F5002F09
:103ED00052D10026206806F065FC824649E00AF0CF
:103EE0000100E8B3F1B2206806F07FFC804608F0DC
:103EF000010058B1012105F5306000E021E200EB3E
:103F0000461081603146204602F0BEFE08F00800EF
:103F1000082809D1082105F5306000EB46108160C2
:103F20003146204602F07EFE08F01000102805D130
:103F3000102105F5306000EB4610816008F020008C
:103F4000202805D1202105F5306000EB4610816066
:103F500008F40050B0F5005F08D14FF4005100E0C4
:103F600004E005F5306000EB46108160761C4FEAF6
:103F70005A0ABAF1000FB2D1206806F043FC00F4EF
:103F80008020B0F5802F7ED1206806F001FC8246AB
:103F9000002683E00AF0010000287CD0F1B22068FE
:103FA00006F00AFC804608F00100F0B306F00F01AD
:103FB00001208840019040F634004159019821EADF
:103FC000000040F634014851012105F5106000EB76
:103FD000461081602069012824D1C6EBC60104F196
:103FE0003C0000EB8100C6EBC602C16804F13C0056
:103FF00000EB820080680144C6EBC60204F13C007D
:1040000000EB8200C1606EB9C6EBC60104F13C0052
:1040100000EB8100406928B904F571720121206824
:1040200006F0FAF8F1B2204600E001E0FFF732FDB9
:1040300008F00800082805D1082105F5106000EBFC
:104040004610816008F01000102805D1102105F5F8
:10405000106000EB4610816008F04000402805D158
:10406000402105F5106000EB4610816008F0020069
:10407000022805D1022105F5106000EB4610816091
:1040800008F0800001E00DE005E0802803D1314612
:10409000204602F0B7FE761C4FEA5A0ABAF1000F2A
:1040A0007FF478AF206806F0ADFB00F00040B0F17F
:1040B000004F1CD140F60400405920F0010140F6A9
:1040C0000400415194F8F403012807D1002084F83A
:1040D000F40300212046FFF7A9FC02E0204600F08F
:1040E00059FA2068406900F0004021684861206862
:1040F00006F088FB00F40060B0F5006F0ED140F6CA
:104100000800405900F0010010B1204600F09AFA72
:104110002068406900F4006021684861206806F06A
:1041200071FB00F48050B0F5805F7DD140F6040053
:10413000405920F0010140F604004151102120684F
:1041400006F0F6FA00273EE04FF67F3105F51060E5
:1041500000EB4710816005F5106000EB4710006828
:1041600020F4001105F5106000EB4710016005F523
:10417000106000EB4710006840F0006105F510602A
:1041800000EB471001604FF67F3105F5306000EB22
:104190004710816005F5306000EB4710006820F49F
:1041A000001105F5306000EB4710016005F5306047
:1041B00000EB4710006840F0006105F5306000EB4F
:1041C000471001607F1C6068B842BDD840F61C00F3
:1041D000405940F0011140F61C004151206B70B174
:1041E000D5F8840840F00B01C5F8841840F6440067
:1041F000405940F00B0140F6440041510FE040F6B9
:104200001400405942F22B01084340F61401485172
:10421000081F405940F00B014FF401604151D5F89F
:10422000000820F4FE6000E00DE0C5F80008217CE5
:1042300004F57172206805F0EFFF2068406900F412
:10424000805021684861206806F0DCFA00F40050D4
:10425000B0F5005F17D1206805F0B4FC206806F0C7
:104260007FFAE06000F0ECFA0090227B2068009971
:1042700006F018FB204600F075F92068406900F44C
:10428000005021684861206806F0BCFA00F0080080
:10429000082808D1204600F084F92068406900F021
:1042A000080021684861206806F0ACFA00F480102C
:1042B000B0F5801F0AD100263146204600F043F8B1
:1042C0002068406900F4801021684861206806F089
:1042D00099FA00F40010B0F5001F0AD1002631460B
:1042E000204600F039F82068406900F40010216889
:1042F0004861206806F086FA00F08040B0F1804FF7
:1043000008D12046FFF7BFFB2068406900F08040DD
:1043100021684861206806F075FA00F0040004285E
:104320000FD12068D0F8049009F00400042802D1CD
:104330002046FFF7CFFB2068406840EA090021686B
:10434000486000BF60E570B504460D462946D4F8C4
:10435000040404F0DDFE70BD70B504460D46294628
:10436000D4F8040404F0D7FE70BD70B58AB00446DA
:1043700014B901200AB070BD266894F8BD0328B9AD
:10438000002084F8BC03204600F0A2F8032084F843
:10439000BD03F06B00F4807008B900212161206832
:1043A00005F046FE282204F110016846FBF7C4FF21
:1043B00094E80F0005F01AFC20B1022084F8BD0338
:1043C0000120D7E70021206806F032FA002531E00D
:1043D0000121C5EBC50204F13C0000EB82004170F5
:1043E000C5EBC50104F13C0000F82150C5EBC50147
:1043F00000EB8100C5800021C5EBC50204F13C0043
:1044000000EB8200C170C5EBC50204F13C0000EB7B
:1044100082008160C5EBC50204F13C0000EB820024
:10442000C160C5EBC50204F13C0000EB82004161B4
:10443000681CC5B26068A842CAD800252AE00021DD
:10444000C5EBC50204F5FE7000EB82004170C5EBC0
:10445000C50104F5FE7000F821500021C5EBC5022E
:1044600000EB8200C170C5EBC50204F5FE7000EBE5
:1044700082008160C5EBC50204F5FE7000EB82008E
:10448000C160C5EBC50204F5FE7000EB820041611E
:10449000681CC5B26068A842D1D8282204F1100176
:1044A0006846FBF749FF94E80F0005F0D1FC20B106
:1044B000022084F8BD0301205CE7002084F8380066
:1044C000012084F8BD03206805F0B0FC002051E70E
:1044D00010B586B00446142101A8FBF754FF1E490D
:1044E0002068884236D100BF002000901B48006839
:1044F00040F00200194908600846006800F0020018
:10450000009000BF00BF4FF4404001900220029095
:1045100000200390032004900C20059001A910486E
:10452000FEF7ACFB00BF002000900C48006840F094
:1045300000500A4908600846006800F000500090EA
:1045400000BF00BF002206214D20FFF71DFA4D20BD
:10455000FFF70AFA06B010BD0000044030380240F0
:104560000004024070B504460125E06808B9002542
:1045700006E0E068022801D1012501E0FCF7CAFD50
:104580002946D4F8040404F042FED4F8040404F0EC
:10459000F5FD70BD10B50446D4F8040404F01BFE0C
:1045A00010BD10B50446D4F8040404F01FFE10BD7D
:1045B00070B504460D4600BF94F8BC03012801D134
:1045C000022070BD012084F8BC0300BF84F838507D
:1045D0002946206806F047F900BF002084F8BC0394
:1045E00000BF00BFEDE710B5044604F57171D4F8C3
:1045F000040404F023FE10BD70B50446256800BF16
:1046000094F8BC03012801D1022070BD012084F878
:10461000BC0300BFA06A012806D1A069012803D00D
:10462000A86B40F48030A863206806F063F8206827
:1046300005F0EAFB00BF002084F8BC0300BF00BF08
:10464000E3E7000010B50446D4F8040404F053FE78
:104650002068D0F8000E40F001002168C1F8000E7B
:10466000206A28B10348006840F00600014908604C
:1046700010BD000010ED00E070B504460D460CB909
:10468000012070BD5848006800F00F00A84209D210
:1046900055490D700846006800F00F00A84201D08F
:1046A0000120EEE7207800F0020002281DD12078DA
:1046B00000F00400042805D14C48006840F4E050A4
:1046C0004A490860207800F00800082805D14748CA
:1046D000006840F46040454908604448006820F0A4
:1046E000F000A168084341490860207800F001000B
:1046F000A8B36068012807D13C4808380068C0F3B7
:104700004040B8B90120BCE76068022802D0606868
:10471000032807D1354808380068C0F3406048B91D
:104720000120AEE7314808380068C0F3400008B9FE
:104730000120A6E72D48006820F0030061680843C7
:104740002A490860FEF7B6FB064609E0FEF7B2FB11
:10475000801B41F28831884202D9032091E707E0AB
:104760002248006800F00C006168B0EB810FEDD1C9
:104770001D48006800F00F00A84209D91A490D70C1
:104780000846006800F00F00A84201D0012078E739
:10479000207800F00400042807D11448006820F4B1
:1047A000E050E168084311490860207800F00800F3
:1047B000082808D10D48006820F46040216940EACB
:1047C000C1000A49086000F061F808490968C1F3AE
:1047D0000311074A515CC840064908600648006852
:1047E000FFF758F800204CE7003C02400838024030
:1047F00014EE010838000020300000200F22026073
:104800000D4A126802F0030242600B4A126802F07D
:10481000F0028260084A126802F4E052C260064A5E
:10482000126802F46042D2080261044A126802F07F
:104830000F020A607047000008380240003C024046
:1048400001480068704700003800002000B5FFF7FD
:10485000F7FF04490968C1F38221034A515CC8404B
:1048600000BD00000838024024EE010800B5FFF743
:10487000E7FF04490968C1F34231034A515CC8406B
:1048800000BD00000838024024EE01082DE9F04781
:10489000002400250026A1462548006800F00C00F1
:1048A00020B1042805D008283AD105E0DFF884902B
:1048B00039E0DFF8849036E01D48001F006800F002
:1048C0003F041B48001F006800F4800078B11A48BC
:1048D0001749091F0968C1F38811A0FB017001463F
:1048E000224600233846FBF7E3FC05460EE011485C
:1048F0000F49091F0968C1F38811A0FB0170014627
:10490000224600233846FBF7D3FC05460848001F23
:104910000068C0F30140401C4600B5FBF6F902E018
:10492000DFF8109000BF00BF4846BDE8F0870000E8
:10493000083802400024F40040787D01F8B50446B0
:104940000CB90120F8BD207800F00100002874D0D7
:10495000F948006800F00C0004280DD0F648006803
:1049600000F00C00082813D1F348001F006800F481
:104970008000B0F5800F0BD1EF4808380068C0F315
:104980004040002859D06068002856D10120D9E75E
:1049900000BF6068B0F5803F08D1E748083800687C
:1049A00040F48030E449083908601EE06068B0F5E2
:1049B000A02F0DD1E0480838006840F48020DE497F
:1049C000083908600846006840F4803008600CE050
:1049D000D9480838006820F48030D7490839086081
:1049E0000846006820F48020086000BF606890B12D
:1049F000FEF760FA054606E0FEF75CFA401B642805
:104A000001D903209EE7CC4808380068C0F3404035
:104A10000028F1D011E0FEF74DFA054606E0FEF75A
:104A200049FA401B642801D903208BE7C2480838A3
:104A30000068C0F340400028F1D1207800F0020067
:104A400002285FD1BC48006800F00C0058B1BA4899
:104A5000006800F00C0008281CD1B748001F00684F
:104A600000F48000B0B9B44808380068C0F34000D2
:104A700020B1E068012801D0012063E7AE48083882
:104A8000006820F0F800216940EAC100AA4908390D
:104A9000086037E0E06800B30120A8490860FEF72D
:104AA00009FA054606E0FEF705FA401B022801D97F
:104AB000032047E7A04808380068C0F340000028FA
:104AC000F1D09D480838006820F0F800216940EADC
:104AD000C10099490839086014E00020974908602E
:104AE000FEF7E8F9054606E0FEF7E4F9401B022868
:104AF00001D9032026E7904808380068C0F3400039
:104B00000028F1D1207800F0080008282CD1606935
:104B1000A8B101208A490860FEF7CCF9054606E0F5
:104B2000FEF7C8F9401B022801D903200AE7824892
:104B30006C300068C0F340000028F1D014E0002081
:104B40007F490860FEF7B6F9054606E0FEF7B2F9C0
:104B5000401B022801D90320F4E677486C30006836
:104B6000C0F340000028F1D1207800F004000428B0
:104B700070D1002770483830006800F0805090B93C
:104B800000BF002000906C483830006840F0805032
:104B90006949383108600846006800F0805000908C
:104BA00000BF00BF01276748006800F48070B0B9FB
:104BB0006448006840F4807062490860FEF77AF942
:104BC000054606E0FEF776F9401B022801D90320CE
:104BD000B8E65C48006800F480700028F2D000BF9E
:104BE000A068012808D154486830006840F00100EE
:104BF0005149683108601DE0A06805280DD14E4874
:104C00006830006840F004004B496831086008468D
:104C1000006840F0010008600CE047486830006818
:104C200020F001004449683108600846006820F01F
:104C30000400086000BFA068A8B1FEF73BF9054674
:104C400009E0FEF737F9401B41F28831884202D96A
:104C5000032077E626E0384868300068C0F340005B
:104C60000028EED013E0FEF725F9054608E0FEF730
:104C700021F9401B41F28831884201D9032061E6C5
:104C80002D4868300068C0F340000028EFD1012FA4
:104C900007D129483830006820F080502649383143
:104CA000086000BFA069002845D02348006800F0D4
:104CB0000C0008285DD0A069022845D100201F49BA
:104CC0000866FEF7F7F8054606E0FEF7F3F8401B26
:104CD000022801D9032035E6174808380068C0F3D8
:104CE00040600028F1D1D4E907010843616A40EA35
:104CF00081110122A06AC2EB500041EA00412C2040
:104D0000005D41EA00600C49091F086001200B4961
:104D10000866FEF7CFF8054606E0FEF7CBF8401B25
:104D2000022801D903200DE6034808380068C0F3C3
:104D300040600028F1D03FE00838024000004742C0
:104D4000800E47420070004000201C490866FEF7B4
:104D5000B1F8054606E0FEF7ADF8401B022801D980
:104D60000320EFE516480068C0F340600028F2D148
:104D700022E0A069012800D1E4E51148001D066881
:104D800006F48001E069814214D106F03F01206AF7
:104D900081420FD147F6C0703040616A884209D124
:104DA00006F44031A06A814204D106F07061E06AE5
:104DB000814201D00120C5E50020C3E50000474243
:104DC0000038024010B504460CB9012010BD606ADD
:104DD00000B900BF0021A16294F8510028B9002059
:104DE00084F85000204600F033F8022084F8510087
:104DF0002068006820F0400021680860D4E90101C3
:104E00000843E16808432169084361690843218B2D
:104E100001F400710843E1690843216A0843A16A6B
:104E20000843216808600421A06901EA1040616A12
:104E30000843216848602068C06920F40060216848
:104E4000C86100206065012084F851000020BDE7A2
:104E500010B586B00446142101A8FBF794FA1F4947
:104E60002068884238D100BF002000901C480068AC
:104E700040F480101A4908600846006800F4801069
:104E8000009000BF00BF00BF0020009014481438FD
:104E9000006840F020001249143908600846006894
:104EA00000F02000009000BF00BF4FF46070019040
:104EB000022002900020039003200490052005901A
:104EC00001A90848FDF7DAFE07480068006840F0CD
:104ED000400005490968086006B010BD0050014057
:104EE0004438024000140240CC0800202DE9FF5F46
:104EF0000446884691461D460E9E012002900020E1
:104F0000019000BF94F85000012803D1022004B0A2
:104F1000BDE8F09F012084F8500000BFFDF7CAFFF4
:104F2000074694F851B060680390AA46BBF1010FA0
:104F30000BD00398B0F5827F04D1A06810B9BBF103
:104F4000040F02D002200190DBE0B8F1000F03D083
:104F5000B9F1000F00D015B901200190D1E094F80B
:104F60005100042802D0052084F85100002060651B
:104F7000C4F83890E587A587C4F83080E586A58613
:104F8000206460642068006800F04000402805D07C
:104F90002068006840F0400021680860E068B0F5D3
:104FA000006F4AD1606810B1BAF1010F09D1206BCE
:104FB00000882168C860206B801C2063E08E401E42
:104FC000E08633E02068806800F00200022810D1FB
:104FD000E08E70B1029801280BD1206B0088216807
:104FE000C860206B801C2063E08E401EE08600209D
:104FF00002902068806800F0010068B1E08F58B12D
:105000002068C068A16B0880A06B801CA063E08F43
:10501000401EE08701200290FDF74CFFC01BB0420C
:1050200004D3701C10B1032001906AE0E08E0028C8
:10503000C8D1E08F0028C5D14AE0606810B1BAF14C
:10504000010F09D1206B007821680873206B401C88
:105050002063E08E401EE08634E02068806800F027
:105060000200022810D1E08E70B1029801280BD105
:10507000206B007821680873206B401C2063E08E51
:10508000401EE086002002902068806800F0010049
:1050900068B1E08F58B12068C068A16B0870A06B40
:1050A000401CA063E08F401EE08701200290FDF7C6
:1050B00001FFC01BB04201D3701C00B916B9032018
:1050C00001901EE0E08E0028C7D1E08F0028C4D1F7
:1050D0003A463146204602F0C3FD20B1012001903E
:1050E000202060650DE0A06850B900BF002000904E
:1050F0002068C068009020688068009000BF00BFF2
:1051000000BF012084F8510000BF002084F8500047
:1051100000BF0198FBE67047704710B504460CB914
:10512000012010BD94F83D0028B9002084F83C000F
:10513000204600F00CF8022084F83D00211D206874
:1051400003F002F8012084F83D000020E9E77047F1
:1051500001460868C06840F001000B68D860086824
:10516000806800F00702062A05D00868006840F051
:1051700001000B68186000207047704710B50446A6
:1051800020680069C0F34000D8B12068C068C0F34F
:105190004000B0B16FF00200216808610120207763
:1051A0002068806900F0030018B12046FFF7E5FF92
:1051B00005E0204600F0ADF8204600F0ABF80020F6
:1051C000207720680069C0F38000D8B12068C068EB
:1051D000C0F38000B0B16FF00400216808610220C4
:1051E00020772068806900F4407018B12046FFF7EE
:1051F000C4FF05E0204600F08CF8204600F08AF855
:105200000020207720680069C0F3C000D8B1206872
:10521000C068C0F3C000B0B16FF008002168086139
:10522000042020772068C06900F0030018B12046F0
:10523000FFF7A3FF05E0204600F06BF8204600F0E2
:1052400069F80020207720680069C0F30010D8B109
:105250002068C068C0F30010B0B16FF01000216882
:105260000861082020772068C06900F4407018B1F8
:105270002046FFF782FF05E0204600F04AF820466E
:1052800000F048F8002020772068006900F0010055
:1052900058B12068C06800F0010030B16FF0010023
:1052A00021680861204600F037F820680069C0F3E3
:1052B000C01058B12068C068C0F3C01030B16FF0A2
:1052C0008000216808612046FFF725FF20680069FB
:1052D000C0F3801058B12068C068C0F3801030B1AE
:1052E0006FF0400021680861204600F021F8206836
:1052F0000069C0F3401058B12068C068C0F3401086
:1053000030B16FF02000216808612046FFF704FFEC
:1053100010BD70477047000010B50446034920686F
:10532000884201D1FEF78CFA10BD00000020004039
:10533000704770B50446002520684069C0F3C01569
:1053400094F8390021280ED16DB12068406920F011
:10535000800021684861206B10B1206BFCF7F1FBE5
:10536000204602F0E4FF20684069C0F3801594F8FD
:105370003A0022280ED16DB12068406920F040002B
:1053800021684861606B10B1606BFCF7DAFB204666
:1053900002F0ADFF002070BD704700002DE9F0471E
:1053A0000446206805682068C668206847694FF091
:1053B0000008C14605F00F08B8F1000F0AD105F04A
:1053C000200038B106F0200020B1204602F0B9FFDD
:1053D000BDE8F087B8F1000F72D007F0010018B9EE
:1053E00006F4907000286BD005F0010030B106F48F
:1053F000807018B1E06B40F00100E06305F004003C
:1054000030B107F0010018B1E06B40F00200E0633A
:1054100005F0020030B107F0010018B1E06B40F078
:105420000400E06305F0080048B106F0200010B960
:1054300007F0010018B1E06B40F00800E063E06B9A
:1054400070B305F0200028B106F0200010B120460E
:1054500002F077FF20684069C0F38019E06B00F02C
:10546000080010B9B9F1000F23D0204602F03FFF29
:105470002068406900F04000402816D1206840694B
:1054800020F0400021684861606B50B11748616BA3
:105490000865606BFCF7AAFB10B1606B016D884773
:1054A0000CE02046FFF778FF08E02046FFF774FF86
:1054B00004E02046FFF770FF0020E06388E7FFE785
:1054C00005F0800030B106F0800018B1204603F0EE
:1054D0007FF97DE705F0400030B106F0400018B1DB
:1054E000204602F014FF73E700BF71E7378200081F
:1054F00010B504460CB9012010BDA06900B100E050
:1055000000BF94F8390028B9002084F838002046FC
:1055100000F028F8242084F839002068C06820F4BE
:1055200000502168C860204602F05EFF20680069D4
:1055300020F49040216808612068406920F02A002A
:10554000216848612068C06840F400502168C86044
:105550000020E063202084F8390084F83A0000201D
:10556000CAE7000010B586B00446142101A8FAF776
:105570000AFF2E492068884255D100BF00200090C4
:105580002B48006840F01000294908600846006870
:1055900000F01000009000BF00BF00BF002000908E
:1055A00023481438006840F001002149143908608C
:1055B0000846006800F00100009000BF00BF4FF4F3
:1055C000C06001900220029000200390032004900C
:1055D0000720059001A91748FDF750FB1648174909
:1055E00008604FF000604860002114488160C1608D
:1055F0004FF480610161002141618161C1610162FB
:105600004162FCF727FC08B1FBF784FD00BF0B48A3
:105610006063846300BF002211462520FEF7B4F9C1
:105620002520FEF7A1F906B010BD000000100140D2
:1056300044380240000002404064024064090020F7
:1056400077B581B00446154694F83A00202850D129
:10565000029800B115B9012004B070BD00BF94F8E4
:105660003800012801D10220F6E7012084F8380033
:1056700000BF0298A062A5850020E063222084F884
:105680003A001D48616BC8631C48616B08641C4884
:10569000616BC8640020616B086502AE32682368E4
:1056A000191D2B46606BFCF74BFC00BF00200090DF
:1056B00020680068009020684068009000BF00BF2C
:1056C00000BF002084F8380000BF2068C06840F4A4
:1056D00080702168C8602068406940F0010021683E
:1056E00048612068406940F040002168486100201E
:1056F000B2E70220B0E700009B820008E1820008C8
:105700004B820008704770472DE9F84304460D4668
:1057100016461F464FF0000994F8390020285DD145
:1057200005B116B90120BDE8F88300BF94F8380030
:10573000012801D10220F6E7012084F8380000BFDB
:105740000020E063212084F83900FDF7B3FB814697
:10575000A684E68400BF002084F8380000BF2BE058
:10576000E08C401EE084A068B0F5805F16D14B4607
:10577000002280212046009703F05EF808B1032044
:10578000D1E7A846B8F80000C0F3080021684860D7
:10579000206908B9AD1C0FE06D1C0DE04B460022DE
:1057A00080212046009703F047F808B10320BAE7AC
:1057B00015F8010B21684860E08C0028D0D14B46D9
:1057C000002240212046009703F036F808B103205C
:1057D000A9E7202084F839000020A4E70220A2E7EE
:1057E000704700BFFEE7014608684069C0F38020AB
:1057F000B0B16FF480600A68506100200863202017
:1058000081F83D00002081F83E00086C40F0040063
:10581000086400BF002081F83C0000BF01207047F1
:105820000020FCE72DE9F84304460F46154699464B
:10583000DDE908862068006840F48060216808601F
:105840002068006840F480702168086043460022A8
:105850004FF001112046009600F032F960B1206847
:10586000006800F48070B0F5807F02D14FF40070C2
:1058700020640320BDE8F88307F0FE00216808617A
:10588000334642463E49204600F05DF908B101200A
:10589000F0E700BF00200090206840690090206879
:1058A0008069009000BF00BF32464146204600F0AC
:1058B000ECF950B1206C042805D12068006840F450
:1058C0000070216808600120D4E7B9F1010F03D10D
:1058D000E8B22168086117E0C5F307202168086174
:1058E00032464146204600F0D0F950B1206C0428E1
:1058F00005D12068006840F400702168086001202C
:10590000B8E7E8B22168086132464146204600F017
:10591000BCF950B1206C042805D12068006840F41F
:105920000070216808600120A4E72068006840F446
:10593000807021680860434600224FF00111204624
:10594000009600F0BDF858B12068006800F480703F
:10595000B0F5807F02D14FF400702064032089E706
:10596000F8B240F00100216808613346424604491C
:10597000204600F0E8F808B101207BE7002079E735
:10598000020001002DE9F843044688461546994671
:10599000DDE908672068006840F4807021680860CD
:1059A000334600224FF001112046009700F088F89E
:1059B00060B12068006800F48070B0F5807F02D18B
:1059C0004FF4007020640320BDE8F88308F0FE0067
:1059D000216808613B4632462149204600F0B3F871
:1059E00008B10120F0E700BF002000902068406966
:1059F000009020688069009000BF00BF3A463146A1
:105A0000204600F042F950B1206C042805D12068EE
:105A1000006840F40070216808600120D4E7B9F103
:105A2000010F03D1E8B22168086117E0C5F3072030
:105A3000216808613A463146204600F026F950B107
:105A4000206C042805D12068006840F400702168AB
:105A500008600120B8E7E8B2216808610020B3E7D8
:105A60000200010070B504460D46164620E02046AF
:105A7000FFF7B9FE08B1012070BD681CC0B1FDF789
:105A800019FA801BA84200D895B900202063202075
:105A900084F83D00002084F83E00206C40F0200097
:105AA000206400BF002084F83C0000BF0120E3E731
:105AB00020684069C0F380000028D8D00020DBE7D0
:105AC0002DE9F04104460D4617461E46DDF81880C4
:105AD0001CE0701CD0B1FDF7EDF9A0EB0800B0425E
:105AE00000D89EB900202063202084F83D000020CB
:105AF00084F83E00206C40F02000206400BF0020AD
:105B000084F83C0000BF0120BDE8F081C5F30740E8
:105B100001280AD120684069A9B20840A9B2884288
:105B200001D101200BE0002009E020688069A9B2C2
:105B30000840A9B2884201D1012000E00020B8420B
:105B4000C7D00020E0E72DE9F04104460D46164697
:105B50001F463DE020684069C0F38020E8B120681E
:105B6000006840F40070216808606FF4806021686C
:105B7000486100202063202084F83D00002084F844
:105B80003E00206C40F00400206400BF002084F838
:105B90003C0000BF0120BDE8F081701CC0B1FDF7E2
:105BA00089F9C01BB04200D896B90020206320209C
:105BB00084F83D00002084F83E00206C40F0200076
:105BC000206400BF002084F83C0000BF0120E2E711
:105BD000C5F3074001280AD120684069A9B20840EE
:105BE000A9B2884201D101200BE0002009E0206821
:105BF0008069A9B20840A9B2884201D1012000E021
:105C000000200028A6D00020C5E770B504460D4648
:105C1000164632E020684069C0F30010A0B16FF072
:105C200010002168486100202063202084F83D0096
:105C3000002084F83E00206C206400BF002084F81F
:105C40003C0000BF012070BDFDF734F9801BA84265
:105C500000D895B900202063202084F83D00002062
:105C600084F83E00206C40F02000206400BF00203B
:105C700084F83C0000BF0120E5E720684069C0F3DC
:105C800080100028C6D00020DDE770B504460D4620
:105C9000164620E02046FFF7A6FD08B1012070BDA2
:105CA000681CC0B1FDF706F9801BA84200D895B961
:105CB00000202063202084F83D00002084F83E006E
:105CC000206C40F02000206400BF002084F83C00DD
:105CD00000BF0120E3E720684069C0F3C01000283E
:105CE000D8D00020DBE7000010B504460248FDF7DD
:105CF00035F900F0AFFD10BD7808002030B50B4637
:105D0000002100BF16E00A24B4EB107F05D930242F
:105D100004EB107403F8114005E0412404EB107407
:105D20000A3C03F81140000100254C00641C1D557D
:105D30004C1CE1B29142E6DB30BD000010B50024FE
:105D400001211E48FDF7A8F8012816D10A20FCF70A
:105D500041F901211948FDF79FF8012805D10022DA
:105D60004FF4E0511648FDF79FF800BF012113489A
:105D7000FDF792F80128F9D01EE04FF400511148C8
:105D8000FDF78AF8012817D10A20FCF723F94FF410
:105D900000510C48FDF780F8012805D101224FF48D
:105DA000E0510748FDF780F800BF4FF40051054867
:105DB000FDF772F80128F8D0204610BD000002401F
:105DC000001C0240000802402DE9F04104460D4647
:105DD00016461F462A2000F035F904F1280188B242
:105DE00000F020F906F1280188B200F01BF92B2001
:105DF00000F028F905F1350188B200F013F907F138
:105E0000350188B200F00EF92C2000F01BF9BDE836
:105E1000F08170B504460D4616462B4622462946AB
:105E20002046FFF7D1FF304600F0FCF870BD2DE9A9
:105E3000F04706460F4614461D46DDF820A0681EB2
:105E400083B2601E82B239463046FFF7BDFFB846C6
:105E50000EE0B14606E0504600F0E4F809F101001A
:105E60001FFA80F9A145F6DB08F101001FFA80F85E
:105E7000A845EEDBBDE8F08710B500224FF4807135
:105E80006648FDF711F8642007F0CCF801221102F2
:105E90006248FDF709F8642007F0C4F80122910276
:105EA0005F48FDF701F8642007F0BCF8112000F00E
:105EB000C9F8782007F0B6F8362000F0C3F8702053
:105EC00000F0B9F83A2000F0BDF8052000F0B3F872
:105ED000B22000F0B7F80C2000F0ADF80C2000F074
:105EE000AAF8002000F0A7F8332000F0A4F833202F
:105EF00000F0A1F8B72000F0A5F8352000F09BF8DD
:105F0000BB2000F09FF8192000F095F8C02000F0A9
:105F100099F82C2000F08FF8C22000F093F80120AF
:105F200000F089F8C32000F08DF8122000F083F80B
:105F3000C42000F087F8202000F07DF8C62000F093
:105F400081F80F2000F077F8D02000F07BF8A42033
:105F500000F071F8A12000F06EF8E02000F072F877
:105F6000D02000F068F8042000F065F80D2000F063
:105F700062F8112000F05FF8132000F05CF82B208D
:105F800000F059F83F2000F056F8542000F053F884
:105F90004C2000F050F8182000F04DF80D2000F0D3
:105FA0004AF80B2000F047F81F2000F044F82320A7
:105FB00000F041F8E12000F045F8D02000F03BF877
:105FC000042000F038F80C2000F035F8112000F023
:105FD00032F8132000F02FF82C2000F02CF83F208E
:105FE00000F029F8442000F026F8512000F023F8B2
:105FF0002F2000F020F81F2000F01DF81F2000F0D7
:106000001AF8202000F017F8232000F014F82120BF
:1060100000F018F8292000F015F810BD000C02401F
:106020000010024010B50446201200F01FF8E0B244
:1060300000F01CF810BD10B50446204600F016F81C
:1060400010BD000010B5044600224FF48041064800
:10605000FCF72AFF204600F009F8012291030248CC
:10606000FCF722FF10BD00000010024070B504468E
:1060700000224FF480511548FCF716FF00251DE063
:1060800000224FF480711248FCF70EFF04F08000EC
:1060900028B1012291020F48FCF706FF05E000221B
:1060A0004FF480610B48FCF7FFFE01221102084803
:1060B000FCF7FAFE6006040E681CC5B2082DDFDB93
:1060C000012211030148FCF7EFFE70BD00100240F1
:1060D00000180240000C02401CB504460622694626
:1060E0003B2000F055F89DF801009DF8001040EAB3
:1060F000012000B220809DF803009DF8021040EAC4
:10610000012000B260809DF805009DF8041040EA6F
:10611000012000B2A0801CBD1CB5044606226946C1
:10612000432000F035F89DF801009DF8001040EA8A
:10613000012000B220809DF803009DF8021040EA83
:10614000012000B260809DF805009DF8041040EA2F
:10615000012000B2A0801CBD10B56420FBF73AFFFF
:1061600000216B2000F056F80721192000F052F8AA
:1061700006211A2000F04EF801211C2000F04AF8F8
:1061800018211B2000F046F8C820FBF723FF10BDA4
:1061900070B504460D4616462B4632462146D020A1
:1061A00001F03EFE70BD000030B52DED068B81B0D4
:1061B0000446022269464120FFF7EAFF9DF80100EC
:1061C0009DF8001040EA012005B22846FAF7B1FA1E
:1061D00041EC1A0B9FED0B0B53EC102BFAF73AFA2C
:1061E00041EC190B9FED090B53EC102BFAF719F941
:1061F00041EC180BFAF7C1FA206001B0BDEC068B38
:1062000030BD00000000000000407540A4703D0A51
:10621000D743424013B5044601AB01222146D020AA
:1062200001F034FE1CBD70B50546D5F8BC4241F204
:1062300010002044007B50B941F2100020448068D7
:1062400028B1607A18B90121284603F032F881217B
:10625000284603F02EF8607A022807D181212846CB
:1062600003F027F80121284603F023F870BD000051
:1062700070B50546D5F8BC4241F210002044406894
:1062800041F230012144486041F21000204480680E
:1062900041F23001214488600121284602F0DAFEF3
:1062A0001F2816D141F2100000592E49884210D102
:1062B00041F210002044407B01280AD841F210002E
:1062C0002044807B28B141F210002044807B1028BC
:1062D0000ED941F210002044417B2023052228469C
:1062E00001F095FA022060722846FFF79CFF36E025
:1062F00041F210002044417B41F2100022180F327D
:10630000284600F089FE00280BDA207A052804D1FF
:106310000121284600F0D6F821E02846FFF783FF48
:106320001DE0207A022819D0207A012816D0207A80
:10633000032813D0E06830B104F110012846E26868
:1063400000F0E0F80BE0E06820B90021284600F0FA
:10635000B9F804E02846FFF766FF00E070BD00BF13
:10636000FCE700005553424370B506460C46D6F88C
:10637000BC52687A022808D18121304602F099FF88
:106380000121304602F095FF0CE004F080008028E7
:1063900007D1687A012804D00121304600F092F834
:1063A00000E070BD00BFFCE770B505460E46D5F8AD
:1063B000BC42207A022804D0032815D0042818D122
:1063C00011E041F210002044417B41F210002218FC
:1063D0000F32284600F020FE002803DA012128466B
:1063E00000F070F806E000BF0021284600F06AF8CF
:1063F00000E000BF00BF70BD70B505460E46D5F881
:10640000BC42207A10B1012816D103E02846FFF7DC
:106410002FFF12E041F210002044417B41F21000B6
:1064200022180F32284600F0F7FD002803DA012178
:10643000284600F047F800E000BF00BF70BDD0F86C
:10644000BC1200220A72704770B50546D5F8BC42EE
:10645000002020726072002141F261000155401E4F
:106460000155801C0155D5F8C002016800208847FD
:106470000121284602F0DBFD8121284602F0D7FDEC
:106480001F2341F2100022180121284602F05EFE6F
:1064900070BD70B50546D5F8BC42002020720120C1
:1064A00060728121284602F0CDFC0121284602F0CD
:1064B000C9FC1F2341F2100022180121284602F0D6
:1064C00045FE70BD70B505460E46D5F8BC420C4978
:1064D00041F23000015120440673002020720D2348
:1064E00041F2300022188121284602F00EFF1F23BE
:1064F00041F2100022180121284602F027FE70BD4B
:10650000555342532DE9F04106460F461546D6F83D
:10651000BC4241F2100020448068A84204D241F2FB
:1065200010002044806800E02846804641F2300098
:1065300020448068401B41F23001214488600020E3
:1065400041F23001214408730420207243463A4648
:106550008121304602F0D9FEBDE8F08110B50F4828
:106560000F4908600920486081070D4881600021BB
:10657000C1604FF4403101614FF48001416100215D
:106580000176012141768176C1760021017741773C
:10659000FBF74DF908B1FAF7BDFD10BD00640040EE
:1065A0005008002008B500BF002000900A4800688D
:1065B00040F48000084908600846006800F4800044
:1065C000009000BF00BF002211463A20FDF7DCF921
:1065D0003A20FDF7C9F908BD3038024010B503492B
:1065E0000348FAF798FD0349087010BD0D0200201A
:1065F000F80100200C02002010B50E4B00220121F2
:106600000D480CF0DBFE0D49086064210B48006862
:106610000CF038FF0A4A00210A480CF065FE0A49CE
:1066200008600A4A00210A480CF05EFE0949086029
:1066300010BD0000FCED01084D0B00081400002007
:10664000B4ED0108F97E00080C000020D8ED010827
:10665000137F00081000002000B587B0142102A8A5
:10666000F9F791FE00BF002001907248006840F0E9
:106670000200704908600846006800F002000190BE
:1066800000BF00BF00BF002001900846006840F036
:10669000400008600846006800F04000019000BF1C
:1066A00000BF00BF002001900846006840F00100D4
:1066B00008600846006800F00100019000BF00BFBC
:1066C00000BF002001900846006840F00400086008
:1066D0000846006800F00400019000BF00BF00BF42
:1066E000002001900846006840F0800008600846DD
:1066F000006800F08000019000BF00BF00BF0020D4
:1067000001900846006840F02000086008460068D4
:1067100000F02000019000BF00BF00BF00200190EA
:106720000846006840F0080008600846006800F06D
:106730000800019000BF00BF00BF00200190084684
:10674000006840F0100008600846006800F0100083
:10675000019000BF00BF012289153748FCF7A4FB58
:10676000002240213548FCF79FFB00224FF4E05106
:106770003348FCF799FB01224FF4A0613148FCF744
:1067800093FB01224FF4A8412F48FCF78DFB4FF4F7
:1067900000500290002003900220049002A92B4890
:1067A000FCF76CFA4FF48070029001200390049083
:1067B0000220059002A92048FCF760FA40200290D0
:1067C0000120039000200490059002A91B48FCF7CB
:1067D00055FA4FF4E05002900120039000200490FD
:1067E000059002A91648FCF749FA01200290002002
:1067F00003900220049002A91548FCF73FFA4FF4D9
:10680000A06002900120039004900220059002A94C
:106810000C48FCF733FA4FF4A84002900120039093
:1068200004900220059002A90748FCF727FA07B058
:1068300000BD000030380240001802400014024041
:10684000001C0240000C0240001002400008024000
:106850000000024010B51248124908601248486012
:10686000002110488160C1604FF480410161002126
:1068700041618161C1610162FCF792FB08B1FAF7E5
:1068800049FC00210748FCF71BFB08B1FAF742FC62
:1068900000210448FCF73AFB08B1FAF73BFC10BDB5
:1068A0000054004078080020A08601000EB5C020EA
:1068B00094490870A8204870002088707320C87020
:1068C000FF2091490870487088700020C870C0206F
:1068D0008E490870A8204870002088700120C87078
:1068E0000021084616F04EFA8648007800068549D1
:1068F000497840EA01408349897840EA012081498A
:10690000C978084302067F48007800067D49497827
:1069100040EA01407B49897840EA01207949C978F9
:10692000084300F47F4042EA0022764800780006DF
:106930007449497840EA01417248807841EA002070
:106940007049C978084300F47F0042EA10226D487C
:10695000007801066B48407841EA00416948807838
:1069600041EA00206749C978084342EA1060684953
:1069700008606548007800066349497840EA0140AC
:106980006149897840EA01205F49C97808430206D5
:106990005D48007800065C49497840EA01405A4960
:1069A000897840EA01205849C978084300F47F40BB
:1069B00042EA00225448007800065349497840EAE8
:1069C00001415148807841EA00204F49C978084385
:1069D00000F47F0042EA10224B48007801064A4842
:1069E000407841EA00414848807841EA0020464921
:1069F000C978084342EA1060464908604348007875
:106A000000064249497840EA01404049897840EA15
:106A100001203E49C978084302063C480078000638
:106A20003A49497840EA01403849897840EA0120EA
:106A30003649C978084300F47F4042EA00223348CF
:106A4000007800063149497840EA01412F488078B2
:106A500041EA00202D49C978084300F47F0042EA4A
:106A600010222A48007801062848407841EA00416F
:106A70002648807841EA00202449C978084342EA40
:106A8000106025490860254825490022224BCDE9A0
:106A9000002102901F4A1E4922480BF0ABFC2148FE
:106AA0000BF01EFF1F4890F83100C0F3800018B1B2
:106AB0001C480CF05BF802E01A480BF017FF1A496B
:106AC00018480BF07FFF0022012108460CF05EFB06
:106AD0001649086013481649086014480068486061
:106AE00024211448F9F74FFC13A0124908604FF411
:106AF00080604861102088610A460D4910480CF0FA
:106B0000F3FB0EBD7C0000208000002084000020EC
:106B10007000002074000020780000207DCF010864
:106B200011E600085C4B002051E7000864000020DB
:106B300068000020944B00204C696E6B5468720012
:106B4000F9E6000810B50E480E4908604FF482704F
:106B5000486000210B488160C160016141614FF4D0
:106B6000007181613821C16100210162416281624D
:106B70000A21C162FEF726F908B1FAF7CBFA10BD77
:106B800000500140CC08002010B50B480B490860AC
:106B90004FF4E1304860002108488160C160016124
:106BA0000C21416100218161C161FEF7A1FC08B1A6
:106BB000FAF7B0FA10BD00000010014024090020CF
:106BC00010B501220D490E4802F01AF908B1FAF782
:106BD000A1FA0C490A4802F001FD08B1FAF79AFA45
:106BE0000949074802F035FC08B1FAF793FA04485E
:106BF00002F0D2FD08B1FAF78DFA10BD1C02002098
:106C000090000120900200206C02002000BFFEE7EF
:106C10007047000010B50248FDF7E7F810BD00000E
:106C2000600501202DE9F04704460D4626683746E9
:106C3000D6F8408007F5306000EB4510D0F808909A
:106C4000104880450BD909F40040B0F5004F06D13B
:106C50004FF4004107F5306000EB4510816020469D
:106C6000FDF7C1FC0748804508D92069012805D1F6
:106C700004F571720121206803F0CEFA0020BDE80E
:106C8000F08700000A30544F2DE9F04705460C46C6
:106C9000D5F800804646D8F8409006F5306000EB05
:106CA000441087682869012873D107F00800082874
:106CB0000FD1524881450BD907F40040B0F5004F81
:106CC00006D14FF4004106F5306000EB44108160BE
:106CD00091E007F02000202806D1202106F5306041
:106CE00000EB4410816086E007F0280000280ED1F8
:106CF000424881450CD907F40040B0F5004F07D158
:106D00004FF4004106F5306000EB4410816072E002
:106D1000C4EBC40105F5FE7000EB8100816806F547
:106D2000306000EB44100069C0F31200091AC4EB94
:106D3000C40205F5FE7000EB82008161C4EBC40162
:106D400005F5FE7000EB8100C4EBC402C16805F5D7
:106D5000FE7000EB820080680144C4EBC40205F5BC
:106D6000FE7000EB8200C1606CB9C4EBC40105F594
:106D7000FE7000EB8100406928B905F571720121B0
:106D8000286803F049FAE1B22846FCF793FE32E0A6
:106D9000FFE71B4881451BD107F40040B0F5004FC9
:106DA00007D14FF4004106F5306000EB44108160DC
:106DB00021E007F02000202805D1202106F53060D1
:106DC00000EB44108160E1B22846FCF773FE12E04C
:106DD0006CB9C4EBC40105F5FE7000EB810040699D
:106DE00028B905F571720021286803F015FAE1B29F
:106DF0002846FCF75FFE0020BDE8F0870A30544FBC
:106E00000A31544F2DE9F84F07460E46D7F8009047
:106E1000C846C6EBC60107F13C0000EB8104D4E98B
:106E20000510884202D90120BDE8F88FD4E9050198
:106E3000451AA068A84200D2A568E81C4FEA900A4B
:106E400017E0D4E90501451AA068A84200D2A56858
:106E5000E81C4FEA900A387CABB2F2B20090484688
:106E6000E16803F093FDE0682844E060A0692844ED
:106E7000A06108F5106000EB4610806980B25045B3
:106E800006D3D4E90510884202D260690028D8D11F
:106E9000D4E9050188420ED806F00F01012000FA5E
:106EA00001FB40F6340050F8080020EA0B0040F6E1
:106EB000340141F808000020B6E730B503460C461F
:106EC000D3F8BC12107920B9002541F26200455474
:106ED00003E0012541F2620045540020C86030BD46
:106EE0002DE9F04104460F4615461E46D4F8BC82F3
:106EF000A91941F2680050F80800814209D92123FC
:106F000005223946204600F082FC4FF0FF30BDE8F4
:106F1000F0810020FBE700002DE9F0470646894696
:106F20001446D6F8BC5241F210002844806860B97B
:106F300041F210002844417B20230522304600F016
:106F400066FC4FF0FF30BDE8F087607800F001008C
:106F5000E0B1A07828B906221749284600F0F9FCCC
:106F600028E0A078802805D108221449284600F09E
:106F7000F0FC1FE041F210002844417B242305224D
:106F8000304600F044FC4FF0FF30DCE7D6F8C0029A
:106F9000C06909EBC90100EB8107387900F10508E8
:106FA0002079404501DC94F8048042463946284661
:106FB00000F0CFFC0020C6E7320300203803002099
:106FC0002DE9F041054688461446D5F8BC721B26CB
:106FD000207AB04200DC267A32460349384600F077
:106FE000B8FC0020BDE8F081570300202DE9F041F6
:106FF000054688461446D5F8BC7217262079B0425B
:1070000000DC267932460349384600F0A2FC002015
:10701000BDE8F081400300202DE9F04105460F4610
:107020001646D5F8BC823078252859D00FDC1A28AE
:1070300041D005DCE0B1032821D0122873D125E02E
:107040001B282AD01E282FD023287BD141E05A2884
:1070500038D006DC282851D02A285DD02F2871D1BD
:1070600069E09E2843D0A8284FD0AA286AD15BE0C7
:1070700032463946284600F030FC04466DE0324680
:107080003946284600F063FB044666E0324639463E
:107090002846FFF741FF04465FE03246394628465E
:1070A00000F0E1FB044658E0324639462846FFF737
:1070B00004FF044651E0324639462846FFF796FF62
:1070C00004464AE0324639462846FFF779FF04462F
:1070D00043E032463946284600F0ECFA04463CE0EC
:1070E00032463946284600F024FA044635E0324656
:1070F0003946284600F06DFA04462EE032463946FD
:10710000284600F010F9044627E032463946284662
:1071100000F088F9044620E032463946284600F05F
:1071200050FC044619E00DE032463946284600F08E
:10713000EAFC044611E032463946284600F019FCC4
:1071400004460AE0202305223946284600F05FFB6A
:10715000022088F80900C41E00BF00BF2046BDE819
:10716000F0812DE9F04106460F46D6F8BC4241F2C7
:107170007000005941F26401095B00FB01F5B5F5AF
:10718000805F01D2284601E04FF48050054641F26D
:107190006400005BB5FBF0F01FFA80F841F26C0070
:1071A0000259D6F8C002434604F11001D0F810C0CD
:1071B0003846E047002809DA1123042239463046D0
:1071C00000F025FB4FF0FF30BDE8F0812B4604F1C5
:1071D00010028121304602F098F841F26400005B11
:1071E000B5FBF0F141F26C000059014441F26C0032
:1071F000015141F26400005BB5FBF0F141F2700017
:107200000059411A41F27000015141F2300020440E
:107210008068401B41F230012144886041F27000D7
:10722000005908B9032020720020CDE72DE9F04174
:1072300006460F46D6F8BC4241F27000005941F2B2
:107240006401095B00FB01F5B5F5805F01D22846BA
:1072500001E04FF48050054641F26400005BB5FB4D
:10726000F0F01FFA80F841F26C000259D6F8C00223
:10727000434604F11001D0F814C03846E047002816
:1072800009DA032304223946304600F0C0FA4FF0F1
:10729000FF30BDE8F08141F26400005BB5FBF0F126
:1072A00041F26C000059014441F26C00015141F27D
:1072B0006400005BB5FBF0F141F270000059411A27
:1072C00041F27000015141F2300020448068401BBF
:1072D00041F230012144886041F27000005920B928
:1072E00000213046FFF7EEF81BE041F27000005934
:1072F00041F26401095B4843B0F5805F07D241F277
:107300007000005941F26401095B484301E04FF409
:10731000805005462B4604F110020121304601F051
:1073200015FF0020B5E72DE9F04106460F4615464A
:10733000D6F8BC42207A00286CD141F210002044DB
:10734000007B00F0800080280CD041F21000204427
:10735000417B20230522304600F059FA4FF0FF30E0
:10736000BDE8F08141F26200005D022808D13A23B5
:1073700002223946304600F04AFA4FF0FF30EFE77C
:10738000D6F8C00281683846884740B13A230222C5
:107390003946304600F03BFA4FF0FF30E0E7A8787E
:1073A0000006E97840EA0140297940EA012069793C
:1073B000084341F26C010851287AE97940EA012139
:1073C00041F2700001510359001F025939463046FD
:1073D000FFF786FD002802DA4FF0FF30C0E741F2E8
:1073E0007000005941F26401095B484341F2100109
:1073F0002144896888420BD041F210002044417B2F
:1074000020230522304600F002FA4FF0FF30A7E7B4
:10741000022020724FF48050E06039463046FFF77A
:10742000A0FE9DE72DE9F04106460F461546D6F829
:10743000BC42207A002874D141F210002044007B25
:1074400000F0800080280CD041F210002044417BE5
:1074500020230522304600F0DAF94FF0FF30BDE876
:10746000F08141F26200005D022808D13A23022235
:107470003946304600F0CBF94FF0FF30EFE7D6F851
:10748000C00281683846884740B13A230222394613
:10749000304600F0BCF94FF0FF30E0E7A878000676
:1074A000E97840EA0140297940EA012069790843F6
:1074B00041F26C010851A8790006E97940EA0140DF
:1074C000297A40EA0120697A084341F270010851A3
:1074D00008460359001F025939463046FFF700FDA0
:1074E000002802DA4FF0FF30B9E741F2700000598E
:1074F00041F26401095B484341F21001214489686B
:1075000088420CD041F210002044417B2023052208
:10751000304600F07CF94FF0FF30A0E701E0022098
:1075200020724FF48050E06039463046FFF719FE74
:1075300095E72DE9F04105460E469046D5F8BC4248
:10754000D5F8C002436841F264002218001D2118DA
:1075500030469847074627B941F26200005D02288D
:1075600009D13A2302223146284600F050F94FF063
:10757000FF30BDE8F08141F268000059401E000E66
:10758000207441F268000059401E010C617441F200
:107590006800005B401E010AA17441F26800005DB2
:1075A000401EE07441F26400005B0116217541F257
:1075B0006400005B0114617541F26400005B01121C
:1075C000A17541F26400015DE1750820E0600020D2
:1075D000CFE72DE9F047074688461546D7F8BC4265
:1075E000D7F8C002436841F264002218001D211838
:1075F000404698478146B9F1000F04D141F262003C
:10760000005D022809D13A2302224146384600F0A3
:10761000FEF84FF0FF30BDE8F087A87A0006E97A5F
:1076200040EA0140297B40EA0120697B0843E06091
:10763000002605E0002104F110008155701CC6B23F
:10764000E068B042F6D841F268000059401E010ED1
:10765000217541F268000059401E010C617541F22C
:107660006800005B401E010AA17541F26800005DE0
:10767000401EE07541F26400005B0116217641F284
:107680006400005B0114617641F26400005B01124A
:10769000A17641F26400015DE176A87A0006E97AFC
:1076A00040EA0140297B40EA0120697B0843E06011
:1076B0000020B0E72DE9FC4706460F469146D6F874
:1076C000BC42D6F8C00201AA6946436838469847CA
:1076D0008046B8F1000F04D141F26200005D02283B
:1076E00009D13A2302223946304600F090F84FF093
:1076F000FF30BDE8FC87002505E0002104F1100003
:107700004155681C85B20C2DF7D30821E17400980F
:10771000401E010E21750098401E010C61750098F5
:10772000401E010AA1750098401EE07502212176D5
:10773000BDF8040001146176BDF804000112A176C1
:10774000BDF80400E0760C20E0600020D1E72DE9D0
:10775000F041074688461646D7F8BC4241F2100071
:107760002044806860B941F210002044417B20230E
:107770000522384600F04BF84FF0FF30BDE8F081AD
:10778000002505E0002104F110004155681CC5B238
:10779000122DF7D3702020740C21E1754FF4835023
:1077A000015D401C005D814228D04FF48350015D93
:1077B00004F5825010F83110A1744FF48350015D2C
:1077C00004F5825000EBC100017921774FF483501A
:1077D000015D04F5825000EBC100417961774FF4FF
:1077E0008350005D401CC1B24FF483500155005DD1
:1077F000042803D100214FF4835001551220E0608A
:107800003079122801D83079E0600020B6E7F0B571
:107810000446D4F8BC0241F261052E5C00F58255A5
:1078200005F8362041F261052E5C00F5825505EB26
:10783000C6052B71002641F261052F5C00F58255CB
:1078400005EBC7056E7141F261052D5C6D1CEEB252
:1078500041F261052E542D5C042D03D1002641F226
:1078600061052E54F0BDF0B506460F461446D6F815
:10787000BC5241F26200405D01280DD1207900F038
:107880000300022808D12423052239463046FFF799
:10789000BEFF4FF0FF30F0BD207900F0030001285B
:1078A00004D1002141F26200415512E0207900F03C
:1078B0000300022804D1022141F26200415508E090
:1078C000207900F00300032803D1002141F2620077
:1078D00041550020E86000BFDDE72DE9F041054695
:1078E0000E461746D5F8BC4241F21000204480688D
:1078F00060B141F210002044417B2023052228463C
:10790000FFF785FF4FF0FF30BDE8F08141F26200E4
:10791000005D022809D13A23022231462846FFF7AA
:1079200076FF05202072801FEEE7D5F8C00281683F
:107930003046884748B13A23022231462846FFF7AD
:1079400066FF05202072801FDEE70020E06000BF98
:10795000DAE730B503460C461146D96005E0481E0B
:1079600081B2655C03F1100045540029F7D1002075
:1079700030BD2DE9F04105460F461646D5F8BC420C
:10798000707800F00200022809D12423052239462C
:107990002846FFF73CFF4FF0FF30BDE8F08141F291
:1079A00070000359001F025939462846FFF798FA1C
:1079B000002802DA4FF0FF30EFE70020E06000BF60
:1079C000EBE72DE9F041064688461546D6F8BC425D
:1079D000207A00287DD141F210002044806860B9EF
:1079E00041F210002044417B202305223046FFF75E
:1079F0000EFF4FF0FF30BDE8F08141F2100020444F
:107A0000007B00F0800080280BD141F21000204460
:107A1000417B202305223046FFF7F9FE4FF0FF306F
:107A2000E9E7D6F8C00281684046884740B13A236A
:107A3000022241463046FFF7EAFE4FF0FF30DAE718
:107A4000D6F8C002C1684046884740B127230222C9
:107A500041463046FFF7DBFE4FF0FF30CBE7A8781A
:107A60000006E97840EA0140297940EA0120697975
:107A7000084341F26C010851287AE97940EA012172
:107A800041F2700001510359001F0259414630462E
:107A9000FFF726FA002802DA4FF0FF30ABE741F299
:107AA0007000005941F26401095B00FB01F741F2EB
:107AB000100020448068B8420CD041F210002044ED
:107AC000417B202305223046FFF7A1FE4FF0FF3017
:107AD00091E711E0B7F5805F01D2384601E04FF43D
:107AE00080500746012020723B4604F1100201211C
:107AF000304601F02BFB04E041463046FFF796FB91
:107B000079E7002077E72DE9F041064688461546DB
:107B1000D6F8BC42207A00287DD141F210002044E2
:107B2000806860B941F210002044417B2023052287
:107B30003046FFF76CFE4FF0FF30BDE8F08141F2B8
:107B400010002044007B00F0800080280BD141F21F
:107B500010002044417B202305223046FFF757FECA
:107B60004FF0FF30E9E7D6F8C00281684046884709
:107B700048B13A23022241463046FFF748FE05202D
:107B80002072801FD9E7D6F8C002C16840468847F6
:107B900048B12723022241463046FFF738FE052030
:107BA0002072801FC9E7A8780006E97840EA014002
:107BB000297940EA01206979084341F26C010851B2
:107BC000A8790006E97940EA0140297A40EA0120D3
:107BD000697A084341F27001085108460359001FB1
:107BE000025941463046FFF77BF9002802DA4FF090
:107BF000FF30A2E741F27000005941F26401095BD5
:107C000000FB01F741F2100020448068B8420DD01B
:107C100041F2100000E01BE02044417B20230522BC
:107C20003046FFF7F4FD4FF0FF3086E7B7F5805F91
:107C300001D2384601E04FF48050074601202072FF
:107C40003B4604F110020121304601F07FFA04E0C6
:107C500041463046FFF7EAFA6FE700206DE7000083
:107C60007CB504460D461646164800681821B0FB40
:107C7000F1F01549B0FBF1F04FF47A7148430190EF
:107C80006068B0F5827F0DD12B460022802120460E
:107C9000009600F01BF898B1606D40F02000606520
:107CA00003207CBD00BF019800B908E00198401E88
:107CB000019020688068C0F3C0100028F3D100BF95
:107CC0000020EEE73800002040420F002DE9F0418F
:107CD00004460E4617461D46DDF818803EE0681C37
:107CE000D8B3FBF7E7F8A0EB0800A84200D2A5BB89
:107CF0002068406820F0E000216848606068B0F5C6
:107D0000827F0DD1A068B0F5004F03D0A068B0F518
:107D1000806F05D12068006820F04000216808606D
:107D2000A06AB0F5005F0DD100BF2068006820F4A4
:107D30000050216808602068006840F40050216805
:107D4000086000BF012084F8510000BF002084F8C3
:107D5000500000BF0320BDE8F081FFE72068806885
:107D60003040B04201D1012000E00020B842B6D13D
:107D70000020F0E703464FF4805008601080002098
:107D800070470020704710B5044602F0F9FE00204D
:107D900010BD10B5044602F07BFF08B1002010BDF5
:107DA0004FF0FF30FBE70146002070472DE9F0411E
:107DB00080460D4616461F46002400BF09E03203E8
:107DC00002EB043105EB04304FF4805202F006FF61
:107DD000641CBC42F3D30020BDE8F0812DE9F041E2
:107DE00080460D4616461F46002400BF09E03203B8
:107DF00002EB043105EB04304FF4805202F0CCFF6B
:107E0000641CBC42F3D30020BDE8F08130B50146CC
:107E10000A461378521C147843EA042030BD00004F
:107E20002DE9FE4304460D4616461F464FF0000856
:107E30004FF47A7001232A462146CDE9007602905C
:107E40001148FBF771FA8046B8F1000F02D02046C6
:107E5000FDF74AFF00BF0C48FBF79EF82028FAD137
:107E600000BF4FF47A731A4621460748FBF780F9A2
:107E70000328F6D000BF0448FBF78EF82028FAD17B
:107E80004046BDE8FE830000780800202DE9FE434F
:107E900004460D4616461F464FF000084FF47A7010
:107EA00001232A462146CDE9007602901148FBF7CE
:107EB000B5FB8046B8F1000F02D02046FDF714FF55
:107EC00000BF0C48FBF768F82028FAD100BF4FF438
:107ED0007A731A4621460748FBF74AF90328F6D079
:107EE00000BF0448FBF758F82028FAD14046BDE807
:107EF000FE83000078080020FEF7D8FCFEF760FE45
:107F000000F092F800F0DAF800BF01200AF094FEC9
:107F1000FBE700BFFDF712FF01200AF08DFEF9E735
:107F200010B500BF502080F31188BFF34F8FBFF30F
:107F30006F8F00BF16F058FC18B14FF08050044905
:107F4000086000BF002080F3118800BF10BD000052
:107F500004ED00E000B593B0302107A8F8F713FA5C
:107F6000142102A8F8F70FFA00BF0020019025485D
:107F7000006840F08050234908600846006800F01F
:107F80008050019000BF00BF00BF002001901E483C
:107F9000006820F4404040F480401B4908600846D7
:107FA000006800F44040019000BF00BF012007902E
:107FB0000004089002200D9041050E910F210F91B1
:107FC00090211091022111910521129107A8FCF72F
:107FD000B5FC08B1F9F79EF80F200290022003903B
:107FE000002004904FF4A05005904FF4805006906C
:107FF000032102A8FCF740FB08B1F9F78BF813B096
:1080000000BD000040380240007000400548006894
:1080100040F47000034908604FF000600149803966
:108020000860704788ED00E038B5002410F03EF895
:1080300004460D4800900DA003F09CFE104B41F249
:108040008932694620460EF08BF9607A40F00800CC
:1080500060720CA003F08EFE104920460EF062FD07
:108060000FA003F087FE38BDC0A800C8636C696527
:108070006E7420636F6E6E6563746564210A000020
:10808000F5CB00087463705F636F6E6E6563742078
:1080900063616C6C6261636B0A00000031CC0008A4
:1080A0007265676973746572206572726F7220639E
:1080B000616C6C6261636B0A0000000010B5002403
:1080C0000FF0F4FF04460CA003F054FE41F2893295
:1080D0000E4920460DF0BAFE0DA003F04BFEFF2125
:1080E00020460FF069FE04460EA003F043FE11493E
:1080F00020460DF0EEFD10BDB4B4BDA8C1CBD2BB7F
:10810000B8F6BFD8D6C6BFE90A00000064EF010880
:10811000D2D1BEADB0F3B6A8D2BBB8F6BFD8D6C6E2
:10812000BFE90A00BDF8C8EBBCE0CCFDD7B4CCACCD
:108130000A000000DDCC010810B50248FDF71EF86A
:1081400010BD0000C409002010B50268294B9842F8
:108150000ED0B0F1804F0BD0274B984208D0274B60
:10816000984205D0264B984202D0264B984203D124
:1081700022F070024B681A431E4B984220D0B0F197
:10818000804F1DD01C4B98421AD01C4B984217D0E0
:108190001B4B984214D01B4B984211D01A4B98425B
:1081A0000ED01A4B98420BD0194B984208D0194B5D
:1081B000984205D0184B984202D0184B984203D1F0
:1081C00022F44072CB681A4322F080034C6943EAE0
:1081D000040202608B68C3620B688362054B98429D
:1081E00002D0084B984201D10B690363012343611C
:1081F00010BD0000000001400004004000080040E5
:10820000000C0040000401400040014000440140D7
:108210000048014000180040001C004000200040C1
:1082200070B5054628460DF0C5F8044614B1D4E9EA
:108230000010884770BD70B50546AC6B0020E08526
:10824000E0842046FDF7A8F870BD70B5064600250D
:10825000B46B20684069C0F3C01594F83900212838
:1082600005D125B10020E084204600F060F82068A8
:108270004069C0F3801594F83A00222805D125B151
:108280000020E085204600F032F8E06B40F010005E
:10829000E0632046FDF780F870BD70B50546AC6B15
:1082A0002868006800F48070B0B90020E08520687C
:1082B000C06820F480702168C8602068406920F0A0
:1082C0000100216848612068406920F04000216871
:1082D0004861202084F83A002046FDF713FA70BD6B
:1082E00070B50446A56B2846FDF70DFA70BD016810
:1082F000C96821F490710268D1600168496921F070
:10830000010102685161202180F83A10704710B5D0
:1083100004462068C06820F040002168C860202022
:1083200084F839002046FDF75BFA002010BD016893
:10833000C96821F0C0010268D160202180F839109D
:10834000704770B5044694F83A0022284AD1A068D4
:10835000B0F5805F13D1A56A206940B920684068F4
:10836000C0F308002880A06A801CA06219E0206881
:108370004068C0B22880A06A401CA06211E0206959
:1083800038B920684068C1B2A26A501CA06211705E
:1083900007E02068406800F07F01A26A501CA062DC
:1083A0001170E08D401E80B2E085C8B92068C068B9
:1083B00020F020002168C8602068C06820F4807028
:1083C0002168C8602068406920F001002168486188
:1083D000202084F83A002046FDF794F9002070BD73
:1083E0000020FCE70220FAE72DE9F84F0446206858
:1083F000006920F44050E168084321680861216960
:10840000A068084361690843E16908430090206857
:10841000C06849F20C618843009908432168C8602C
:108420002068406920F44070A169084321684861D0
:10843000E069B0F5004F75D1E3492068884203D068
:10844000E249206888426FD1FCF710FA8146022089
:108450006168A0FB01510B461920A9FB00712A4657
:108460003846F7F725FF6421B0FBF1F04FEA001A18
:1084700002206168A0FB01510B461920A9FB007185
:108480002A463846F7F714FF074602206168A0FB2A
:1084900001510B461920A9FB00B12A465846F7F7AF
:1084A00007FF6421B0FBF1F000EBC00101EB00100D
:1084B000A7EB8000322101EBC0006421B0FBF1F09A
:1084C00000F0F8000AEB400A02206168A0FB0151AD
:1084D0000B461920A9FB00712A463846F7F7E8FE3B
:1084E000074602206168A0FB01510B461920A9FB39
:1084F00000B12A465846F7F7DBFE6421B0FBF1F0E5
:1085000000EBC00101EB0010A7EB8000322101EB72
:10851000C0006421B0FBF1F000F007005044216876
:1085200088604FE16EE0FFE7FCF790F9814602209A
:108530006168A0FB01510B461920A9FB00712A4676
:108540003846F7F7B5FE6421B0FBF1F04FEA001AA8
:1085500002206168A0FB01510B461920A9FB0071A4
:108560002A463846F7F7A4FE074602206168A0FBBA
:1085700001510B461920A9FB00B12A465846F7F7CE
:1085800097FE6421B0FBF1F000EBC00101EB00109D
:10859000A7EB8000322101EBC0006421B0FBF1F0B9
:1085A00000F0F8000AEB400A02206168A0FB0151CC
:1085B0000B461920A9FB00712A463846F7F778FECA
:1085C000074602206168A0FB015003461920A9FB61
:1085D00000B12A465846F7F76BFE6421B0FBF1F074
:1085E00000EBC00101EB0010A7EB8000322101EB92
:1085F000C0006421B0FBF1F000F007005044216896
:108600008860DFE070492068884203D06F492068A5
:1086100088426BD1FCF72AF9814604206168A0FBEF
:1086200001510B461920A9FB00712A463846F7F77D
:108630003FFE824604206168A0FB01510B461920D1
:10864000A9FB00712A463846F7F732FE6421B0FBD9
:10865000F1F000EBC00101EB0010AAEB8000322129
:1086600001EB00106421B0FBF1F000F0F00A0420EF
:108670006168A0FB015003461920A9FB00712A463E
:108680003846F7F715FE6421B0FBF1F00AEB001A4B
:1086900004206168A0FB01510B461920A9FB007161
:1086A0002A463846F7F704FE074604206168A0FB17
:1086B000015003461920A9FB00B12A465846F7F796
:1086C000F7FD6421B0FBF1F000EBC00101EB0010FD
:1086D000A7EB8000322101EB00106421B0FBF1F028
:1086E00000F00F005044216888606BE0FCF7AEF8A2
:1086F000814604206168A0FB015003461920A9FBB4
:1087000000712A463846F7F7D3FD82460420616897
:10871000A0FB015003461920A9FB00712A463846E8
:10872000F7F7C6FD6421B0FBF1F000EBC00101EBEF
:108730000010AAEB8000322101EB00106421B0FB95
:10874000F1F000F0F00A04206168A0FB015003463C
:108750001920A9FB00712A463846F7F7A9FD6421C4
:10876000B0FBF1F00AEB001A04206168A0FB017075
:1087700003461920A9FB005001463A462846F7F760
:1087800097FD074604206168A0FB015003461920AD
:10879000A9FB00B12A465846F7F78AFD6421B0FBD1
:1087A000F1F000EBC00101EB0010A7EB80003221DB
:1087B00001EB00106421B0FBF1F000F00F00504419
:1087C00021688860BDE8F88F001001400014014066
:1087D000014691F8390021282CD18868B0F5805FD6
:1087E0000FD10A6A1088C0F308000B685860086946
:1087F00018B9086A801C086209E0086A401C08620F
:1088000005E00B6A581C086218780B685860C88C21
:10881000401E80B2C88458B90868C06820F0800043
:108820000B68D8600868C06840F040000B68D860EA
:10883000002070470220FCE72DE9F04104460D4678
:1088400017469846069E21E0701CF8B12EB1FAF743
:1088500031FBA0EB0800B04218D92068C06820F4B2
:10886000D0702168C8602068406920F0010021684C
:108870004861202084F8390084F83A0000BF0020C5
:1088800084F8380000BF0320BDE8F081206800684C
:108890002840A84201D1012000E00020B842D3D0F6
:1088A0000020F1E710B50348FCF778FD014802F01D
:1088B0008BF810BD2409002070B504460D46D4F88D
:1088C000B80228B1D4F8B802294642682046904739
:1088D000002070BD70B504460D4694F89C02012836
:1088E00004D0022803D003280CD101E000BF00BF50
:1088F0006888012805D10020C4F8A402204600F0B1
:108900004AF804E02946204600F01BF800BF00BFEB
:1089100070BD70B506460C4615462B462246002112
:10892000304600F013FC002070BD70B506460C46C2
:1089300015462B4622460021304600F0E6FC00207A
:1089400070BD70B504460D468021204600F0B1FC94
:108950000021204600F0ADFC70BD10B50446052096
:10896000C4F8940200231A461946204600F0EEFB94
:10897000002010BD70B504460E4615460220C4F80E
:108980009402A561E5612B4632460021204600F0A5
:10899000BCFC002070BD10B504460420C4F894024D
:1089A00000231A461946204600F0AFFC002010BDF7
:1089B00070B504460D46E888012804D029462046B3
:1089C000FFF7BFFF1EE094F89C02012804D00228A4
:1089D00003D0032810D109E000BF0020A0600122CD
:1089E00004F108012046FFF7C5FF0AE00122211D1E
:1089F0002046FFF7BFFF04E029462046FFF7A1FF0E
:108A000000BF00BF70BDF8B504460E4600200090C0
:108A10000027002570880012082875D2DFE800F0D2
:108A2000C7040C20C7C7A5B5207CD4F8B4120A68C7
:108A3000694690470746C1E0207C40B9D4F8B802A7
:108A4000816A6846884707460220787007E0D4F8B4
:108A5000B802C16A68468847074602207870ADE0D0
:108A6000B078062878D2DFE800F00316293C50637E
:108A7000D4F8B402406838B1207CD4F8B4124A6803
:108A800069469047074605E031462046FFF759FF03
:108A9000681CC5B267E0D4F8B402806838B1207CA5
:108AA000D4F8B4128A6869469047074605E0314613
:108AB0002046FFF746FF681CC5B254E0D4F8B40264
:108AC000C06838B1207CD4F8B412CA6869469047AF
:108AD000074605E031462046FFF733FF681CC5B264
:108AE00041E0D4F8B402006938B1207CD4F8B41263
:108AF0000A6969469047074605E031462046FFF778
:108B000020FF681CC5B22EE051E0D4F8B4024069E1
:108B100038B1207CD4F8B4124A69694690470746B8
:108B200005E031462046FFF70CFF681CC5B21AE08D
:108B3000D4F8B402806940B1207CD4F8B4128A69B8
:108B400069469047074606E006E031462046FFF7B3
:108B5000F8FE681CC5B206E031462046FFF7F1FE7C
:108B6000681CC5B200BF00BF28E0207C30B9D4F833
:108B7000B802416B68468847074605E03146204603
:108B8000FFF7DFFE681CC5B218E0207C40B9D4F8BE
:108B9000B802016B6846884707460720787005E0F1
:108BA00031462046FFF7CDFE681CC5B206E03146CF
:108BB0002046FFF7C6FE681CC5B200BF00BF05B166
:108BC000F8BDF088C0B1BDF8000080B1F088BDF8F4
:108BD0000010884202DDBDF8000000E0F08800903F
:108BE000BDF8002039462046FFF7C4FE07E03146B5
:108BF0002046FFF7A6FE02E02046FFF7CCFE00BFAE
:108C0000DEE7014600200A4602E0431CD8B2521CAF
:108C10001378002BF9D1704770B504460D4694F8CF
:108C20009C02012804D0022803D003281AD101E0B5
:108C300000BF00BFE888022804D029462046FFF77D
:108C400080FE14E00120E060D4F8A40218B1E068CE
:108C500040F00200E060022204F10C012046FFF720
:108C600089FE04E029462046FFF76BFE00BF00BFE7
:108C700070BD2DE9F04107460D46904600240FB91E
:108C8000BDE8F0813E463046FFF7BBFF022101EB15
:108C90004000A8F8000098F800002855601CC4B2F5
:108CA00003202855601CC4B208E030782855761C93
:108CB000601CC4B200202855601CC4B23078002863
:108CC000F3D100BFDCE70146002031B1012906D015
:108CD000022906D0032908D105E0002007E003207F
:108CE00005E0012003E0032001E0032000BF00BFF6
:108CF0007047000070B505460C462DB9224606495E
:108D000006A0FFF7B6FF04E02246034903A0FFF7E1
:108D1000B0FF014870BD0000600301204D534320A7
:108D2000436F6E66696700000246122008800148A2
:108D3000704700003802002070B505460C462DB97A
:108D40002246064906A0FFF794FF04E022460349A5
:108D500003A0FFF78EFF014870BD000060030120F3
:108D60004D534320496E746572666163650000006F
:108D70000246042008800148704700004C02002091
:108D800070B505460C462246024903A0FFF771FF65
:108D9000004870BD6003012053544D6963726F65D4
:108DA0006C656374726F6E696373000070B505461D
:108DB0000C462DB92246064906A0FFF75AFF04E0EB
:108DC0002246034903A0FFF754FF014870BD00008D
:108DD0006003012053544D3332204D61737320538F
:108DE000746F72616765000070B505460C461A2005
:108DF0002080F8F7CBF9014870BD00005002002038
:108E00002DE9F04104460D46164614B90320BDE88D
:108E1000F081D4F8B80210B10020C4F8B802D4F838
:108E2000CC0210B10020C4F8CC020DB1C4F8B45289
:108E3000012084F89C022670204600F015F90746B0
:108E40003846E4E72DE9F04104460D4600260027A8
:108E50002946D4F8C402FAF779FE06463046FFF7F1
:108E600032FF07463846BDE8F0812DE9F04104465F
:108E70000D46002600272946D4F8C402FAF731FE31
:108E800006463046FFF71FFF07463846BDE8F0812B
:108E90002DE9F04104460F469046002F54D104F1CD
:108EA0001405D4F89402022843D1D5E9020188427E
:108EB0000FD9D5E90201401AA86041462046AA68A8
:108EC000FFF733FD00231A461946204600F03EF90D
:108ED0002FE0D5E90210884217D1E9686868884216
:108EE00013D36868D4F8981288420ED20022114633
:108EF0002046FFF71AFD0020C4F8980200231A4606
:108F00001946204600F022F913E0D4F8B802C068F0
:108F100040B194F89C02032804D1D4F8B802C16887
:108F2000204688478021204600F0C3F92046FFF7FD
:108F300014FD94F8A00201281BD1204600F061FB2B
:108F4000002084F8A00214E0D4F8B802406970B19F
:108F500094F89C0203280AD1D4F8B8023946426931
:108F600020469047064626B13046BDE8F0810320F2
:108F7000FBE70020F9E72DE9F04105460F46904652
:108F80005FBB05F5AA74D5F8940203283AD1D4E959
:108F90000201884210D9D4E90201401AA060D4E944
:108FA0000201884201D2A06800E0E0680246414622
:108FB0002846FFF7AEFC25E0D5F8B802006940B1BD
:108FC00095F89C02032804D1D5F8B8020169284617
:108FD00088472846FFF7DFFC14E0D5F8B80280691F
:108FE00070B195F89C0203280AD1D5F8B802394629
:108FF000826928469047064626B13046BDE8F08192
:109000000320FBE70020F9E701460020704710B578
:109010000446012084F89C02D4F8B80228B12179D2
:10902000D4F8B802426820469047002010BD2DE9D0
:10903000F04104460D46002600272946D4F8C40214
:10904000FAF7C2FD06463046FFF73DFE07463846B2
:10905000BDE8F08170B504460D462946D4F8C40237
:10906000FAF7D4FD70BD000010B504462078012841
:109070002CD11748C0F80444C4F8C4021548144958
:1090800008600620486002211148C160002101618A
:10909000022181610021C16101624162C1620163FB
:1090A0004163FBF762F908B1F8F734F84FF4007147
:1090B0000748FAF7BCFC802200210548FAF7BCFCFF
:1090C0004FF4BA7201210248FAF7B6FC002010BD35
:1090D000600501200000044010B50246D2F8C432F9
:1090E00001F08000802809D101F07F00C0EBC004AE
:1090F00003F13C0000EB8400807810BD01F07F009C
:10910000C0EBC00403F5FE7000EB84008078F4E748
:109110000246002070470246002070472DE9F047C4
:1091200004460F4615461E464FF00008C1462B4622
:1091300032463946D4F8C402FAF773FD80464046F9
:10914000FFF7C1FD81464846BDE8F0872DE9F047AD
:1091500004460D4616461F464FF00008C1463B46E2
:1091600032462946D4F8C402FAF7A1FD80464046AB
:10917000FFF7A9FD81464846BDE8F08710B50446D3
:10918000012084F89C020020C4F894026060C4F8B6
:10919000A402D4F8BC0228B12179D4F8B8024268FC
:1091A000204690474023002211462046FFF7B6FF95
:1091B00001214FF4B27001534021001F015140239F
:1091C000002280212046FFF7A9FF0121A184402130
:1091D0002162002010BD014691F89C02042803D1B1
:1091E00091F89D0281F89C020020704710B504465A
:1091F00094F89C02032808D1D4F8B802C06920B1C1
:10920000D4F8B802C16920468847002010BD024644
:109210001174002070472DE9F04104460D460026E8
:1092200000272946D4F8C402FBF7C2F906463046A7
:10923000FFF749FD07463846BDE8F08170B50446A2
:109240000D46294604F2AA2000F0ADF90120C4F829
:1092500094024FF42C70005BC4F8980294F8AA02B0
:1092600000F01F0020B1012809D0022815D10DE01F
:1092700004F2AA21204600F095FA064616E004F210
:10928000AA21204600F0F6FB06460FE004F2AA21D0
:10929000204600F0DAFA064608E094F8AA0200F048
:1092A0008001204600F005F8064600BF00BF3046AA
:1092B00070BD2DE9F04104460D46002600272946E1
:1092C000D4F8C402FAF71FFD06463046FFF7FBFC50
:1092D00007463846BDE8F08170B5044600250026F3
:1092E000D4F8C402FBF788F905462846FFF7EBFCE3
:1092F0000646304670BD014691F89C0281F89D02F9
:10930000042081F89C02002070472DE9F0470446B4
:109310000D4616461F464FF00008C1463B463246F2
:109320002946D4F8C402FAF733FD80464046FFF7D9
:10933000CAFC81464846BDE8F08770B504460D4634
:1093400029462046FDF730F8002070BD70B5044670
:109350000D4629462046FDF74FF8002070BD70B538
:1093600004460D4601212046FFF77FFD0021A4F8A9
:10937000781181212046FFF778FD002121872046C2
:10938000FDF75DF8D4F8BC0230B1D4F8BC0206F0A9
:10939000B7FB0020C4F8BC02002070BD01460A20C3
:1093A0000880014870470000280300200146202063
:1093B0000880014870470000E80200200146202094
:1093C0000880014870470000C802002001462020A4
:1093D00008800148704700000803002070B504466B
:1093E0000E4641F2740008F079FA054625B90020CE
:1093F000C4F8BC02022070BDC4F8BC52207C90B9F5
:109400004FF40073022201212046FFF787FE01215D
:10941000A4F878114B02022281212046FFF77EFE3C
:109420000121218710E04023022201212046FFF77D
:1094300075FE0121A4F878114023022281212046E3
:10944000FFF76CFE012121872046FCF7FDFF00207D
:10945000D1E7024609B903207047C2F8C0120020C4
:10946000FAE7F8B505460C46D5F8BC62002700209F
:109470000090207800F0600000283DD0202871D1B5
:109480006078FE2802D0FF282ED11AE0608890B9BB
:10949000E08801280FD1207800F0800080280AD1D0
:1094A000D5F8C012886980473060012231462846CD
:1094B000FFF760FA04E021462846FFF742FA032747
:1094C00018E0608850B9E08840B9207800F080004A
:1094D000802803D02846FCF7DCFF04E0214628461C
:1094E000FFF72FFA032705E021462846FFF729FA60
:1094F000032700BF00BF53E0607830B1012832D0AD
:109500000A2812D00B283DD11FE095F89C020328B1
:1095100005D1022269462846FFF72CFA04E02146CD
:109520002846FFF70EFA032732E095F89C0203283D
:1095300005D10122311D2846FFF71CFA04E021461F
:109540002846FFF7FEF9032722E095F89C0203283E
:1095500002D1A078706004E021462846FFF7F1F9B7
:10956000032715E016E095F89C02032809D16088CE
:1095700038B921792846FFF75AFD21792846FCF7AA
:10958000F3FE05E021462846FFF7DBF9032700BF7D
:1095900000BF05E021462846FFF7D3F9032700BFA7
:1095A00000BF3846F8BD70B505460E4634462078F3
:1095B0002870641C20786870641C2046FEF726FC26
:1095C0006880641C641C2046FEF720FCA880641C94
:1095D000641C2046FEF71AFCE88070BD38B50446CE
:1095E0000D46002000900DB9032038BDC4F8B852D4
:1095F000D4F8B802816A68468847C4F8CC020020D3
:10960000F3E701460020704770B504460D46A88870
:1096100010BBE88800BB688880281DD2A87800F0BD
:109620007F0694F89C02032804D129462046FFF7C0
:1096300088F915E084F89E6231462046FFF7EBFD7D
:109640002046FFF7A8F91EB1022084F89C0207E02B
:10965000012084F89C0203E029462046FFF771F9B7
:1096600070BD70B504460D460326D4F8B80230B17B
:10967000D4F8B8022946026820469047064630468C
:1096800070BD000070B504460E460025B0783B4919
:10969000087008460078012805D931462046FFF7B2
:1096A00050F9032070BD94F89C02022802D00328D0
:1096B00056D11CE031480078A8B13048007860608D
:1096C0002E4801782046FFF7CCFF054625B13146EC
:1096D0002046FFF736F909E02046FFF75CF9032042
:1096E00084F89C0202E02046FFF755F943E0234846
:1096F000007870B9022084F89C02204800786060ED
:109700001E4801782046FFF7D7F82046FFF743F9B7
:1097100025E01A490978606888421DD021792046E1
:10972000FFF7CAF8154800786060144801782046B1
:10973000FFF797FF05465DB131462046FFF701F977
:1097400021792046FFF7B8F8022084F89C0206E051
:109750002046FFF720F902E02046FFF71CF90AE057
:1097600031462046FFF7EDF8044801782046FFF720
:10977000A3F8032500BF00BF284693E78C02002012
:1097800070B505460C466088012804D1C5F8A402CE
:109790002846FFF700F970BD10B504462046FFF7D4
:1097A0009BFD10BD70B505460C460026207800F0E4
:1097B000600068B1202802D040283ED100E000BF00
:1097C000D5F8B8022146826828469047064639E017
:1097D00060780A282AD2DFE800F01A24291F290A13
:1097E0000529150F21462846FFF70DF923E02146EC
:1097F0002846FFF709FF1EE021462846FFF742FFF3
:10980000064618E021462846FFF7D2F813E0214625
:109810002846FFF701FA0EE021462846FFF7B0FF81
:1098200009E021462846FFF755F804E0214628467E
:10983000FFF787F800BF00BF04E021462846FFF786
:1098400080F800BF00BF304670BD2DE9F0410546ED
:109850000E464FF000083479307800F0600068B1AF
:10986000202802D0402870D100E000BFD5F8B8020F
:1098700031468268284690478046F7E07078002895
:1098800064D001282FD003286FD195F89C020228BC
:1098900002D0032820D110E054B1802C08D02146FA
:1098A0002846FFF706FD80212846FFF702FD03E06A
:1098B00031462846FFF745F813E0708840B93CB1BF
:1098C000802C05D0F08818B921462846FFF7F1FC16
:1098D0002846FFF760F804E031462846FFF731F8E4
:1098E00000BF00BFBBE095F89C02022802D003280D
:1098F00024D110E054B1802C08D021462846FFF72F
:10990000D8FC80212846FFF7D4FC03E031462846E6
:10991000FFF717F817E0708878B904F07F0018B1E6
:1099200021462846FFF78EFA2846FFF734F8D5F887
:10993000B802314682682846904704E031462846FE
:10994000FEF7FFFF00BF00BF89E08AE095F89C02A8
:10995000022802D0032876D126E03CB1802C05D025
:1099600031462846FEF7EDFF72E073E004F0800018
:10997000802808D104F07F0000EB800105F114007D
:1099800000EB810007E004F07F0000EB800105F5AB
:10999000AA7000EB81000746002038600222394699
:1099A0002846FEF7E7FF53E004F0800080280ED140
:1099B00004F00F0000EB800105F1140000EB8100C2
:1099C000008A98B931462846FEF7BBFF40E004F014
:1099D0000F0000EB800105F5AA7000EB8100008A02
:1099E00020B931462846FEF7ACFF31E004F0800094
:1099F000802808D104F07F0000EB800105F11400FD
:109A000000EB810007E004F07F0000EB800105F52A
:109A1000AA7000EB810007460CB1802C02D1002017
:109A2000386009E021462846FFF756FB10B10120B7
:109A3000386001E000203860022239462846FEF7EF
:109A400099FF05E0FFE731462846FEF77AFF00BFA1
:109A500000BF04E031462846FEF773FF00BF00BF99
:109A600004E031462846FEF76CFF00BF00BF4046C9
:109A7000BDE8F08170B505460C460026207800F060
:109A8000600030B1202802D040282AD100E000BF79
:109A900000BF95F89C02012804D0022803D00328B7
:109AA00018D101E000BF00BF207901280DD8D5F8FA
:109AB000B80221468268284690470646E08840B9A9
:109AC0003EB92846FEF767FF03E021462846FEF729
:109AD00038FF04E021462846FEF733FF00BF00BFF1
:109AE00004E021462846FEF72CFF00BF00BF3046A9
:109AF00070BD000070B504460B46224619785878B0
:109B000001282CD140F61C0080581D7805F00F0666
:109B10000125B540ADB2284340F61C05A85002F51A
:109B2000106000EB4110006800F40040F0BB1889A1
:109B3000C0F30A00DD7840EA854040EA815040F0F9
:109B4000805040F4004002F5106505EB41152D688A
:109B5000284302F5106505EB411528602DE040F61D
:109B60001C0080581D7805F00F060125B540144EE5
:109B700006EA0545284340F61C05A85002F530606A
:109B800000EB4110006800F4004078B91889C0F378
:109B90000A00DD7840EA854040F0805040F4004003
:109BA00002F5306505EB41152D6800E005E028431E
:109BB00002F5306505EB41152860002070BD0000FE
:109BC0000000FFFF01460A464FF410608058C30AA8
:109BD000DB024FF41060835040F60400805840F4DC
:109BE000807340F604008350002070470FB470B5B6
:109BF00004460A98012817D1A06B20F48030A06396
:109C0000E0681A490840E060E06820F44010E06035
:109C10001198012803D1E06840F48010E0602046EC
:109C200000F026F8054612E0E06840F04000E060F1
:109C3000204600F01DF805460E9820B9A06B40F4B0
:109C40008030A06303E0A06B20F48030A06308980C
:109C5000012807D1A06840F00600A060A06840F08D
:109C60002000A060284670BC5DF814FBBFFFBDFF5C
:109C70000146002200BF501C02460F4B984201D9FA
:109C800003207047086900F000400028F3D000224C
:109C9000086940F00100086100BF501C0246064BF5
:109CA000984201D90320ECE7086900F00100002880
:109CB000F3D100BFE5E70000400D030070B5044696
:109CC0000B46224619785878012848D102F51060D1
:109CD00000EB4110006800F00040B0F1004F17D1D8
:109CE00002F5106000EB4110006840F0006502F5DD
:109CF000106000EB4110056002F5106000EB4110B0
:109D0000006840F0804502F5106000EB41100560EE
:109D100040F63C0080581D7805F00F060125B5403F
:109D2000ADB2A84340F63C05A85040F61C00805850
:109D30001D7805F00F060125B540ADB2A84340F6E9
:109D40001C05A85002F5106000EB411000682B4D77
:109D5000284002F5106505EB411528604BE002F53F
:109D6000306000EB4110006800F00040B0F1004F9F
:109D700017D102F5306000EB4110006840F000653B
:109D800002F5306000EB4110056002F5306000EB39
:109D90004110006840F0804502F5306000EB411052
:109DA000056040F63C0080581D7805F00F0601253F
:109DB000B540134E06EA0545A84340F63C05A850B9
:109DC00040F61C008558187800F00F060120B040BE
:109DD0000B4E06EA0040854340F61C00855002F514
:109DE000306000EB41100068064D284002F53065F8
:109DF00005EB41152860002070BD0000007833ECB1
:109E00000000FFFF0078F3EF01460A46D2F8000E8B
:109E100020F00300C2F8000E40F60400805820F045
:109E2000020340F6040083500020704701460A46B2
:109E3000D2F8000E20F00300C2F8000E40F6040035
:109E4000805840F0020340F6040083500020704721
:109E50000FB4F0B5054600272E46002405E000218A
:109E600005F5827040F82410641C0F2CF7D310986D
:109E7000A0B940F60400805940F0020140F6040009
:109E80008151A86B40F40010A863A86B20F4002057
:109E9000A863A86B20F48020A86307E0A86B20F4D7
:109EA0000010A863A86B40F40020A8630020C6F847
:109EB000000ED6F80008C6F800080B9801280BD150
:109EC000089820B90021284600F0E2FC08E00121B2
:109ED000284600F0DDFC03E00321284600F0D8FC12
:109EE0001021284600F024FC00B10127284600F08C
:109EF00009FC00B1012700214FF401608151001DD0
:109F0000815140F61C00815100242EE006F51060BE
:109F100000EB4410006800F00040B0F1004F10D199
:109F20003CB94FF0006106F5106000EB4410016091
:109F30000DE04FF0904106F5106000EB4410016019
:109F400005E0002106F5106000EB441001600021DF
:109F500006F5106000EB441001614FF67F3106F505
:109F6000106000EB44108160641C0698A042CDD8BC
:109F700000242EE006F5306000EB4410006800F08D
:109F80000040B0F1004F10D13CB94FF0006106F530
:109F9000306000EB441001600DE04FF0904106F599
:109FA000306000EB4410016005E0002106F53060F0
:109FB00000EB44100160002106F5306000EB441016
:109FC00001614FF67F3106F5306000EB441081608F
:109FD000641C0698A042CDD84FF40160805920F44B
:109FE00080714FF4016081510020A8616FF08040C2
:109FF0006861099818B9A86940F01000A861A869BB
:10A0000009490843A8610C9818B1A86940F00800F4
:10A01000A8611098012803D1A86904490843A861E0
:10A020003846F0BC5DF814FB00383C80040000406A
:10A030000146886820F00100886000207047000019
:10A04000F0B505460B4614462A461978587801287B
:10A0500075D1586920BB02F5106000EB4110006912
:10A060006C4E304002F5106606EB4116306102F589
:10A07000106000EB4110006940F4002602F510600A
:10A0800000EB4110066102F5106000EB4110006921
:10A09000C60CF60402F5106000EB4110066137E0D3
:10A0A00002F5106000EB41100069C60CF60402F5E1
:10A0B000106000EB4110066102F5106000EB4110EA
:10A0C0000069544E304002F5106606EB41163061CF
:10A0D0009E685869B04201D99868586102F51060CD
:10A0E00000EB4110006940F4002602F5106000EB1F
:10A0F0004110066102F5106000EB411000695E69D5
:10A10000C6F31206304302F5106606EB41163061C5
:10A11000012C15D1186928B102F5106000EB41102F
:10A120001E69466102F5106000EB4110006840F0C6
:10A13000044602F5106000EB4110066068E01BE089
:10A1400002F5106000EB4110006840F0044602F593
:10A15000106000EB411006605869002858D040F6A6
:10A16000340080581E7806F00F070126BE403043A9
:10A1700040F63406B0504BE002F5306000EB411081
:10A180000069C60CF60402F5306000EB4110066170
:10A1900002F5306000EB411000691E4E304002F5C0
:10A1A000306606EB41163061586908B1986858610D
:10A1B00002F5306000EB4110006940F4002602F522
:10A1C000306000EB4110066102F5306000EB411099
:10A1D00000699E68C6F31206304302F5306606EB4E
:10A1E00041163061012C07D1D86828B102F53060E2
:10A1F00000EB4110DE68466102F5306000EB411073
:10A20000006840F0044602F5306000EB4110066043
:10A210000020F0BDFFFF07E070B503460C4619466D
:10A220001D6C1848854209D94FF43060405800F041
:10A230000040B0F1004F01D1002070BD0026C1F8F0
:10A24000106BD1F8100B40F40026C1F8106BD1F858
:10A25000100B40F01806C1F8106BD1F8100B40F04D
:10A26000C046C1F8106B012C09D1C1F8142B4FF472
:10A270003060405840F080264FF430604650002057
:10A28000DBE700000A30544F30B504460B46224647
:10A290001978587801281ED102F5106000EB4110A2
:10A2A000006820F4001502F5106000EB4110056015
:10A2B000D878032802D0D87802282AD102F5106075
:10A2C00000EB4110006840F0805502F5106000EB93
:10A2D000411005601DE002F5306000EB41100068A0
:10A2E00020F4001502F5306000EB41100560D878CD
:10A2F000032802D0D87802280BD102F5306000EB99
:10A300004110006840F0805502F5306000EB4110CC
:10A310000560002030BD30B504460B462246197852
:10A320005878012821D102F5106000EB4110006837
:10A3300000F0004060B959B102F5106000EB411027
:10A34000006820F0804502F5106000EB41100560C8
:10A3500002F5106000EB4110006840F4001502F5B2
:10A36000106000EB4110056020E002F5306000EB6A
:10A370004110006800F0004060B959B102F530604A
:10A3800000EB4110006820F0804502F5306000EBE2
:10A390004110056002F5306000EB4110006840F4A8
:10A3A000001502F5306000EB41100560002030BD63
:10A3B0002DE9F84381460E4617464D4634787078AD
:10A3C00001287DD1706920BB05F5106000EB4410B9
:10A3D0000069C749084005F5106101EB44110861A7
:10A3E00005F5106000EB4410006940F4002105F50C
:10A3F000106000EB4410016105F5106000EB4410A3
:10A400000069C10CC90405F5106000EB441001613E
:10A4100055E005F5106000EB44100069C10CC9045B
:10A4200005F5106000EB4410016105F5106000EBCC
:10A4300044100069AE49084005F5106101EB441174
:10A440000861B16870690844401EB0FBF1F0A8498A
:10A45000C94301EAC04005F5106101EB44110969E7
:10A46000084305F5106101EB4411086105F5106022
:10A4700000EB441000697169C1F31201084305F54E
:10A48000106101EB44110861F078012817D105F53E
:10A49000106000EB4410006920F0C04105F5106029
:10A4A00000EB4410016105F5106000EB44100069F9
:10A4B00040F0005105F5106000EB4410016100E030
:10A4C0007FE0012F36D1306928B105F5106000EB2F
:10A4D000441031694161F07801281ED140F608002E
:10A4E000405900F4807060B905F5106000EB44102D
:10A4F000006840F0005105F5106000EB4410016069
:10A500000BE005F5106000EB4410006840F080514E
:10A5100005F5106000EB4410016005F5106000EBDC
:10A520004410006840F0044105F5106000EB441051
:10A530000160DAE005F5106000EB4410006840F0BF
:10A54000044105F5106000EB44100160F07801282B
:10A550000FD070690028ECD040F6340040593178B3
:10A5600001F00F0201219140084340F634014851A7
:10A57000BBE040F60800405900F4807060B905F572
:10A58000106000EB4410006840F0005105F51060C9
:10A5900000EB441001600BE005F5106000EB441087
:10A5A000006840F0805105F5106000EB4410016038
:10A5B0000097B08A83B232784846F16800F0E6F935
:10A5C00093E005F5306000EB44100069C10CC9044C
:10A5D00005F5306000EB4410016105F5306000EBDB
:10A5E000441000694249084005F5306101EB44110F
:10A5F00008617069D0B905F5306000EB441000695E
:10A60000B168C1F31201084305F5306101EB441153
:10A61000086105F5306000EB4410006940F400214A
:10A6200005F5306000EB4410016126E0B168706907
:10A630000844401EB0FBF1F01FFA80F805F53060C9
:10A6400000EB441000692A49C94301EAC8410843A4
:10A6500005F5306101EB4411086105F5306000EB50
:10A6600044100069B16801FB08F1C1F3120108430D
:10A6700005F5306101EB44110861012F07D1F06845
:10A6800028B105F5306000EB4410F1684161F078C5
:10A6900001281ED140F60800405900F4807060B9CE
:10A6A00005F5306000EB4410006840F0005105F5FE
:10A6B000306000EB441001600BE005F5306000EB0A
:10A6C0004410006840F0805105F5306000EB441004
:10A6D000016005F5306000EB4410006840F0044173
:10A6E00005F5306000EB441001600020BDE8F88300
:10A6F000FFFF07E00146886840F001008860002005
:10A7000070470000014600221020086100BF501C65
:10A710000246064B984201D903207047086900F0B1
:10A7200010001028F3D00020F7E70000400D0300D0
:10A7300010B502460023202040EA8110106100BFBE
:10A74000581C0346054CA04201D9032010BD1069D6
:10A7500000F020002028F3D00020F7E7400D030090
:10A7600010B501460B4640F60804E45804F0060212
:10A770000AB9002006E0022A01D0062A01D10220EF
:10A7800000E00F2010BD0146486900F0010070474D
:10A7900001460B4640F61800C258001DC058024042
:10A7A00090B2704701460B4640F61800C258001D93
:10A7B000C0580240100C704770B5024613464FF463
:10A7C0000166F45840F63406F55801F00F0625FAF4
:10A7D00006F606F0010644EAC61403F5106606EB19
:10A7E0004116B66806EA040070BD10B5024613466D
:10A7F00003F5306404EB4114A06840F61404E458F7
:10A80000204010BD014648698A6910407047F0B584
:10A8100003461E460846D71CBD08002405E04FF439
:10A820008057BF590760001D641CAC42F7D3F0BDD0
:10A8300070B504460D46E06820F0C040E060012D90
:10A8400004D1E06840F00050E06007E025B9E0681E
:10A8500040F08040E06001E0012070BD3220F7F759
:10A86000B9FB0020F9E710B502460B461146D1F8B6
:10A87000000820F4FE60C1F80008D1F800084FF489
:10A88000FE6404EA03142043C1F80008002010BD50
:10A8900002461346D3F800080843C3F80008002016
:10A8A0007047000030B503461446022C49D12D48AC
:10A8B000814204D32C48814201D20F2245E02A482C
:10A8C000814204D32948814201D20E223DE027482B
:10A8D000814204D32648814201D20D2235E024482A
:10A8E000814204D32348814201D20C222DE0214829
:10A8F000814204D32048814201D20B2225E01E4828
:10A90000814204D31D48814201D20A221DE01B4826
:10A91000814204D31A48814201D2092215E0184825
:10A92000814204D31748814201D208220DE0154824
:10A93000814204D31448814201D2072205E0062255
:10A9400003E00CB9092200E00922D86820F4705015
:10A95000D860D8684FF4705505EA82252843D8603E
:10A96000002030BDC0ACD800C0E1E4000024F400F9
:10A9700080730601A0491A01002D310140A44C0149
:10A9800000366E0120ABA6010048E8012DE9F04336
:10A9900004460D46DDF81CC0A0462E46BCF1000F53
:10A9A0000FD1D81C8708002109E008F5805000EB82
:10A9B0000230D6F80090C0F80090361D491CB9420C
:10A9C000F3D30020BDE8F08338B505461A4928685E
:10A9D00088422FD1194800680068C0F3001048B3BE
:10A9E00000BF0020009015480068006800901348E0
:10A9F00000684068009000BF00BF1048FAF799FC5B
:10AA00000F4800684068C0F11E00C4B24FF47A736A
:10AA100022460C490948FAF777FE0BA001F0AAF983
:10AA200021460848F5F7AFFC1E2206490348FAF70D
:10AA300007FE00BF38BD00000010014024090020BF
:10AA400064090020040A00200D0A000010B5044625
:10AA500001200749087000F093F828B904480078ED
:10AA600020F00100024908700148007810BD000084
:10AA7000C401002010B503460020052912D2DFE8EA
:10AA800001F0030D090504000EE00DE04FF48034E1
:10AA9000146009E04FF48054146005E04FF48054D2
:10AAA000146001E0042000BF00BF10BD2DE9F04795
:10AAB00081460D4616461F464FF00108002409E066
:10AAC000320302EB043105EB04304FF4805200F006
:10AAD00085F8641CBC42F3D34FF000080020BDE8A9
:10AAE000F087000001460448007820F00100024A87
:10AAF0001070104600787047C40100202DE9F0471F
:10AB000081460D4616461F464FF00108002409E015
:10AB1000320302EB043105EB04304FF4805200F0B5
:10AB20003BF9641CBC42F3D34FF000080020BDE8A1
:10AB3000F08700BFFEE7000010B50446240300F0D4
:10AB400087F900F01FF9002240210C48F8F7ACF912
:10AB5000202000F003F9C4F3074000F0FFF8C4F32D
:10AB6000072000F0FBF8E0B200F0F8F801224021E5
:10AB70000248F8F799F900F005F910BD00140240F9
:10AB800010B5002240211148F8F78EF9FF2000F09F
:10AB9000E5F8012240210D48F8F786F900F078F831
:10ABA0000B49088000F046F80A4908600A4800F09E
:10ABB000ADF80748008800F46F40B0F56F4F02D041
:10ABC0004FF0FF3010BD0020FCE7000000140240F1
:10ABD0005000002054000020580000202DE9F041D2
:10ABE00006460C461746002240211148F8F75CF94A
:10ABF000032000F0B3F8C4F3074000F0AFF8C4F34B
:10AC0000072000F0ABF8E0B200F0A8F8002505E05E
:10AC1000FF2000F0A3F87055681C85B2BD42F7DB39
:10AC2000012240210248F8F73FF9BDE8F081000019
:10AC30000014024038B5002400200090002240217A
:10AC40001248F8F731F95A2000F088F8002000F097
:10AC500085F8002000F082F8842000F07FF80020C2
:10AC600000F07CF800BF05E0FF2000F077F80DF859
:10AC70000400641C042CF7D3012240210348F8F798
:10AC800013F90098401CC00838BD000000140240B1
:10AC900010B50024002240210F48F8F705F9902054
:10ACA00000F05CF8002000F059F8002000F056F8A1
:10ACB000002000F053F8FF2000F050F844EA002490
:10ACC000FF2000F04BF80443012240210248F8F72E
:10ACD000EBF8204610BD00000014024010B500241F
:10ACE000002240210848F8F7DFF8052000F036F888
:10ACF000FF2000F033F80446012240210248F8F713
:10AD0000D3F8204610BD00000014024070B505467F
:10AD10000024002240211048F8F7C6F84B2000F02C
:10AD20001DF8002000F01AF8002000F017F80020AD
:10AD300000F014F8002000F011F800BF04E0FF203C
:10AD400000F00CF82855641C082CF8DB0122402187
:10AD50000148F8F7A9F870BD0014024001B582B0AF
:10AD6000002001900A20012301AA02A900900448B2
:10AD7000FAF7BCF808B1FF2001909DF804000EBD61
:10AD8000CC08002010B500BFFFF7A8FF00F00100BD
:10AD90000028F9D110BD00002DE9F05F81460F4673
:10ADA0001646DFF8A8B04FEA1738C7F30B0ACAF502
:10ADB0008054A64200DC344644E04FEA08314FF4A8
:10ADC00080525846FFF70AFF002508E00AEB05000D
:10ADD0001BF80000FF2800D003E0681C85B2A542E4
:10ADE000F4DB00BFA54216DA4046FFF7A5FE0025BA
:10ADF00007E019F8050005EB0A010BF80100681CD3
:10AE000085B2A542F5DB4FEA08314FF4805258462F
:10AE100000F030F804E022463946484600F02AF8AF
:10AE2000A64200D10FE008F101084FF0000AA1444A
:10AE30002744301B86B2B6F5805F02DD4FF48054A4
:10AE400000E03446B9E700BFBDE8F09F740A002077
:10AE500010B5002240210648F8F726F80620FFF733
:10AE60007DFF012240210248F8F71EF810BD0000C6
:10AE7000001402402DE9F04107460E461446F0B298
:10AE8000C0F58075AC4200DC254612E02A4631460A
:10AE9000384600F013F8AC4200D10BE02F442E44AA
:10AEA000601B84B2B4F5807F02DD4FF4807500E052
:10AEB0002546EBE700BFBDE8F08100002DE9F04139
:10AEC00006460C461746FFF7C3FF002240211148F3
:10AED000F7F7EAFF0220FFF741FFC4F30740FFF74F
:10AEE0003DFFC4F30720FFF739FFE0B2FFF736FF5D
:10AEF000002504E0705DFFF731FF681C85B2BD429C
:10AF0000F8DB012240210348F7F7CEFFFFF73AFFB5
:10AF1000BDE8F0810014024010B50446A0B202F072
:10AF200081F810BD8AB007460D4616469846DDF8F2
:10AF300028904FF6FF708723F022002100900846EA
:10AF4000FAF775FFA648007800F00100D8B9A448C8
:10AF500000F04EFFB8B106A800F0EEF98246006896
:10AF6000DAE90223DAF80410CDE90323CDE901017F
:10AF7000002043463246294600909A4800F06AFE77
:10AF80009748AFF300809848007800F0010078B946
:10AF9000954800F02DFF58B1924833462A4639466D
:10AFA000CDE90009914800F0BDFB8F48AFF3008068
:10AFB0008C488F4908608D488E49086000214FF009
:10AFC0007F42701E6B1ECDE9012100908848006809
:10AFD00000680A46D0F804C085480068E0470021B0
:10AFE0003AE0002235E0C2EBC20C0CEB4C0CDFF86F
:10AFF00008A20AEB0C1CC1EBC10A0CEB8A0002EBA5
:10B00000C20C0CF1120C01EE10CAB8EEC10AC1EB71
:10B01000C10C4FF01C0A0AEB4C0C01EE10CAF8EE02
:10B02000C10A11B94FF0010C01E04FF0000C63466A
:10B0300080ED040A80ED000AC0ED050AC0ED010AAA
:10B0400003769FED6E1A80ED031A80ED021A00BFA1
:10B05000521C182AC7DB491C0C29C2DB0024A2465B
:10B060002FE04FF0000B27E00BF10103C3EBC3030C
:10B0700003EB4303DFF880C10CEB0313CAEBCA0CEC
:10B0800003EB8C02CBEBCB0303EB4303DFF868C18C
:10B090000CEB0313CAEBCA0C03EB8C012346641CB4
:10B0A00003EB4303DFF858C10CEB8300B1EE000A59
:10B0B00000F084FA0BF1010BBBF1170FD4DB0AF19E
:10B0C000010ABAF10C0FCCDB4FF0000A2FE04FF071
:10B0D000000B27E0CBEBCB0303EB4303DFF818C1F6
:10B0E0000CEB031C0AF10103C3EBC3030CEB83025B
:10B0F000CBEBCB0303EB4303DFF8FCC00CEB0313F8
:10B10000CAEBCA0C03EB8C012346641C03EB43031C
:10B11000DFF8ECC00CEB8300B1EE000A00F04EFA51
:10B120000BF1010BBBF1180FD4DB0AF1010ABAF1E4
:10B130000B0FCCDB00BFB4F5077F03D09A2131A001
:10B1400000F072F800BF4AE04FF0000A08E00AEB96
:10B150004A012B4A02EB810000F08CF90AF1010A46
:10B16000A245F4DB4FF0000A18E04FF0000B10E0AE
:10B17000CBEBCB0101EB41011F4A02EB0111CAEB02
:10B18000CA0201EB82009FED260A00F0EDF80BF1F8
:10B19000010BBBF1180FEBDB0AF1010ABAF10C0F3E
:10B1A000E3DB002000E0401CA042FCDB0A20FFF7AC
:10B1B000B3FE1C480068401C1A4908604FF4FA713D
:10B1C00090FBF1F201FB120048B901220021084670
:10B1D00000F038F800221146104600F033F8B3E7CB
:10B1E00030080020B45001202C08002040510120DC
:10B1F000200800201C080020D816012000000000B4
:10B20000583601202E2E5C4170705C55495F436FAB
:10B2100064655C5549636F64652E6370700000005F
:10B22000CDCCCC3D3408002004460D4604480068CF
:10B2300020B129462046024A1268904700BFFEE727
:10B240007C03002010B5A2B100EE100AB8EEC00ACF
:10B250000A4B83ED2E0A83ED2A0A00EE101AB8EE8F
:10B26000C00A83ED2F0A83ED2B0A012483F8C04026
:10B2700003E00024014B83F8C04010BD9826012054
:10B2800000BF704770B504462546284600F014F804
:10B29000054603482C4603482860204670BD000040
:10B2A000A8F0010824F0010810B50446204600F07B
:10B2B000DFF8044610BD000010B504460D482060BC
:10B2C0000020A080A0714FF0C040A06004F10C00ED
:10B2D00000F032F8A0F10C040020E061206260620E
:10B2E000A062E0622063A063E063206460642046A3
:10B2F00010BD000074F001082DE9F04104460D4630
:10B3000017461E46DDF8188000BF002E02DDB8F19A
:10B31000000F03DC47210748FFF786FF00BF2560C9
:10B320006760A819401EA06007EB0800401EE0609F
:10B33000BDE8F08100F101084FF0FF31C16081608C
:10B3400041600160704710B50446201DFFF7F4FF0F
:10B35000041F04F11400FFF7EFFFA0F11404002014
:10B360002060204610BD000030B52DED068B81B069
:10B370000446B0EE408A207E18B101B0BDEC068BC9
:10B3800030BD94ED000A84ED040A94ED010A84EDC9
:10B39000050A0020009094ED010ABDEEC00A10EEEF
:10B3A000102A94ED000ABDEEC00A10EE101A2D48C6
:10B3B000006800684FF07F4305682A480068A84786
:10B3C00094ED020A10EE101A0846F5F7C3F941ECA5
:10B3D0001A0B9FED250B53EC102BF5F7C9F841EC38
:10B3E000190BF5F7CAF9A06094ED030A10EE101AD4
:10B3F0000846F5F7AFF941EC1A0B9FED1B0B53EC28
:10B40000102BF5F7B5F841EC190BF5F7B6F9E0603C
:10B4100094ED000AD4ED020A00EE880A84ED000AD9
:10B4200094ED010AD4ED030A00EE880A84ED010AC6
:10B430000020009094ED010ABDEEC00A10EE102A23
:10B4400094ED000ABDEEC00A10EE101A054800681F
:10B4500000684FF0FF33056802480068A84700BF46
:10B460008BE70000200800205C8FC2F5285CEF3FCE
:10B4700000BF704770B52DED0A8B0446D4E9005625
:10B4800095ED000AD6ED000A30EE600AF0EE40BA03
:10B4900095ED010AD6ED010A30EE600AB0EE40BA31
:10B4A0006BEEAB0A4BEE0B0AB0EE600A00F055FCF7
:10B4B000D4ED020A30EE600AF0EE000A80EE201AA7
:10B4C000B0EE418A206890ED000A6068D0ED000A75
:10B4D00030EE600AB0EE409A206890ED010A606894
:10B4E000D0ED010A30EE600AF0EE408A69EE090AFA
:10B4F00048EEA80AB0EE600A00F02FFCF0EE409A89
:10B5000089EE290AB0EE40AA88EEA90AF0EE40AA18
:10B510002068007E18BB206890ED020A0AEE480AF7
:10B5200080ED020A206890ED030A0AEEC80A80ED59
:10B53000030A206890ED030A10EE101A0846F5F78A
:10B5400009F941EC1C0B9FED1B0B53EC102BF4F78E
:10B5500068FF41EC1B0BF5F710F92168C8606068C3
:10B56000007E18BB606890ED020A0AEE080A80EDC2
:10B57000020A606890ED030A0AEE880A80ED030A69
:10B58000606890ED030A10EE101A0846F5F7E2F82D
:10B5900041EC1C0B9FED070B53EC102BF4F741FF14
:10B5A00041EC1B0BF5F7E9F86168C860BDEC0A8B4C
:10B5B00070BD00009A9999999999A93F01604260DC
:10B5C00080ED020A70472DE9F04104460E46174609
:10B5D0001D466068B04202DDA068B84201DCBDE8EB
:10B5E000F081606948B16069006830B160692A46DD
:10B5F0003946036830469847F1E7E068022810D1E1
:10B6000005F47C40C5F3C40141EA501005F478010B
:10B6100040EA1120626807FB0262216921F81200EA
:10B6200005E0616807FB0161206940F8215000BF17
:10B63000D5E72DE9FE4F04460E4691469A460D9FEA
:10B64000606968B16069406850B100976069D0F87E
:10B6500004C05246494630460C9BE047BDE8FE8F89
:10B660006069D8B160690068C0B1CDF8049010E09D
:10B67000009608E060693A460368DDE900019847F2
:10B680000098401C009000985045F3DD0198401C44
:10B6900001900C9901988842EADDDFE7D4F804B004
:10B6A000A0680290E068022822D107F47C42C7F328
:10B6B000C40343EA521207F4780342EA13214D46C9
:10B6C00012E005FB0B63226902EB4300B04608E081
:10B6D000D84504DA029A954201DA20F8021B08F1F3
:10B6E0000108D045F4DD6D1C0C9A9542E9DD17E0A8
:10B6F0004D4611E005FB0B62216901EB8200B0466B
:10B7000007E0D84503DA02998D4200DA80C008F1DB
:10B710000108D045F5DD6D1C0C998D42EADD00BFB6
:10B7200000BF9BE72DE9F05F0446884691469A46A4
:10B73000DDE90A6B15482060C4F80490C4F808A03D
:10B74000C4F81080C4F814B00020A061E0610120AA
:10B75000A0630020E063F068E060012086F88000CC
:10B7600037462546266200BF00BF25B940F29B211F
:10B770000748FFF759FD00BFC7F8885005F11C00C6
:10B78000C7F8840000BF2046BDE8F09FDCF0010848
:10B790004BF101082DE9F84305460C4616461F46B5
:10B7A000DDE908890AE0CDF80090286843463A466A
:10B7B0002146D0F800C02846E047641CB442F2DDC0
:10B7C000BDE8F8832DE9FF4704460E461746984624
:10B7D0000C9D6068B04206DDA068B84203DD002E13
:10B7E00001DB002F01DABDE8FF8794F88100A84251
:10B7F00005D200BF4FF4D8714748FFF715FD94F804
:10B800008200A84201D284F8825094F88100A842B4
:10B8100008D1206843463A463146D0F80CC020464D
:10B82000E047E0E705EBC50204F1140101EB8201FA
:10B83000081D3A46314600F073FAD0B305EBC50156
:10B8400004F1140000EB81031B1D0FCB8DE80F00EA
:10B85000E06802281BD1684600F073FA0099711A5B
:10B86000019ABA1A02FB001105EBC50204F114009B
:10B8700050F8220008F47C42C8F3C40343EA521291
:10B8800008F4780342EA132220F8112010E06846F9
:10B8900000F057FA0099711A019ABA1A02FB0011C6
:10B8A00005EBC50204F1140050F8220040F8218095
:10B8B00000BF94F88200A84208D1206843463A4667
:10B8C0003146D0F80CC02046E0478CE74FF0000A24
:10B8D0004FF0020911E009EBC90204F1140101EB78
:10B8E000820101F114003A46314600F019FA10B114
:10B8F0004FF0010A03E0A9F10109A945EBD8BAF11B
:10B90000000F07D1206843463A463146D0F80CC0B4
:10B910002046E04700BF66E719F101080FB42DE9A2
:10B92000F04104460E4684F88160D4F8880060B186
:10B93000D4F88800806B012807DDD4E9012302FBDD
:10B9400003F0E168F4F737FD2061002525E000BF32
:10B9500008A800F0F6F9804608A800F0F8F908FBFE
:10B9600000F73846E168F4F726FD05EBC50204F15F
:10B97000140141F8220020B94FF42A710D48FFF755
:10B9800053FC00BF05EBC50104F1140000EB81007E
:10B9900008A98EC9001D8EC06D1C94F88100A842B4
:10B9A000D5DC08A92EC904F128002EC0BDE8F0019D
:10B9B0005DF814FB32F101082DE9FC5F04460E46E8
:10B9C00091469A46DDE90CB7E068022825D107F4D4
:10B9D0007C42C7F3C40343EA521207F4780342EAF5
:10B9E00013214D4615E0226932B1636805FB0363FC
:10B9F000226902EB430200E00022104600B90AE08F
:10BA0000B04603E020F8021B08F10108D045F9DD3B
:10BA10006D1C5D45E7DD00BF1AE04D4614E021696D
:10BA200031B1626805FB0262216901EB820100E02D
:10BA30000021084600B909E0B04602E080C008F1E4
:10BA40000108D045FADD6D1C5D45E8DD00BF00BF93
:10BA500094F8800008B9BDE8FC9F8434CDE900B7B4
:10BA60006068016853464A46D1F804C03146E04751
:10BA700020680068401C54F88419086000BFEAE799
:10BA80002DE9F04104460E4617461D462069C8B10F
:10BA9000E068022810D105F47C40C5F3C40141EAF6
:10BAA000501005F4780140EA1120626807FB026239
:10BAB000216921F8120005E0616807FB0161206936
:10BAC00040F8215094F8800008B9BDE8F081843432
:10BAD000606801682B463A46D1F800C03146E0471D
:10BAE00020680068401C54F88419086000BFECE727
:10BAF0002DE9FF4F89B0044617469B46DDE91685C0
:10BB0000189E0A98002801DA002000E00A980A909E
:10BB1000002F01DA002000E0384607466068401E2A
:10BB2000584502DA6068401E00E058468346A06827
:10BB3000401E404502DAA068401E00E040468046B4
:10BB400094F88100B0420CD1CDE9008520685B46B5
:10BB50003A46D0F808C020460A99E0470DB0BDE843
:10BB6000F08F94F88200B04266D106EBC60204F171
:10BB7000140101EB8201081D00F0E3F8089006EBC8
:10BB8000C60104F1140000EB81031B1D0FCBCDE9AE
:10BB90000623CDE9040105F47C40C5F3C40141EA64
:10BBA000501005F4780140EA11200390B94636E0C0
:10BBB000DDF828A02FE04A46514604A800F0B0F86E
:10BBC00038B3E068022813D1039881B20498AAEB35
:10BBD00000020598A9EB0003089803FB002206EB7E
:10BBE000C60304F1140050F8230020F8121010E0EE
:10BBF0000498AAEB00010598A9EB0002089802FB43
:10BC0000001106EBC60204F1140050F8220040F8BF
:10BC100021500AF1010ADA45CDDD09F10109C145DA
:10BC2000C6DDCDE9008520685B463A46D0F808C0FD
:10BC300020460A99E04791E708E03B465A46CDE99D
:10BC4000005620460A99FFF7A5FD7F1C4745F4DD05
:10BC500000BF83E72DE9F04F8BB004460F46164630
:10BC60009A46DDF850B02C4820606760A660C4F8A2
:10BC70000CA00020206103232422284904F1140091
:10BC800000F0A4F8A0F11404002004F8800FA070C4
:10BC90006060A060803C07A8FFF74EFB80461598C7
:10BCA000D8F80010884210D11698D8F804108842AD
:10BCB0000BD11798D8F80810884206D11898D8F8F0
:10BCC0000C10884201D1012000E00020B0B103AD8A
:10BCD0004FF00008C1463B464A464146284600967A
:10BCE000FFF70AFB00BFD5E90201CDE90001594683
:10BCF0002046D5E90023FFF711FE09E0DDE9170131
:10BD0000CDE9000159462046DDE91523FFF706FE7F
:10BD100020460BB0BDE8F08FF0F0010847B30008F3
:10BD20000346186888420ADC9868884207DB58682E
:10BD3000904204DCD868904201DB0120704700206B
:10BD4000FCE701460A688868801A401C7047014673
:10BD50004A68C868801A401C704710B52DED028BE8
:10BD6000B0EE408AB0EE480A00F053F8BDEC028B0A
:10BD700010BD00000FB4054B10B503A9044A02988A
:10BD800000F01AFB10BC5DF814FB0000E5FA000897
:10BD90003C08002002480068C0F302207047000001
:10BDA0000CED00E010B5002804DB0A07130E054A6D
:10BDB000135406E00A07140E034A00F00F031B1F7A
:10BDC000D45410BD00E400E018ED00E02DE9F0418E
:10BDD0001C4617460E00804607D0054602E028465E
:10BDE000B0473D442046641EF9D24046BDE8F0818C
:10BDF000016809B1002070470121016008467047C1
:10BE0000EFF311807047EFF305807047EFF3108078
:10BE1000704710B52DED028BB1EEC08A18EE100AF6
:10BE200020F00040C0F1FF40C00F0AD010EE100A11
:10BE300020F00040C0F1FF40C00F04BF012000F01F
:10BE400015F8B0EE480ABDEC028B10BD02E008C840
:10BE5000121F08C1002AFAD170477047002001E084
:10BE600001C1121F002AFBD1704700000149086080
:10BE7000704700004808002070B5B848B849B94973
:10BE80000160B948B949BA490160BA4C2046FFF788
:10BE900013FA0446B84820600020A06000BF254681
:10BEA000B64AB7492846F4F7A5FAB648FFF7EAF9C3
:10BEB0000446B24AB449F4F79DFAB448FFF7E2F9F0
:10BEC0000446AE4AB049F4F795FAB148FFF7DAF9FB
:10BED0000446AA4AAC49F4F78DFAAE48FFF7D2F906
:10BEE0000446A64AA849F4F785FAAB48FFF7CAF911
:10BEF0000446A24AA449F4F77DFAA848FFF7C2F91C
:10BF000004469E4AA049F4F775FAA548FFF7BAF926
:10BF100004469A4A9C49F4F76DFAA248FFF7B2F931
:10BF20000446964A9849F4F765FA9F48FFF7AAF93C
:10BF30000446924A9449F4F75DFA9C48FFF7A2F947
:10BF400004468E4A9049F4F755FA9948FFF79AF952
:10BF500004468A4A8C49F4F74DFA9648FFF792F95D
:10BF60000446864A8849F4F745FA9348FFF78AF968
:10BF70000446824A8449F4F73DFA9048FFF782F973
:10BF800004467E4A8049F4F735FA8D48FFF77AF97E
:10BF900004467A4A7C49F4F72DFA8A48FFF772F989
:10BFA0000446764A7849F4F725FA8748FFF76AF994
:10BFB0000446724A7449F4F71DFA8448FFF762F99F
:10BFC00004466E4A7049F4F715FA8148FFF75AF9AA
:10BFD00004466A4A6C49F4F70DFA7E48FFF752F9B5
:10BFE0000446664A6849F4F705FA7B48FFF74AF9C0
:10BFF0000446624A6449F4F7FDF97848FFF742F9CC
:10C0000004465E4A6049F4F7F5F97548FFF73AF9D6
:10C0100004465A4A5C49F4F7EDF97248FFF732F9E1
:10C020000446564A5849F4F7E5F96F48FFF72AF9EC
:10C030000446524A5449F4F7DDF96C48FFF722F9F7
:10C0400004464E4A5049F4F7D5F96948FFF71AF902
:10C0500004464A4A4C49F4F7CDF96648FFF712F90D
:10C060000446464A4849F4F7C5F96348FFF70AF918
:10C070000446424A4449F4F7BDF96048FFF702F923
:10C0800004463E4A4049F4F7B5F95D48FFF7FAF82F
:10C0900004463A4A3C49F4F7ADF95A48FFF7F2F83A
:10C0A0000446364A3849F4F7A5F95748FFF7EAF845
:10C0B0000446324A3449F4F79DF95448FFF7E2F850
:10C0C00004462E4A3049F4F795F95148FFF7DAF85B
:10C0D00004462A4A2C49F4F78DF94E48FFF7D2F866
:10C0E0000446264A2849F4F785F94B48FFF7CAF871
:10C0F0000446224A2449F4F77DF94848FFF7C2F87C
:10C1000004461E4A2049F4F775F94548FFF7BAF886
:10C1100004461A4A1C49F4F76DF94248FFF7B2F891
:10C120000446164A1849F4F765F93F48FFF7AAF89C
:10C130000446124A1449F4F75DF93C48FFF7A2F8A7
:10C1400004460E4A1049F4F755F93948FFF79AF8B2
:10C1500004460A4A0C49F4F74DF970BD74030020F7
:10C1600004F0010814F0010878030020E8EF01084A
:10C1700058F001083C500120B4EF0108000000080D
:10C1800081B2000868090120A9B20008B80901209D
:10C19000080A0120580A0120A80A0120F80A0120F3
:10C1A000480B0120980B0120E80B0120380C0120DE
:10C1B000880C0120D80C0120280D0120780D0120C9
:10C1C000C80D0120180E0120680E0120B80E0120B4
:10C1D000080F0120580F0120A80F0120F80F01209F
:10C1E0004810012098100120E8100120381101208A
:10C1F00088110120D8110120281201207812012075
:10C20000C81201201813012068130120B81301205F
:10C210000814012058140120A8140120F81401204A
:10C220004815012098150120E81501203816012035
:10C23000881601202DE9FF5F82B00021DDE904307E
:10C24000020DDDF840B0034318D044F61050A2F2BE
:10C25000FF3242431514119801281FD0A5EB0B00A3
:10C26000401C5FEA000A4FF000064E4FDFF838919D
:10C27000B046504615D5CAF1000413E011980124C8
:10C280004AA3012801D16FEA0B010298119AC0E973
:10C290000031C0E9024206B0BDE8F09FCBF10000DA
:10C2A000DFE704460021404A491842EB0450CDE93B
:10C2B000001012E0E00707D032463B4640464946B0
:10C2C000F4F756F98046894632463B4610461946F1
:10C2D000F4F74EF906460F466410002CEAD1DDE96A
:10C2E0000401DDE90023BAF1000F06DAF4F740F9A2
:10C2F00042464B46F4F73CF905E0F4F7ABF9424609
:10C300004B46F4F7A7F904460E460022284BF4F7F3
:10C3100069FB03D84FF0FF30014607E00022254BB0
:10C3200020463146F4F77DF8F4F743FB102409E08A
:10C33000002C0ADB0A220023F3F7BAFF039B3032FA
:10C340001A55641E50EA0102F2D1641C039AC4F12A
:10C3500011031444119A012A03D0012208430DD17C
:10C360000AE0084304D000204FF0110B119072E74F
:10C37000A3EB0B056D1E0DE05B4504DD4FF00002E5
:10C3800005F1010504E003DA4FF00002A5F1010513
:10C39000002AECD002981199C0E90231C0E90045A9
:10C3A00079E70000000014400000F03F300000007A
:10C3B0000000F0430000E03F2DE9FF4F95B09A46A2
:10C3C000884606460025EEE1252877D10024274639
:10C3D000F94A0121039400E0044316F8013F203B91
:10C3E00001FA03F01042F7D130782A2811D06FF00B
:10C3F0002F033078A0F13002092A16D8039A44F0AE
:10C40000020402EB820203EB42021044761C03900A
:10C41000EFE758F8042B0392002A03DA504244F461
:10C420000054039044F00204761C30782E2816D174
:10C4300016F8010F44F004042A280DD06FF02F02E3
:10C440003078A0F13003092B09D807EB870302EB02
:10C450004303C718761CF3E758F8047B761C307842
:10C460006C280FD006DC4C2817D068280DD06A281D
:10C4700014D104E0742810D07A280FD10DE044F4D0
:10C4800000140AE044F4801401E044F4401472788B
:10C49000824202D104F58014761C761C307866281E
:10C4A0000BD013DC582877D009DC002875D045283C
:10C4B000F6D04628F4D047281AD193E118E0632833
:10C4C00035D0642879D0652812D18BE1702873D0DB
:10C4D00008DC6728F1D069286FD06E280DD06F284E
:10C4E00006D1ACE073282CD0752874D0782853D0AE
:10C4F0005246179990476D1C54E1C4F3025002282C
:10C5000009D003280DD0D8F8001004280DD00D60F4
:10C5100008F1040846E1D8F80010EA17C1E9005212
:10C52000F6E7D8F800100D80F2E70D70F0E718F884
:10C53000041B8DF8001000208DF80100EB4601204F
:10C5400003E058F804BB4FF0FF3061074FF00001E3
:10C5500002D40DE009F101018946B9420FDA8145A3
:10C56000F8DB1BF809100029F4D108E009F10101FA
:10C5700089468142FADB1BF809100029F6D103989D
:10C580005346A0EB090721463846179A00F080FA77
:10C59000284400EB090507E044E008E10DE01BF842
:10C5A000010B524617999047B9F10109F7D253464A
:10C5B00021463846179AF2E039E00A21C4F30252C4
:10C5C0004FF0000B0091022A06D058F8040BC11757
:10C5D000032A09D00AE023E008F1070020F007024F
:10C5E000F2E80201904605E000B2C117042A01D129
:10C5F00040B2C117002906DA0A460021404261EB29
:10C6000002012D2202E0220504D52B228DF8042000
:10C61000012203E0E20701D02022F7E7914657E02C
:10C620000A2100E010214FF0000B00910BE01021D7
:10C630004FF0000B44F004040827009103E00820A9
:10C640004FF0000B0090C4F30252022A05D058F8B4
:10C65000040B0021032A08D008E008F1070020F0AD
:10C660000702F2E80201904603E080B2042A00D1FA
:10C67000C0B24FF0000922072AD53278702A07D0BD
:10C68000DDF800C08CF0100C5CEA0B0C05D00EE05D
:10C6900040228DF80420012208E050EA010306D070
:10C6A00030238DF804308DF8052002229146009B3E
:10C6B00083F0080353EA0B030AD150EA010201D1C7
:10C6C000620705D530228DF804204FF001097F1E46
:10C6D0003278582A04D039A20C920CAA02920BE0AC
:10C6E0003BA2F9E75B46009AF3F7E2FD0C9B9B5CEB
:10C6F000029A521E0292137050EA0102F2D102987D
:10C7000004A9081A00F1200B600702D524F4803434
:10C7100000E001275F4502DDA7EB0B0000E00020F1
:10C7200000EB0B01009003984944401A0390E0038A
:10C7300006D453462146179A039800F0A9F90544F8
:10C74000002706E001A85246C05D179990476D1C6E
:10C750007F1C4F45F6DBE0030CD553462146179A64
:10C76000039800F095F9054404E0302052461799EB
:10C7700090476D1C0099481E00900029F5DC08E0E8
:10C780000298029952460078491C029117999047E5
:10C790006D1CBBF10001ABF1010BF1DC5BE100F0C2
:10C7A00065F90544761C307800287FF40DAE19B089
:10C7B0002846BDE8F08F00000928010030313233EF
:10C7C00034353637383961626364656600000000CD
:10C7D00030313233343536373839414243444546B7
:10C7E00000000000600700D4062708F1070020F0D1
:10C7F0000700F0E80223804603F0004C5FEA0C00DB
:10C8000001D097A009E0200501D596A005E0E0073A
:10C8100001D095A001E0AFF24C001390307823F0E6
:10C82000004365280CD006DC452809D046281DD0D9
:10C8300047287FD13BE0662818D067287AD136E0B8
:10C840000021112F01DB112000E0781CCDE900014F
:10C8500004A90CA8FFF7EEFCDDE90D010C9A4FF0DE
:10C86000000B07F10109109200914EE04FF00040DB
:10C870000097CDE9011004A90CA8FFF7DBFCDDE966
:10C880000D020C9B0F994FF0000B914610930092F4
:10C8900011B9791C00EB0109B7EB090003D4C0F111
:10C8A000FF3B07F10109A9EB0700019042E0012FCE
:10C8B00000DA01270021112F01DD112000E03846A8
:10C8C000CDE9000104A90CA8FFF7B4FCDDE90D01D6
:10C8D0000C9A00914FF0000BB946109221070FD42B
:10C8E000009A4A4503DA914601E0A9F10109B9F13C
:10C8F000010F05DD109AA9F10101515C3029F4D036
:10C90000B84202DA10F1040F03DA0121CDE9011077
:10C9100010E0002803DC8344A9EB000102E0411C85
:10C92000494500DD8946A0EB0B00401C01904FF00B
:10C9300000400290200705D40198484502DB4FF0E3
:10C94000FF30019000208DF84B0002980DF14B074D
:10C95000B0F1004F25D002200C902B200D900298B2
:10C9600000280CDA404202902D200D9007E00A21A9
:10C970000298F3F71EFF3031029007F8011D0C9961
:10C98000481E0C900029F2DC02980028EFD1791E95
:10C990000D980870307800F0200040F0450007F84E
:10C9A000020D11A8C01BC01D02901398007800B1A1
:10C9B000012000EB0901019801EBE07102980144AC
:10C9C0000398401A401E0390E00306D453462146C4
:10C9D000179A039800F05CF805441398007818B192
:10C9E0005246179990476D1CE00323D553462146C4
:10C9F000179A039800F04CF805441BE0BBF1000FB8
:10CA000007DB0098584504DD1098179910F80B00C3
:10CA100001E0179930205246904701980BF1010B25
:10CA2000401E05F10105019004D12E2052461799B0
:10CA300090476D1CB9F10001A9F10109DEDC05E0A8
:10CA400017F8010B5246179990476D1C0299481E22
:10CA500002900029F4DC53462146179A03989EE67B
:10CA60002D0000002B000000200000002DE9F04107
:10CA7000044600251E461746880404D405E03946BE
:10CA80002020B0476D1C641EF9D52846BDE8F08112
:10CA90002DE9F041044600251E469046C80301D505
:10CAA000302700E02027880404D505E041463846B9
:10CAB000B0476D1C641EF9D52846BDE8F081000022
:10CAC00070B504460D460020E070401E20632946E4
:10CAD000204605F075FC08B1042070BD04F2322038
:10CAE00004F071FC4AF65521884201D00320F4E796
:10CAF00094F83400E92807D094F83400EB2817D1D3
:10CB00003620005D902813D104F16A0004F04FFC38
:10CB100020F07F400749884201D10020DDE704F181
:10CB2000860004F044FC0449884201D10020D4E787
:10CB30000220D2E74641540046415433024600E009
:10CB4000521C107810B110788842F9D110787047D3
:10CB500030B502460B460020044601461CE01A4848
:10CB600000EB01100068A8B1174800EB0110006845
:10CB70001568A8420FD1144800EB01104068956871
:10CB8000A84208D1104800EB011080685569A842FE
:10CB900001D103E00124491C0229E0D300BF02298E
:10CBA00006D10CB9022B01D1002030BD1220FCE7C8
:10CBB00033B9054800EB01108089B0F5807F01D1C1
:10CBC0001020F2E70020F0E7640001200146002079
:10CBD0000BE0074A02EB001212688A4204D10022DD
:10CBE000034B03EB00131A60401C0228F1D370477B
:10CBF0006400012070B505460C46164606A0FFF7F6
:10CC0000B9F80222084920460CF068FB0749204683
:10CC10000DF04CFE002070BD636F6E6E6563746531
:10CC200064206F6B210A000029CD0008C1CC0008E8
:10CC300070B504460D4607A0FFF79CF80AA0FFF761
:10CC400099F80EA0FFF796F816A0FFF793F8FBF7F8
:10CC5000EBF970BD636F6E6E65637464206572720C
:10CC60006F7221210A00000074727920746F2072A3
:10CC700065636F6E6E65637421210A006469736376
:10CC80006F6E6E656374696E672C72656C65617337
:10CC9000652074637020626C6F636B206D656D6FCF
:10CCA00072790A007265696E697469616C697A6586
:10CCB0002074637020636C69656E740A0000000064
:10CCC0002DE9F04107460D4614461E468CB12189D8
:10CCD00028460DF0A3FE22890123284661680FF043
:10CCE00059FA21896068F3F74EFB204607F008F9EE
:10CCF00008E03EB905A0FFF73DF8284609F05EF9C7
:10CD0000FBF792F90020BDE8F081000073657276B0
:10CD1000657220697320646973636F6E6E656374F6
:10CD20006564210A000000003EB505460C4606A2D7
:10CD300007CA8DE8070001230C22694620460FF040
:10CD400029FA00203EBD000049276D20636C69650B
:10CD50006E740A00F0B503460D461E68D86A021DBF
:10CD6000280B7789B0FBF7F400BF02CA09B900208D
:10CD7000F0BD8C4200D202E0641A121DF5E700BF3C
:10CD800010682044F4E70246891E9069801E88429C
:10CD900001D8002070475389D06A01FB0300F9E7EE
:10CDA0002DE9F04782468946DAF80040B9F1000FD4
:10CDB00006D1276917B1A069B84215D8012713E039
:10CDC0004946504602F0C4FE0646022E02D2012019
:10CDD000BDE8F087701C08B93046F9E7A069B04299
:10CDE00001D93046F4E74F463D4600BF6D1CA069AF
:10CDF000A84204D80225BD4201D90020E8E729460F
:10CE0000504602F0A5FE064606B909E0012E01D003
:10CE1000701C08B93046DBE7BD42E7D10020D7E7F8
:10CE200000BF4FF0FF322946204608F079F98046CE
:10CE3000B8F1000F08D1B9F1000F05D02A464946D4
:10CE4000204608F06DF98046B8F1000F0DD125613C
:10CE5000D4E90510801E814202D86069401E6061DD
:10CE6000207940F00100207107E0B8F1010F02D1F4
:10CE70004FF0FF3000E0012005462846A8E70000FB
:10CE800010B5122209A10C4802F06AF80B4908708B
:10CE90000B4B29220B49084802F0D6FA07490870C3
:10CEA000054801F0BFFC0549087010BD7465737436
:10CEB000322E74787400000034F00020C501002088
:10CEC000C8010020CC0100202DE9F35F8A46DAF882
:10CED0000090009800F124050B222021284605F03F
:10CEE0005FF80020804607464FF0080B00BF384629
:10CEF0007F1C19F80040202C00DC51E02F2C01D0C1
:10CF00005C2C0AD100E07F1C19F807002F28FAD00A
:10CF100019F807005C28F6D042E02E2C01D0D84545
:10CF20000CD3BBF10B0F01D02E2C02D00620BDE894
:10CF3000FC9F4FF008084FF00B0BD8E7812C1CDB4F
:10CF4000FE2C1ADC38467F1C19F80060402E01DBED
:10CF50007E2E03DD802E05DBFE2E03DCABF101000F
:10CF6000404501D80620E2E7404608F101082C546C
:10CF7000404608F101082E5411E0214614A0FFF7A5
:10CF8000DDFD08B10620D2E7612C04DB7A2C02DC3F
:10CF9000A4F12000C4B2404608F101082C54A6E7D1
:10CFA00000BF09EB0700CAF80000B8F1000F01D17B
:10CFB0000620BCE72878E52801D105202870202C20
:10CFC00001DC042000E00020E8720020AFE7000050
:10CFD000222A2B2C3A3B3C3D3E3F5B5D7C7F000090
:10CFE00010B50246531E1A46022B17D20C4B03EB08
:10CFF00002139989B1F5807F00D10021002901DD5C
:10D000004B1E99B2064B03EB0213998121B9002301
:10D01000034C04EB02142360002000E0022010BD4A
:10D020006400012010B504462046F4F7D3FF10BD7C
:10D030002DE9F04104460E46D4F800800021204638
:10D0400000F000F90546EDB9002700BF4046E16950
:10D0500005F0B6F9054605B113E0206A0078E52829
:10D0600002D0206A007820B9781C0746B04201D16E
:10D0700007E000270121204600F040F80546002D7A
:10D08000E4D000BF042D00D107252846BDE8F0817B
:10D090002DE9F041044627680021204600F0D2F82F
:10D0A000054615B12846BDE8F08100BF3846E16964
:10D0B00005F086F9054605B11DE0206A06780EB92F
:10D0C000042518E0206AC07A00F03F00A071206AB1
:10D0D000C07A00F0080038B90B2204F12401206A5C
:10D0E00004F032FC00B906E00021204600F006F80A
:10D0F0000546002DDAD000BF2846D4E72DE9F047D9
:10D10000044689462568606900F12007E06910B18E
:10D11000B7F5001F02D30420BDE8F087C7F30B006A
:10D12000002868D1E069401CE061A06938B928890D
:10D13000B0EB571F5FD80020E0610420ECE768895E
:10D14000401E00EA1730002855D12046A16902F0A0
:10D15000FFFC0646012E01D80220DDE7701C08B94D
:10D160000120D9E7A869B0423FD8B9F1000F03D137
:10D170000020E0610420CFE72046A169FFF710FE00
:10D1800006460EB90720C7E7012E01D10220C3E7EA
:10D19000701C08B90120BFE7284608F031FA08B131
:10D1A0000120B9E74FF48052002105F1340004F06A
:10D1B000F7FE4FF0000831462846FFF7E4FD2863EC
:10D1C0000CE00120E870284608F01AFA08B10120A6
:10D1D000A2E708F10108286B401C286368894045D4
:10D1E000EFD8286BA0EB08002863A66131462846DB
:10D1F000FFF7C9FDE0616761C7F30B0105F134007A
:10D2000008442062002087E770B5044626680121A3
:10D210002046FFF70DFF054695B93046E16905F058
:10D22000CFF8054665B920220021206A04F0B8FE37
:10D230000B2204F12401206A04F098FB0120F07015
:10D24000284670BD2DE9F04104460D462668B5F527
:10D25000001F02D205F01F0010B10220BDE8F081CE
:10D260006561A7681FB93078032800DBB76A47B942
:10D270003089B0EB551F01D80220EFE7B06AE061BA
:10D280001CE070894FEA003811E03946204602F070
:10D290005FFC0746781C08B90120DFE7022F02D3A4
:10D2A000B069B84201D80220D8E7A5EB080545458A
:10D2B000EBD239463046FFF766FDE061A761E069D1
:10D2C00008B90220CAE7E06900EB1530E061C5F358
:10D2D0000B0106F13400084420620020BEE7000084
:10D2E00070B5044600250848005D58B9012006497C
:10D2F000085501F10802105D0A1D52F8242011683A
:10D3000088470546284670BD840001202DE9F0417C
:10D3100004460D4616460649085D091F51F82410BB
:10D3200032460B692946984707463846BDE8F081E2
:10D330008C0001202DE9F04104460D4616461F469B
:10D340000749085D091F51F824103B463246D1F8C1
:10D3500008C02946E04780464046BDE8F08100000D
:10D360008C00012070B50446044A105D121F52F86B
:10D370002420516888470546284670BD8C0001204E
:10D380002DE9F04104460D4616461F460749085D43
:10D39000091F51F824103B463246D1F80CC02946EB
:10D3A000E04780464046BDE8F08100008C00012047
:10D3B0002DE9F04104460D4600BF05F003000028AA
:10D3C00008D000BF0BA34FF4B67216A11DA0FEF744
:10D3D000D1FC00BF00BF2E4608F060F90746A068E8
:10D3E00000683060A0680660384608F063F9BDE860
:10D3F000F08100002E2E2F4D6964646C6577617298
:10D4000065732F54686972645F50617274792F4C30
:10D410007749502F7372632F636F72652F6D656D3F
:10D42000702E63006D656D705F667265653A206D84
:10D43000656D2070726F7065726C7920616C6967C0
:10D440006E656400417373657274696F6E20222586
:10D450007322206661696C6564206174206C696E5A
:10D460006520256420696E2025730A0070B5054685
:10D4700008F014F90646A8680468002C16D0206845
:10D48000A968086000BF04F00300002808D000BFAE
:10D4900009A34FF48C7214A11CA0FEF76BFC00BF13
:10D4A00000BF304608F006F9204670BD304608F04F
:10D4B00001F90020F9E700002E2E2F4D6964646CFD
:10D4C0006577617265732F54686972645F50617229
:10D4D00074792F4C7749502F7372632F636F726585
:10D4E0002F6D656D702E63006D656D705F6D616C85
:10D4F0006C6F633A206D656D702070726F7065722D
:10D500006C7920616C69676E6564000041737365B6
:10D510007274696F6E2022257322206661696C65C2
:10D5200064206174206C696E6520256420696E201A
:10D5300025730A00002100E0491C022905D2064893
:10D5400000EB011000680028F6D1022901D001206B
:10D5500070470020FCE700006400012070B505461C
:10D56000002411E004EB4400094901EBC000067DF2
:10D570004EB104EB440001EBC0008068A84202D128
:10D58000204600F087F9641C0A2CEBDB70BD00001C
:10D590003C8200202DE9FF5F0646894617464FF082
:10D5A0000A0AD346D04600240A20039000200290A5
:10D5B0000190009000BF73E004EB4400764901EB5A
:10D5C000C000057DB8F10A0F02D10DB9A04665E093
:10D5D000002D63D000BF012D0AD0022D08DA00BF54
:10D5E0006EA340F223127BA18AA0FEF7C3FB00BF0B
:10D5F00000BFAEB104EB4401674A02EBC1013068E1
:10D60000496888420CD13FB104EB4400114601EB5C
:10D61000C0008068B84203D1204604B0BDE8F09F46
:10D62000012D28D104EB44005B4951F8300080B152
:10D6300004EB440001EBC000418A029881422DDBDB
:10D64000039404EB4400544901EBC000408A02906B
:10D6500024E004EB4400504901EBC000418A0198EA
:10D6600081421BDBA24604EB44004B4901EBC000A6
:10D67000408A019012E0022D10DB04EB4400464981
:10D6800001EBC000418A0098814207DBA34604EB0E
:10D690004400414901EBC000408A0090601C04B284
:10D6A0000A2C89DB09F0020028B9B8F10A0F05D16C
:10D6B00009F0010010B94FF0FF30AEE7B8F10A0FE2
:10D6C00001DA444631E0BBF10A0F11DA5C4600BFD3
:10D6D00004EB4400304951F8300040B100BF2FA3A3
:10D6E00040F26D1255A14BA0FEF744FB00BF0CE0C9
:10D6F000BAF10A0F01DA544607E003980A2801DA62
:10D70000039C02E04FF0FF3087E700BF0A2C08DBE4
:10D7100000BF22A340F27F124EA13EA0FEF72AFBDB
:10D7200000BF00BF204600F0B5F800BF0A2C08DBA0
:10D7300000BF1AA340F2831246A136A0FEF71AFBDF
:10D7400000BF00BF00BF04EB4400134901EBC00061
:10D75000007D40B100BF11A34FF4C27242A12DA0C1
:10D76000FEF708FB00BF00BF36B104EB44010A4AD4
:10D7700002EBC10130684860002004EB4401064A16
:10D7800002EBC101488204EB4400114601EBC000EA
:10D790008760204641E700003C8200202E2E2F4D5E
:10D7A0006964646C6577617265732F54686972642B
:10D7B0005F50617274792F4C7749502F7372632FC9
:10D7C000636F72652F697076342F6574686172704B
:10D7D0002E6300007374617465203D3D20455448FC
:10D7E0004152505F53544154455F50454E44494E59
:10D7F00047207C7C207374617465203E3D20455435
:10D80000484152505F53544154455F535441424C38
:10D8100045000000417373657274696F6E202225A4
:10D820007322206661696C6564206174206C696E86
:10D830006520256420696E2025730A006172705F7F
:10D840007461626C655B695D2E71203D3D204E55B3
:10D850004C4C000069203C204152505F5441424CE6
:10D86000455F53495A4500006172705F7461626C94
:10D87000655B695D2E7374617465203D3D20455480
:10D88000484152505F53544154455F454D5054599F
:10D890000000000010B5044604EB44000C4951F8A8
:10D8A000300060B104EB4401094A52F8310006F03F
:10D8B00027FB002004EB4401054A42F83100002018
:10D8C00004EB4401024A02EBC101087510BD0000DF
:10D8D0003C820020F0B587B007460D4600BF002D02
:10D8E0000AD100BF2EA340F28A223BA13EA0FEF740
:10D8F00041FA00BF07B0F0BD00BF7C682088B0F5DA
:10D90000807F08D12079062805D16079042802D1CA
:10D910006088082803D0384606F0F2FAEAE7D4F81F
:10D920000E000690A0690590686808B9002607E017
:10D9300005986968884201D1012000E00020064670
:10D940000EB1012000E00220034604F1080206A9FE
:10D95000284600F0CBFCE088B0F5807F03D0B0F51E
:10D96000007F15D113E086B1022206AB04F1080056
:10D97000291DCDE90232CDE9001005F12A03024646
:10D980002631284600F05CFB00E000BF01E000E02B
:10D9900000BF00BF384606F0B3FA00BFAAE7000098
:10D9A0002E2E2F4D6964646C6577617265732F54F8
:10D9B000686972645F50617274792F4C7749502F97
:10D9C0007372632F636F72652F697076342F65747D
:10D9D000686172702E6300006E6574696620213D77
:10D9E000204E554C4C000000417373657274696F92
:10D9F0006E2022257322206661696C656420617443
:10DA0000206C696E6520256420696E2025730A00EC
:10DA10002DE9FE4304460F461546A94600BF002CDB
:10DA200008D100BF5DA340F21E326AA16DA0FEF7CF
:10DA3000A1F900BF00BF00BF47B900BF57A340F224
:10DA40001F3272A167A0FEF795F900BF00BF00BFAB
:10DA5000002D08D100BF51A34FF448726EA161A000
:10DA6000FEF788F900BF00BF2146286802F05AFB84
:10DA700010B1DFF8B48186E0287800F0F000E028EB
:10DA800016D101208DF8040000208DF805005E20DD
:10DA90008DF80600687800F07F008DF80700A87800
:10DAA0008DF80800E8788DF809000DF1040869E0A8
:10DAB0002868A1680840D4E90112114088420ED0BC
:10DAC000288880B24FF6A961884208D0E06810B17A
:10DAD00004F10C0903E06FF00300BDE8FE83534836
:10DAE000007800EB4000524901EBC000007D0228A5
:10DAF0001BDB4E48007800EB400001EBC000806863
:10DB0000A04212D14949097801EB4101484A02EB90
:10DB1000C101D9F800004968884206D1434802781B
:10DB20003946204600F086F8D7E7002622E006EBCB
:10DB300046003F4901EBC000007D022818DB06EBE0
:10DB4000460001EBC0008068A04211D106EB4601FF
:10DB5000374A02EBC101D9F800004968884207D171
:10DB60003248067032463946204600F063F8B4E782
:10DB7000701CC6B20A2EDADB3A464946204600F04F
:10DB80000DF9AAE700BF4FF40060434604F12A02F2
:10DB900039460090204600F0B9FC9EE72E2E2F4D0E
:10DBA0006964646C6577617265732F546869726427
:10DBB0005F50617274792F4C7749502F7372632FC5
:10DBC000636F72652F697076342F65746861727047
:10DBD0002E6300006E6574696620213D204E554C11
:10DBE0004C000000417373657274696F6E202225CA
:10DBF0007322206661696C6564206174206C696EB3
:10DC00006520256420696E2025730A007120213D5E
:10DC1000204E554C4C0000006970616464722021F4
:10DC20003D204E554C4C00002CEE010838010020E0
:10DC30003C820020F8B505460E46144600BF04EBB2
:10DC40004400314901EBC000007D022808DA00BF22
:10DC50002EA340F2EE223BA146A0FEF78BF800BFB8
:10DC600000BF04EB4400284901EBC000007D0228FE
:10DC700039D104EB440001EBC000408AB0F58E7F3F
:10DC800011DD04EB44000A4602EBC000011D2846EA
:10DC900000F09CFA38BB032004EB44011A4A02EB63
:10DCA000C10108751FE004EB4400174901EBC000F7
:10DCB000408AB0F5877F16DB04EB44000B4603EB8C
:10DCC000C00000F10C0204EB440003EBC000011D96
:10DCD000284600F087FA30B9032004EB44010A4AD1
:10DCE00002EBC10108754FF40060009004EB4400A2
:10DCF000054901EBC00000F10C0305F12A02314691
:10DD0000284600F003FCF8BD3C8200202E2E2F4D4B
:10DD10006964646C6577617265732F5468697264B5
:10DD20005F50617274792F4C7749502F7372632F53
:10DD3000636F72652F697076342F657468617270D5
:10DD40002E6300006172705F7461626C655B61726A
:10DD5000705F6964785D2E7374617465203E3D2048
:10DD60004554484152505F53544154455F535441C8
:10DD7000424C4500417373657274696F6E202225B1
:10DD80007322206661696C6564206174206C696E21
:10DD90006520256420696E2025730A002DE9FE4F59
:10DDA00081460F46164609F12A0A4FF0FF300290CD
:10DDB000002001904946386802F0B4F938B9387843
:10DDC00000F0F000E02802D00FB1386818B96FF009
:10DDD0000F00BDE8FE8F4A4601213846FFF7DAFB07
:10DDE0008046B8F1000F02DA4FFA88F0F1E700BF81
:10DDF000B8F17F0F08D300BF5FA340F2C1326CA11E
:10DE00006FA0FDF7B7FF00BF00BF08F0FF0404EBF1
:10DE10004400754901EBC000007D70B901200190FC
:10DE200004EB4401704A02EBC101087504EB4400A5
:10DE3000114601EBC000C0F8089000BF04EB44009D
:10DE4000694901EBC000007D01280FD004EB4400BC
:10DE500001EBC000007D022808DA00BF46A340F2B3
:10DE6000CD3262A156A0FDF785FF00BF00BF01982B
:10DE700000B93EB93946484600F0A8F902900EB9FB
:10DE80000298A6E700BF46B900BF3BA340F2E132CB
:10DE900060A14BA0FDF76EFF00BF00BF04EB440084
:10DEA000514901EBC000007D022811DB5C48047081
:10DEB0004FF40060009004EB440001EBC00000F15F
:10DEC0000C0352463146484600F020FB029050E0D9
:10DED00004EB4400444901EBC000007D012848D117
:10DEE0004FF0000B354618E000BF68892989884249
:10DEF0000AD1286840B100BF1FA340F2F13249A106
:10DF00002FA0FDF737FF00BF00BF287B00F04000C7
:10DF100010B14FF0010B02E02D68002DE4D100BFDD
:10DF2000BBF1000F07D032464FF420710E2005F0F0
:10DF3000DBFD054603E03546284606F0D7F9A5B1D6
:10DF400004EB4400284951F8300030B104EB44019F
:10DF5000254A52F8310005F0D3FF04EB4400224972
:10DF600041F830500020029002E04FF0FF30029064
:10DF700000BF02982DE700002E2E2F4D6964646CBF
:10DF80006577617265732F54686972645F5061725E
:10DF900074792F4C7749502F7372632F636F7265BA
:10DFA0002F697076342F6574686172702E6300007B
:10DFB00074797065206F766572666C6F770000000B
:10DFC000417373657274696F6E2022257322206617
:10DFD00061696C6564206174206C696E65202564DC
:10DFE00020696E2025730A003C8200206172705FF8
:10DFF0007461626C655B695D2E7374617465203D4C
:10E000003D2050454E44494E47206F7220535441A5
:10E01000424C45007120213D204E554C4C000000E3
:10E02000380100206E6F207061636B65742071751C
:10E030006575657320616C6C6F7765642100000005
:10E040002DE9FC5F06460F4690469946DDE90CAB8C
:10E050000020019000BF002E08D100BF31A340F284
:10E0600057423EA141A0FDF785FE00BF00BF4FF41F
:10E0700020721C210E2005F0ADFA05461DB94FF0A7
:10E08000FF30BDE8FC9F00BF68891C2808DA00BF8C
:10E0900024A340F262423FA134A0FDF76BFE00BF13
:10E0A00000BF6C680F9803F074FBE08000BF96F827
:10E0B0003000062808D000BF1AA340F26942424946
:10E0C0002AA0FDF757FE00BF00BFD9F80000A060EE
:10E0D000B9F80400A081DBF80000C4F81200BBF816
:10E0E0000400E082DAF80000C4F80E000E98006820
:10E0F000A0614FF48070208008206080062020718D
:10E100000420607140F6060043463A4629460090D6
:10E11000304600F0FBF9284605F0F2FE0025019894
:10E12000AFE700002E2E2F4D6964646C6577617235
:10E1300065732F54686972645F50617274792F4CF3
:10E140007749502F7372632F636F72652F697076F2
:10E15000342F6574686172702E6300006E65746997
:10E160006620213D204E554C4C00000041737365E4
:10E170007274696F6E2022257322206661696C6556
:10E1800064206174206C696E6520256420696E20AE
:10E1900025730A00636865636B2074686174206688
:10E1A0006972737420706275662063616E20686F97
:10E1B0006C64207374727563742065746861727026
:10E1C0005F68647200000000A0F2010870B50446A8
:10E1D0000D46034A2946204600F004F870BD0000B1
:10E1E0002CEE01087FB504460D4616460121074A6C
:10E1F000201D04F12A038DE82500039132461946BB
:10E200002046FFF71DFF04B070BD000032EE01088C
:10E2100070B5002464E004EB4400334901EBC00016
:10E22000057D002D5BD004EB440001EBC000408A6B
:10E23000401C04EB44012C4A02EBC101488204EB70
:10E240004400114601EBC000408AB0F5967F0DDA1C
:10E2500004EB440001EBC000007D01280AD104EB6F
:10E26000440001EBC000408A052803DB2046FFF78D
:10E2700011FB34E004EB44001B4901EBC000007DBE
:10E28000032807D1042004EB4401174A02EBC10123
:10E29000087524E004EB4400134901EBC000007D45
:10E2A000042807D1022004EB44010F4A02EBC1010C
:10E2B000087514E004EB44000B4901EBC000007D3D
:10E2C00001280CD104EB44020B4603EBC202111DE2
:10E2D00004EB440203EBC2029068FFF777FF641C73
:10E2E0000A2C98DB70BD00003C8200202DE9F84329
:10E2F00005460E461746984600BF95F8300006289A
:10E3000008D000BF2EA340F2A9123BA143A0FDF705
:10E3100031FD00BF00BF5EB1306848B129463068AA
:10E3200001F000FF20B9307800F0F000E02803D1C0
:10E330006FF00F00BDE8F8832A4641463046FFF7EC
:10E3400029F90446002C01DA60B2F3E7022004EB5D
:10E3500044013C4A02EBC101087504EB440011463C
:10E3600001EBC000856004EB440001EBC00039689C
:10E37000C160B9880182002004EB440102EBC101B5
:10E38000488204EB4400114651F83000B0B104EB70
:10E39000440051F83090002004EB440142F8310071
:10E3A0004FF400603B4605F12A024946009028469A
:10E3B00000F0ACF8484605F0A3FD00BF0020B9E727
:10E3C0002E2E2F4D6964646C6577617265732F54CE
:10E3D000686972645F50617274792F4C7749502F6D
:10E3E0007372632F636F72652F697076342F657453
:10E3F000686172702E6300006E657469662D3E68F8
:10E4000077616464725F6C656E203D3D20455448C1
:10E410005F4857414444525F4C454E004173736519
:10E420007274696F6E2022257322206661696C65A3
:10E4300064206174206C696E6520256420696E20FB
:10E4400025730A003C8200202DE9F04104460E4667
:10E450004FF00E0860890E2800DC4FE0E07B18B911
:10E4600096F83400401CE0736568AF89287800F0A6
:10E470000100B0B12878012809D1687888B9A87856
:10E480005E280ED1607B40F01000607309E0062228
:10E490001D492846F1F782FF18B9607B40F008005B
:10E4A0006073082F03D0B7F5C16F22D110E096F842
:10E4B000310000F0080000B920E04146204605F098
:10E4C00069FF00B11AE03146204601F0B9FF11E0C2
:10E4D00096F8310000F0080000B90FE041462046F0
:10E4E00005F058FF00B109E031462046FFF7F2F988
:10E4F00000E003E000BF0020BDE8F081204605F009
:10E50000FFFC0020F8E700002CEE01082DE9F047A1
:10E5100005460E4617469846DDF82090484603F01B
:10E5200038F982460E21304604F0D6FF00B122E0D1
:10E530007468A4F80CA0D8F800002060B8F80400B3
:10E54000A0803868C4F80600B888608100BF95F8DC
:10E550003000062808D000BF08A34FF4997215A117
:10E5600021A0FDF707FC00BF00BF31462846AA697D
:10E570009047BDE8F0876FF00100FAE72E2E2F4D8F
:10E580006964646C6577617265732F54686972643D
:10E590005F50617274792F4C7749502F7372632FDB
:10E5A0006E657469662F65746865726E65742E6336
:10E5B000000000006E657469662D3E6877616464D2
:10E5C000725F6C656E206D757374206265203620F5
:10E5D000666F722065746865726E65745F6F7574BE
:10E5E0007075742100000000417373657274696F67
:10E5F0006E2022257322206661696C656420617437
:10E60000206C696E6520256420696E2025730A00E0
:10E6100010B5044600BF44B900BF0CA34FF40E72FE
:10E6200011A115A0FDF7A6FB00BF00BF732084F861
:10E630003200742133200155194860611948A061E6
:10E64000204602F0D1FE002010BD00002E2E2F4CDF
:10E650005749502F5461726765742F6574686572ED
:10E660006E657469662E63006E6574696620213D6F
:10E67000204E554C4C000000417373657274696FF5
:10E680006E2022257322206661696C6564206174A6
:10E69000206C696E6520256420696E2025730A0050
:10E6A00011DA0008411601080646354600BF4FF052
:10E6B000FF310E48006804F005FD0028F7D100BFC7
:10E6C0000B4807F05BF8284602F038FF04463CB1DF
:10E6D000294620462A69904710B1204605F010FCD3
:10E6E000034807F060F8002CEAD1E0E76000002062
:10E6F000940000207047000008B5054600200090F7
:10E700002C4600BF6A4601211048F4F769F80098CA
:10E7100000F004000090206890F83100C0F3800001
:10E7200028B9009818B1206804F0B6F90AE020680A
:10E7300090F83100C0F3800020B1009810B9206833
:10E7400004F044F9C82004F077FADBE7144B00200A
:10E750001CB5044600200190009094F83100C0F3ED
:10E760008000002854D02E484068A0B34FF4805257
:10E7700000212B48F4F77AF9F4F79CFB019000BFD5
:10E780006A4601212648F4F72BF8F4F793FB019928
:10E79000401AB0F57A7F00D924E0009800F02000FC
:10E7A0002028EDD16A4610211D48F4F719F8009889
:10E7B00000F0040020B14FF400611948C16002E08C
:10E7C00000211748C160009800F0020020B100212C
:10E7D0001348816014E004E04FF4804110488160E8
:10E7E0000EE000BF0E48C068C0F3CF000C49896836
:10E7F000C1F34F0140EA010200210948F4F736F95C
:10E8000000210748F3F7FAFB0548F4F73DF802E06A
:10E810000348F4F762F82046FFF76CFF1CBD0000C8
:10E82000144B002038B50546284600F0B5FD0446D7
:10E8300084B9694628460FF089F8044654B9286916
:10E84000FEF7CEFB04460CB900202860002100989A
:10E850000EF02CFD204638BD2DE9FF4F95B0174630
:10E86000012014904002139015A801F0E3F90290E2
:10E870000298002803DA0B2019B0BDE8F08FFE499A
:10E88000029851F8200028B10021FB4A029852F862
:10E89000200001700298C0B21190002010901198D1
:10E8A000FEF71EFD0190019800F0010008B1032061
:10E8B000E2E7019800F0040008B10A20DCE70DAAA5
:10E8C00003211198FEF722FD50B90D9840B10D9823
:10E8D000B0F5004F04D80D98401E0D99084008B1BE
:10E8E00001200D904FF4805A0FB1574505D3B7F171
:10E8F000807F02D8781E384008B11320BCE7B7FBF0
:10E90000FAF7189C2298B0FBFAF00E900E9800FBD4
:10E910000AF00F900F9808B90E20ADE700BF07AAC4
:10E9200001211198FEF7F2FC08B10120A4E7169826
:10E9300000F0080008B1002000E03F200A9007998D
:10E940000A98814201D20E2096E707990A98081A80
:10E9500007900798802801D20E208DE700BF00BFE6
:10E96000802F01D9132087E7169800F0020050B1DC
:10E97000169800F00700022803D0169800F0010056
:10E9800008B9032607E0169800F0010008B9132023
:10E9900072E7022600BF00BF00BF3D46032E2DD107
:10E9A000A5B907984FEA504900200390012503E0DC
:10E9B0000398401C03906D00B049039831F8100093
:10E9C00020B1039831F810004845F1D90798B0FB01
:10E9D000F5F8082000EB88005044401EB0FBFAF028
:10E9E000059020200690002004904FF6F570804599
:10E9F00002D9A348804535D90E203DE7A5B907982F
:10EA00004FEA103900200390012503E00398401CD1
:10EA100003906D009B49039831F8100020B10398D2
:10EA200031F810004845F1D90798B0FBF5F840F6E9
:10EA3000F570804503D9042000EB480906E0012663
:10EA400008EB4800401C032101EB500909EB0A00C8
:10EA5000401EB0FBFAF00590012006908003B0FB49
:10EA6000FAF0049006990A980844099009990598C3
:10EA700001440498084408900D9908980844401EE1
:10EA8000491E20EA01010898A1EB0009032E06D1D6
:10EA900006984844069009984844099002E0059871
:10EAA00048440590089800EB05110A98081A079940
:10EAB000884201D90E20DFE6DDE90601091A059832
:10EAC000091A0498081AB0FBF5F8032E0AD14FF67C
:10EAD000F570804506D81FB96808071E00D031E0E0
:10EAE0000E20C9E6022E24D14FF6F570804514D9C8
:10EAF0002FB94020B0EB450F01D36F0022E01698EC
:10EB000000F0020008B103261CE027B968000746A0
:10EB1000802800D816E00E20AEE640F6F57080455D
:10EB200007D827B968000746802800D80AE00E20D9
:10EB3000A2E6012E05D140F6F570804501D90E20E0
:10EB40009AE600E029E700BF52460021204603F084
:10EB500027FA0B224CA1204602F008FF514604F18F
:10EB60000B0006F0F0FC6573069881B204F10E000C
:10EB700006F0E9FC01202074032E01D1002001E001
:10EB80004FF40070014604F1110006F0DCFC079818
:10EB9000B0F5803F06D2079881B204F1130006F069
:10EBA000D2FC04E004F12000079906F0C0FCF82034
:10EBB00060753F2104F1180006F0C5FCFF2104F147
:10EBC0001A0006F0C0FC04F11C000A9906F0AFFC24
:10EBD000032E28D101F02CF80146009004F14300E7
:10EBE00006F0A5FC04F12400059906F0A0FC022122
:10EBF00004F12C0006F09BFC012104F1300006F02A
:10EC0000A2FC062104F1320006F09DFC802084F86D
:10EC10004000292084F8420013221EA104F147007D
:10EC200002F0A4FE19E001F003F80146009004F19F
:10EC3000270006F07CFC059881B204F1160006F06E
:10EC400082FC802084F82400292084F826001322E6
:10EC500015A104F12B0002F089FE4AF6552104F5B6
:10EC6000FF7006F070FC012321460A9A1198FEF706
:10EC700087FB18B30120FFE5140200207AEF01089A
:10EC8000F5FFFF0F6CEF0108EBFE904D53444F531F
:10EC9000352E30004E4F204E414D4520202020463D
:10ECA00041543332202020004E4F204E414D45200C
:10ECB000202020464154202020202000032E33D144
:10ECC00001230A9A921D21461198FEF759FB5246DC
:10ECD0000021204603F064F97D49204606F027FC18
:10ECE0007C4904F5F27006F022FCA8F1010104F55C
:10ECF000F47006F01CFC022104F5F67006F017FC17
:10ED00004AF6552104F5FF7006F01DFC01230A9A0E
:10ED1000D21D21461198FEF733FB01230A9A521C9B
:10ED200021461198FEF72CFB002120460F9A03F094
:10ED300037F909980C900020039041E0032E0FD181
:10ED40006FF00701204606F0F2FB311F201D06F090
:10ED5000EEFB6FF0704104F1080006F0E8FB09E0FB
:10ED6000012E01D15C4801E06FF00700014620460A
:10ED700006F0DDFB05980B9000BF0E990B988842BA
:10ED800001D90E9800E00B9881464B4621460C9A1B
:10ED90001198FEF7F5FA08B101206DE55246002101
:10EDA000204603F0FDF80C9848440C900B98A0EB1B
:10EDB00009000B900B980028DFD10398401C0390AA
:10EDC00003980028BAD0032E01D1284600E0049809
:10EDD0000B9000BF0E990B98884201D90E9800E065
:10EDE0000B9881464B4621460C9A1198FEF7C8FABB
:10EDF00008B1012040E50C9848440C900B98A0EB1A
:10EE000009000B900B980028E4D100BF032E02D11B
:10EE10000C2012900CE00798B0F5803F02D306203A
:10EE2000129005E0022E01D1042000E00120129092
:10EE300000BF169800F00800F0BB524600212046A3
:10EE400003F0AEF84AF6552104F5FF7006F07BFB9F
:10EE500004F5DF7B00208BF8000001208BF8010017
:10EE60008BF8020000208BF8030012988BF8040046
:10EE700007990A98084443F6C161B0FBF1F9FE20F6
:10EE80008BF805003F2040EA99008BF806008BF8CC
:10EE900007900BF108000A9906F049FB0BF10C00F2
:10EEA000079906F044FB0123002221461198FEF742
:10EEB00067FA08B10120DFE4FFE70022114611984C
:10EEC000FEF724FA08B10120D6E40020D4E40000C3
:10EED0005252614172724161F8FFFF00F7B582B092
:10EEE00016460398019001A800F0A4FE0546002DE7
:10EEF00002DA0B2005B0F0BD184850F8254054B197
:10EF00002046FDF763FEE06800F0D1FB08B902205F
:10EF1000F0E700202070029850B10020029908709C
:10EF2000E8B202990C3100F0B1FB08B90220E1E728
:10EF30000A49029841F82500029808B1012E01D033
:10EF40000020D7E7002202A903A800F0F3FB074640
:10EF5000394602980EF0AAF93846CBE71402002091
:10EF60002DE9F74F8EB0044616461CB9092011B0A2
:10EF7000BDE8F08F06F03F06324601A90FA800F069
:10EF8000D9FB0546002D79D10198029002A80F996E
:10EF900000F056FD05468DB99DF8370000F0800061
:10EFA00008B106250AE026F0010008B1012000E0C2
:10EFB0000020014602A8FDF7CBFD054606F01C0027
:10EFC00000285CD06DB1042D08D1FEF7B3FA18B15A
:10EFD00002A8FEF719F900E01220054646F00806DF
:10EFE0000AE09DF80E0000F0110008B1072503E0CB
:10EFF00006F0040000B10825002D51D106F00800EC
:10F0000000284DD000F014FE00900A9901F10E0086
:10F01000009906F08CFA0A9901F11600009906F0A1
:10F0200086FA20200A99C8720A99019802F0ACF970
:10F03000814600220A99019806F067FA0A9901F1BF
:10F040001C00002106F073FA01200199C870B9F183
:10F05000000F25D00198006B00900022494602A8BD
:10F0600006F006FA0546DDB9DDE9001003F0A8F95F
:10F070000546A9F101000199086111E075E07DB92B
:10F080009DF80E0000F0100008B1042508E006F01D
:10F09000020028B19DF80E0000F0010000B1072524
:10F0A000BDB906F0080008B146F040060198006BB3
:10F0B00060620A98A06226F0010008B1012000E019
:10F0C0000020014602A800F0CFFF2061206900B9AE
:10F0D0000225002D57D10A99019802F055F9A06038
:10F0E0000A9901F11C0002F062F9E0600020E06280
:10F0F000019820600198C088A08026750020607566
:10F100002062A0614FF48052002104F1300002F02F
:10F1100047FF06F0200040B3E06830B3E068A0612C
:10F12000019840894FEA003AA768D4F80C800CE0B7
:10F130003946204600F00CFD0746012F00D8022575
:10F14000781C00B90125A8EB0A080DB9D045EFD805
:10F15000E76155B9C8F30B0038B139460198FDF79E
:10F1600012FEB0F1000B01D102250CE00BEB1830C0
:10F170002062226A01994878012304F13001FEF7E8
:10F18000D9F800B101250DB1002020602946019871
:10F190000EF08CF82846EAE62DE9FF4F85B00446CC
:10F1A00015469A46DDF818B00020CAF8000003A9F9
:10F1B00020460EF0CBFB0490049810B9607D0490BB
:10F1C00038B1DDE903010EF071F8049809B0BDE82B
:10F1D000F08F207D00F0010028B9072103980EF080
:10F1E00065F80720F2E7A169E068401A01900198EC
:10F1F000854200D9019DC6E0208BC0F30B0000289A
:10F2000075D103984089401EA16900EA1139B9F10E
:10F21000000F29D1A06910B9A06802900CE0E06A43
:10F2200028B12046A169FDF795FD029004E0204633
:10F23000E16900F08DFC02900298022807D20220BA
:10F240006075022103980EF031F80220BEE70298A3
:10F25000401C38B901206075012103980EF026F892
:10F260000120B3E70298E061E1690398FDF78BFDA7
:10F2700006463EB902206075022103980EF016F88A
:10F280000220A3E74E444FEA1538B8F1000F2FD003
:10F2900009EB080003994989884203D903984089FA
:10F2A000A0EB090803994878434632465946FEF7D1
:10F2B00041F838B101206075012103980DF0F6FF87
:10F2C000012083E7207D00F0800068B1206A801B68
:10F2D000404509D2216A891B0BEB01304FF4805263
:10F2E00004F1300102F042FB4FEA083741E02DE023
:10F2F000206AB04229D0207D00F08000A0B1226AAF
:10F3000003994878012304F13001FEF739F838B148
:10F3100001206075012103980DF0C8FF012055E719
:10F32000207D00F07F002075039948780123324644
:10F3300004F13001FDF7FEFF38B1012060750121B5
:10F3400003980DF0B3FF012040E72662208BC0F345
:10F350000B00C0F58057AF4200D92F46208BC0F379
:10F360000B0204F1300011183A46584602F0FEFA3A
:10F3700000BFBB44A0693844A061DAF800003844FB
:10F38000CAF80000ED1B002D7FF436AF0021039872
:10F390000DF08CFF002019E7F8B5044669462046B9
:10F3A0000EF0D4FA0646002E48D1207D00F0400031
:10F3B000002843D0207D00F0800090B1226A00999F
:10F3C0004878012304F13001FDF7DAFF28B101216B
:10F3D00000980DF06BFF0120F8BD207D00F07F004C
:10F3E000207500F025FC0746616A009802F0E8FFEE
:10F3F00006461EBBA56AE87A40F02000E87229465E
:10F40000A268206806F081F805F11C00E16806F0AA
:10F410008EF8394605F1160006F089F8002105F14D
:10F42000120006F090F801200099C870009806F0CC
:10F430009FF80646207D00F0BF00207531460098F9
:10F440000DF034FF3046C7E72DE9FF4F83B0044687
:10F4500015469B46049800900020CBF8000001A9B7
:10F4600020460EF073FA0290029810B9607D029067
:10F4700038B1DDE901010DF019FF029807B0BDE8D0
:10F48000F08F207D00F0020028B9072101980DF0CF
:10F490000DFF0720F2E700BFA0692844A169884258
:10F4A00002D2A069C0F1FF35E2E0208BC0F30B006F
:10F4B00000287DD101984089401EA16900EA113AD7
:10F4C000BAF1000F30D1A06938B9A76897B9002107
:10F4D0002046FDF765FC07460CE0E06A28B12046AF
:10F4E000A169FDF737FC074604E02046E169FDF716
:10F4F00057FC074607B9BEE0012F07D1022060750F
:10F50000022101980DF0D2FE0220B7E7781C38B92D
:10F5100001206075012101980DF0C8FE0120ADE7C2
:10F52000E761A06800B9A760207D00F08000A0B16D
:10F53000226A01994878012304F13001FDF720FF88
:10F5400038B101206075012101980DF0AFFE012056
:10F5500094E7207D00F07F002075E1690198FDF7B8
:10F5600012FC06463EB902206075022101980DF09A
:10F570009DFE022082E756444FEA1539B9F1000F8B
:10F5800031D00AEB090001994989884203D90198D1
:10F590004089A0EB0A09019948784B463246009908
:10F5A000FDF7EEFE48B1012060750121019800E0F1
:10F5B00032E00DF07BFE012060E7206A801B4845A9
:10F5C0000ED2206A801B009A02EB00314FF4805269
:10F5D00004F1300002F0CAF9207D00F07F002075B0
:10F5E0004FEA09382FE0206AB04214D0E168A069E0
:10F5F000884210D2019948780123324604F1300143
:10F60000FDF798FE38B101206075012101980DF0D9
:10F610004DFE012032E72662208BC0F30B00C0F5BF
:10F620008058A84500D9A846218BC1F30B0204F1EC
:10F63000300150184246009902F098F9207D40F0C0
:10F640008000207500BF009840440090A0694044AD
:10F65000A061E168A069884201D9A06900E0E06882
:10F66000E060DBF800004044CBF80000A5EB0805A3
:10F67000002D7FF41AAF00BF207D40F040002075C0
:10F68000002101980DF012FE0020F7E670B5064645
:10F690000C4600220121084603F078FD2060206816
:10F6A00008B1012000E000200546284670BD10B5D5
:10F6B0000446204603F048FD012010BD10B5044665
:10F6C000204603F0D7FD10BD70B5044600254FF469
:10F6D0007A71204603F0F6FC00B90125284670BD7A
:10F6E00038B50024012210491048FFF7F7FB044603
:10F6F000BCB14FF480500E4B0246012100900A48E5
:10F70000FFF7AAF8044654B9012207490748FFF752
:10F71000E5FB04460CB9002038BD0120FCE70120C0
:10F72000FAE70020F8E700000D02002000E00020CA
:10F7300000D000202DE9F74F8AB000210B9801601E
:10F740000A9800F077FA08900898002803DA0B204E
:10F750000DB0BDE8F08FB649089851F820400CB9BB
:10F760000C20F5E7204601F034FE08B90F20EFE742
:10F770000B9804600C9800F0FE000C90207878B193
:10F780006078FDF7EFFD814609F0010040B90C9863
:10F7900020B109F0040008B10A20D9E70020D7E71A
:10F7A00000202070089860706078FDF799FD814610
:10F7B00009F0010008B10320CAE70C9820B109F054
:10F7C000040008B10A20C3E7002739462046FDF7A8
:10F7D00077F90546022D01D02EDA2DE0002614E03F
:10F7E0004FF4DF7000EB061104F134000844099077
:10F7F0000998007920B10998083001F0D8FD00E09F
:10F80000002002A941F82600761C042EE8D3002629
:10F8100006B1761E00BF02A850F8267027B13946FF
:10F820002046FDF74DF900E003200546022D03DBDD
:10F83000701C06460428EED3042D01D1012087E771
:10F84000022D01DB0D2083E704F13F0001F0BBFD39
:10F85000B0F5805F01D00D207AE704F14A0001F095
:10F86000B2FD8046B8F1000F04D104F1580001F058
:10F870009EFD8046C4F81C804420005DA070A078E6
:10F88000012804D0A078022801D00D2060E7A078DC
:10F8900008FB00F84120005D6081608918B1608933
:10F8A000411E084008B10D2052E704F1450001F067
:10F8B0008AFD2081207A00F07F0008B10D2047E703
:10F8C00004F1470001F07FFD8246BAF1000F04D138
:10F8D00004F1540001F06BFD824604F1420001F096
:10F8E00072FD0190019808B90D2031E7019840445C
:10F8F000218900EBD11007900798824501D20D2095
:10F9000026E70798AAEB00006189B0FBF1FBBBF189
:10F91000000F01D10D201BE703254FF6F57083453D
:10F9200000D8022540F6F570834500D801250BF17B
:10F930000200A06127620198384460620798384449
:10F94000E062032D13D104F15E0001F03CFD08B12B
:10F950000D20FDE6208908B10D20F9E604F16000D4
:10F9600001F025FDA062A0698000069014E02089C6
:10F9700008B90D20ECE6606A4044A062022D02D175
:10F98000A069400007E0207E00F00100A16901EBC2
:10F99000410100EB51000690E169069800F6FF7006
:10F9A000B1EB103F01D20D20D2E64FF0FF30606185
:10F9B000206180202071032D2CD104F1640001F01E
:10F9C00002FD012826D1791C204602F0F9FC08BB73
:10F9D0000020207104F2322001F0F5FC4AF6552196
:10F9E000884217D104F1340001F0E1FC114988424A
:10F9F00010D104F5067001F0DAFC0F49884209D1F4
:10FA000004F5077001F0D3FC606104F5087001F0A3
:10FA1000CEFC2061257009480088401C80B207494F
:10FA20000880E0802046FDF7D1F8002090E6000035
:10FA3000140200205252614172724161180200208A
:10FA40002DE9F34104462646D6F8008002E00198ED
:10FA5000401C0190019800782F28F8D00198007878
:10FA60005C28F4D00020B06001980078202808D2EB
:10FA700080212F20015500212046FDF7E3FB05469C
:10FA80002CE000BF01A92046FDF71EFA054605B18E
:10FA900023E02046FDF7FCFA05462F20075D3DB127
:10FAA000042D04D100BF07F0040000B9052514E0BF
:10FAB00007F0040000B110E0B07900F0100008B9C0
:10FAC00005250AE0A08AC0F30B0208F134001118E2
:10FAD000404601F059FCB060D4E700BF2846BDE8BD
:10FAE000FC81000013B50C464FF47A73012269467D
:10FAF0000248F5F709FE00981CBD0000240900200B
:10FB000010B5002821D0114B0022001F196803E016
:10FB1000814203D80A4649680029F9D152B11368D5
:10FB2000841A9C4204D1006818441060104602E018
:10FB3000506000E0186039B102680B1A934203D19B
:10FB40000B681A4402604968416010BD40080020FB
:10FB50002DE9F04781460C46D9F80050022C02D31B
:10FB6000A869A04202D84FF001085EE04FF0FF38CC
:10FB70002878012804D002282CD0032851D13CE059
:10FB8000264606EB5606686A00EB1631284602F058
:10FB900017FC00B148E03046761CC0F30B0105F1BC
:10FBA0003400475C686A00EB1631284602F008FC16
:10FBB00000B139E0C6F30B0105F13400405C47EABF
:10FBC000002704F0010008B1380901E0C7F30B0079
:10FBD000804629E0686A00EBD421284602F0F0FB59
:10FBE00000B121E040F6FF7101EA440205F1340161
:10FBF000501801F0E8FB804616E0686A00EB94219B
:10FC0000284602F0DDFB00B10EE040F6FF7101EA8C
:10FC1000840205F13401501801F0C9FB20F070484E
:10FC200002E04FF0010800BF00BF4046BDE8F0878A
:10FC30000020704770B502464FF0FF301568DDB107
:10FC4000116800E0491C0D78212D02D30D783A2D62
:10FC5000F8D10D783A2D0ED1146814F8015BA5F196
:10FC600030030A2B06D28C4204D11BB918464D1C16
:10FC70002946156070BD002000BFFBE72DE9F84361
:10FC800004460D4616461F46DDF820801FFA88F010
:10FC9000BBB2B2B2A9B20090A0B2F6F7C8F8BDE804
:10FCA000F88370B504460D461646B2B2A9B2A0B2AA
:10FCB000F6F7AFF870BD70B505460C462246032135
:10FCC000284600F039F970BD2DE9FF5F05468A46E8
:10FCD000654880680390039800780007860E142E0C
:10FCE00000DAB7E06889042800D2B3E068680478D5
:10FCF00014B1082C70D100E0A6E0DFF86C9109F196
:10FD000014095948007D00F0F000E02800D1A5E07A
:10FD1000554A1168506900F005FA00B19EE0288943
:10FD2000082800D296E006F10E01284603F0D4FB25
:10FD3000002840D0288930441FFA80FB2889584584
:10FD400000DD8BE04FF4207259460E2003F042FC98
:10FD5000074607B982E0798906F10800814203D29B
:10FD6000384604F0CDF879E0324678680399F0F728
:10FD7000E3FA3146384604F00DFB00280DD000BFF1
:10FD800000BF3AA3B62247A154A0FBF7F3FF00BF80
:10FD900000BF384604F0B4F860E02946384603F066
:10FDA000FBFE18B1384604F0ABF857E0284604F0E3
:10FDB000A7F83D4611E006F10E01284604F0EAFAE4
:10FDC00058B100BF00BF29A3C7224EA143A0FBF733
:10FDD000D1FF00BF00BF41E024E0D5F804803146E8
:10FDE000284603F079FBE0B96F68D9F80000F860A5
:10FDF0001D4800693861002088F80000A8F802005A
:10FE0000FF2038720020788101200021FF230A465C
:10FE1000CDE9010A00914946284600F0F1FB8346EE
:10FE200000BF11E0032C0ED00B2C0CD00C2C0AD0F0
:10FE3000042C08D0052C06D00D2C04D00E2C02D09A
:10FE4000112C00D000BF00BF00BF284604F058F8B6
:10FE5000BDE8FF9F284604F053F8F9E7284604F070
:10FE60004FF800BFF4E70000B84B00202E2E2F4DB6
:10FE70006964646C6577617265732F546869726434
:10FE80005F50617274792F4C7749502F7372632FD2
:10FE9000636F72652F697076342F69636D702E639E
:10FEA0000000000069636D705F696E7075743A20C0
:10FEB0006D6F76696E6720722D3E7061796C6F612F
:10FEC0006420746F2069636D702068656164657279
:10FED000206661696C65640A000000004173736507
:10FEE0007274696F6E2022257322206661696C65C9
:10FEF00064206174206C696E6520256420696E2021
:10FF000025730A0069636D705F696E7075743A20BD
:10FF1000726573746F72696E67206F726967696E5C
:10FF2000616C20702D3E7061796C6F616420666138
:10FF3000696C65640A0000002DE9FF4707468846A2
:10FF400091464FF420722421222003F043FB054602
:10FF50000DB9BDE8FF8700BF6889242808D200BF1B
:10FF600019A34FF4B47226A130A0FBF703FF00BF22
:10FF700000BFD7F804A06C6884F8008084F8019072
:10FF80000020A080E08079686A6802F108001C22E5
:10FF9000F0F7D2F9DAF80C00039003A800F098FD0E
:10FFA00006465EB10020608001200021FF2303AAE5
:10FFB000CDE901060091284600F022FB284603F017
:10FFC0009FFF00BFC5E700002E2E2F4D6964646CB3
:10FFD0006577617265732F54686972645F506172EE
:10FFE00074792F4C7749502F7372632F636F72654A
:10FFF0002F697076342F69636D702E6300000000E6
:020000040801F1
:10000000636865636B2074686174206669727374D9
:1000100020706275662063616E20686F6C64206971
:10002000636D70206D6573736167650041737365FF
:100030007274696F6E2022257322206661696C6577
:1000400064206174206C696E6520256420696E20CF
:1000500025730A0070B505460C4622460B2128463A
:10006000FFF76AFF70BD000010B502460B46002185
:1000700016E02B4800EB011000681468A0420ED176
:10008000274800EB011040689468A04207D124483B
:1000900000EB011080685469A04200D102E0491CC5
:1000A0000229E6D300BF022922D1002100E0491C29
:1000B000022905D21A4800EB011000680028F6D189
:1000C000022901D1002010BD154C04EB0114106869
:1000D0002060134C04EB011490686060104C04EB3A
:1000E00001145069A06000200D4C04EB0114A081A4
:1000F00033B10B4800EB0110808908B10020E2E722
:1001000013B14FF4807004E0054800EB01108089C2
:10011000401C034C04EB0114A081481CD3E70000F1
:100120006400012018B502460092D04300B10AB91C
:10013000012018BD91F8310000F0020008B900203C
:10014000F7E74868904201D10020F2E700988B68F9
:100150001840D1E901342340984208D1886822EA46
:1001600000008C68E343984201D10120E1E70020C0
:10017000DFE700002DE9F74F8CB004460F464FF043
:100180000008398DA1F11400C11700EB5171C1F3C2
:10019000CF0A1420059060680990DDF8249099F842
:1001A000000000F00F001421B1EB800F04D06FF0BD
:1001B00005000FB0BDE8F08F00BF608914280BDA8E
:1001C00000BF72A34FF43F727FA186A0FBF7D2FD60
:1001D00000BF6FF00500ECE700BFB9F8060001F0C2
:1001E000D8FA04900498C0F30C000790049800F427
:1001F00000500390208914381FFA80FBBDE04FF6B1
:10020000FF7000EACA00584501DD584603E04FF68A
:10021000FF7000EACA0008904FF4207214210E20EB
:1002200003F0D8F9054605B9ADE000BF6889142888
:1002300008DA00BF55A34FF4497274A169A0FBF717
:1002400099FD00BF00BF142268680999F0F774F89F
:10025000D5F8049008980A9054E061890598081A26
:1002600080B2029000BF61890598814208DA00BF20
:1002700046A340F22D326DA15AA0FBF77BFD00BFD3
:1002800000BF02990A98884201DA0A9800E00298B1
:100290008046B8F1000F03D100200590246831E0BA
:1002A00000F060FC06461EB9284603F029FE6AE00D
:1002B000616805980844334641224146CDE900086B
:1002C000002003F035FB0B900B9830B9304600F05E
:1002D0004FFC284603F014FE55E0204604F006F8D3
:1002E00074615648306128460B9903F04BFB0A981D
:1002F000A0EB080080B20A900A9810B10020059087
:10030000246800BF0A980028A7D10598404480B20D
:100310000590388D1438584501DB012000E000209D
:1003200006900798C0F30C000490069808B1039853
:1003300018B1049840F400500490049801F029FA90
:10034000A9F806000899143188B201F022FAA9F838
:1003500002000020A9F80A007B69294638460E9A57
:100360009847284603F0CCFD0898ABEB00001FFA35
:1003700080FB0798504480B20790BBF1000F7FF4D8
:100380003EAF002015E74FF0FF3012E72E2E2F4D25
:100390006964646C6577617265732F54686972640F
:1003A0005F50617274792F4C7749502F7372632FAD
:1003B000636F72652F697076342F6970345F66726F
:1003C00061672E63000000006970345F66726167C8
:1003D00028293A207062756620746F6F2073686FE9
:1003E00072740000417373657274696F6E20222508
:1003F0007322206661696C6564206174206C696E8B
:100400006520256420696E2025730A00746869736D
:10041000206E656564732061207062756620696E68
:10042000206F6E652070696563652100702D3E6CDC
:10043000656E203E3D20706F66660000C1120108A7
:100440002DE9F04707460E467D6828780421B1EB78
:10045000201F05D0384603F053FD0020BDE8F0878B
:10046000287800074FEA9068688801F092F9814681
:100470003989494503DD4946384603F083FE7889CA
:10048000404505DB3889484502DBB8F1140F04DA32
:10049000384603F035FD0020E0E728694949486106
:1004A000E86808610846007D00F0F000E0280AD105
:1004B00096F8310000F0010018B1706808B13446B8
:1004C0001CE000241AE0304600F080F808B1344601
:1004D00014E000243B48007D7F280FD03A48046890
:1004E00009E0B44200D105E0204600F06FF800B109
:1004F00003E000BF2468002CF3D100BF3149086934
:100500003146FFF70FFE28B92E48007C00F0F000BE
:10051000E02804D1384603F0F3FC00209EE724B91C
:10052000384603F0EDFC002098E7E8884FF63F716D
:10053000084038B1384600F04DF907460FB90020A1
:100540008CE77D681F480460466085602878000756
:10055000800E1C4988814146384603F01BFF687AAB
:10056000012806D0062809D13146384606F018FD84
:100570001DE031463846FFF7A7FB18E011494869EE
:100580002146FFF7CFFD70B90E48007D00F0F00066
:10059000E02808D00FFA88F1384603F0A8FD0221C0
:1005A0003846FFF788FB384603F0AAFC00BF00BFBF
:1005B00000200449086048608860888108614861BB
:1005C00000BF4BE7B84B0020D800002010B5044610
:1005D00094F8310000F0010070B1606860B1074824
:1005E00040696168884205D0044948692146FFF79F
:1005F00099FD08B1012010BD0020FCE7B84B002098
:100600002DE9FE4F07460C4615469846DDE90C9A43
:100610000E9EA34625B10CB1206808B906F1040B63
:1006200043462A4659463846CDE9009A029600F0DC
:1006300003F8BDE8FE8F00002DE9F84F05460F4690
:1006400090469A46DDF828B00C9E00BFA87B012892
:1006500008D000BF37A34FF4557243A145A0FBF764
:1006600089FB00BF00BFB8F1000F46D04FF014095E
:100670001421284602F030FF18B16FF00100BDE8E8
:10068000F88F6C6800BF6889142808D200BF29A3BE
:100690004FF4627241A137A0FBF76CFB00BF00BFB3
:1006A00084F808A00B986072D8F8000020614846D2
:1006B0004FEAE97109EB9171C1F3870141F0400103
:1006C000217084F801B0288901F063F8608000206F
:1006D000E0803E48008801F05CF8A0803B4800883C
:1006E000401C3A4908801FB939480068E06001E0C1
:1006F0003868E0600020608109E06889142802DA27
:100700006FF00100BBE76C6820690090E846308D0F
:1007100048B12889318D884205DD42463146284658
:10072000FFF728FDABE742462946304673699847F4
:10073000A5E700002E2E2F4D6964646C6577617209
:1007400065732F54686972645F50617274792F4CBD
:100750007749502F7372632F636F72652F697076BC
:10076000342F6970342E6300702D3E726566203D13
:100770003D203100417373657274696F6E202225CC
:100780007322206661696C6564206174206C696EF7
:100790006520256420696E2025730A0063686563FF
:1007A0006B2074686174206669727374207062755E
:1007B000662063616E20686F6C6420737472756369
:1007C000742069705F686472000000003A010020C4
:1007D00064EF01082DE9F14F84B00498456828784A
:1007E00000F00F001421B1EB800F00D011E1E88878
:1007F00000F0CFFFC0F30C004FF6FF7101EAC00A12
:10080000688800F0C6FF074628780007810E02912D
:100810000299B94200DDFCE00298381A87B20498C8
:1008200003F058F906467D48018888190A280ADD30
:100830003146284600F0E6FC20B178480088304474
:100840000A2800DDE5E07648046811E06069E9689F
:10085000884209D1A0692969884205D1A089A9885F
:10086000884201D1012000E0002000B102E02468AC
:10087000002CEBD100BF34B93146284600F0A8FB6C
:10088000044694B9C5E0E88800F083FFC0F30C008B
:1008900058B9E08900F07DFFC0F30C0028B11422A4
:1008A000294604F10800EFF747FDE888012121EA15
:1008B00050100190019850B10AEB070188B25045E1
:1008C00003DB4FF6EB71884200DD80E000BF20467D
:1008D000019A049900F098F983460BF1010000B9E0
:1008E00075E04E48008830444C490880019840B17A
:1008F0000AEB070188B2A083A17F41F00101A17733
:1009000000BFBBF1010F60D1A08B143080B200900A
:1009100060684068D0F8009060684568142204F16F
:1009200008012846EFF708FD009800F032FF6880C4
:100930000020E8806881606804900DE0D9F8040028
:1009400003901421484603F025FD4946049803F01E
:1009500019F80398D0F80090B9F1000FEED13048A3
:100960000068844202D14FF000080EE02C48D0F815
:10097000008006E0D8F80000A04200D104E0D8F8DA
:100980000080B8F1000FF5D100BF4146204600F0CD
:10099000BDFA049803F09EF8064600BF1F48008881
:1009A000B04208DA00BF1FA340F29B222CA133A063
:1009B000FBF7E0F900BF00BF18480088801B17490B
:1009C0000880049805B0BDE8F08F0020FAE700BF6A
:1009D00044B900BF13A34FF42A7232A127A0FBF73A
:1009E000C9F900BF00BF606890B900BF0C4800683B
:1009F000844208D000BF0BA340F2AB222CA11FA061
:100A0000FBF7B8F900BF00BF0021204600F07EFAD6
:100A100000BF049803F074FA0020D3E740010020DF
:100A20003C0100202E2E2F4D6964646C6577617245
:100A300065732F54686972645F50617274792F4CCA
:100A40007749502F7372632F636F72652F697076C9
:100A5000342F6970345F667261672E630000000096
:100A600069705F72656173735F70627566636F75DD
:100A70006E74203E3D20636C656E000041737365AB
:100A80007274696F6E2022257322206661696C651D
:100A900064206174206C696E6520256420696E2075
:100AA00025730A0069707220213D204E554C4C0080
:100AB0006E6F74206669727374616C74686F7567A9
:100AC00068206A75737420656E717565756564005C
:100AD00010B502462148016821E091F8310000F08C
:100AE0000100D8B191F83100C0F38000B0B148687E
:100AF000A0B110688B681840D1E9013423409842B6
:100B000001D1084610BD91F8310000F0020028B96B
:100B10001068CB68984201D10846F3E709680029BC
:100B2000DBD10F480068A0B10D48006890F8310093
:100B300000F0010068B10A48006890F83100C0F385
:100B4000800030B106480068406810B110787F28F6
:100B500001D10020D6E702480068D3E7D800002082
:100B6000DC00002010B5042001F0D2FB10BD000015
:100B700010B5044600BF002C08D100BF06A34FF4F7
:100B8000317214A116A0FBF7F5F800BF00BF214693
:100B9000042001F03FFB10BD2E2E2F4D6964646CC4
:100BA0006577617265732F54686972645F50617212
:100BB00074792F4C7749502F7372632F636F72656E
:100BC0002F697076342F6970345F667261672E63A7
:100BD000000000007020213D204E554C4C000000CC
:100BE000417373657274696F6E20222573222066CB
:100BF00061696C6564206174206C696E6520256490
:100C000020696E2025730A002DE9F74F84B006464F
:100C10008846002501200190D8F80400029002992E
:100C2000488800F0B6FD8346029800780007800EE1
:100C300003900398584503DD681E07B0BDE8F08FA8
:100C40000398ABEB00001FFA80FB0299C88800F004
:100C5000A0FDC0F30C004FF6FF7101EAC00A00BF0F
:100C600000BFD8F8044000202060A4F804A00AEBDC
:100C70000B00E080E088504502DA4FF0FF30DCE7FF
:100C8000D6F804903EE0D9F80470A088B98888426C
:100C900020DAC4F800909DB1A088E988884203DB7F
:100CA000E088B988884202DD4FF0FF30C5E7C5F81B
:100CB0000080E888A18888420BD00020019008E0DD
:100CC000E088B988884202DD4FF0FF30B5E7C6F80A
:100CD00004801AE0A088B988884202D14FF0FF3022
:100CE000ABE7A088F988884202DA4FF0FF30A4E72A
:100CF0002DB1E888B988884201D000200190D7F84A
:100D000000903D46B9F1000FBDD100BFB9F1000F11
:100D100028D1002D17D000BFE888A188884208DDBF
:100D200000BF3EA34FF4DB724BA153A0FBF722F8A8
:100D300000BF00BFC5F80080E888A188884211D0B4
:100D4000002001900EE000BF706840B100BF33A3E7
:100D50004FF4DF7252A148A0FBF70CF800BF00BFB0
:100D6000C6F80480069820B9B07F00F00100002882
:100D700051D00198002848D0706818B17068406858
:100D8000808810B1002001903FE02546D4F8009003
:100D90000BE0D9F80440E888A188884202D00020FE
:100DA000019005E02546D4F80090B9F1000FF0D18C
:100DB00000BF0198002828D000BF706840B900BF6C
:100DC00016A340F2DF1244A12BA0FAF7D3FF00BF15
:100DD00000BF00BF70684068A04208D100BF0FA3E9
:100DE0004FF4F0723CA124A0FAF7C4FF00BF00BF8B
:100DF00000BF206840B100BF08A34FF4F1723AA1D0
:100E00001DA0FAF7B7FF00BF00BF019808B101208D
:100E100013E7002011E700200FE700002E2E2F4DD2
:100E20006964646C6577617265732F546869726474
:100E30005F50617274792F4C7749502F7372632F12
:100E4000636F72652F697076342F6970345F6672D4
:100E500061672E6300000000636865636B20667243
:100E600061676D656E747320646F6E2774206F7692
:100E700065726C6170000000417373657274696F14
:100E80006E2022257322206661696C65642061747E
:100E9000206C696E6520256420696E2025730A0028
:100EA0006E6F2070726576696F7573206672616708
:100EB0006D656E742C2074686973206D7573742071
:100EC0006265207468652066697273742066726159
:100ED000676D656E7421000073616E6974792063BB
:100EE0006865636B0000000076616C69646174651D
:100EF0005F646174616772616D3A6E6578745F708A
:100F0000627566213D4E554C4C00000070B504469C
:100F10000D460E480068A04203D10C4920680860C5
:100F20000EE000BF002D08D100BF09A340F245121A
:100F300016A11DA0FAF71EFF00BF00BF20682860A1
:100F40002146032001F066F970BD00003C0100203D
:100F50002E2E2F4D6964646C6577617265732F5412
:100F6000686972645F50617274792F4C7749502FB1
:100F70007372632F636F72652F697076342F697097
:100F8000345F667261672E630000000073616E69F2
:100F9000747920636865636B206C696E6B6564208F
:100FA0006C69737400000000417373657274696F3B
:100FB0006E2022257322206661696C65642061744D
:100FC000206C696E6520256420696E2025730A00F7
:100FD00070B505460E46032001F09AF9044664B93F
:100FE0003146284600F00EF9B04203DB032001F041
:100FF0008FF904460CB9002070BD20212046EFF780
:10100000C2F90F20E07706480068206004480460B9
:101010001422294604F10800EFF78EF92046EBE789
:101020003C0100202DE9F04704468846002500BF1A
:10103000A04507D100BF40A3AB224EA150A0FAF7B4
:1010400099FE00BF00BFB8F1000F0DD000BFD8F867
:101050000000A04207D000BF37A3AD2252A148A094
:10106000FAF788FE00BF00BF6068D0F80490B9F8B6
:101070000400002824D16768D9F8000060601422B9
:1010800004F108017868EFF757F901213846FEF7B7
:10109000E1FF384602F01EFD064600BFA819B0F574
:1010A000803F07DB00BF24A3BC2244A134A0FAF791
:1010B00061FE00BF00BFA81985B2384602F020FFCC
:1010C00067681CE0D7F80490BA46D9F8007050461B
:1010D00002F000FD064600BFA819B0F5803F07DB0F
:1010E00000BF15A3CC2235A125A0FAF743FE00BF0F
:1010F00000BFA81985B2504602F002FF00BF002FC2
:10110000E0D141462046FFF701FF00BF3348008889
:10111000A84207DA00BF08A3D22231A118A0FAF72B
:1011200029FE00BF00BF2D480088401B2B490880C6
:101130002846BDE8F08700002E2E2F4D6964646CB0
:101140006577617265732F54686972645F5061726C
:1011500074792F4C7749502F7372632F636F7265C8
:101160002F697076342F6970345F667261672E6301
:10117000000000007072657620213D2069707200C9
:10118000417373657274696F6E2022257322206625
:1011900061696C6564206174206C696E65202564EA
:1011A00020696E2025730A00707265762D3E6E658B
:1011B0007874203D3D206970720000007062756691
:1011C000735F6672656564202B20636C656E203CDE
:1011D0003D20307866666666000000004001002011
:1011E00069705F72656173735F70627566636F7556
:1011F0006E74203E3D2070627566735F6672656531
:10120000640000002DE9F84F05468946002700BF1D
:101210000026B2460020009083461B48046821E067
:101220006069E968884207D1A0692969884203D1C9
:10123000A089A988884201D0012000E0002068B17F
:101240000BF1010B1EB92646CDF800A006E0E07FA9
:10125000F17F884202DC2646CDF800A0206800B16C
:10126000A2462468002CDBD12EB130460099FFF74E
:10127000D9FE804647444F4502DABBF1010FC7DC77
:101280003846BDE8F88F00003C01002070B500250D
:101290000A4804680FE0E07F002805DDE07F401E7B
:1012A000E0772546246806E026462468294630462D
:1012B000FFF7B8FE00BF002CEDD170BD3C0100204F
:1012C00070B505462C4600BF002C08D100BF0FA307
:1012D00040F2CE221CA11FA0FAF74CFD00BF00BFB8
:1012E00000BFAC4208D000BF08A340F2CF2223A128
:1012F00018A0FAF73FFD00BF00BF606910B1606938
:1013000002F0FEFD2046FFF733FC70BD2E2E2F4D60
:101310006964646C6577617265732F54686972647F
:101320005F50617274792F4C7749502F7372632F1D
:10133000636F72652F697076342F6970345F6672DF
:1013400061672E630000000070637220213D204E13
:10135000554C4C00417373657274696F6E20222581
:101360007322206661696C6564206174206C696E0B
:101370006520256420696E2025730A007063722041
:101380003D3D20700000000070B505460C4604F19C
:101390001A0000F018F806462878032805D104F151
:1013A000140000F010F846EA0046304670BD0146D1
:1013B000C8788A7842EA00204A7842EA00200A780F
:1013C00042EA00207047014648780A7842EA002045
:1013D000704710B504462CB1E068FEF775F908B106
:1013E000012010BD0020FCE730B58DB00446002080
:1013F0000C90484848490860012048600021464850
:10140000018200208DF8040080208DF80500E12085
:101410008DF8060000208DF807008DF808008DF883
:10142000090001A93C484161012181610021C1619C
:101430004FF400010162F0F7B9FF05462DB994F8A9
:10144000310040F0040084F831000423334A344969
:101450003148F0F7B9FE0423324A33492E48F0F7F9
:101460006DFE062084F830002B484069007884F82F
:101470002A002948406941782B20015526484069B7
:1014800081782C20015524484069C1782D200155D0
:101490002148406901792E2001551F484069417952
:1014A0002F20015540F2DC50208594F8310040F0A7
:1014B0000A0084F8310000220121084601F066FE8E
:1014C0001A490860242103A8EEF75DFF18A00390D5
:1014D0004FF4AF7008903020099003AA21461648B7
:1014E00001F002FF0C48F1F7CFF90CAA1D210A48C0
:1014F000F1F776F90C9840F00B000C901D2106488E
:101500000C9AF1F7B3FA0CAA1D210348F1F768F918
:101510000DB030BD00800240144B00204433002049
:10152000F41A0020741B0020741A002060000020B0
:101530004574684966000000A9E600082DE9F84FE7
:101540004FF000080026B3460024A24600270020E2
:1015500000903A48F0F77BFE10B10020BDE8F88F0C
:101560003648808F1FFA80FB3448D0F84090BBF19A
:10157000000F06DD4FF4C1725946002002F02AF830
:101580008046B8F1000F2FD02C48056B002446464A
:1015900028E077894FF0000A15E040F2F4531A1B57
:1015A00009EB0401736803EB0A00EEF7C5FEED6872
:1015B000D5F8089040F2F450001B3F1A40F2F45066
:1015C000001B82440024381940F2F4518842E4D8C8
:1015D00009EB0401726802EB0A003A46EEF7ACFE32
:1015E0003C443668002ED4D11448056B002000908E
:1015F00007E0286840F000402860ED680098401C33
:1016000000900E48816B00988142F2D800210B486F
:101610008163006800F58050406900F0800058B197
:1016200080210648006800F5805041610021034890
:10163000006800F58050816040468FE7144B002021
:101640002DE9F84F8B463748C06A806800904FF00C
:10165000000900240026A2463248D0F82C8000BFA2
:101660005D463FE0D8F8000000F0004010B16FF098
:1016700007073FE06E894FF0000A23E040F2F45381
:101680001A1B6B6803EB0A01009B1819EEF754FE56
:10169000D8F80C80D8F8000000F0004010B16FF0CE
:1016A000070727E0D8F80800009040F2F450001B2C
:1016B000361A40F2F450001B824440F2F450001BF2
:1016C00081440024301940F2F4518842D6D86A6827
:1016D00002EB0A01009A10193246EEF72DFE34444F
:1016E000B1442D68002DBDD149460E48F1F71EF9D1
:1016F000002700BF0B48006800F58050406900F0EB
:10170000200058B120210748006800F58050416151
:1017100000210448006800F5805041603846BDE86B
:10172000F88F0000144B00202DE9F04104462546B7
:101730006868804704F03DF806460D492868096846
:101740004718B81BB0F1004F01D3012000E0002082
:1017500030B1296888192246064904F0AFF804E040
:1017600022460449384604F0A9F8BDE8F08100009B
:1017700030010020291701080146080601F47F42C4
:1017800040EA022001F47F0240EA122040EA1160A0
:10179000704701460806000C40EA1120704700001F
:1017A00008B50020009000BF6846804208D000BF06
:1017B0000BA340F25112164916A0FAF7DBFA00BF4C
:1017C00000BF00BF00BF03F0A9FF00F0E5F900F083
:1017D00079FD00F0E3FF05F0D7FB04F00FF908BD39
:1017E0002E2E2F4D6964646C6577617265732F547A
:1017F000686972645F50617274792F4C7749502F19
:101800007372632F636F72652F696E69742E630044
:101810008CF10108417373657274696F6E20222523
:101820007322206661696C6564206174206C696E46
:101830006520256420696E2025730A0008B5F2F73B
:101840000BF820482049086020484860F6F782FBE2
:10185000F4F702FFF4F7A6FEF5F796F9F4F7FAFFAE
:10186000F4F77CFEF5F76EF9F4F7B8FE01224FF4B9
:10187000E0511748F1F718FB16480068C06840F0BF
:10188000100014490968C8601E2213491148F3F773
:10189000D7FEF4F761FCEFF7FDF8EFF76FFCF4F714
:1018A000EBFA094801238722F0210090002003F081
:1018B00050FE01F0F7F9F4F79FFE01F013FA00BFB4
:1018C000FEE70000A3FC0008040000207DFC0008E7
:1018D000001C024024090020040A0020F0B50B304F
:1018E000154D20F007010024144A0FE003688B42D5
:1018F0000BD38B4205D95E1A43184768C3E90067CA
:1019000000E04368136002C004E0021D1068002874
:10191000ECD12046002802D1286808B10020F0BD93
:10192000064A07481060074A121A22F00702C0E967
:10193000002401202860D7E7440800204008002048
:101940008451012080710120F0B503461D460C46EC
:10195000002000BF15F8017B14F801CBA7EB0C00A9
:10196000561E321E01D00028F4D0F0BD30B503461B
:101970000C463AB100BF14F8015B03F8015B551E39
:101980002A1EF8D130BD000070B5054605B970BDFE
:1019900005F00300002813D000BF00BF3DA340F2B4
:1019A000732248A150A0FAF7E5F900BF00BF00BFBD
:1019B00003F074FE0646304603F07CFE00BFE6E707
:1019C000A5F1080452480068844205D305F10C00D3
:1019D00050490968884213D900BF00BF2DA340F2C7
:1019E0007F224DA140A0FAF7C5F900BF00BF00BF9C
:1019F00003F054FE0646304603F05CFE00BFC6E727
:101A00004C4803F0BBFE2079002816D100BF00BF70
:101A100020A34FF4237248A133A0FAF7ABF900BF1B
:101A200000BF444803F0BFFE00BF03F037FE064688
:101A3000304603F03FFE00BFA9E7204600F026F93C
:101A4000002816D100BF00BF12A340F2952244A186
:101A500025A0FAF78FF900BF00BF364803F0A3FEB8
:101A600000BF03F01BFE0646304603F023FE00BF16
:101A70008DE70020207147480068844201D2454824
:101A80000460204602F000FD2A4803F08CFE00BFEF
:101A90007DE700002E2E2F4D6964646C65776172BE
:101AA00065732F54686972645F50617274792F4C4A
:101AB0007749502F7372632F636F72652F6D656D59
:101AC0002E6300006D656D5F667265653A20736117
:101AD0006E69747920636865636B20616C69676EF9
:101AE0006D656E7400000000417373657274696FF8
:101AF0006E2022257322206661696C656420617402
:101B0000206C696E6520256420696E2025730A00AB
:101B1000980000209C0000206D656D5F6672656511
:101B20003A20696C6C6567616C206D656D6F7279C8
:101B300000000000A00000206D656D5F66726565A5
:101B40003A20696C6C6567616C206D656D6F7279A8
:101B50003A20646F75626C652066726565000000EE
:101B60006D656D5F667265653A20696C6C6567616D
:101B70006C206D656D6F72793A206E6F6E2D6C6999
:101B80006E6B65643A20646F75626C652066726581
:101B900065000000A400002010B500BF00BF194878
:101BA00020F0030018490860084604684FF4C86034
:101BB00020800020608020714FF4C86003F0A8FAF4
:101BC000124908600120096808714FF4C8600F4984
:101BD000096808800D49096848800B4800680C496D
:101BE00008600C4803F0D2FD00280AD000BF00BFF7
:101BF00009A340F21F2214A11AA0FAF7BBF800BFF4
