Component: ARM Compiler 5.06 update 7 (build 960) Tool: armlink [4d3601]

==============================================================================

Section Cross References

    startup_stm32f429xx.o(RESET) refers to startup_stm32f429xx.o(STACK) for __initial_sp
    startup_stm32f429xx.o(RESET) refers to startup_stm32f429xx.o(.text) for Reset_Handler
    startup_stm32f429xx.o(RESET) refers to stm32f4xx_it.o(i.NMI_Handler) for NMI_Handler
    startup_stm32f429xx.o(RESET) refers to stm32f4xx_it.o(i.HardFault_Handler) for HardFault_Handler
    startup_stm32f429xx.o(RESET) refers to stm32f4xx_it.o(i.MemManage_Handler) for MemManage_Handler
    startup_stm32f429xx.o(RESET) refers to stm32f4xx_it.o(i.BusFault_Handler) for BusFault_Handler
    startup_stm32f429xx.o(RESET) refers to stm32f4xx_it.o(i.UsageFault_Handler) for UsageFault_Handler
    startup_stm32f429xx.o(RESET) refers to port.o(.emb_text) for SVC_Handler
    startup_stm32f429xx.o(RESET) refers to stm32f4xx_it.o(i.DebugMon_Handler) for DebugMon_Handler
    startup_stm32f429xx.o(RESET) refers to port.o(i.SysTick_Handler) for SysTick_Handler
    startup_stm32f429xx.o(RESET) refers to stm32f4xx_it.o(i.CAN1_RX0_IRQHandler) for CAN1_RX0_IRQHandler
    startup_stm32f429xx.o(RESET) refers to stm32f4xx_it.o(i.USART1_IRQHandler) for USART1_IRQHandler
    startup_stm32f429xx.o(RESET) refers to stm32f4xx_it.o(i.TIM8_TRG_COM_TIM14_IRQHandler) for TIM8_TRG_COM_TIM14_IRQHandler
    startup_stm32f429xx.o(RESET) refers to stm32f4xx_it.o(i.DMA2_Stream2_IRQHandler) for DMA2_Stream2_IRQHandler
    startup_stm32f429xx.o(RESET) refers to stm32f4xx_it.o(i.ETH_IRQHandler) for ETH_IRQHandler
    startup_stm32f429xx.o(RESET) refers to stm32f4xx_it.o(i.OTG_HS_IRQHandler) for OTG_HS_IRQHandler
    startup_stm32f429xx.o(.text) refers to system_stm32f4xx.o(i.SystemInit) for SystemInit
    startup_stm32f429xx.o(.text) refers to entry.o(.ARM.Collect$$$$00000000) for __main
==============================================================================

Removing Unused input sections from the image.

    Removing main.o(.rev16_text), (4 bytes).
    Removing main.o(.revsh_text), (4 bytes).
    Removing main.o(.rrx_text), (6 bytes).
    Removing main.o(i.fgetc), (28 bytes).
    Removing gpio.o(.rev16_text), (4 bytes).
    Removing gpio.o(.revsh_text), (4 bytes).
    Removing gpio.o(.rrx_text), (6 bytes).
    Removing freertos.o(.rev16_text), (4 bytes).
    Removing freertos.o(.revsh_text), (4 bytes).
    Removing freertos.o(.rrx_text), (6 bytes).
    Removing can.o(.rev16_text), (4 bytes).
    Removing can.o(.revsh_text), (4 bytes).
    Removing can.o(.rrx_text), (6 bytes).
    Removing can.o(i.HAL_CAN_MspDeInit), (56 bytes).
    Removing dma.o(.rev16_text), (4 bytes).
    Removing dma.o(.revsh_text), (4 bytes).
    Removing dma.o(.rrx_text), (6 bytes).
    Removing i2c.o(.rev16_text), (4 bytes).
==============================================================================

Image Symbol Table

    Local Symbols

    Symbol Name                              Value     Ov Type        Size  Object(Section)

    ../../../clib/unwind_pr.c                0x00000000   Number         0  unwind_prcommon.o ABSOLUTE
    ../../../clib/unwind_pr.c                0x00000000   Number         0  unwind_pr0.o ABSOLUTE
    ../../../clib/unwinder.c                 0x00000000   Number         0  unwinder.o ABSOLUTE
    ../../../clib/unwinder.c                 0x00000000   Number         0  unwinder.o ABSOLUTE
    ../../../clib/unwinder.c                 0x00000000   Number         0  unwind_activity.o ABSOLUTE
    ../../../clib/unwinder.c                 0x00000000   Number         0  unwind_activity.o ABSOLUTE
    ../../../edgfe/lib_src/arm_exceptions.c  0x00000000   Number         0  arm_exceptions_terminate.o ABSOLUTE
    ../../../edgfe/lib_src/arm_exceptions.c  0x00000000   Number         0  arm_exceptions_mem.o ABSOLUTE
    ../../../edgfe/lib_src/arm_exceptions.c  0x00000000   Number         0  arm_exceptions_globs.o ABSOLUTE
    ../../../edgfe/lib_src/arm_exceptions.c  0x00000000   Number         0  arm_exceptions_support.o ABSOLUTE
    ../../../edgfe/lib_src/arm_exceptions.c  0x00000000   Number         0  arm_exceptions_callterm.o ABSOLUTE
    ../../../edgfe/lib_src/arm_noexceptions.c 0x00000000   Number         0  arm_begincatch_noexceptions.o ABSOLUTE
    ../../../edgfe/lib_src/arm_noexceptions.c 0x00000000   Number         0  arm_callunex_noexceptions.o ABSOLUTE
    ../../../edgfe/lib_src/arm_noexceptions.c 0x00000000   Number         0  arm_newhandler_noexceptions.o ABSOLUTE
    ../../../edgfe/lib_src/array_del.c       0x00000000   Number         0  array_del.o ABSOLUTE
    ../../../edgfe/lib_src/array_new.c       0x00000000   Number         0  array_new.o ABSOLUTE
    ../../../edgfe/lib_src/bad_alloc.c       0x00000000   Number         0  bad_alloc_dtor.o ABSOLUTE
    ../../../edgfe/lib_src/bad_alloc.c       0x00000000   Number         0  bad_alloc_what.o ABSOLUTE
    ../../../edgfe/lib_src/delete.c          0x00000000   Number         0  delete.o ABSOLUTE
    ../../../edgfe/lib_src/exception.c       0x00000000   Number         0  exception_what.o ABSOLUTE
    ../../../edgfe/lib_src/exception.c       0x00000000   Number         0  exception_dtor.o ABSOLUTE
    ../../../edgfe/lib_src/guard.c           0x00000000   Number         0  cxa_guard_release.o ABSOLUTE
    ../../../edgfe/lib_src/guard.c           0x00000000   Number         0  cxa_guard_acquire.o ABSOLUTE
    ../../../edgfe/lib_src/new.c             0x00000000   Number         0  new.o ABSOLUTE
    ../../../edgfe/lib_src/pure_virt.c       0x00000000   Number         0  pure_virt.o ABSOLUTE
    ../../../edgfe/lib_src/typeinfo.c        0x00000000   Number         0  lib_rtti_impl.o ABSOLUTE
    ../../../edgfe/lib_src/typeinfo.c        0x00000000   Number         0  type_info_dtor.o ABSOLUTE
    ../../array_helpers.cpp                  0x00000000   Number         0  aeabi_vec_ctor_nocookie_nodtor.o ABSOLUTE
    ../Core/Src/can.c                        0x00000000   Number         0  can.o ABSOLUTE
    ../Core/Src/dma.c                        0x00000000   Number         0  dma.o ABSOLUTE
    ../Core/Src/freertos.c                   0x00000000   Number         0  freertos.o ABSOLUTE
    ../Core/Src/gpio.c                       0x00000000   Number         0  gpio.o ABSOLUTE
    ../Core/Src/i2c.c                        0x00000000   Number         0  i2c.o ABSOLUTE
    ../Core/Src/main.c                       0x00000000   Number         0  main.o ABSOLUTE
    ../Core/Src/spi.c                        0x00000000   Number         0  spi.o ABSOLUTE
    ../Core/Src/stm32f4xx_hal_msp.c          0x00000000   Number         0  stm32f4xx_hal_msp.o ABSOLUTE
    ../Core/Src/stm32f4xx_hal_timebase_tim.c 0x00000000   Number         0  stm32f4xx_hal_timebase_tim.o ABSOLUTE
    ../Core/Src/stm32f4xx_it.c               0x00000000   Number         0  stm32f4xx_it.o ABSOLUTE
    ../Core/Src/system_stm32f4xx.c           0x00000000   Number         0  system_stm32f4xx.o ABSOLUTE
    ../Core/Src/usart.c                      0x00000000   Number         0  usart.o ABSOLUTE
    ../Drivers/STM32F4xx_HAL_Driver/Src/stm32f4xx_hal.c 0x00000000   Number         0  stm32f4xx_hal.o ABSOLUTE
    ../Drivers/STM32F4xx_HAL_Driver/Src/stm32f4xx_hal_can.c 0x00000000   Number         0  stm32f4xx_hal_can.o ABSOLUTE
    ../Drivers/STM32F4xx_HAL_Driver/Src/stm32f4xx_hal_cortex.c 0x00000000   Number         0  stm32f4xx_hal_cortex.o ABSOLUTE
    ../Drivers/STM32F4xx_HAL_Driver/Src/stm32f4xx_hal_dma.c 0x00000000   Number         0  stm32f4xx_hal_dma.o ABSOLUTE
    ../Drivers/STM32F4xx_HAL_Driver/Src/stm32f4xx_hal_dma_ex.c 0x00000000   Number         0  stm32f4xx_hal_dma_ex.o ABSOLUTE
    ../Drivers/STM32F4xx_HAL_Driver/Src/stm32f4xx_hal_eth.c 0x00000000   Number         0  stm32f4xx_hal_eth.o ABSOLUTE
    ../Drivers/STM32F4xx_HAL_Driver/Src/stm32f4xx_hal_exti.c 0x00000000   Number         0  stm32f4xx_hal_exti.o ABSOLUTE
    ../Drivers/STM32F4xx_HAL_Driver/Src/stm32f4xx_hal_flash.c 0x00000000   Number         0  stm32f4xx_hal_flash.o ABSOLUTE
    ../Drivers/STM32F4xx_HAL_Driver/Src/stm32f4xx_hal_flash_ex.c 0x00000000   Number         0  stm32f4xx_hal_flash_ex.o ABSOLUTE
    ../Drivers/STM32F4xx_HAL_Driver/Src/stm32f4xx_hal_flash_ramfunc.c 0x00000000   Number         0  stm32f4xx_hal_flash_ramfunc.o ABSOLUTE
    ../Drivers/STM32F4xx_HAL_Driver/Src/stm32f4xx_hal_gpio.c 0x00000000   Number         0  stm32f4xx_hal_gpio.o ABSOLUTE
    ../Drivers/STM32F4xx_HAL_Driver/Src/stm32f4xx_hal_i2c.c 0x00000000   Number         0  stm32f4xx_hal_i2c.o ABSOLUTE
    ../Drivers/STM32F4xx_HAL_Driver/Src/stm32f4xx_hal_i2c_ex.c 0x00000000   Number         0  stm32f4xx_hal_i2c_ex.o ABSOLUTE
    ../Drivers/STM32F4xx_HAL_Driver/Src/stm32f4xx_hal_pcd.c 0x00000000   Number         0  stm32f4xx_hal_pcd.o ABSOLUTE
    ../Drivers/STM32F4xx_HAL_Driver/Src/stm32f4xx_hal_pcd_ex.c 0x00000000   Number         0  stm32f4xx_hal_pcd_ex.o ABSOLUTE
    ../Drivers/STM32F4xx_HAL_Driver/Src/stm32f4xx_hal_pwr.c 0x00000000   Number         0  stm32f4xx_hal_pwr.o ABSOLUTE
    ../Drivers/STM32F4xx_HAL_Driver/Src/stm32f4xx_hal_pwr_ex.c 0x00000000   Number         0  stm32f4xx_hal_pwr_ex.o ABSOLUTE
    ../Drivers/STM32F4xx_HAL_Driver/Src/stm32f4xx_hal_rcc.c 0x00000000   Number         0  stm32f4xx_hal_rcc.o ABSOLUTE
    ../Drivers/STM32F4xx_HAL_Driver/Src/stm32f4xx_hal_rcc_ex.c 0x00000000   Number         0  stm32f4xx_hal_rcc_ex.o ABSOLUTE
    ../Drivers/STM32F4xx_HAL_Driver/Src/stm32f4xx_hal_spi.c 0x00000000   Number         0  stm32f4xx_hal_spi.o ABSOLUTE
    ../Drivers/STM32F4xx_HAL_Driver/Src/stm32f4xx_hal_tim.c 0x00000000   Number         0  stm32f4xx_hal_tim.o ABSOLUTE
    ../Drivers/STM32F4xx_HAL_Driver/Src/stm32f4xx_hal_tim_ex.c 0x00000000   Number         0  stm32f4xx_hal_tim_ex.o ABSOLUTE
    ../Drivers/STM32F4xx_HAL_Driver/Src/stm32f4xx_hal_uart.c 0x00000000   Number         0  stm32f4xx_hal_uart.o ABSOLUTE
    ../Drivers/STM32F4xx_HAL_Driver/Src/stm32f4xx_ll_usb.c 0x00000000   Number         0  stm32f4xx_ll_usb.o ABSOLUTE
    ../FATFS/App/fatfs.c                     0x00000000   Number         0  fatfs.o ABSOLUTE
    ../FATFS/Target/user_diskio.c            0x00000000   Number         0  user_diskio.o ABSOLUTE
    ../LWIP/App/lwip.c                       0x00000000   Number         0  lwip.o ABSOLUTE
    ../LWIP/Target/ethernetif.c              0x00000000   Number         0  ethernetif.o ABSOLUTE
    ../Middlewares/ST/STM32_USB_Device_Library/Class/MSC/Src/usbd_msc.c 0x00000000   Number         0  usbd_msc.o ABSOLUTE
    ../Middlewares/ST/STM32_USB_Device_Library/Class/MSC/Src/usbd_msc_bot.c 0x00000000   Number         0  usbd_msc_bot.o ABSOLUTE
    ../Middlewares/ST/STM32_USB_Device_Library/Class/MSC/Src/usbd_msc_data.c 0x00000000   Number         0  usbd_msc_data.o ABSOLUTE
    ../Middlewares/ST/STM32_USB_Device_Library/Class/MSC/Src/usbd_msc_scsi.c 0x00000000   Number         0  usbd_msc_scsi.o ABSOLUTE
    ../Middlewares/ST/STM32_USB_Device_Library/Core/Src/usbd_core.c 0x00000000   Number         0  usbd_core.o ABSOLUTE
    ../Middlewares/ST/STM32_USB_Device_Library/Core/Src/usbd_ctlreq.c 0x00000000   Number         0  usbd_ctlreq.o ABSOLUTE
    ../Middlewares/ST/STM32_USB_Device_Library/Core/Src/usbd_ioreq.c 0x00000000   Number         0  usbd_ioreq.o ABSOLUTE
    ../Middlewares/Third_Party/FatFs/src/diskio.c 0x00000000   Number         0  diskio.o ABSOLUTE
    ../Middlewares/Third_Party/FatFs/src/ff.c 0x00000000   Number         0  ff.o ABSOLUTE
    ../Middlewares/Third_Party/FatFs/src/ff_gen_drv.c 0x00000000   Number         0  ff_gen_drv.o ABSOLUTE
    ../Middlewares/Third_Party/FatFs/src/option/syscall.c 0x00000000   Number         0  syscall.o ABSOLUTE
    ../Middlewares/Third_Party/FreeRTOS/Source/CMSIS_RTOS_V2/cmsis_os2.c 0x00000000   Number         0  cmsis_os2.o ABSOLUTE
    ../Middlewares/Third_Party/FreeRTOS/Source/croutine.c 0x00000000   Number         0  croutine.o ABSOLUTE
    ../Middlewares/Third_Party/FreeRTOS/Source/event_groups.c 0x00000000   Number         0  event_groups.o ABSOLUTE
    ../Middlewares/Third_Party/FreeRTOS/Source/list.c 0x00000000   Number         0  list.o ABSOLUTE
    ../Middlewares/Third_Party/FreeRTOS/Source/portable/MemMang/heap_4.c 0x00000000   Number         0  heap_4.o ABSOLUTE
    ../Middlewares/Third_Party/FreeRTOS/Source/portable/RVDS/ARM_CM4F/port.c 0x00000000   Number         0  port.o ABSOLUTE
    ../Middlewares/Third_Party/FreeRTOS/Source/queue.c 0x00000000   Number         0  queue.o ABSOLUTE
    ../Middlewares/Third_Party/FreeRTOS/Source/stream_buffer.c 0x00000000   Number         0  stream_buffer.o ABSOLUTE
    ../Middlewares/Third_Party/FreeRTOS/Source/tasks.c 0x00000000   Number         0  tasks.o ABSOLUTE
    ../Middlewares/Third_Party/FreeRTOS/Source/timers.c 0x00000000   Number         0  timers.o ABSOLUTE
    ../Middlewares/Third_Party/LwIP/src/api/api_lib.c 0x00000000   Number         0  api_lib.o ABSOLUTE
    ../Middlewares/Third_Party/LwIP/src/api/api_msg.c 0x00000000   Number         0  api_msg.o ABSOLUTE
    ../Middlewares/Third_Party/LwIP/src/api/err.c 0x00000000   Number         0  err.o ABSOLUTE
    ../Middlewares/Third_Party/LwIP/src/api/if_api.c 0x00000000   Number         0  if_api.o ABSOLUTE
    ../Middlewares/Third_Party/LwIP/src/api/netbuf.c 0x00000000   Number         0  netbuf.o ABSOLUTE
    ../Middlewares/Third_Party/LwIP/src/api/netdb.c 0x00000000   Number         0  netdb.o ABSOLUTE
    ../Middlewares/Third_Party/LwIP/src/api/netifapi.c 0x00000000   Number         0  netifapi.o ABSOLUTE
    ../Middlewares/Third_Party/LwIP/src/api/sockets.c 0x00000000   Number         0  sockets.o ABSOLUTE
    ../Middlewares/Third_Party/LwIP/src/api/tcpip.c 0x00000000   Number         0  tcpip.o ABSOLUTE
    ../Middlewares/Third_Party/LwIP/src/apps/mqtt/mqtt.c 0x00000000   Number         0  mqtt.o ABSOLUTE
    ../Middlewares/Third_Party/LwIP/src/core/altcp.c 0x00000000   Number         0  altcp.o ABSOLUTE
    ../Middlewares/Third_Party/LwIP/src/core/altcp_alloc.c 0x00000000   Number         0  altcp_alloc.o ABSOLUTE
    ../Middlewares/Third_Party/LwIP/src/core/altcp_tcp.c 0x00000000   Number         0  altcp_tcp.o ABSOLUTE
    ../Middlewares/Third_Party/LwIP/src/core/def.c 0x00000000   Number         0  def.o ABSOLUTE
    ../Middlewares/Third_Party/LwIP/src/core/dns.c 0x00000000   Number         0  dns.o ABSOLUTE
    ../Middlewares/Third_Party/LwIP/src/core/inet_chksum.c 0x00000000   Number         0  inet_chksum.o ABSOLUTE
    ../Middlewares/Third_Party/LwIP/src/core/init.c 0x00000000   Number         0  init.o ABSOLUTE
    ../Middlewares/Third_Party/LwIP/src/core/ip.c 0x00000000   Number         0  ip.o ABSOLUTE
    ../Middlewares/Third_Party/LwIP/src/core/ipv4/autoip.c 0x00000000   Number         0  autoip.o ABSOLUTE
    ../Middlewares/Third_Party/LwIP/src/core/ipv4/dhcp.c 0x00000000   Number         0  dhcp.o ABSOLUTE
    ../Middlewares/Third_Party/LwIP/src/core/ipv4/etharp.c 0x00000000   Number         0  etharp.o ABSOLUTE
    ../Middlewares/Third_Party/LwIP/src/core/ipv4/icmp.c 0x00000000   Number         0  icmp.o ABSOLUTE
    ../Middlewares/Third_Party/LwIP/src/core/ipv4/igmp.c 0x00000000   Number         0  igmp.o ABSOLUTE
    ../Middlewares/Third_Party/LwIP/src/core/ipv4/ip4.c 0x00000000   Number         0  ip4.o ABSOLUTE
    ../Middlewares/Third_Party/LwIP/src/core/ipv4/ip4_addr.c 0x00000000   Number         0  ip4_addr.o ABSOLUTE
    ../Middlewares/Third_Party/LwIP/src/core/ipv4/ip4_frag.c 0x00000000   Number         0  ip4_frag.o ABSOLUTE
    ../Middlewares/Third_Party/LwIP/src/core/ipv6/dhcp6.c 0x00000000   Number         0  dhcp6.o ABSOLUTE
    ../Middlewares/Third_Party/LwIP/src/core/ipv6/ethip6.c 0x00000000   Number         0  ethip6.o ABSOLUTE
    ../Middlewares/Third_Party/LwIP/src/core/ipv6/icmp6.c 0x00000000   Number         0  icmp6.o ABSOLUTE
    ../Middlewares/Third_Party/LwIP/src/core/ipv6/inet6.c 0x00000000   Number         0  inet6.o ABSOLUTE
    ../Middlewares/Third_Party/LwIP/src/core/ipv6/ip6.c 0x00000000   Number         0  ip6.o ABSOLUTE
    ../Middlewares/Third_Party/LwIP/src/core/ipv6/ip6_addr.c 0x00000000   Number         0  ip6_addr.o ABSOLUTE
    ../Middlewares/Third_Party/LwIP/src/core/ipv6/ip6_frag.c 0x00000000   Number         0  ip6_frag.o ABSOLUTE
    ../Middlewares/Third_Party/LwIP/src/core/ipv6/mld6.c 0x00000000   Number         0  mld6.o ABSOLUTE
    ../Middlewares/Third_Party/LwIP/src/core/ipv6/nd6.c 0x00000000   Number         0  nd6.o ABSOLUTE
    ../Middlewares/Third_Party/LwIP/src/core/mem.c 0x00000000   Number         0  mem.o ABSOLUTE
    ../Middlewares/Third_Party/LwIP/src/core/memp.c 0x00000000   Number         0  memp.o ABSOLUTE
    ../Middlewares/Third_Party/LwIP/src/core/netif.c 0x00000000   Number         0  netif.o ABSOLUTE
    ../Middlewares/Third_Party/LwIP/src/core/pbuf.c 0x00000000   Number         0  pbuf.o ABSOLUTE
    ../Middlewares/Third_Party/LwIP/src/core/raw.c 0x00000000   Number         0  raw.o ABSOLUTE
    ../Middlewares/Third_Party/LwIP/src/core/stats.c 0x00000000   Number         0  stats.o ABSOLUTE
    ../Middlewares/Third_Party/LwIP/src/core/sys.c 0x00000000   Number         0  sys.o ABSOLUTE
    ../Middlewares/Third_Party/LwIP/src/core/tcp.c 0x00000000   Number         0  tcp.o ABSOLUTE
    ../Middlewares/Third_Party/LwIP/src/core/tcp_in.c 0x00000000   Number         0  tcp_in.o ABSOLUTE
    ../Middlewares/Third_Party/LwIP/src/core/tcp_out.c 0x00000000   Number         0  tcp_out.o ABSOLUTE
    ../Middlewares/Third_Party/LwIP/src/core/timeouts.c 0x00000000   Number         0  timeouts.o ABSOLUTE
    ../Middlewares/Third_Party/LwIP/src/core/udp.c 0x00000000   Number         0  udp.o ABSOLUTE
    ../Middlewares/Third_Party/LwIP/src/netif/bridgeif.c 0x00000000   Number         0  bridgeif.o ABSOLUTE
    ../Middlewares/Third_Party/LwIP/src/netif/bridgeif_fdb.c 0x00000000   Number         0  bridgeif_fdb.o ABSOLUTE
    ../Middlewares/Third_Party/LwIP/src/netif/ethernet.c 0x00000000   Number         0  ethernet.o ABSOLUTE
    ../Middlewares/Third_Party/LwIP/src/netif/lowpan6.c 0x00000000   Number         0  lowpan6.o ABSOLUTE
    ../Middlewares/Third_Party/LwIP/src/netif/lowpan6_ble.c 0x00000000   Number         0  lowpan6_ble.o ABSOLUTE
    ../Middlewares/Third_Party/LwIP/src/netif/lowpan6_common.c 0x00000000   Number         0  lowpan6_common.o ABSOLUTE
    ../Middlewares/Third_Party/LwIP/src/netif/ppp/auth.c 0x00000000   Number         0  auth.o ABSOLUTE
    ../Middlewares/Third_Party/LwIP/src/netif/ppp/ccp.c 0x00000000   Number         0  ccp.o ABSOLUTE
    ../Middlewares/Third_Party/LwIP/src/netif/ppp/chap-md5.c 0x00000000   Number         0  chap-md5.o ABSOLUTE
    ../Middlewares/Third_Party/LwIP/src/netif/ppp/chap-new.c 0x00000000   Number         0  chap-new.o ABSOLUTE
    ../Middlewares/Third_Party/LwIP/src/netif/ppp/chap_ms.c 0x00000000   Number         0  chap_ms.o ABSOLUTE
    ../Middlewares/Third_Party/LwIP/src/netif/ppp/demand.c 0x00000000   Number         0  demand.o ABSOLUTE
    ../Middlewares/Third_Party/LwIP/src/netif/ppp/eap.c 0x00000000   Number         0  eap.o ABSOLUTE
    ../Middlewares/Third_Party/LwIP/src/netif/ppp/ecp.c 0x00000000   Number         0  ecp.o ABSOLUTE
    ../Middlewares/Third_Party/LwIP/src/netif/ppp/eui64.c 0x00000000   Number         0  eui64.o ABSOLUTE
    ../Middlewares/Third_Party/LwIP/src/netif/ppp/fsm.c 0x00000000   Number         0  fsm.o ABSOLUTE
    ../Middlewares/Third_Party/LwIP/src/netif/ppp/ipcp.c 0x00000000   Number         0  ipcp.o ABSOLUTE
    ../Middlewares/Third_Party/LwIP/src/netif/ppp/ipv6cp.c 0x00000000   Number         0  ipv6cp.o ABSOLUTE
    ../Middlewares/Third_Party/LwIP/src/netif/ppp/lcp.c 0x00000000   Number         0  lcp.o ABSOLUTE
    ../Middlewares/Third_Party/LwIP/src/netif/ppp/magic.c 0x00000000   Number         0  magic.o ABSOLUTE
    ../Middlewares/Third_Party/LwIP/src/netif/ppp/mppe.c 0x00000000   Number         0  mppe.o ABSOLUTE
    ../Middlewares/Third_Party/LwIP/src/netif/ppp/multilink.c 0x00000000   Number         0  multilink.o ABSOLUTE
    ../Middlewares/Third_Party/LwIP/src/netif/ppp/ppp.c 0x00000000   Number         0  ppp.o ABSOLUTE
    ../Middlewares/Third_Party/LwIP/src/netif/ppp/pppapi.c 0x00000000   Number         0  pppapi.o ABSOLUTE
    ../Middlewares/Third_Party/LwIP/src/netif/ppp/pppcrypt.c 0x00000000   Number         0  pppcrypt.o ABSOLUTE
    ../Middlewares/Third_Party/LwIP/src/netif/ppp/pppoe.c 0x00000000   Number         0  pppoe.o ABSOLUTE
    ../Middlewares/Third_Party/LwIP/src/netif/ppp/pppol2tp.c 0x00000000   Number         0  pppol2tp.o ABSOLUTE
    ../Middlewares/Third_Party/LwIP/src/netif/ppp/pppos.c 0x00000000   Number         0  pppos.o ABSOLUTE
    ../Middlewares/Third_Party/LwIP/src/netif/ppp/upap.c 0x00000000   Number         0  upap.o ABSOLUTE
    ../Middlewares/Third_Party/LwIP/src/netif/ppp/utils.c 0x00000000   Number         0  utils.o ABSOLUTE
    ../Middlewares/Third_Party/LwIP/src/netif/ppp/vj.c 0x00000000   Number         0  vj.o ABSOLUTE
    ../Middlewares/Third_Party/LwIP/src/netif/slipif.c 0x00000000   Number         0  slipif.o ABSOLUTE
    ../Middlewares/Third_Party/LwIP/src/netif/zepif.c 0x00000000   Number         0  zepif.o ABSOLUTE
    ../Middlewares/Third_Party/LwIP/system/OS/sys_arch.c 0x00000000   Number         0  sys_arch.o ABSOLUTE
    ../USB_DEVICE/App/usb_device.c           0x00000000   Number         0  usb_device.o ABSOLUTE
    ../USB_DEVICE/App/usbd_desc.c            0x00000000   Number         0  usbd_desc.o ABSOLUTE
    ../USB_DEVICE/App/usbd_storage_if.c      0x00000000   Number         0  usbd_storage_if.o ABSOLUTE
    ../USB_DEVICE/Target/usbd_conf.c         0x00000000   Number         0  usbd_conf.o ABSOLUTE
    ../clib/../cmprslib/zerorunl2.c          0x00000000   Number         0  __dczerorl2.o ABSOLUTE
    ../clib/microlib/cpp/cpp_dtor.c          0x00000000   Number         0  cpp_dtor.o ABSOLUTE
    ../clib/microlib/cpp/cpp_final.c         0x00000000   Number         0  cpp_final.o ABSOLUTE
    ../clib/microlib/cpp/cpp_init.c          0x00000000   Number         0  cpp_init.o ABSOLUTE
    ../clib/microlib/cpp/cpp_init.c          0x00000000   Number         0  cpp_init.o ABSOLUTE
    ../clib/microlib/cpp/cpp_memory.c        0x00000000   Number         0  cpp_memory.o ABSOLUTE
    ../clib/microlib/cpp/cpp_signal.c        0x00000000   Number         0  cpp_signal.o ABSOLUTE
    ../clib/microlib/ctype/ctype.c           0x00000000   Number         0  isxdigit_o.o ABSOLUTE
    ../clib/microlib/ctype/ctype.c           0x00000000   Number         0  isalpha_o.o ABSOLUTE
    ../clib/microlib/ctype/ctype.c           0x00000000   Number         0  isalnum_o.o ABSOLUTE
    ../clib/microlib/ctype/ctype.c           0x00000000   Number         0  isdigit_o.o ABSOLUTE
    ../clib/microlib/ctype/ctype.c           0x00000000   Number         0  isgraph_o.o ABSOLUTE
    ../clib/microlib/ctype/ctype.c           0x00000000   Number         0  islower_o.o ABSOLUTE
    ../clib/microlib/ctype/ctype.c           0x00000000   Number         0  isprint_o.o ABSOLUTE
    ../clib/microlib/ctype/ctype.c           0x00000000   Number         0  ispunct_o.o ABSOLUTE
    ../clib/microlib/ctype/ctype.c           0x00000000   Number         0  isspace_o.o ABSOLUTE
    ../clib/microlib/ctype/ctype.c           0x00000000   Number         0  ctype_o.o ABSOLUTE
    ../clib/microlib/ctype/ctype.c           0x00000000   Number         0  isblank_o.o ABSOLUTE
    ../clib/microlib/ctype/ctype.c           0x00000000   Number         0  isupper_o.o ABSOLUTE
    ../clib/microlib/ctype/ctype.c           0x00000000   Number         0  iscntrl_o.o ABSOLUTE
    ../clib/microlib/division.c              0x00000000   Number         0  uldiv.o ABSOLUTE
    ../clib/microlib/division.c              0x00000000   Number         0  uidiv.o ABSOLUTE
    ../clib/microlib/errno.c                 0x00000000   Number         0  errno.o ABSOLUTE
    ../clib/microlib/init/entry.s            0x00000000   Number         0  entry2.o ABSOLUTE
    ../clib/microlib/init/entry.s            0x00000000   Number         0  entry8a.o ABSOLUTE
    ../clib/microlib/init/entry.s            0x00000000   Number         0  entry12b.o ABSOLUTE
    ../clib/microlib/init/entry.s            0x00000000   Number         0  entry.o ABSOLUTE
    ../clib/microlib/init/entry.s            0x00000000   Number         0  entry5.o ABSOLUTE
    ../clib/microlib/init/entry.s            0x00000000   Number         0  entry7a.o ABSOLUTE
    ../clib/microlib/init/entry.s            0x00000000   Number         0  entry12a.o ABSOLUTE
    ../clib/microlib/init/entry.s            0x00000000   Number         0  entry11b.o ABSOLUTE
    ../clib/microlib/init/entry.s            0x00000000   Number         0  entry11a.o ABSOLUTE
    ../clib/microlib/init/entry.s            0x00000000   Number         0  entry10b.o ABSOLUTE
    ../clib/microlib/init/entry.s            0x00000000   Number         0  entry7b.o ABSOLUTE
    ../clib/microlib/init/entry.s            0x00000000   Number         0  entry10a.o ABSOLUTE
    ../clib/microlib/init/entry.s            0x00000000   Number         0  entry8b.o ABSOLUTE
    ../clib/microlib/init/entry.s            0x00000000   Number         0  entry9b.o ABSOLUTE
    ../clib/microlib/init/entry.s            0x00000000   Number         0  entry9a.o ABSOLUTE
    ../clib/microlib/longlong.c              0x00000000   Number         0  llshl.o ABSOLUTE
    ../clib/microlib/longlong.c              0x00000000   Number         0  llushr.o ABSOLUTE
    ../clib/microlib/longlong.c              0x00000000   Number         0  llsshr.o ABSOLUTE
    ../clib/microlib/malloc/calloc.c         0x00000000   Number         0  calloc.o ABSOLUTE
    ../clib/microlib/malloc/malloc.c         0x00000000   Number         0  malloc.o ABSOLUTE
    ../clib/microlib/malloc/malloc.c         0x00000000   Number         0  mallocr.o ABSOLUTE
    ../clib/microlib/malloc/malloc.c         0x00000000   Number         0  mallocra.o ABSOLUTE
    ../clib/microlib/malloc/malloc.c         0x00000000   Number         0  malloca.o ABSOLUTE
    ../clib/microlib/malloc/mvars.c          0x00000000   Number         0  mvars.o ABSOLUTE
    ../clib/microlib/printf/printf.c         0x00000000   Number         0  printf0.o ABSOLUTE
    ../clib/microlib/printf/printf.c         0x00000000   Number         0  printf2.o ABSOLUTE
    ../clib/microlib/printf/printf.c         0x00000000   Number         0  printfb.o ABSOLUTE
    ../clib/microlib/printf/printf.c         0x00000000   Number         0  printf8.o ABSOLUTE
    ../clib/microlib/printf/printf.c         0x00000000   Number         0  printf6.o ABSOLUTE
    ../clib/microlib/printf/printf.c         0x00000000   Number         0  printf1.o ABSOLUTE
    ../clib/microlib/printf/printf.c         0x00000000   Number         0  printf7.o ABSOLUTE
    ../clib/microlib/printf/printf.c         0x00000000   Number         0  printf3.o ABSOLUTE
    ../clib/microlib/printf/printf.c         0x00000000   Number         0  printf4.o ABSOLUTE
    ../clib/microlib/printf/printf.c         0x00000000   Number         0  printf5.o ABSOLUTE
    ../clib/microlib/printf/printf.c         0x00000000   Number         0  printfa.o ABSOLUTE
    ../clib/microlib/printf/stubs.s          0x00000000   Number         0  stubs.o ABSOLUTE
    ../clib/microlib/stdio/streams.c         0x00000000   Number         0  stdout.o ABSOLUTE
    ../clib/microlib/stdlib/abort.c          0x00000000   Number         0  abort.o ABSOLUTE
    ../clib/microlib/stdlib/bsearch.c        0x00000000   Number         0  bsearch.o ABSOLUTE
    ../clib/microlib/stdlib/rand.c           0x00000000   Number         0  rand.o ABSOLUTE
    ../clib/microlib/string/memcmp.c         0x00000000   Number         0  memcmp.o ABSOLUTE
    ../clib/microlib/string/memcpy.c         0x00000000   Number         0  memmoveb.o ABSOLUTE
    ../clib/microlib/string/memcpy.c         0x00000000   Number         0  memcpyb.o ABSOLUTE
    ../clib/microlib/string/memcpy.c         0x00000000   Number         0  memcpya.o ABSOLUTE
    ../clib/microlib/string/memcpy.c         0x00000000   Number         0  memmovea.o ABSOLUTE
    ../clib/microlib/string/memset.c         0x00000000   Number         0  memseta.o ABSOLUTE
    ../clib/microlib/string/memset.c         0x00000000   Number         0  memset.o ABSOLUTE
    ../clib/microlib/string/strlen.c         0x00000000   Number         0  strlen.o ABSOLUTE
    ../clib/microlib/string/strncmp.c        0x00000000   Number         0  strncmp.o ABSOLUTE
    ../clib/microlib/stubs.s                 0x00000000   Number         0  iusefp.o ABSOLUTE
    ../clib/scanf.c                          0x00000000   Number         0  strtol.o ABSOLUTE
    ../clib/scanf.c                          0x00000000   Number         0  atoi.o ABSOLUTE
    ../clib/scanf.c                          0x00000000   Number         0  _chval.o ABSOLUTE
    ../clib/scanf.c                          0x00000000   Number         0  _strtoul.o ABSOLUTE
    ../clib/stdlib.c                         0x00000000   Number         0  aeabi_atexit.o ABSOLUTE
    ../clib/stdlib.c                         0x00000000   Number         0  cxa_finalize.o ABSOLUTE
    ../fplib/microlib/d2f.c                  0x00000000   Number         0  d2f.o ABSOLUTE
    ../fplib/microlib/f2d.c                  0x00000000   Number         0  f2d.o ABSOLUTE
    ../fplib/microlib/fpadd.c                0x00000000   Number         0  dadd.o ABSOLUTE
    ../fplib/microlib/fpdiv.c                0x00000000   Number         0  ddiv.o ABSOLUTE
    ../fplib/microlib/fpepilogue.c           0x00000000   Number         0  depilogue.o ABSOLUTE
    ../fplib/microlib/fpepilogue.c           0x00000000   Number         0  fepilogue.o ABSOLUTE
    ../fplib/microlib/fpfix.c                0x00000000   Number         0  dfixul.o ABSOLUTE
    ../fplib/microlib/fpflt.c                0x00000000   Number         0  dflti.o ABSOLUTE
    ../fplib/microlib/fpmul.c                0x00000000   Number         0  dmul.o ABSOLUTE
    ../mathlib/sqrtf.c                       0x00000000   Number         0  sqrtf_x.o ABSOLUTE
    ../mathlib/sqrtf.c                       0x00000000   Number         0  sqrtf.o ABSOLUTE
    ..\App\UI_Code\UIcode.cpp                0x00000000   Number         0  uicode.o ABSOLUTE
    ..\App\source\bsp_can.c                  0x00000000   Number         0  bsp_can.o ABSOLUTE
    ..\App\source\bsp_ethernet.c             0x00000000   Number         0  bsp_ethernet.o ABSOLUTE
    ..\App\source\bsp_key.c                  0x00000000   Number         0  bsp_key.o ABSOLUTE
    ..\App\source\bsp_spi.c                  0x00000000   Number         0  bsp_spi.o ABSOLUTE
    ..\App\source\bsp_uart.c                 0x00000000   Number         0  bsp_uart.o ABSOLUTE
    ..\App\source\bytes_convert.c            0x00000000   Number         0  bytes_convert.o ABSOLUTE
    ..\App\source\delay.c                    0x00000000   Number         0  delay.o ABSOLUTE
    ..\App\source\image.c                    0x00000000   Number         0  image.o ABSOLUTE
    ..\App\source\lcd.c                      0x00000000   Number         0  lcd.o ABSOLUTE
    ..\App\source\lcd_init.c                 0x00000000   Number         0  lcd_init.o ABSOLUTE
    ..\App\source\mpu6050.c                  0x00000000   Number         0  mpu6050.o ABSOLUTE
    ..\App\source\tcp_client.c               0x00000000   Number         0  tcp_client.o ABSOLUTE
    ..\App\source\tcp_server.c               0x00000000   Number         0  tcp_server.o ABSOLUTE
    ..\Core\Src\can.c                        0x00000000   Number         0  can.o ABSOLUTE
    ..\Core\Src\dma.c                        0x00000000   Number         0  dma.o ABSOLUTE
    ..\Core\Src\freertos.c                   0x00000000   Number         0  freertos.o ABSOLUTE
    ..\Core\Src\gpio.c                       0x00000000   Number         0  gpio.o ABSOLUTE
    ..\Core\Src\i2c.c                        0x00000000   Number         0  i2c.o ABSOLUTE
    ..\Core\Src\main.c                       0x00000000   Number         0  main.o ABSOLUTE
    ..\Core\Src\spi.c                        0x00000000   Number         0  spi.o ABSOLUTE
    ..\Core\Src\stm32f4xx_hal_msp.c          0x00000000   Number         0  stm32f4xx_hal_msp.o ABSOLUTE
    ..\Core\Src\stm32f4xx_hal_timebase_tim.c 0x00000000   Number         0  stm32f4xx_hal_timebase_tim.o ABSOLUTE
    ..\Core\Src\stm32f4xx_it.c               0x00000000   Number         0  stm32f4xx_it.o ABSOLUTE
    ..\Core\Src\system_stm32f4xx.c           0x00000000   Number         0  system_stm32f4xx.o ABSOLUTE
    ..\Core\Src\usart.c                      0x00000000   Number         0  usart.o ABSOLUTE
    ..\Drivers\STM32F4xx_HAL_Driver\Src\stm32f4xx_hal.c 0x00000000   Number         0  stm32f4xx_hal.o ABSOLUTE
    ..\Drivers\STM32F4xx_HAL_Driver\Src\stm32f4xx_hal_can.c 0x00000000   Number         0  stm32f4xx_hal_can.o ABSOLUTE
    ..\Drivers\STM32F4xx_HAL_Driver\Src\stm32f4xx_hal_cortex.c 0x00000000   Number         0  stm32f4xx_hal_cortex.o ABSOLUTE
    ..\Drivers\STM32F4xx_HAL_Driver\Src\stm32f4xx_hal_dma.c 0x00000000   Number         0  stm32f4xx_hal_dma.o ABSOLUTE
    ..\Drivers\STM32F4xx_HAL_Driver\Src\stm32f4xx_hal_dma_ex.c 0x00000000   Number         0  stm32f4xx_hal_dma_ex.o ABSOLUTE
    ..\Drivers\STM32F4xx_HAL_Driver\Src\stm32f4xx_hal_eth.c 0x00000000   Number         0  stm32f4xx_hal_eth.o ABSOLUTE
    ..\Drivers\STM32F4xx_HAL_Driver\Src\stm32f4xx_hal_exti.c 0x00000000   Number         0  stm32f4xx_hal_exti.o ABSOLUTE
    ..\Drivers\STM32F4xx_HAL_Driver\Src\stm32f4xx_hal_flash.c 0x00000000   Number         0  stm32f4xx_hal_flash.o ABSOLUTE
    ..\Drivers\STM32F4xx_HAL_Driver\Src\stm32f4xx_hal_flash_ex.c 0x00000000   Number         0  stm32f4xx_hal_flash_ex.o ABSOLUTE
    ..\Drivers\STM32F4xx_HAL_Driver\Src\stm32f4xx_hal_flash_ramfunc.c 0x00000000   Number         0  stm32f4xx_hal_flash_ramfunc.o ABSOLUTE
    ..\Drivers\STM32F4xx_HAL_Driver\Src\stm32f4xx_hal_gpio.c 0x00000000   Number         0  stm32f4xx_hal_gpio.o ABSOLUTE
    ..\Drivers\STM32F4xx_HAL_Driver\Src\stm32f4xx_hal_i2c.c 0x00000000   Number         0  stm32f4xx_hal_i2c.o ABSOLUTE
    ..\Drivers\STM32F4xx_HAL_Driver\Src\stm32f4xx_hal_i2c_ex.c 0x00000000   Number         0  stm32f4xx_hal_i2c_ex.o ABSOLUTE
    ..\Drivers\STM32F4xx_HAL_Driver\Src\stm32f4xx_hal_pcd.c 0x00000000   Number         0  stm32f4xx_hal_pcd.o ABSOLUTE
    ..\Drivers\STM32F4xx_HAL_Driver\Src\stm32f4xx_hal_pcd_ex.c 0x00000000   Number         0  stm32f4xx_hal_pcd_ex.o ABSOLUTE
    ..\Drivers\STM32F4xx_HAL_Driver\Src\stm32f4xx_hal_pwr.c 0x00000000   Number         0  stm32f4xx_hal_pwr.o ABSOLUTE
    ..\Drivers\STM32F4xx_HAL_Driver\Src\stm32f4xx_hal_pwr_ex.c 0x00000000   Number         0  stm32f4xx_hal_pwr_ex.o ABSOLUTE
    ..\Drivers\STM32F4xx_HAL_Driver\Src\stm32f4xx_hal_rcc.c 0x00000000   Number         0  stm32f4xx_hal_rcc.o ABSOLUTE
    ..\Drivers\STM32F4xx_HAL_Driver\Src\stm32f4xx_hal_rcc_ex.c 0x00000000   Number         0  stm32f4xx_hal_rcc_ex.o ABSOLUTE
    ..\Drivers\STM32F4xx_HAL_Driver\Src\stm32f4xx_hal_spi.c 0x00000000   Number         0  stm32f4xx_hal_spi.o ABSOLUTE
    ..\Drivers\STM32F4xx_HAL_Driver\Src\stm32f4xx_hal_tim.c 0x00000000   Number         0  stm32f4xx_hal_tim.o ABSOLUTE
    ..\Drivers\STM32F4xx_HAL_Driver\Src\stm32f4xx_hal_tim_ex.c 0x00000000   Number         0  stm32f4xx_hal_tim_ex.o ABSOLUTE
    ..\Drivers\STM32F4xx_HAL_Driver\Src\stm32f4xx_hal_uart.c 0x00000000   Number         0  stm32f4xx_hal_uart.o ABSOLUTE
    ..\Drivers\STM32F4xx_HAL_Driver\Src\stm32f4xx_ll_usb.c 0x00000000   Number         0  stm32f4xx_ll_usb.o ABSOLUTE
    ..\FATFS\App\fatfs.c                     0x00000000   Number         0  fatfs.o ABSOLUTE
    ..\FATFS\Target\user_diskio.c            0x00000000   Number         0  user_diskio.o ABSOLUTE
    ..\LWIP\App\lwip.c                       0x00000000   Number         0  lwip.o ABSOLUTE
    ..\LWIP\Target\ethernetif.c              0x00000000   Number         0  ethernetif.o ABSOLUTE
    ..\Middlewares\ST\STM32_USB_Device_Library\Class\MSC\Src\usbd_msc.c 0x00000000   Number         0  usbd_msc.o ABSOLUTE
    ..\Middlewares\ST\STM32_USB_Device_Library\Class\MSC\Src\usbd_msc_bot.c 0x00000000   Number         0  usbd_msc_bot.o ABSOLUTE
    ..\Middlewares\ST\STM32_USB_Device_Library\Class\MSC\Src\usbd_msc_data.c 0x00000000   Number         0  usbd_msc_data.o ABSOLUTE
    ..\Middlewares\ST\STM32_USB_Device_Library\Class\MSC\Src\usbd_msc_scsi.c 0x00000000   Number         0  usbd_msc_scsi.o ABSOLUTE
    ..\Middlewares\ST\STM32_USB_Device_Library\Core\Src\usbd_core.c 0x00000000   Number         0  usbd_core.o ABSOLUTE
    ..\Middlewares\ST\STM32_USB_Device_Library\Core\Src\usbd_ctlreq.c 0x00000000   Number         0  usbd_ctlreq.o ABSOLUTE
    ..\Middlewares\ST\STM32_USB_Device_Library\Core\Src\usbd_ioreq.c 0x00000000   Number         0  usbd_ioreq.o ABSOLUTE
    ..\Middlewares\Third_Party\FatFs\src\diskio.c 0x00000000   Number         0  diskio.o ABSOLUTE
    ..\Middlewares\Third_Party\FatFs\src\ff.c 0x00000000   Number         0  ff.o ABSOLUTE
    ..\Middlewares\Third_Party\FatFs\src\ff_gen_drv.c 0x00000000   Number         0  ff_gen_drv.o ABSOLUTE
    ..\Middlewares\Third_Party\FatFs\src\option\syscall.c 0x00000000   Number         0  syscall.o ABSOLUTE
    ..\Middlewares\Third_Party\FreeRTOS\Source\CMSIS_RTOS_V2\cmsis_os2.c 0x00000000   Number         0  cmsis_os2.o ABSOLUTE
    ..\Middlewares\Third_Party\FreeRTOS\Source\portable\RVDS\ARM_CM4F\port.c 0x00000000   Number         0  port.o ABSOLUTE
    ..\Middlewares\Third_Party\LwIP\src\api\api_lib.c 0x00000000   Number         0  api_lib.o ABSOLUTE
    ..\Middlewares\Third_Party\LwIP\src\api\api_msg.c 0x00000000   Number         0  api_msg.o ABSOLUTE
    ..\Middlewares\Third_Party\LwIP\src\api\err.c 0x00000000   Number         0  err.o ABSOLUTE
    ..\Middlewares\Third_Party\LwIP\src\api\if_api.c 0x00000000   Number         0  if_api.o ABSOLUTE
    ..\Middlewares\Third_Party\LwIP\src\api\netbuf.c 0x00000000   Number         0  netbuf.o ABSOLUTE
    ..\Middlewares\Third_Party\LwIP\src\api\netdb.c 0x00000000   Number         0  netdb.o ABSOLUTE
    ..\Middlewares\Third_Party\LwIP\src\api\netifapi.c 0x00000000   Number         0  netifapi.o ABSOLUTE
    ..\Middlewares\Third_Party\LwIP\src\api\sockets.c 0x00000000   Number         0  sockets.o ABSOLUTE
    ..\Middlewares\Third_Party\LwIP\src\api\tcpip.c 0x00000000   Number         0  tcpip.o ABSOLUTE
    ..\Middlewares\Third_Party\LwIP\src\apps\mqtt\mqtt.c 0x00000000   Number         0  mqtt.o ABSOLUTE
    ..\Middlewares\Third_Party\LwIP\src\core\altcp.c 0x00000000   Number         0  altcp.o ABSOLUTE
    ..\Middlewares\Third_Party\LwIP\src\core\altcp_alloc.c 0x00000000   Number         0  altcp_alloc.o ABSOLUTE
    ..\Middlewares\Third_Party\LwIP\src\core\altcp_tcp.c 0x00000000   Number         0  altcp_tcp.o ABSOLUTE
    ..\Middlewares\Third_Party\LwIP\src\core\def.c 0x00000000   Number         0  def.o ABSOLUTE
    ..\Middlewares\Third_Party\LwIP\src\core\dns.c 0x00000000   Number         0  dns.o ABSOLUTE
    ..\Middlewares\Third_Party\LwIP\src\core\inet_chksum.c 0x00000000   Number         0  inet_chksum.o ABSOLUTE
    ..\Middlewares\Third_Party\LwIP\src\core\init.c 0x00000000   Number         0  init.o ABSOLUTE
    ..\Middlewares\Third_Party\LwIP\src\core\ip.c 0x00000000   Number         0  ip.o ABSOLUTE
    ..\Middlewares\Third_Party\LwIP\src\core\ipv4\autoip.c 0x00000000   Number         0  autoip.o ABSOLUTE
    ..\Middlewares\Third_Party\LwIP\src\core\ipv4\dhcp.c 0x00000000   Number         0  dhcp.o ABSOLUTE
    ..\Middlewares\Third_Party\LwIP\src\core\ipv4\etharp.c 0x00000000   Number         0  etharp.o ABSOLUTE
    ..\Middlewares\Third_Party\LwIP\src\core\ipv4\icmp.c 0x00000000   Number         0  icmp.o ABSOLUTE
    ..\Middlewares\Third_Party\LwIP\src\core\ipv4\igmp.c 0x00000000   Number         0  igmp.o ABSOLUTE
    ..\Middlewares\Third_Party\LwIP\src\core\ipv4\ip4.c 0x00000000   Number         0  ip4.o ABSOLUTE
    ..\Middlewares\Third_Party\LwIP\src\core\ipv4\ip4_addr.c 0x00000000   Number         0  ip4_addr.o ABSOLUTE
    ..\Middlewares\Third_Party\LwIP\src\core\ipv4\ip4_frag.c 0x00000000   Number         0  ip4_frag.o ABSOLUTE
    ..\Middlewares\Third_Party\LwIP\src\core\ipv6\dhcp6.c 0x00000000   Number         0  dhcp6.o ABSOLUTE
    ..\Middlewares\Third_Party\LwIP\src\core\ipv6\ethip6.c 0x00000000   Number         0  ethip6.o ABSOLUTE
    ..\Middlewares\Third_Party\LwIP\src\core\ipv6\icmp6.c 0x00000000   Number         0  icmp6.o ABSOLUTE
    ..\Middlewares\Third_Party\LwIP\src\core\ipv6\inet6.c 0x00000000   Number         0  inet6.o ABSOLUTE
    ..\Middlewares\Third_Party\LwIP\src\core\ipv6\ip6.c 0x00000000   Number         0  ip6.o ABSOLUTE
    ..\Middlewares\Third_Party\LwIP\src\core\ipv6\ip6_addr.c 0x00000000   Number         0  ip6_addr.o ABSOLUTE
    ..\Middlewares\Third_Party\LwIP\src\core\ipv6\ip6_frag.c 0x00000000   Number         0  ip6_frag.o ABSOLUTE
    ..\Middlewares\Third_Party\LwIP\src\core\ipv6\mld6.c 0x00000000   Number         0  mld6.o ABSOLUTE
    ..\Middlewares\Third_Party\LwIP\src\core\ipv6\nd6.c 0x00000000   Number         0  nd6.o ABSOLUTE
    ..\Middlewares\Third_Party\LwIP\src\core\mem.c 0x00000000   Number         0  mem.o ABSOLUTE
    ..\Middlewares\Third_Party\LwIP\src\core\memp.c 0x00000000   Number         0  memp.o ABSOLUTE
    ..\Middlewares\Third_Party\LwIP\src\core\netif.c 0x00000000   Number         0  netif.o ABSOLUTE
    ..\Middlewares\Third_Party\LwIP\src\core\pbuf.c 0x00000000   Number         0  pbuf.o ABSOLUTE
    ..\Middlewares\Third_Party\LwIP\src\core\raw.c 0x00000000   Number         0  raw.o ABSOLUTE
    ..\Middlewares\Third_Party\LwIP\src\core\stats.c 0x00000000   Number         0  stats.o ABSOLUTE
    ..\Middlewares\Third_Party\LwIP\src\core\sys.c 0x00000000   Number         0  sys.o ABSOLUTE
    ..\Middlewares\Third_Party\LwIP\src\core\tcp.c 0x00000000   Number         0  tcp.o ABSOLUTE
    ..\Middlewares\Third_Party\LwIP\src\core\tcp_in.c 0x00000000   Number         0  tcp_in.o ABSOLUTE
    ..\Middlewares\Third_Party\LwIP\src\core\tcp_out.c 0x00000000   Number         0  tcp_out.o ABSOLUTE
    ..\Middlewares\Third_Party\LwIP\src\core\timeouts.c 0x00000000   Number         0  timeouts.o ABSOLUTE
    ..\Middlewares\Third_Party\LwIP\src\core\udp.c 0x00000000   Number         0  udp.o ABSOLUTE
    ..\Middlewares\Third_Party\LwIP\src\netif\bridgeif.c 0x00000000   Number         0  bridgeif.o ABSOLUTE
    ..\Middlewares\Third_Party\LwIP\src\netif\bridgeif_fdb.c 0x00000000   Number         0  bridgeif_fdb.o ABSOLUTE
    ..\Middlewares\Third_Party\LwIP\src\netif\ethernet.c 0x00000000   Number         0  ethernet.o ABSOLUTE
    ..\Middlewares\Third_Party\LwIP\src\netif\lowpan6.c 0x00000000   Number         0  lowpan6.o ABSOLUTE
    ..\Middlewares\Third_Party\LwIP\src\netif\lowpan6_ble.c 0x00000000   Number         0  lowpan6_ble.o ABSOLUTE
    ..\Middlewares\Third_Party\LwIP\src\netif\lowpan6_common.c 0x00000000   Number         0  lowpan6_common.o ABSOLUTE
    ..\Middlewares\Third_Party\LwIP\src\netif\ppp\auth.c 0x00000000   Number         0  auth.o ABSOLUTE
    ..\Middlewares\Third_Party\LwIP\src\netif\ppp\ccp.c 0x00000000   Number         0  ccp.o ABSOLUTE
    ..\Middlewares\Third_Party\LwIP\src\netif\ppp\chap-md5.c 0x00000000   Number         0  chap-md5.o ABSOLUTE
    ..\Middlewares\Third_Party\LwIP\src\netif\ppp\chap-new.c 0x00000000   Number         0  chap-new.o ABSOLUTE
    ..\Middlewares\Third_Party\LwIP\src\netif\ppp\chap_ms.c 0x00000000   Number         0  chap_ms.o ABSOLUTE
    ..\Middlewares\Third_Party\LwIP\src\netif\ppp\demand.c 0x00000000   Number         0  demand.o ABSOLUTE
    ..\Middlewares\Third_Party\LwIP\src\netif\ppp\eap.c 0x00000000   Number         0  eap.o ABSOLUTE
    ..\Middlewares\Third_Party\LwIP\src\netif\ppp\ecp.c 0x00000000   Number         0  ecp.o ABSOLUTE
    ..\Middlewares\Third_Party\LwIP\src\netif\ppp\eui64.c 0x00000000   Number         0  eui64.o ABSOLUTE
    ..\Middlewares\Third_Party\LwIP\src\netif\ppp\fsm.c 0x00000000   Number         0  fsm.o ABSOLUTE
    ..\Middlewares\Third_Party\LwIP\src\netif\ppp\ipcp.c 0x00000000   Number         0  ipcp.o ABSOLUTE
    ..\Middlewares\Third_Party\LwIP\src\netif\ppp\ipv6cp.c 0x00000000   Number         0  ipv6cp.o ABSOLUTE
    ..\Middlewares\Third_Party\LwIP\src\netif\ppp\lcp.c 0x00000000   Number         0  lcp.o ABSOLUTE
    ..\Middlewares\Third_Party\LwIP\src\netif\ppp\magic.c 0x00000000   Number         0  magic.o ABSOLUTE
    ..\Middlewares\Third_Party\LwIP\src\netif\ppp\mppe.c 0x00000000   Number         0  mppe.o ABSOLUTE
    ..\Middlewares\Third_Party\LwIP\src\netif\ppp\multilink.c 0x00000000   Number         0  multilink.o ABSOLUTE
    ..\Middlewares\Third_Party\LwIP\src\netif\ppp\ppp.c 0x00000000   Number         0  ppp.o ABSOLUTE
    ..\Middlewares\Third_Party\LwIP\src\netif\ppp\pppapi.c 0x00000000   Number         0  pppapi.o ABSOLUTE
    ..\Middlewares\Third_Party\LwIP\src\netif\ppp\pppcrypt.c 0x00000000   Number         0  pppcrypt.o ABSOLUTE
    ..\Middlewares\Third_Party\LwIP\src\netif\ppp\pppoe.c 0x00000000   Number         0  pppoe.o ABSOLUTE
    ..\Middlewares\Third_Party\LwIP\src\netif\ppp\pppol2tp.c 0x00000000   Number         0  pppol2tp.o ABSOLUTE
    ..\Middlewares\Third_Party\LwIP\src\netif\ppp\pppos.c 0x00000000   Number         0  pppos.o ABSOLUTE
    ..\Middlewares\Third_Party\LwIP\src\netif\ppp\upap.c 0x00000000   Number         0  upap.o ABSOLUTE
    ..\Middlewares\Third_Party\LwIP\src\netif\ppp\utils.c 0x00000000   Number         0  utils.o ABSOLUTE
    ..\Middlewares\Third_Party\LwIP\src\netif\ppp\vj.c 0x00000000   Number         0  vj.o ABSOLUTE
    ..\Middlewares\Third_Party\LwIP\src\netif\slipif.c 0x00000000   Number         0  slipif.o ABSOLUTE
    ..\Middlewares\Third_Party\LwIP\src\netif\zepif.c 0x00000000   Number         0  zepif.o ABSOLUTE
    ..\Middlewares\Third_Party\LwIP\system\OS\sys_arch.c 0x00000000   Number         0  sys_arch.o ABSOLUTE
    ..\USB_DEVICE\App\usb_device.c           0x00000000   Number         0  usb_device.o ABSOLUTE
    ..\USB_DEVICE\App\usbd_desc.c            0x00000000   Number         0  usbd_desc.o ABSOLUTE
    ..\USB_DEVICE\App\usbd_storage_if.c      0x00000000   Number         0  usbd_storage_if.o ABSOLUTE
    ..\USB_DEVICE\Target\usbd_conf.c         0x00000000   Number         0  usbd_conf.o ABSOLUTE
    ..\\App\\UI_Code\\UIcode.cpp             0x00000000   Number         0  uicode.o ABSOLUTE
    ..\\App\\source\\bsp_can.c               0x00000000   Number         0  bsp_can.o ABSOLUTE
    ..\\App\\source\\bsp_ethernet.c          0x00000000   Number         0  bsp_ethernet.o ABSOLUTE
    ..\\App\\source\\bsp_key.c               0x00000000   Number         0  bsp_key.o ABSOLUTE
    ..\\App\\source\\bsp_spi.c               0x00000000   Number         0  bsp_spi.o ABSOLUTE
    ..\\App\\source\\bsp_uart.c              0x00000000   Number         0  bsp_uart.o ABSOLUTE
    ..\\App\\source\\bytes_convert.c         0x00000000   Number         0  bytes_convert.o ABSOLUTE
    ..\\App\\source\\delay.c                 0x00000000   Number         0  delay.o ABSOLUTE
    ..\\App\\source\\lcd.c                   0x00000000   Number         0  lcd.o ABSOLUTE
    ..\\App\\source\\lcd_init.c              0x00000000   Number         0  lcd_init.o ABSOLUTE
    ..\\App\\source\\mpu6050.c               0x00000000   Number         0  mpu6050.o ABSOLUTE
    ..\\App\\source\\tcp_client.c            0x00000000   Number         0  tcp_client.o ABSOLUTE
    ..\\App\\source\\tcp_server.c            0x00000000   Number         0  tcp_server.o ABSOLUTE
    cdrcmple.s                               0x00000000   Number         0  cdrcmple.o ABSOLUTE
    dc.s                                     0x00000000   Number         0  dc.o ABSOLUTE
    handlers.s                               0x00000000   Number         0  handlers.o ABSOLUTE
    init.s                                   0x00000000   Number         0  init.o ABSOLUTE
    startup_stm32f429xx.s                    0x00000000   Number         0  startup_stm32f429xx.o ABSOLUTE
    RESET                                    0x08000000   Section      428  startup_stm32f429xx.o(RESET)
    .ARM.Collect$$$$00000000                 0x080001ac   Section        0  entry.o(.ARM.Collect$$$$00000000)
    .ARM.Collect$$$$00000001                 0x080001ac   Section        4  entry2.o(.ARM.Collect$$$$00000001)
    .ARM.Collect$$$$00000004                 0x080001b0   Section        4  entry5.o(.ARM.Collect$$$$00000004)
    .ARM.Collect$$$$00000008                 0x080001b4   Section        0  entry7b.o(.ARM.Collect$$$$00000008)
    .ARM.Collect$$$$00000009                 0x080001b4   Section        4  entry8a.o(.ARM.Collect$$$$00000009)
    .ARM.Collect$$$$0000000A                 0x080001b8   Section        0  entry8b.o(.ARM.Collect$$$$0000000A)
    .ARM.Collect$$$$0000000B                 0x080001b8   Section        8  entry9a.o(.ARM.Collect$$$$0000000B)
    .ARM.Collect$$$$0000000E                 0x080001c0   Section        4  entry12b.o(.ARM.Collect$$$$0000000E)
    .ARM.Collect$$$$0000000F                 0x080001c4   Section        0  entry10a.o(.ARM.Collect$$$$0000000F)
    .ARM.Collect$$$$00000010                 0x080001c4   Section        4  entry10b.o(.ARM.Collect$$$$00000010)
    .ARM.Collect$$$$00000011                 0x080001c8   Section        0  entry11a.o(.ARM.Collect$$$$00000011)
    .ARM.Collect$$$$00002712                 0x080001c8   Section        4  entry2.o(.ARM.Collect$$$$00002712)
    __lit__00000000                          0x080001c8   Data           4  entry2.o(.ARM.Collect$$$$00002712)
    .emb_text                                0x080001cc   Section      190  port.o(.emb_text)
    $v0                                      0x080001cc   Number         0  port.o(.emb_text)
    .text                                    0x0800028c   Section       36  startup_stm32f429xx.o(.text)
    $v0                                      0x0800028c   Number         0  startup_stm32f429xx.o(.text)
    .text                                    0x080002b0   Section        0  uldiv.o(.text)
    .text                                    0x08000314   Section        0  rand.o(.text)
    .text                                    0x08000338   Section        0  memmovea.o(.text)
    .text                                    0x08000378   Section        0  memseta.o(.text)
    .text                                    0x0800039c   Section        0  memcmp.o(.text)
    .text                                    0x080003b6   Section        0  calloc.o(.text)
    .text                                    0x080003d4   Section        0  cpp_init.o(.text)
    .text                                    0x080003f4   Section        0  aeabi_atexit.o(.text)
    .text                                    0x08000422   Section        0  dadd.o(.text)
    .text                                    0x08000570   Section        0  dmul.o(.text)
    .text                                    0x08000654   Section        0  ddiv.o(.text)
    .text                                    0x08000732   Section        0  dflti.o(.text)
    .text                                    0x08000754   Section        0  f2d.o(.text)
    .text                                    0x0800077a   Section        0  d2f.o(.text)
    .text                                    0x080007b2   Section        0  uidiv.o(.text)
    .text                                    0x080007de   Section        0  llshl.o(.text)
    .text                                    0x080007fc   Section        0  llushr.o(.text)
    .text                                    0x0800081c   Section        0  llsshr.o(.text)
    .text                                    0x08000840   Section        0  iusefp.o(.text)
    .text                                    0x08000840   Section        0  cpp_dtor.o(.text)
    .text                                    0x08000848   Section        0  cxa_finalize.o(.text)
    .text                                    0x0800088a   Section        0  fepilogue.o(.text)
    .text                                    0x080008f8   Section        0  depilogue.o(.text)
    .text                                    0x080009b2   Section        0  dfixul.o(.text)
    .text                                    0x080009e4   Section       48  cdrcmple.o(.text)
    .text                                    0x08000a14   Section       36  init.o(.text)
    .text                                    0x08000a38   Section        0  cpp_final.o(.text)
    .text                                    0x08000a3a   Section        0  __dczerorl2.o(.text)
    i.BusFault_Handler                       0x08000a90   Section        0  stm32f4xx_it.o(i.BusFault_Handler)
    i.CAN1_Filter_Config                     0x08000a94   Section        0  bsp_can.o(i.CAN1_Filter_Config)
    i.CAN1_RX0_IRQHandler                    0x08000af0   Section        0  stm32f4xx_it.o(i.CAN1_RX0_IRQHandler)
    i.CAN_rxdata                             0x08000b00   Section        0  bsp_can.o(i.CAN_rxdata)
    i.CAN_txdata                             0x08000b1c   Section        0  bsp_can.o(i.CAN_txdata)
    i.Callback_100ms                         0x08000b4c   Section        0  freertos.o(i.Callback_100ms)
    i.DMA2_Stream2_IRQHandler                0x08000c18   Section        0  stm32f4xx_it.o(i.DMA2_Stream2_IRQHandler)
    i.DMA_CalcBaseAndBitshift                0x08000c28   Section        0  stm32f4xx_hal_dma.o(i.DMA_CalcBaseAndBitshift)
    DMA_CalcBaseAndBitshift                  0x08000c29   Thumb Code    46  stm32f4xx_hal_dma.o(i.DMA_CalcBaseAndBitshift)
    i.DMA_CheckFifoParam                     0x08000c5c   Section        0  stm32f4xx_hal_dma.o(i.DMA_CheckFifoParam)
    DMA_CheckFifoParam                       0x08000c5d   Thumb Code   170  stm32f4xx_hal_dma.o(i.DMA_CheckFifoParam)
    i.DMA_SetConfig                          0x08000d06   Section        0  stm32f4xx_hal_dma.o(i.DMA_SetConfig)
    DMA_SetConfig                            0x08000d07   Thumb Code    44  stm32f4xx_hal_dma.o(i.DMA_SetConfig)
    i.DebugMon_Handler                       0x08000d32   Section        0  stm32f4xx_it.o(i.DebugMon_Handler)
    i.ETH_DMAReceptionDisable                0x08000d34   Section        0  stm32f4xx_hal_eth.o(i.ETH_DMAReceptionDisable)
    ETH_DMAReceptionDisable                  0x08000d35   Thumb Code    22  stm32f4xx_hal_eth.o(i.ETH_DMAReceptionDisable)
    i.ETH_DMAReceptionEnable                 0x08000d4a   Section        0  stm32f4xx_hal_eth.o(i.ETH_DMAReceptionEnable)
    ETH_DMAReceptionEnable                   0x08000d4b   Thumb Code    22  stm32f4xx_hal_eth.o(i.ETH_DMAReceptionEnable)
    i.ETH_DMATransmissionDisable             0x08000d60   Section        0  stm32f4xx_hal_eth.o(i.ETH_DMATransmissionDisable)
    ETH_DMATransmissionDisable               0x08000d61   Thumb Code    22  stm32f4xx_hal_eth.o(i.ETH_DMATransmissionDisable)
    i.ETH_DMATransmissionEnable              0x08000d76   Section        0  stm32f4xx_hal_eth.o(i.ETH_DMATransmissionEnable)
    ETH_DMATransmissionEnable                0x08000d77   Thumb Code    22  stm32f4xx_hal_eth.o(i.ETH_DMATransmissionEnable)
    i.ETH_Delay                              0x08000d8c   Section        0  stm32f4xx_hal_eth.o(i.ETH_Delay)
    ETH_Delay                                0x08000d8d   Thumb Code    36  stm32f4xx_hal_eth.o(i.ETH_Delay)
    i.ETH_FlushTransmitFIFO                  0x08000db4   Section        0  stm32f4xx_hal_eth.o(i.ETH_FlushTransmitFIFO)
    ETH_FlushTransmitFIFO                    0x08000db5   Thumb Code    56  stm32f4xx_hal_eth.o(i.ETH_FlushTransmitFIFO)
    i.ETH_IRQHandler                         0x08000dec   Section        0  stm32f4xx_it.o(i.ETH_IRQHandler)
    i.ETH_MACAddressConfig                   0x08000dfc   Section        0  stm32f4xx_hal_eth.o(i.ETH_MACAddressConfig)
    ETH_MACAddressConfig                     0x08000dfd   Thumb Code    48  stm32f4xx_hal_eth.o(i.ETH_MACAddressConfig)
    i.ETH_MACDMAConfig                       0x08000e30   Section        0  stm32f4xx_hal_eth.o(i.ETH_MACDMAConfig)
    ETH_MACDMAConfig                         0x08000e31   Thumb Code   566  stm32f4xx_hal_eth.o(i.ETH_MACDMAConfig)
    i.ETH_MACReceptionDisable                0x08001074   Section        0  stm32f4xx_hal_eth.o(i.ETH_MACReceptionDisable)
    ETH_MACReceptionDisable                  0x08001075   Thumb Code    40  stm32f4xx_hal_eth.o(i.ETH_MACReceptionDisable)
    i.ETH_MACReceptionEnable                 0x0800109c   Section        0  stm32f4xx_hal_eth.o(i.ETH_MACReceptionEnable)
    ETH_MACReceptionEnable                   0x0800109d   Thumb Code    40  stm32f4xx_hal_eth.o(i.ETH_MACReceptionEnable)
    i.ETH_MACTransmissionDisable             0x080010c4   Section        0  stm32f4xx_hal_eth.o(i.ETH_MACTransmissionDisable)
    ETH_MACTransmissionDisable               0x080010c5   Thumb Code    40  stm32f4xx_hal_eth.o(i.ETH_MACTransmissionDisable)
    i.ETH_MACTransmissionEnable              0x080010ec   Section        0  stm32f4xx_hal_eth.o(i.ETH_MACTransmissionEnable)
    ETH_MACTransmissionEnable                0x080010ed   Thumb Code    40  stm32f4xx_hal_eth.o(i.ETH_MACTransmissionEnable)
    i.Error_Handler                          0x08001114   Section        0  main.o(i.Error_Handler)
    i.FATFS_LinkDriver                       0x08001116   Section        0  ff_gen_drv.o(i.FATFS_LinkDriver)
    i.FATFS_LinkDriverEx                     0x08001128   Section        0  ff_gen_drv.o(i.FATFS_LinkDriverEx)
    i.FileTest                               0x0800117c   Section        0  user_diskio.o(i.FileTest)
    i.Get_SerialNum                          0x0800118c   Section        0  usbd_desc.o(i.Get_SerialNum)
    Get_SerialNum                            0x0800118d   Thumb Code    42  usbd_desc.o(i.Get_SerialNum)
    i.HAL_CAN_ActivateNotification           0x080011c0   Section        0  stm32f4xx_hal_can.o(i.HAL_CAN_ActivateNotification)
    i.HAL_CAN_AddTxMessage                   0x080011ea   Section        0  stm32f4xx_hal_can.o(i.HAL_CAN_AddTxMessage)
    i.HAL_CAN_ConfigFilter                   0x08001340   Section        0  stm32f4xx_hal_can.o(i.HAL_CAN_ConfigFilter)
    i.HAL_CAN_ErrorCallback                  0x08001464   Section        0  stm32f4xx_hal_can.o(i.HAL_CAN_ErrorCallback)
    i.HAL_CAN_GetRxMessage                   0x08001466   Section        0  stm32f4xx_hal_can.o(i.HAL_CAN_GetRxMessage)
    i.HAL_CAN_IRQHandler                     0x080015e0   Section        0  stm32f4xx_hal_can.o(i.HAL_CAN_IRQHandler)
    i.HAL_CAN_Init                           0x0800182e   Section        0  stm32f4xx_hal_can.o(i.HAL_CAN_Init)
    i.HAL_CAN_MspInit                        0x080019a4   Section        0  can.o(i.HAL_CAN_MspInit)
    i.HAL_CAN_RxFifo0FullCallback            0x08001a3c   Section        0  stm32f4xx_hal_can.o(i.HAL_CAN_RxFifo0FullCallback)
    i.HAL_CAN_RxFifo0MsgPendingCallback      0x08001a40   Section        0  bsp_can.o(i.HAL_CAN_RxFifo0MsgPendingCallback)
    i.HAL_CAN_RxFifo1FullCallback            0x08001ad0   Section        0  stm32f4xx_hal_can.o(i.HAL_CAN_RxFifo1FullCallback)
    i.HAL_CAN_RxFifo1MsgPendingCallback      0x08001ad2   Section        0  stm32f4xx_hal_can.o(i.HAL_CAN_RxFifo1MsgPendingCallback)
    i.HAL_CAN_SleepCallback                  0x08001ad4   Section        0  stm32f4xx_hal_can.o(i.HAL_CAN_SleepCallback)
    i.HAL_CAN_Start                          0x08001ad6   Section        0  stm32f4xx_hal_can.o(i.HAL_CAN_Start)
    i.HAL_CAN_TxMailbox0AbortCallback        0x08001b34   Section        0  stm32f4xx_hal_can.o(i.HAL_CAN_TxMailbox0AbortCallback)
    i.HAL_CAN_TxMailbox0CompleteCallback     0x08001b36   Section        0  stm32f4xx_hal_can.o(i.HAL_CAN_TxMailbox0CompleteCallback)
    i.HAL_CAN_TxMailbox1AbortCallback        0x08001b38   Section        0  stm32f4xx_hal_can.o(i.HAL_CAN_TxMailbox1AbortCallback)
    i.HAL_CAN_TxMailbox1CompleteCallback     0x08001b3a   Section        0  stm32f4xx_hal_can.o(i.HAL_CAN_TxMailbox1CompleteCallback)
    i.HAL_CAN_TxMailbox2AbortCallback        0x08001b3c   Section        0  stm32f4xx_hal_can.o(i.HAL_CAN_TxMailbox2AbortCallback)
    i.HAL_CAN_TxMailbox2CompleteCallback     0x08001b3e   Section        0  stm32f4xx_hal_can.o(i.HAL_CAN_TxMailbox2CompleteCallback)
    i.HAL_CAN_WakeUpFromRxMsgCallback        0x08001b40   Section        0  stm32f4xx_hal_can.o(i.HAL_CAN_WakeUpFromRxMsgCallback)
    i.HAL_DMA_Abort                          0x08001b42   Section        0  stm32f4xx_hal_dma.o(i.HAL_DMA_Abort)
    i.HAL_DMA_Abort_IT                       0x08001bec   Section        0  stm32f4xx_hal_dma.o(i.HAL_DMA_Abort_IT)
    i.HAL_DMA_IRQHandler                     0x08001c14   Section        0  stm32f4xx_hal_dma.o(i.HAL_DMA_IRQHandler)
    i.HAL_DMA_Init                           0x08001e54   Section        0  stm32f4xx_hal_dma.o(i.HAL_DMA_Init)
    i.HAL_DMA_Start_IT                       0x08001f40   Section        0  stm32f4xx_hal_dma.o(i.HAL_DMA_Start_IT)
    i.HAL_Delay                              0x08001fd4   Section        0  stm32f4xx_hal.o(i.HAL_Delay)
    i.HAL_ETH_ConfigMAC                      0x08001ffc   Section        0  stm32f4xx_hal_eth.o(i.HAL_ETH_ConfigMAC)
    i.HAL_ETH_DMARxDescListInit              0x0800213c   Section        0  stm32f4xx_hal_eth.o(i.HAL_ETH_DMARxDescListInit)
    i.HAL_ETH_DMATxDescListInit              0x080021c8   Section        0  stm32f4xx_hal_eth.o(i.HAL_ETH_DMATxDescListInit)
    i.HAL_ETH_ErrorCallback                  0x0800224c   Section        0  stm32f4xx_hal_eth.o(i.HAL_ETH_ErrorCallback)
    i.HAL_ETH_GetReceivedFrame_IT            0x0800224e   Section        0  stm32f4xx_hal_eth.o(i.HAL_ETH_GetReceivedFrame_IT)
    i.HAL_ETH_IRQHandler                     0x08002308   Section        0  stm32f4xx_hal_eth.o(i.HAL_ETH_IRQHandler)
    i.HAL_ETH_Init                           0x080023ac   Section        0  stm32f4xx_hal_eth.o(i.HAL_ETH_Init)
    i.HAL_ETH_MspInit                        0x0800264c   Section        0  ethernetif.o(i.HAL_ETH_MspInit)
    i.HAL_ETH_ReadPHYRegister                0x080027e0   Section        0  stm32f4xx_hal_eth.o(i.HAL_ETH_ReadPHYRegister)
    i.HAL_ETH_RxCpltCallback                 0x08002874   Section        0  ethernetif.o(i.HAL_ETH_RxCpltCallback)
    i.HAL_ETH_Start                          0x08002888   Section        0  stm32f4xx_hal_eth.o(i.HAL_ETH_Start)
    i.HAL_ETH_Stop                           0x080028da   Section        0  stm32f4xx_hal_eth.o(i.HAL_ETH_Stop)
    i.HAL_ETH_TransmitFrame                  0x0800292c   Section        0  stm32f4xx_hal_eth.o(i.HAL_ETH_TransmitFrame)
    i.HAL_ETH_TxCpltCallback                 0x08002a6a   Section        0  stm32f4xx_hal_eth.o(i.HAL_ETH_TxCpltCallback)
    i.HAL_ETH_WritePHYRegister               0x08002a6c   Section        0  stm32f4xx_hal_eth.o(i.HAL_ETH_WritePHYRegister)
    i.HAL_GPIO_DeInit                        0x08002afc   Section        0  stm32f4xx_hal_gpio.o(i.HAL_GPIO_DeInit)
    i.HAL_GPIO_Init                          0x08002c7c   Section        0  stm32f4xx_hal_gpio.o(i.HAL_GPIO_Init)
    i.HAL_GPIO_ReadPin                       0x08002e98   Section        0  stm32f4xx_hal_gpio.o(i.HAL_GPIO_ReadPin)
    i.HAL_GPIO_WritePin                      0x08002ea8   Section        0  stm32f4xx_hal_gpio.o(i.HAL_GPIO_WritePin)
    i.HAL_GetTick                            0x08002eb4   Section        0  stm32f4xx_hal.o(i.HAL_GetTick)
    i.HAL_I2CEx_ConfigAnalogFilter           0x08002ec0   Section        0  stm32f4xx_hal_i2c_ex.o(i.HAL_I2CEx_ConfigAnalogFilter)
    i.HAL_I2CEx_ConfigDigitalFilter          0x08002f0c   Section        0  stm32f4xx_hal_i2c_ex.o(i.HAL_I2CEx_ConfigDigitalFilter)
    i.HAL_I2C_DeInit                         0x08002f5c   Section        0  stm32f4xx_hal_i2c.o(i.HAL_I2C_DeInit)
    i.HAL_I2C_GetState                       0x08002f98   Section        0  stm32f4xx_hal_i2c.o(i.HAL_I2C_GetState)
    i.HAL_I2C_Init                           0x08002fa0   Section        0  stm32f4xx_hal_i2c.o(i.HAL_I2C_Init)
    i.HAL_I2C_IsDeviceReady                  0x08003170   Section        0  stm32f4xx_hal_i2c.o(i.HAL_I2C_IsDeviceReady)
    i.HAL_I2C_Mem_Read                       0x08003328   Section        0  stm32f4xx_hal_i2c.o(i.HAL_I2C_Mem_Read)
    i.HAL_I2C_Mem_Write                      0x0800361c   Section        0  stm32f4xx_hal_i2c.o(i.HAL_I2C_Mem_Write)
    i.HAL_I2C_MspDeInit                      0x08003780   Section        0  i2c.o(i.HAL_I2C_MspDeInit)
    i.HAL_I2C_MspInit                        0x080037b8   Section        0  i2c.o(i.HAL_I2C_MspInit)
    i.HAL_IncTick                            0x08003840   Section        0  stm32f4xx_hal.o(i.HAL_IncTick)
    i.HAL_Init                               0x08003858   Section        0  stm32f4xx_hal.o(i.HAL_Init)
    i.HAL_InitTick                           0x08003894   Section        0  stm32f4xx_hal_timebase_tim.o(i.HAL_InitTick)
    i.HAL_MspInit                            0x08003920   Section        0  stm32f4xx_hal_msp.o(i.HAL_MspInit)
    i.HAL_NVIC_EnableIRQ                     0x08003968   Section        0  stm32f4xx_hal_cortex.o(i.HAL_NVIC_EnableIRQ)
    i.HAL_NVIC_SetPriority                   0x08003988   Section        0  stm32f4xx_hal_cortex.o(i.HAL_NVIC_SetPriority)
    i.HAL_NVIC_SetPriorityGrouping           0x08003a04   Section        0  stm32f4xx_hal_cortex.o(i.HAL_NVIC_SetPriorityGrouping)
    i.HAL_PCDEx_LPM_Callback                 0x08003a2c   Section        0  stm32f4xx_hal_pcd_ex.o(i.HAL_PCDEx_LPM_Callback)
    i.HAL_PCDEx_SetRxFiFo                    0x08003a2e   Section        0  stm32f4xx_hal_pcd_ex.o(i.HAL_PCDEx_SetRxFiFo)
    i.HAL_PCDEx_SetTxFiFo                    0x08003a38   Section        0  stm32f4xx_hal_pcd_ex.o(i.HAL_PCDEx_SetTxFiFo)
    i.HAL_PCD_ConnectCallback                0x08003a86   Section        0  usbd_conf.o(i.HAL_PCD_ConnectCallback)
    i.HAL_PCD_DataInStageCallback            0x08003a94   Section        0  usbd_conf.o(i.HAL_PCD_DataInStageCallback)
    i.HAL_PCD_DataOutStageCallback           0x08003ab4   Section        0  usbd_conf.o(i.HAL_PCD_DataOutStageCallback)
    i.HAL_PCD_DisconnectCallback             0x08003ad4   Section        0  usbd_conf.o(i.HAL_PCD_DisconnectCallback)
    i.HAL_PCD_EP_Close                       0x08003ae2   Section        0  stm32f4xx_hal_pcd.o(i.HAL_PCD_EP_Close)
    i.HAL_PCD_EP_ClrStall                    0x08003b4c   Section        0  stm32f4xx_hal_pcd.o(i.HAL_PCD_EP_ClrStall)
    i.HAL_PCD_EP_Flush                       0x08003bc8   Section        0  stm32f4xx_hal_pcd.o(i.HAL_PCD_EP_Flush)
    i.HAL_PCD_EP_GetRxCount                  0x08003c0c   Section        0  stm32f4xx_hal_pcd.o(i.HAL_PCD_EP_GetRxCount)
    i.HAL_PCD_EP_Open                        0x08003c22   Section        0  stm32f4xx_hal_pcd.o(i.HAL_PCD_EP_Open)
    i.HAL_PCD_EP_Receive                     0x08003cae   Section        0  stm32f4xx_hal_pcd.o(i.HAL_PCD_EP_Receive)
    i.HAL_PCD_EP_SetStall                    0x08003d06   Section        0  stm32f4xx_hal_pcd.o(i.HAL_PCD_EP_SetStall)
    i.HAL_PCD_EP_Transmit                    0x08003d90   Section        0  stm32f4xx_hal_pcd.o(i.HAL_PCD_EP_Transmit)
    i.HAL_PCD_IRQHandler                     0x08003dea   Section        0  stm32f4xx_hal_pcd.o(i.HAL_PCD_IRQHandler)
    i.HAL_PCD_ISOINIncompleteCallback        0x08004346   Section        0  usbd_conf.o(i.HAL_PCD_ISOINIncompleteCallback)
    i.HAL_PCD_ISOOUTIncompleteCallback       0x08004358   Section        0  usbd_conf.o(i.HAL_PCD_ISOOUTIncompleteCallback)
    i.HAL_PCD_Init                           0x0800436a   Section        0  stm32f4xx_hal_pcd.o(i.HAL_PCD_Init)
    i.HAL_PCD_MspInit                        0x080044d0   Section        0  usbd_conf.o(i.HAL_PCD_MspInit)
    i.HAL_PCD_ResetCallback                  0x08004564   Section        0  usbd_conf.o(i.HAL_PCD_ResetCallback)
    i.HAL_PCD_ResumeCallback                 0x08004594   Section        0  usbd_conf.o(i.HAL_PCD_ResumeCallback)
    i.HAL_PCD_SOFCallback                    0x080045a2   Section        0  usbd_conf.o(i.HAL_PCD_SOFCallback)
    i.HAL_PCD_SetAddress                     0x080045b0   Section        0  stm32f4xx_hal_pcd.o(i.HAL_PCD_SetAddress)
    i.HAL_PCD_SetupStageCallback             0x080045e6   Section        0  usbd_conf.o(i.HAL_PCD_SetupStageCallback)
    i.HAL_PCD_Start                          0x080045f8   Section        0  stm32f4xx_hal_pcd.o(i.HAL_PCD_Start)
    i.HAL_PCD_SuspendCallback                0x08004644   Section        0  usbd_conf.o(i.HAL_PCD_SuspendCallback)
    i.HAL_RCC_ClockConfig                    0x08004678   Section        0  stm32f4xx_hal_rcc.o(i.HAL_RCC_ClockConfig)
    i.HAL_RCC_GetClockConfig                 0x080047fc   Section        0  stm32f4xx_hal_rcc.o(i.HAL_RCC_GetClockConfig)
    i.HAL_RCC_GetHCLKFreq                    0x08004840   Section        0  stm32f4xx_hal_rcc.o(i.HAL_RCC_GetHCLKFreq)
    i.HAL_RCC_GetPCLK1Freq                   0x0800484c   Section        0  stm32f4xx_hal_rcc.o(i.HAL_RCC_GetPCLK1Freq)
    i.HAL_RCC_GetPCLK2Freq                   0x0800486c   Section        0  stm32f4xx_hal_rcc.o(i.HAL_RCC_GetPCLK2Freq)
    i.HAL_RCC_GetSysClockFreq                0x0800488c   Section        0  stm32f4xx_hal_rcc.o(i.HAL_RCC_GetSysClockFreq)
    i.HAL_RCC_OscConfig                      0x0800493c   Section        0  stm32f4xx_hal_rcc.o(i.HAL_RCC_OscConfig)
    i.HAL_SPI_Init                           0x08004dc4   Section        0  stm32f4xx_hal_spi.o(i.HAL_SPI_Init)
    i.HAL_SPI_MspInit                        0x08004e50   Section        0  spi.o(i.HAL_SPI_MspInit)
    i.HAL_SPI_TransmitReceive                0x08004eec   Section        0  stm32f4xx_hal_spi.o(i.HAL_SPI_TransmitReceive)
    i.HAL_TIMEx_BreakCallback                0x08005116   Section        0  stm32f4xx_hal_tim_ex.o(i.HAL_TIMEx_BreakCallback)
    i.HAL_TIMEx_CommutCallback               0x08005118   Section        0  stm32f4xx_hal_tim_ex.o(i.HAL_TIMEx_CommutCallback)
    i.HAL_TIM_Base_Init                      0x0800511a   Section        0  stm32f4xx_hal_tim.o(i.HAL_TIM_Base_Init)
    i.HAL_TIM_Base_MspInit                   0x0800514e   Section        0  stm32f4xx_hal_tim.o(i.HAL_TIM_Base_MspInit)
    i.HAL_TIM_Base_Start_IT                  0x08005150   Section        0  stm32f4xx_hal_tim.o(i.HAL_TIM_Base_Start_IT)
    i.HAL_TIM_IC_CaptureCallback             0x0800517a   Section        0  stm32f4xx_hal_tim.o(i.HAL_TIM_IC_CaptureCallback)
    i.HAL_TIM_IRQHandler                     0x0800517c   Section        0  stm32f4xx_hal_tim.o(i.HAL_TIM_IRQHandler)
    i.HAL_TIM_OC_DelayElapsedCallback        0x08005312   Section        0  stm32f4xx_hal_tim.o(i.HAL_TIM_OC_DelayElapsedCallback)
    i.HAL_TIM_PWM_PulseFinishedCallback      0x08005314   Section        0  stm32f4xx_hal_tim.o(i.HAL_TIM_PWM_PulseFinishedCallback)
    i.HAL_TIM_PeriodElapsedCallback          0x08005318   Section        0  main.o(i.HAL_TIM_PeriodElapsedCallback)
    i.HAL_TIM_TriggerCallback                0x08005330   Section        0  stm32f4xx_hal_tim.o(i.HAL_TIM_TriggerCallback)
    i.HAL_UART_DMAStop                       0x08005332   Section        0  stm32f4xx_hal_uart.o(i.HAL_UART_DMAStop)
    i.HAL_UART_ErrorCallback                 0x08005398   Section        0  stm32f4xx_hal_uart.o(i.HAL_UART_ErrorCallback)
    i.HAL_UART_IRQHandler                    0x0800539c   Section        0  stm32f4xx_hal_uart.o(i.HAL_UART_IRQHandler)
    i.HAL_UART_Init                          0x080054f0   Section        0  stm32f4xx_hal_uart.o(i.HAL_UART_Init)
    i.HAL_UART_MspInit                       0x08005564   Section        0  usart.o(i.HAL_UART_MspInit)
    i.HAL_UART_Receive_DMA                   0x08005640   Section        0  stm32f4xx_hal_uart.o(i.HAL_UART_Receive_DMA)
    i.HAL_UART_RxCpltCallback                0x08005704   Section        0  stm32f4xx_hal_uart.o(i.HAL_UART_RxCpltCallback)
    i.HAL_UART_RxHalfCpltCallback            0x08005706   Section        0  stm32f4xx_hal_uart.o(i.HAL_UART_RxHalfCpltCallback)
    i.HAL_UART_Transmit                      0x08005708   Section        0  stm32f4xx_hal_uart.o(i.HAL_UART_Transmit)
    i.HAL_UART_TxCpltCallback                0x080057e0   Section        0  stm32f4xx_hal_uart.o(i.HAL_UART_TxCpltCallback)
    i.HardFault_Handler                      0x080057e2   Section        0  stm32f4xx_it.o(i.HardFault_Handler)
    i.I2C_IsAcknowledgeFailed                0x080057e6   Section        0  stm32f4xx_hal_i2c.o(i.I2C_IsAcknowledgeFailed)
    I2C_IsAcknowledgeFailed                  0x080057e7   Thumb Code    62  stm32f4xx_hal_i2c.o(i.I2C_IsAcknowledgeFailed)
    i.I2C_RequestMemoryRead                  0x08005824   Section        0  stm32f4xx_hal_i2c.o(i.I2C_RequestMemoryRead)
    I2C_RequestMemoryRead                    0x08005825   Thumb Code   348  stm32f4xx_hal_i2c.o(i.I2C_RequestMemoryRead)
    i.I2C_RequestMemoryWrite                 0x08005984   Section        0  stm32f4xx_hal_i2c.o(i.I2C_RequestMemoryWrite)
    I2C_RequestMemoryWrite                   0x08005985   Thumb Code   220  stm32f4xx_hal_i2c.o(i.I2C_RequestMemoryWrite)
    i.I2C_WaitOnBTFFlagUntilTimeout          0x08005a64   Section        0  stm32f4xx_hal_i2c.o(i.I2C_WaitOnBTFFlagUntilTimeout)
    I2C_WaitOnBTFFlagUntilTimeout            0x08005a65   Thumb Code    92  stm32f4xx_hal_i2c.o(i.I2C_WaitOnBTFFlagUntilTimeout)
    i.I2C_WaitOnFlagUntilTimeout             0x08005ac0   Section        0  stm32f4xx_hal_i2c.o(i.I2C_WaitOnFlagUntilTimeout)
    I2C_WaitOnFlagUntilTimeout               0x08005ac1   Thumb Code   134  stm32f4xx_hal_i2c.o(i.I2C_WaitOnFlagUntilTimeout)
    i.I2C_WaitOnMasterAddressFlagUntilTimeout 0x08005b46   Section        0  stm32f4xx_hal_i2c.o(i.I2C_WaitOnMasterAddressFlagUntilTimeout)
    I2C_WaitOnMasterAddressFlagUntilTimeout  0x08005b47   Thumb Code   196  stm32f4xx_hal_i2c.o(i.I2C_WaitOnMasterAddressFlagUntilTimeout)
    i.I2C_WaitOnRXNEFlagUntilTimeout         0x08005c0a   Section        0  stm32f4xx_hal_i2c.o(i.I2C_WaitOnRXNEFlagUntilTimeout)
    I2C_WaitOnRXNEFlagUntilTimeout           0x08005c0b   Thumb Code   128  stm32f4xx_hal_i2c.o(i.I2C_WaitOnRXNEFlagUntilTimeout)
    i.I2C_WaitOnTXEFlagUntilTimeout          0x08005c8a   Section        0  stm32f4xx_hal_i2c.o(i.I2C_WaitOnTXEFlagUntilTimeout)
    I2C_WaitOnTXEFlagUntilTimeout            0x08005c8b   Thumb Code    92  stm32f4xx_hal_i2c.o(i.I2C_WaitOnTXEFlagUntilTimeout)
    i.I2Cx_Error                             0x08005ce8   Section        0  mpu6050.o(i.I2Cx_Error)
    I2Cx_Error                               0x08005ce9   Thumb Code    16  mpu6050.o(i.I2Cx_Error)
    i.IntToUnicode                           0x08005cfc   Section        0  usbd_desc.o(i.IntToUnicode)
    IntToUnicode                             0x08005cfd   Thumb Code    62  usbd_desc.o(i.IntToUnicode)
    i.Key_Scan                               0x08005d3c   Section        0  bsp_key.o(i.Key_Scan)
    i.LCD_Address_Set                        0x08005dc8   Section        0  lcd_init.o(i.LCD_Address_Set)
    i.LCD_DrawPoint                          0x08005e12   Section        0  lcd.o(i.LCD_DrawPoint)
    i.LCD_Fill                               0x08005e2e   Section        0  lcd.o(i.LCD_Fill)
    i.LCD_Init                               0x08005e78   Section        0  lcd_init.o(i.LCD_Init)
    i.LCD_WR_DATA                            0x08006024   Section        0  lcd_init.o(i.LCD_WR_DATA)
    i.LCD_WR_DATA8                           0x08006036   Section        0  lcd_init.o(i.LCD_WR_DATA8)
    i.LCD_WR_REG                             0x08006044   Section        0  lcd_init.o(i.LCD_WR_REG)
    i.LCD_Writ_Bus                           0x0800606c   Section        0  lcd_init.o(i.LCD_Writ_Bus)
    i.MPU6050ReadAcc                         0x080060d8   Section        0  mpu6050.o(i.MPU6050ReadAcc)
    i.MPU6050ReadGyro                        0x08006118   Section        0  mpu6050.o(i.MPU6050ReadGyro)
    i.MPU6050_Init                           0x08006158   Section        0  mpu6050.o(i.MPU6050_Init)
    i.MPU6050_ReadData                       0x08006190   Section        0  mpu6050.o(i.MPU6050_ReadData)
    i.MPU6050_ReturnTemp                     0x080061a8   Section        0  mpu6050.o(i.MPU6050_ReturnTemp)
    i.MPU6050_WriteReg                       0x08006214   Section        0  mpu6050.o(i.MPU6050_WriteReg)
    i.MSC_BOT_Abort                          0x08006226   Section        0  usbd_msc_bot.o(i.MSC_BOT_Abort)
    MSC_BOT_Abort                            0x08006227   Thumb Code    72  usbd_msc_bot.o(i.MSC_BOT_Abort)
    i.MSC_BOT_CBW_Decode                     0x08006270   Section        0  usbd_msc_bot.o(i.MSC_BOT_CBW_Decode)
    MSC_BOT_CBW_Decode                       0x08006271   Thumb Code   242  usbd_msc_bot.o(i.MSC_BOT_CBW_Decode)
    i.MSC_BOT_CplClrFeature                  0x08006368   Section        0  usbd_msc_bot.o(i.MSC_BOT_CplClrFeature)
    i.MSC_BOT_DataIn                         0x080063a8   Section        0  usbd_msc_bot.o(i.MSC_BOT_DataIn)
    i.MSC_BOT_DataOut                        0x080063f8   Section        0  usbd_msc_bot.o(i.MSC_BOT_DataOut)
    i.MSC_BOT_DeInit                         0x0800643e   Section        0  usbd_msc_bot.o(i.MSC_BOT_DeInit)
    i.MSC_BOT_Init                           0x08006448   Section        0  usbd_msc_bot.o(i.MSC_BOT_Init)
    i.MSC_BOT_Reset                          0x08006492   Section        0  usbd_msc_bot.o(i.MSC_BOT_Reset)
    i.MSC_BOT_SendCSW                        0x080064c4   Section        0  usbd_msc_bot.o(i.MSC_BOT_SendCSW)
    i.MSC_BOT_SendData                       0x08006504   Section        0  usbd_msc_bot.o(i.MSC_BOT_SendData)
    MSC_BOT_SendData                         0x08006505   Thumb Code    88  usbd_msc_bot.o(i.MSC_BOT_SendData)
    i.MX_CAN1_Init                           0x0800655c   Section        0  can.o(i.MX_CAN1_Init)
    i.MX_DMA_Init                            0x080065a4   Section        0  dma.o(i.MX_DMA_Init)
    i.MX_FATFS_Init                          0x080065dc   Section        0  fatfs.o(i.MX_FATFS_Init)
    i.MX_FREERTOS_Init                       0x080065f8   Section        0  freertos.o(i.MX_FREERTOS_Init)
    i.MX_GPIO_Init                           0x08006658   Section        0  gpio.o(i.MX_GPIO_Init)
    i.MX_I2C1_Init                           0x08006854   Section        0  i2c.o(i.MX_I2C1_Init)
    i.MX_LWIP_Init                           0x080068ac   Section        0  lwip.o(i.MX_LWIP_Init)
    i.MX_SPI5_Init                           0x08006b44   Section        0  spi.o(i.MX_SPI5_Init)
    i.MX_USART1_UART_Init                    0x08006b88   Section        0  usart.o(i.MX_USART1_UART_Init)
    i.MX_USB_DEVICE_Init                     0x08006bc0   Section        0  usb_device.o(i.MX_USB_DEVICE_Init)
    i.MemManage_Handler                      0x08006c0c   Section        0  stm32f4xx_it.o(i.MemManage_Handler)
    i.NMI_Handler                            0x08006c10   Section        0  stm32f4xx_it.o(i.NMI_Handler)
    i.OTG_HS_IRQHandler                      0x08006c14   Section        0  stm32f4xx_it.o(i.OTG_HS_IRQHandler)
    i.PCD_EP_OutSetupPacket_int              0x08006c24   Section        0  stm32f4xx_hal_pcd.o(i.PCD_EP_OutSetupPacket_int)
    PCD_EP_OutSetupPacket_int                0x08006c25   Thumb Code    94  stm32f4xx_hal_pcd.o(i.PCD_EP_OutSetupPacket_int)
    i.PCD_EP_OutXfrComplete_int              0x08006c88   Section        0  stm32f4xx_hal_pcd.o(i.PCD_EP_OutXfrComplete_int)
    PCD_EP_OutXfrComplete_int                0x08006c89   Thumb Code   372  stm32f4xx_hal_pcd.o(i.PCD_EP_OutXfrComplete_int)
    i.PCD_WriteEmptyTxFifo                   0x08006e04   Section        0  stm32f4xx_hal_pcd.o(i.PCD_WriteEmptyTxFifo)
    PCD_WriteEmptyTxFifo                     0x08006e05   Thumb Code   182  stm32f4xx_hal_pcd.o(i.PCD_WriteEmptyTxFifo)
    i.SCSI_AllowPreventRemovable             0x08006eba   Section        0  usbd_msc_scsi.o(i.SCSI_AllowPreventRemovable)
    SCSI_AllowPreventRemovable               0x08006ebb   Thumb Code    38  usbd_msc_scsi.o(i.SCSI_AllowPreventRemovable)
    i.SCSI_CheckAddressRange                 0x08006ee0   Section        0  usbd_msc_scsi.o(i.SCSI_CheckAddressRange)
    SCSI_CheckAddressRange                   0x08006ee1   Thumb Code    54  usbd_msc_scsi.o(i.SCSI_CheckAddressRange)
    i.SCSI_Inquiry                           0x08006f18   Section        0  usbd_msc_scsi.o(i.SCSI_Inquiry)
    SCSI_Inquiry                             0x08006f19   Thumb Code   160  usbd_msc_scsi.o(i.SCSI_Inquiry)
    i.SCSI_ModeSense10                       0x08006fc0   Section        0  usbd_msc_scsi.o(i.SCSI_ModeSense10)
    SCSI_ModeSense10                         0x08006fc1   Thumb Code    40  usbd_msc_scsi.o(i.SCSI_ModeSense10)
    i.SCSI_ModeSense6                        0x08006fec   Section        0  usbd_msc_scsi.o(i.SCSI_ModeSense6)
    SCSI_ModeSense6                          0x08006fed   Thumb Code    40  usbd_msc_scsi.o(i.SCSI_ModeSense6)
    i.SCSI_ProcessCmd                        0x08007018   Section        0  usbd_msc_scsi.o(i.SCSI_ProcessCmd)
    i.SCSI_ProcessRead                       0x08007162   Section        0  usbd_msc_scsi.o(i.SCSI_ProcessRead)
    SCSI_ProcessRead                         0x08007163   Thumb Code   202  usbd_msc_scsi.o(i.SCSI_ProcessRead)
    i.SCSI_ProcessWrite                      0x0800722c   Section        0  usbd_msc_scsi.o(i.SCSI_ProcessWrite)
    SCSI_ProcessWrite                        0x0800722d   Thumb Code   250  usbd_msc_scsi.o(i.SCSI_ProcessWrite)
    i.SCSI_Read10                            0x08007326   Section        0  usbd_msc_scsi.o(i.SCSI_Read10)
    SCSI_Read10                              0x08007327   Thumb Code   254  usbd_msc_scsi.o(i.SCSI_Read10)
    i.SCSI_Read12                            0x08007424   Section        0  usbd_msc_scsi.o(i.SCSI_Read12)
    SCSI_Read12                              0x08007425   Thumb Code   270  usbd_msc_scsi.o(i.SCSI_Read12)
    i.SCSI_ReadCapacity10                    0x08007532   Section        0  usbd_msc_scsi.o(i.SCSI_ReadCapacity10)
    SCSI_ReadCapacity10                      0x08007533   Thumb Code   160  usbd_msc_scsi.o(i.SCSI_ReadCapacity10)
    i.SCSI_ReadCapacity16                    0x080075d2   Section        0  usbd_msc_scsi.o(i.SCSI_ReadCapacity16)
    SCSI_ReadCapacity16                      0x080075d3   Thumb Code   226  usbd_msc_scsi.o(i.SCSI_ReadCapacity16)
    i.SCSI_ReadFormatCapacity                0x080076b4   Section        0  usbd_msc_scsi.o(i.SCSI_ReadFormatCapacity)
    SCSI_ReadFormatCapacity                  0x080076b5   Thumb Code   154  usbd_msc_scsi.o(i.SCSI_ReadFormatCapacity)
    i.SCSI_RequestSense                      0x0800774e   Section        0  usbd_msc_scsi.o(i.SCSI_RequestSense)
    SCSI_RequestSense                        0x0800774f   Thumb Code   192  usbd_msc_scsi.o(i.SCSI_RequestSense)
    i.SCSI_SenseCode                         0x0800780e   Section        0  usbd_msc_scsi.o(i.SCSI_SenseCode)
    i.SCSI_StartStopUnit                     0x08007866   Section        0  usbd_msc_scsi.o(i.SCSI_StartStopUnit)
    SCSI_StartStopUnit                       0x08007867   Thumb Code   116  usbd_msc_scsi.o(i.SCSI_StartStopUnit)
    i.SCSI_TestUnitReady                     0x080078da   Section        0  usbd_msc_scsi.o(i.SCSI_TestUnitReady)
    SCSI_TestUnitReady                       0x080078db   Thumb Code   120  usbd_msc_scsi.o(i.SCSI_TestUnitReady)
    i.SCSI_UpdateBotData                     0x08007952   Section        0  usbd_msc_scsi.o(i.SCSI_UpdateBotData)
    SCSI_UpdateBotData                       0x08007953   Thumb Code    32  usbd_msc_scsi.o(i.SCSI_UpdateBotData)
    i.SCSI_Verify10                          0x08007972   Section        0  usbd_msc_scsi.o(i.SCSI_Verify10)
    SCSI_Verify10                            0x08007973   Thumb Code    80  usbd_msc_scsi.o(i.SCSI_Verify10)
    i.SCSI_Write10                           0x080079c2   Section        0  usbd_msc_scsi.o(i.SCSI_Write10)
    SCSI_Write10                             0x080079c3   Thumb Code   324  usbd_msc_scsi.o(i.SCSI_Write10)
    i.SCSI_Write12                           0x08007b06   Section        0  usbd_msc_scsi.o(i.SCSI_Write12)
    SCSI_Write12                             0x08007b07   Thumb Code   344  usbd_msc_scsi.o(i.SCSI_Write12)
    i.SPI_EndRxTxTransaction                 0x08007c60   Section        0  stm32f4xx_hal_spi.o(i.SPI_EndRxTxTransaction)
    SPI_EndRxTxTransaction                   0x08007c61   Thumb Code   100  stm32f4xx_hal_spi.o(i.SPI_EndRxTxTransaction)
    i.SPI_WaitFlagStateUntilTimeout          0x08007ccc   Section        0  stm32f4xx_hal_spi.o(i.SPI_WaitFlagStateUntilTimeout)
    SPI_WaitFlagStateUntilTimeout            0x08007ccd   Thumb Code   168  stm32f4xx_hal_spi.o(i.SPI_WaitFlagStateUntilTimeout)
    i.STORAGE_GetCapacity_HS                 0x08007d74   Section        0  usbd_storage_if.o(i.STORAGE_GetCapacity_HS)
    STORAGE_GetCapacity_HS                   0x08007d75   Thumb Code    14  usbd_storage_if.o(i.STORAGE_GetCapacity_HS)
    i.STORAGE_GetMaxLun_HS                   0x08007d82   Section        0  usbd_storage_if.o(i.STORAGE_GetMaxLun_HS)
    STORAGE_GetMaxLun_HS                     0x08007d83   Thumb Code     4  usbd_storage_if.o(i.STORAGE_GetMaxLun_HS)
    i.STORAGE_Init_HS                        0x08007d86   Section        0  usbd_storage_if.o(i.STORAGE_Init_HS)
    STORAGE_Init_HS                          0x08007d87   Thumb Code    12  usbd_storage_if.o(i.STORAGE_Init_HS)
    i.STORAGE_IsReady_HS                     0x08007d92   Section        0  usbd_storage_if.o(i.STORAGE_IsReady_HS)
    STORAGE_IsReady_HS                       0x08007d93   Thumb Code    20  usbd_storage_if.o(i.STORAGE_IsReady_HS)
    i.STORAGE_IsWriteProtected_HS            0x08007da6   Section        0  usbd_storage_if.o(i.STORAGE_IsWriteProtected_HS)
    STORAGE_IsWriteProtected_HS              0x08007da7   Thumb Code     6  usbd_storage_if.o(i.STORAGE_IsWriteProtected_HS)
    i.STORAGE_Read_HS                        0x08007dac   Section        0  usbd_storage_if.o(i.STORAGE_Read_HS)
    STORAGE_Read_HS                          0x08007dad   Thumb Code    48  usbd_storage_if.o(i.STORAGE_Read_HS)
    i.STORAGE_Write_HS                       0x08007ddc   Section        0  usbd_storage_if.o(i.STORAGE_Write_HS)
    STORAGE_Write_HS                         0x08007ddd   Thumb Code    48  usbd_storage_if.o(i.STORAGE_Write_HS)
    i.SWAPBYTE                               0x08007e0c   Section        0  usbd_ctlreq.o(i.SWAPBYTE)
    SWAPBYTE                                 0x08007e0d   Thumb Code    18  usbd_ctlreq.o(i.SWAPBYTE)
    i.Sensors_I2C_ReadRegister               0x08007e20   Section        0  mpu6050.o(i.Sensors_I2C_ReadRegister)
    i.Sensors_I2C_WriteRegister              0x08007e8c   Section        0  mpu6050.o(i.Sensors_I2C_WriteRegister)
    i.StartDefaultTask                       0x08007ef8   Section        0  freertos.o(i.StartDefaultTask)
    i.StartTask02                            0x08007f12   Section        0  freertos.o(i.StartTask02)
    i.SysTick_Handler                        0x08007f20   Section        0  port.o(i.SysTick_Handler)
    i.SystemClock_Config                     0x08007f54   Section        0  main.o(i.SystemClock_Config)
    i.SystemInit                             0x0800800c   Section        0  system_stm32f4xx.o(i.SystemInit)
    i.TCP_Client_Init                        0x08008028   Section        0  tcp_client.o(i.TCP_Client_Init)
    i.TCP_Echo_Init                          0x080080bc   Section        0  tcp_server.o(i.TCP_Echo_Init)
    i.TIM8_TRG_COM_TIM14_IRQHandler          0x08008138   Section        0  stm32f4xx_it.o(i.TIM8_TRG_COM_TIM14_IRQHandler)
    i.TIM_Base_SetConfig                     0x08008148   Section        0  stm32f4xx_hal_tim.o(i.TIM_Base_SetConfig)
    i.TimerCallback                          0x08008220   Section        0  cmsis_os2.o(i.TimerCallback)
    TimerCallback                            0x08008221   Thumb Code    22  cmsis_os2.o(i.TimerCallback)
    i.UART_DMAAbortOnError                   0x08008236   Section        0  stm32f4xx_hal_uart.o(i.UART_DMAAbortOnError)
    UART_DMAAbortOnError                     0x08008237   Thumb Code    20  stm32f4xx_hal_uart.o(i.UART_DMAAbortOnError)
    i.UART_DMAError                          0x0800824a   Section        0  stm32f4xx_hal_uart.o(i.UART_DMAError)
    UART_DMAError                            0x0800824b   Thumb Code    80  stm32f4xx_hal_uart.o(i.UART_DMAError)
    i.UART_DMAReceiveCplt                    0x0800829a   Section        0  stm32f4xx_hal_uart.o(i.UART_DMAReceiveCplt)
    UART_DMAReceiveCplt                      0x0800829b   Thumb Code    70  stm32f4xx_hal_uart.o(i.UART_DMAReceiveCplt)
    i.UART_DMARxHalfCplt                     0x080082e0   Section        0  stm32f4xx_hal_uart.o(i.UART_DMARxHalfCplt)
    UART_DMARxHalfCplt                       0x080082e1   Thumb Code    14  stm32f4xx_hal_uart.o(i.UART_DMARxHalfCplt)
    i.UART_EndRxTransfer                     0x080082ee   Section        0  stm32f4xx_hal_uart.o(i.UART_EndRxTransfer)
    UART_EndRxTransfer                       0x080082ef   Thumb Code    32  stm32f4xx_hal_uart.o(i.UART_EndRxTransfer)
    i.UART_EndTransmit_IT                    0x0800830e   Section        0  stm32f4xx_hal_uart.o(i.UART_EndTransmit_IT)
    UART_EndTransmit_IT                      0x0800830f   Thumb Code    32  stm32f4xx_hal_uart.o(i.UART_EndTransmit_IT)
    i.UART_EndTxTransfer                     0x0800832e   Section        0  stm32f4xx_hal_uart.o(i.UART_EndTxTransfer)
    UART_EndTxTransfer                       0x0800832f   Thumb Code    20  stm32f4xx_hal_uart.o(i.UART_EndTxTransfer)
    i.UART_Receive_IT                        0x08008342   Section        0  stm32f4xx_hal_uart.o(i.UART_Receive_IT)
    UART_Receive_IT                          0x08008343   Thumb Code   166  stm32f4xx_hal_uart.o(i.UART_Receive_IT)
    i.UART_SetConfig                         0x080083e8   Section        0  stm32f4xx_hal_uart.o(i.UART_SetConfig)
    UART_SetConfig                           0x080083e9   Thumb Code   992  stm32f4xx_hal_uart.o(i.UART_SetConfig)
    i.UART_Transmit_IT                       0x080087d0   Section        0  stm32f4xx_hal_uart.o(i.UART_Transmit_IT)
    UART_Transmit_IT                         0x080087d1   Thumb Code   104  stm32f4xx_hal_uart.o(i.UART_Transmit_IT)
    i.UART_WaitOnFlagUntilTimeout            0x08008838   Section        0  stm32f4xx_hal_uart.o(i.UART_WaitOnFlagUntilTimeout)
    UART_WaitOnFlagUntilTimeout              0x08008839   Thumb Code   108  stm32f4xx_hal_uart.o(i.UART_WaitOnFlagUntilTimeout)
    i.USART1_IRQHandler                      0x080088a4   Section        0  stm32f4xx_it.o(i.USART1_IRQHandler)
    i.USBD_ClrClassConfig                    0x080088b8   Section        0  usbd_core.o(i.USBD_ClrClassConfig)
    i.USBD_ClrFeature                        0x080088d4   Section        0  usbd_ctlreq.o(i.USBD_ClrFeature)
    USBD_ClrFeature                          0x080088d5   Thumb Code    62  usbd_ctlreq.o(i.USBD_ClrFeature)
    i.USBD_CtlContinueRx                     0x08008912   Section        0  usbd_ioreq.o(i.USBD_CtlContinueRx)
    i.USBD_CtlContinueSendData               0x0800892a   Section        0  usbd_ioreq.o(i.USBD_CtlContinueSendData)
    i.USBD_CtlError                          0x08008942   Section        0  usbd_ctlreq.o(i.USBD_CtlError)
    i.USBD_CtlReceiveStatus                  0x0800895a   Section        0  usbd_ioreq.o(i.USBD_CtlReceiveStatus)
    i.USBD_CtlSendData                       0x08008974   Section        0  usbd_ioreq.o(i.USBD_CtlSendData)
    i.USBD_CtlSendStatus                     0x08008996   Section        0  usbd_ioreq.o(i.USBD_CtlSendStatus)
    i.USBD_GetConfig                         0x080089b0   Section        0  usbd_ctlreq.o(i.USBD_GetConfig)
    USBD_GetConfig                           0x080089b1   Thumb Code    86  usbd_ctlreq.o(i.USBD_GetConfig)
    i.USBD_GetDescriptor                     0x08008a06   Section        0  usbd_ctlreq.o(i.USBD_GetDescriptor)
    USBD_GetDescriptor                       0x08008a07   Thumb Code   508  usbd_ctlreq.o(i.USBD_GetDescriptor)
    i.USBD_GetLen                            0x08008c02   Section        0  usbd_ctlreq.o(i.USBD_GetLen)
    USBD_GetLen                              0x08008c03   Thumb Code    22  usbd_ctlreq.o(i.USBD_GetLen)
    i.USBD_GetStatus                         0x08008c18   Section        0  usbd_ctlreq.o(i.USBD_GetStatus)
    USBD_GetStatus                           0x08008c19   Thumb Code    90  usbd_ctlreq.o(i.USBD_GetStatus)
    i.USBD_GetString                         0x08008c72   Section        0  usbd_ctlreq.o(i.USBD_GetString)
    i.USBD_Get_USB_Status                    0x08008cc6   Section        0  usbd_conf.o(i.USBD_Get_USB_Status)
    i.USBD_HS_ConfigStrDescriptor            0x08008cf4   Section        0  usbd_desc.o(i.USBD_HS_ConfigStrDescriptor)
    i.USBD_HS_DeviceDescriptor               0x08008d28   Section        0  usbd_desc.o(i.USBD_HS_DeviceDescriptor)
    i.USBD_HS_InterfaceStrDescriptor         0x08008d38   Section        0  usbd_desc.o(i.USBD_HS_InterfaceStrDescriptor)
    i.USBD_HS_LangIDStrDescriptor            0x08008d70   Section        0  usbd_desc.o(i.USBD_HS_LangIDStrDescriptor)
    i.USBD_HS_ManufacturerStrDescriptor      0x08008d80   Section        0  usbd_desc.o(i.USBD_HS_ManufacturerStrDescriptor)
    i.USBD_HS_ProductStrDescriptor           0x08008dac   Section        0  usbd_desc.o(i.USBD_HS_ProductStrDescriptor)
    i.USBD_HS_SerialStrDescriptor            0x08008de8   Section        0  usbd_desc.o(i.USBD_HS_SerialStrDescriptor)
    i.USBD_Init                              0x08008e00   Section        0  usbd_core.o(i.USBD_Init)
    i.USBD_LL_ClearStallEP                   0x08008e44   Section        0  usbd_conf.o(i.USBD_LL_ClearStallEP)
    i.USBD_LL_CloseEP                        0x08008e6a   Section        0  usbd_conf.o(i.USBD_LL_CloseEP)
    i.USBD_LL_DataInStage                    0x08008e90   Section        0  usbd_core.o(i.USBD_LL_DataInStage)
    i.USBD_LL_DataOutStage                   0x08008f76   Section        0  usbd_core.o(i.USBD_LL_DataOutStage)
    i.USBD_LL_DevConnected                   0x08009008   Section        0  usbd_core.o(i.USBD_LL_DevConnected)
    i.USBD_LL_DevDisconnected                0x0800900e   Section        0  usbd_core.o(i.USBD_LL_DevDisconnected)
    i.USBD_LL_FlushEP                        0x0800902e   Section        0  usbd_conf.o(i.USBD_LL_FlushEP)
    i.USBD_LL_GetRxDataSize                  0x08009054   Section        0  usbd_conf.o(i.USBD_LL_GetRxDataSize)
    i.USBD_LL_Init                           0x08009068   Section        0  usbd_conf.o(i.USBD_LL_Init)
    i.USBD_LL_IsStallEP                      0x080090d8   Section        0  usbd_conf.o(i.USBD_LL_IsStallEP)
    i.USBD_LL_IsoINIncomplete                0x08009110   Section        0  usbd_core.o(i.USBD_LL_IsoINIncomplete)
    i.USBD_LL_IsoOUTIncomplete               0x08009116   Section        0  usbd_core.o(i.USBD_LL_IsoOUTIncomplete)
    i.USBD_LL_OpenEP                         0x0800911c   Section        0  usbd_conf.o(i.USBD_LL_OpenEP)
    i.USBD_LL_PrepareReceive                 0x0800914c   Section        0  usbd_conf.o(i.USBD_LL_PrepareReceive)
    i.USBD_LL_Reset                          0x0800917c   Section        0  usbd_core.o(i.USBD_LL_Reset)
    i.USBD_LL_Resume                         0x080091d6   Section        0  usbd_core.o(i.USBD_LL_Resume)
    i.USBD_LL_SOF                            0x080091ec   Section        0  usbd_core.o(i.USBD_LL_SOF)
    i.USBD_LL_SetSpeed                       0x0800920e   Section        0  usbd_core.o(i.USBD_LL_SetSpeed)
    i.USBD_LL_SetUSBAddress                  0x08009216   Section        0  usbd_conf.o(i.USBD_LL_SetUSBAddress)
    i.USBD_LL_SetupStage                     0x0800923c   Section        0  usbd_core.o(i.USBD_LL_SetupStage)
    i.USBD_LL_StallEP                        0x080092b2   Section        0  usbd_conf.o(i.USBD_LL_StallEP)
    i.USBD_LL_Start                          0x080092d8   Section        0  usbd_conf.o(i.USBD_LL_Start)
    i.USBD_LL_Suspend                        0x080092f6   Section        0  usbd_core.o(i.USBD_LL_Suspend)
    i.USBD_LL_Transmit                       0x0800930a   Section        0  usbd_conf.o(i.USBD_LL_Transmit)
    i.USBD_MSC_DataIn                        0x0800933a   Section        0  usbd_msc.o(i.USBD_MSC_DataIn)
    i.USBD_MSC_DataOut                       0x0800934c   Section        0  usbd_msc.o(i.USBD_MSC_DataOut)
    i.USBD_MSC_DeInit                        0x0800935e   Section        0  usbd_msc.o(i.USBD_MSC_DeInit)
    i.USBD_MSC_GetDeviceQualifierDescriptor  0x0800939c   Section        0  usbd_msc.o(i.USBD_MSC_GetDeviceQualifierDescriptor)
    i.USBD_MSC_GetFSCfgDesc                  0x080093ac   Section        0  usbd_msc.o(i.USBD_MSC_GetFSCfgDesc)
    i.USBD_MSC_GetHSCfgDesc                  0x080093bc   Section        0  usbd_msc.o(i.USBD_MSC_GetHSCfgDesc)
    i.USBD_MSC_GetOtherSpeedCfgDesc          0x080093cc   Section        0  usbd_msc.o(i.USBD_MSC_GetOtherSpeedCfgDesc)
    i.USBD_MSC_Init                          0x080093dc   Section        0  usbd_msc.o(i.USBD_MSC_Init)
    i.USBD_MSC_RegisterStorage               0x08009452   Section        0  usbd_msc.o(i.USBD_MSC_RegisterStorage)
    i.USBD_MSC_Setup                         0x08009462   Section        0  usbd_msc.o(i.USBD_MSC_Setup)
    i.USBD_ParseSetupRequest                 0x080095a6   Section        0  usbd_ctlreq.o(i.USBD_ParseSetupRequest)
    i.USBD_RegisterClass                     0x080095dc   Section        0  usbd_core.o(i.USBD_RegisterClass)
    i.USBD_RunTestMode                       0x08009602   Section        0  usbd_core.o(i.USBD_RunTestMode)
    i.USBD_SetAddress                        0x08009608   Section        0  usbd_ctlreq.o(i.USBD_SetAddress)
    USBD_SetAddress                          0x08009609   Thumb Code    90  usbd_ctlreq.o(i.USBD_SetAddress)
    i.USBD_SetClassConfig                    0x08009662   Section        0  usbd_core.o(i.USBD_SetClassConfig)
    i.USBD_SetConfig                         0x08009684   Section        0  usbd_ctlreq.o(i.USBD_SetConfig)
    USBD_SetConfig                           0x08009685   Thumb Code   248  usbd_ctlreq.o(i.USBD_SetConfig)
    i.USBD_SetFeature                        0x08009780   Section        0  usbd_ctlreq.o(i.USBD_SetFeature)
    USBD_SetFeature                          0x08009781   Thumb Code    24  usbd_ctlreq.o(i.USBD_SetFeature)
    i.USBD_Start                             0x08009798   Section        0  usbd_core.o(i.USBD_Start)
    i.USBD_StdDevReq                         0x080097a4   Section        0  usbd_ctlreq.o(i.USBD_StdDevReq)
    i.USBD_StdEPReq                          0x0800984a   Section        0  usbd_ctlreq.o(i.USBD_StdEPReq)
    i.USBD_StdItfReq                         0x08009a74   Section        0  usbd_ctlreq.o(i.USBD_StdItfReq)
    i.USB_ActivateEndpoint                   0x08009af4   Section        0  stm32f4xx_ll_usb.o(i.USB_ActivateEndpoint)
    i.USB_ActivateSetup                      0x08009bc4   Section        0  stm32f4xx_ll_usb.o(i.USB_ActivateSetup)
    i.USB_CoreInit                           0x08009bec   Section        0  stm32f4xx_ll_usb.o(i.USB_CoreInit)
    i.USB_CoreReset                          0x08009c70   Section        0  stm32f4xx_ll_usb.o(i.USB_CoreReset)
    USB_CoreReset                            0x08009c71   Thumb Code    70  stm32f4xx_ll_usb.o(i.USB_CoreReset)
    i.USB_DeactivateEndpoint                 0x08009cbc   Section        0  stm32f4xx_ll_usb.o(i.USB_DeactivateEndpoint)
    i.USB_DevConnect                         0x08009e08   Section        0  stm32f4xx_ll_usb.o(i.USB_DevConnect)
    i.USB_DevDisconnect                      0x08009e2c   Section        0  stm32f4xx_ll_usb.o(i.USB_DevDisconnect)
    i.USB_DevInit                            0x08009e50   Section        0  stm32f4xx_ll_usb.o(i.USB_DevInit)
    i.USB_DisableGlobalInt                   0x0800a030   Section        0  stm32f4xx_ll_usb.o(i.USB_DisableGlobalInt)
    i.USB_EP0StartXfer                       0x0800a040   Section        0  stm32f4xx_ll_usb.o(i.USB_EP0StartXfer)
    i.USB_EP0_OutStart                       0x0800a218   Section        0  stm32f4xx_ll_usb.o(i.USB_EP0_OutStart)
    i.USB_EPClearStall                       0x0800a288   Section        0  stm32f4xx_ll_usb.o(i.USB_EPClearStall)
    i.USB_EPSetStall                         0x0800a316   Section        0  stm32f4xx_ll_usb.o(i.USB_EPSetStall)
    i.USB_EPStartXfer                        0x0800a3b0   Section        0  stm32f4xx_ll_usb.o(i.USB_EPStartXfer)
    i.USB_EnableGlobalInt                    0x0800a6f4   Section        0  stm32f4xx_ll_usb.o(i.USB_EnableGlobalInt)
    i.USB_FlushRxFifo                        0x0800a704   Section        0  stm32f4xx_ll_usb.o(i.USB_FlushRxFifo)
    i.USB_FlushTxFifo                        0x0800a730   Section        0  stm32f4xx_ll_usb.o(i.USB_FlushTxFifo)
    i.USB_GetDevSpeed                        0x0800a760   Section        0  stm32f4xx_ll_usb.o(i.USB_GetDevSpeed)
    i.USB_GetMode                            0x0800a786   Section        0  stm32f4xx_ll_usb.o(i.USB_GetMode)
    i.USB_ReadDevAllInEpInterrupt            0x0800a790   Section        0  stm32f4xx_ll_usb.o(i.USB_ReadDevAllInEpInterrupt)
    i.USB_ReadDevAllOutEpInterrupt           0x0800a7a4   Section        0  stm32f4xx_ll_usb.o(i.USB_ReadDevAllOutEpInterrupt)
    i.USB_ReadDevInEPInterrupt               0x0800a7b8   Section        0  stm32f4xx_ll_usb.o(i.USB_ReadDevInEPInterrupt)
    i.USB_ReadDevOutEPInterrupt              0x0800a7ea   Section        0  stm32f4xx_ll_usb.o(i.USB_ReadDevOutEPInterrupt)
    i.USB_ReadInterrupts                     0x0800a804   Section        0  stm32f4xx_ll_usb.o(i.USB_ReadInterrupts)
    i.USB_ReadPacket                         0x0800a80e   Section        0  stm32f4xx_ll_usb.o(i.USB_ReadPacket)
    i.USB_SetCurrentMode                     0x0800a830   Section        0  stm32f4xx_ll_usb.o(i.USB_SetCurrentMode)
    i.USB_SetDevAddress                      0x0800a866   Section        0  stm32f4xx_ll_usb.o(i.USB_SetDevAddress)
    i.USB_SetDevSpeed                        0x0800a890   Section        0  stm32f4xx_ll_usb.o(i.USB_SetDevSpeed)
    i.USB_SetTurnaroundTime                  0x0800a8a4   Section        0  stm32f4xx_ll_usb.o(i.USB_SetTurnaroundTime)
    i.USB_WritePacket                        0x0800a98c   Section        0  stm32f4xx_ll_usb.o(i.USB_WritePacket)
    i.USER_UART_IRQHandler                   0x0800a9c8   Section        0  bsp_uart.o(i.USER_UART_IRQHandler)
    i.USER_initialize                        0x0800aa4c   Section        0  user_diskio.o(i.USER_initialize)
    i.USER_ioctl                             0x0800aa74   Section        0  user_diskio.o(i.USER_ioctl)
    i.USER_read                              0x0800aaac   Section        0  user_diskio.o(i.USER_read)
    i.USER_status                            0x0800aae4   Section        0  user_diskio.o(i.USER_status)
    i.USER_write                             0x0800aafc   Section        0  user_diskio.o(i.USER_write)
    i.UsageFault_Handler                     0x0800ab32   Section        0  stm32f4xx_it.o(i.UsageFault_Handler)
    i.W25QXX_Erase_Sector                    0x0800ab38   Section        0  bsp_spi.o(i.W25QXX_Erase_Sector)
    i.W25QXX_Init                            0x0800ab80   Section        0  bsp_spi.o(i.W25QXX_Init)
    i.W25QXX_Read                            0x0800abdc   Section        0  bsp_spi.o(i.W25QXX_Read)
    i.W25QXX_ReadCapacity                    0x0800ac34   Section        0  bsp_spi.o(i.W25QXX_ReadCapacity)
    i.W25QXX_ReadID                          0x0800ac90   Section        0  bsp_spi.o(i.W25QXX_ReadID)
    i.W25QXX_ReadSR                          0x0800acdc   Section        0  bsp_spi.o(i.W25QXX_ReadSR)
    i.W25QXX_ReadUniqueID                    0x0800ad0c   Section        0  bsp_spi.o(i.W25QXX_ReadUniqueID)
    i.W25QXX_SPI_ReadWriteByte               0x0800ad5c   Section        0  bsp_spi.o(i.W25QXX_SPI_ReadWriteByte)
    W25QXX_SPI_ReadWriteByte                 0x0800ad5d   Thumb Code    36  bsp_spi.o(i.W25QXX_SPI_ReadWriteByte)
    i.W25QXX_Wait_Busy                       0x0800ad84   Section        0  bsp_spi.o(i.W25QXX_Wait_Busy)
    i.W25QXX_Write                           0x0800ad98   Section        0  bsp_spi.o(i.W25QXX_Write)
    i.W25QXX_Write_Enable                    0x0800ae50   Section        0  bsp_spi.o(i.W25QXX_Write_Enable)
    i.W25QXX_Write_NoCheck                   0x0800ae74   Section        0  bsp_spi.o(i.W25QXX_Write_NoCheck)
    i.W25QXX_Write_Page                      0x0800aebc   Section        0  bsp_spi.o(i.W25QXX_Write_Page)
    i._Z12thread_sleepj                      0x0800af18   Section        0  uicode.o(i._Z12thread_sleepj)
    i._Z3runPviiiP14DISPLAY_DRIVER           0x0800af24   Section        0  uicode.o(i._Z3runPviiiP14DISPLAY_DRIVER)
    i._Z7_assertPKci                         0x0800b228   Section        0  uicode.o(i._Z7_assertPKci)
    i._Z7triggeriib                          0x0800b244   Section        0  uicode.o(i._Z7triggeriib)
    i._ZN10c_keyboardD1Ev                    0x0800b280   Section        0  uicode.o(i._ZN10c_keyboardD1Ev)
    i._ZN17c_keyboard_buttonC1Ev             0x0800b284   Section        0  uicode.o(i._ZN17c_keyboard_buttonC1Ev)
    i._ZN17c_keyboard_buttonD1Ev             0x0800b2a8   Section        0  uicode.o(i._ZN17c_keyboard_buttonD1Ev)
    i._ZN5c_wndC1Ev                          0x0800b2b8   Section        0  uicode.o(i._ZN5c_wndC1Ev)
    i._ZN6c_rect8set_rectEiiii               0x0800b2f8   Section        0  uicode.o(i._ZN6c_rect8set_rectEiiii)
    i._ZN6c_rectC1Ev                         0x0800b338   Section        0  uicode.o(i._ZN6c_rectC1Ev)
    i._ZN7c_layerC1Ev                        0x0800b346   Section        0  uicode.o(i._ZN7c_layerC1Ev)
    i._ZN7c_point15update_locationEf         0x0800b368   Section        0  uicode.o(i._ZN7c_point15update_locationEf)
    i._ZN8c_buttonD1Ev                       0x0800b470   Section        0  uicode.o(i._ZN8c_buttonD1Ev)
    i._ZN8c_string21update_point_velocityEv  0x0800b474   Section        0  uicode.o(i._ZN8c_string21update_point_velocityEv)
    i._ZN8c_string3setEP7c_pointS1_f         0x0800b5bc   Section        0  uicode.o(i._ZN8c_string3setEP7c_pointS1_f)
    i._ZN9c_display10draw_pixelEiij          0x0800b5c6   Section        0  uicode.o(i._ZN9c_display10draw_pixelEiij)
    i._ZN9c_display9fill_rectEiiiij          0x0800b632   Section        0  uicode.o(i._ZN9c_display9fill_rectEiiiij)
    i._ZN9c_displayC1EPviiP9c_surfaceP14DISPLAY_DRIVER 0x0800b724   Section        0  uicode.o(i._ZN9c_displayC1EPviiP9c_surfaceP14DISPLAY_DRIVER)
    i._ZN9c_surface10draw_hlineEiiijj        0x0800b794   Section        0  uicode.o(i._ZN9c_surface10draw_hlineEiiijj)
    i._ZN9c_surface10draw_pixelEiijj         0x0800b7c4   Section        0  uicode.o(i._ZN9c_surface10draw_pixelEiijj)
    i._ZN9c_surface11set_surfaceE13Z_ORDER_LEVEL6c_rect 0x0800b91c   Section        0  uicode.o(i._ZN9c_surface11set_surfaceE13Z_ORDER_LEVEL6c_rect)
    i._ZN9c_surface19fill_rect_low_levelEiiiij 0x0800b9b8   Section        0  uicode.o(i._ZN9c_surface19fill_rect_low_levelEiiiij)
    i._ZN9c_surface20draw_pixel_low_levelEiij 0x0800ba80   Section        0  uicode.o(i._ZN9c_surface20draw_pixel_low_levelEiij)
    i._ZN9c_surface9fill_rectEiiiijj         0x0800baf0   Section        0  uicode.o(i._ZN9c_surface9fill_rectEiiiijj)
    i._ZN9c_surfaceC1Ejjj13Z_ORDER_LEVEL6c_rect 0x0800bc54   Section        0  uicode.o(i._ZN9c_surfaceC1Ejjj13Z_ORDER_LEVEL6c_rect)
    i._ZNK6c_rect10pt_in_rectEii             0x0800bd20   Section        0  uicode.o(i._ZNK6c_rect10pt_in_rectEii)
    i._ZNK6c_rect5widthEv                    0x0800bd42   Section        0  uicode.o(i._ZNK6c_rect5widthEv)
    i._ZNK6c_rect6heightEv                   0x0800bd4e   Section        0  uicode.o(i._ZNK6c_rect6heightEv)
    i._ZSt4sqrtf                             0x0800bd5a   Section        0  uicode.o(i._ZSt4sqrtf)
    i.__0printf                              0x0800bd74   Section        0  printfa.o(i.__0printf)
    i.__NVIC_GetPriorityGrouping             0x0800bd94   Section        0  stm32f4xx_hal_cortex.o(i.__NVIC_GetPriorityGrouping)
    __NVIC_GetPriorityGrouping               0x0800bd95   Thumb Code    10  stm32f4xx_hal_cortex.o(i.__NVIC_GetPriorityGrouping)
    i.__NVIC_SetPriority                     0x0800bda4   Section        0  stm32f4xx_hal_cortex.o(i.__NVIC_SetPriority)
    __NVIC_SetPriority                       0x0800bda5   Thumb Code    32  stm32f4xx_hal_cortex.o(i.__NVIC_SetPriority)
    i.__aeabi_vec_ctor_nocookie_nodtor       0x0800bdcc   Section        0  aeabi_vec_ctor_nocookie_nodtor.o(i.__aeabi_vec_ctor_nocookie_nodtor)
    i.__cxa_guard_acquire                    0x0800bdf0   Section        0  cxa_guard_acquire.o(i.__cxa_guard_acquire)
    i.__get_BASEPRI                          0x0800be00   Section        0  cmsis_os2.o(i.__get_BASEPRI)
    __get_BASEPRI                            0x0800be01   Thumb Code     6  cmsis_os2.o(i.__get_BASEPRI)
    i.__get_IPSR                             0x0800be06   Section        0  cmsis_os2.o(i.__get_IPSR)
    __get_IPSR                               0x0800be07   Thumb Code     6  cmsis_os2.o(i.__get_IPSR)
    i.__get_PRIMASK                          0x0800be0c   Section        0  cmsis_os2.o(i.__get_PRIMASK)
    __get_PRIMASK                            0x0800be0d   Thumb Code     6  cmsis_os2.o(i.__get_PRIMASK)
    i.__hardfp_sqrtf                         0x0800be12   Section        0  sqrtf.o(i.__hardfp_sqrtf)
    i.__scatterload_copy                     0x0800be4c   Section       14  handlers.o(i.__scatterload_copy)
    i.__scatterload_null                     0x0800be5a   Section        2  handlers.o(i.__scatterload_null)
    i.__scatterload_zeroinit                 0x0800be5c   Section       14  handlers.o(i.__scatterload_zeroinit)
    i.__set_errno                            0x0800be6c   Section        0  errno.o(i.__set_errno)
    i.__sti___10_UIcode_cpp_396ac66f         0x0800be78   Section        0  uicode.o(i.__sti___10_UIcode_cpp_396ac66f)
    __sti___10_UIcode_cpp_396ac66f           0x0800be79   Thumb Code   740  uicode.o(i.__sti___10_UIcode_cpp_396ac66f)
    i._fp_digits                             0x0800c234   Section        0  printfa.o(i._fp_digits)
    _fp_digits                               0x0800c235   Thumb Code   366  printfa.o(i._fp_digits)
    i._printf_core                           0x0800c3b8   Section        0  printfa.o(i._printf_core)
    _printf_core                             0x0800c3b9   Thumb Code  1704  printfa.o(i._printf_core)
    i._printf_post_padding                   0x0800ca6c   Section        0  printfa.o(i._printf_post_padding)
    _printf_post_padding                     0x0800ca6d   Thumb Code    36  printfa.o(i._printf_post_padding)
    i._printf_pre_padding                    0x0800ca90   Section        0  printfa.o(i._printf_pre_padding)
    _printf_pre_padding                      0x0800ca91   Thumb Code    46  printfa.o(i._printf_pre_padding)
    i.check_fs                               0x0800cac0   Section        0  ff.o(i.check_fs)
    check_fs                                 0x0800cac1   Thumb Code   116  ff.o(i.check_fs)
    i.chk_chr                                0x0800cb3c   Section        0  ff.o(i.chk_chr)
    chk_chr                                  0x0800cb3d   Thumb Code    20  ff.o(i.chk_chr)
    i.chk_lock                               0x0800cb50   Section        0  ff.o(i.chk_lock)
    chk_lock                                 0x0800cb51   Thumb Code   120  ff.o(i.chk_lock)
    i.clear_lock                             0x0800cbcc   Section        0  ff.o(i.clear_lock)
    clear_lock                               0x0800cbcd   Thumb Code    36  ff.o(i.clear_lock)
    i.client_connected                       0x0800cbf4   Section        0  tcp_client.o(i.client_connected)
    client_connected                         0x0800cbf5   Thumb Code    36  tcp_client.o(i.client_connected)
    i.client_err                             0x0800cc30   Section        0  tcp_client.o(i.client_err)
    client_err                               0x0800cc31   Thumb Code    36  tcp_client.o(i.client_err)
    i.client_recv                            0x0800ccc0   Section        0  tcp_client.o(i.client_recv)
    client_recv                              0x0800ccc1   Thumb Code    74  tcp_client.o(i.client_recv)
    i.client_send                            0x0800cd28   Section        0  tcp_client.o(i.client_send)
    client_send                              0x0800cd29   Thumb Code    30  tcp_client.o(i.client_send)
    i.clmt_clust                             0x0800cd54   Section        0  ff.o(i.clmt_clust)
    clmt_clust                               0x0800cd55   Thumb Code    50  ff.o(i.clmt_clust)
    i.clust2sect                             0x0800cd86   Section        0  ff.o(i.clust2sect)
    clust2sect                               0x0800cd87   Thumb Code    26  ff.o(i.clust2sect)
    i.create_chain                           0x0800cda0   Section        0  ff.o(i.create_chain)
    create_chain                             0x0800cda1   Thumb Code   222  ff.o(i.create_chain)
    i.create_file                            0x0800ce80   Section        0  user_diskio.o(i.create_file)
    i.create_name                            0x0800cec8   Section        0  ff.o(i.create_name)
    create_name                              0x0800cec9   Thumb Code   262  ff.o(i.create_name)
    i.dec_lock                               0x0800cfe0   Section        0  ff.o(i.dec_lock)
    dec_lock                                 0x0800cfe1   Thumb Code    64  ff.o(i.dec_lock)
    i.delay_ms                               0x0800d024   Section        0  delay.o(i.delay_ms)
    i.dir_alloc                              0x0800d030   Section        0  ff.o(i.dir_alloc)
    dir_alloc                                0x0800d031   Thumb Code    96  ff.o(i.dir_alloc)
    i.dir_find                               0x0800d090   Section        0  ff.o(i.dir_find)
    dir_find                                 0x0800d091   Thumb Code   108  ff.o(i.dir_find)
    i.dir_next                               0x0800d0fc   Section        0  ff.o(i.dir_next)
    dir_next                                 0x0800d0fd   Thumb Code   268  ff.o(i.dir_next)
    i.dir_register                           0x0800d208   Section        0  ff.o(i.dir_register)
    dir_register                             0x0800d209   Thumb Code    60  ff.o(i.dir_register)
    i.dir_sdi                                0x0800d244   Section        0  ff.o(i.dir_sdi)
    dir_sdi                                  0x0800d245   Thumb Code   154  ff.o(i.dir_sdi)
    i.disk_initialize                        0x0800d2e0   Section        0  diskio.o(i.disk_initialize)
    i.disk_ioctl                             0x0800d30c   Section        0  diskio.o(i.disk_ioctl)
    i.disk_read                              0x0800d334   Section        0  diskio.o(i.disk_read)
    i.disk_status                            0x0800d364   Section        0  diskio.o(i.disk_status)
    i.disk_write                             0x0800d380   Section        0  diskio.o(i.disk_write)
    i.do_memp_free_pool                      0x0800d3b0   Section        0  memp.o(i.do_memp_free_pool)
    do_memp_free_pool                        0x0800d3b1   Thumb Code    66  memp.o(i.do_memp_free_pool)
    i.do_memp_malloc_pool                    0x0800d46c   Section        0  memp.o(i.do_memp_malloc_pool)
    do_memp_malloc_pool                      0x0800d46d   Thumb Code    74  memp.o(i.do_memp_malloc_pool)
    i.enq_lock                               0x0800d534   Section        0  ff.o(i.enq_lock)
    enq_lock                                 0x0800d535   Thumb Code    34  ff.o(i.enq_lock)
    i.etharp_cleanup_netif                   0x0800d55c   Section        0  etharp.o(i.etharp_cleanup_netif)
    i.etharp_find_entry                      0x0800d594   Section        0  etharp.o(i.etharp_find_entry)
    etharp_find_entry                        0x0800d595   Thumb Code   514  etharp.o(i.etharp_find_entry)
    i.etharp_free_entry                      0x0800d894   Section        0  etharp.o(i.etharp_free_entry)
    etharp_free_entry                        0x0800d895   Thumb Code    58  etharp.o(i.etharp_free_entry)
    i.etharp_input                           0x0800d8d4   Section        0  etharp.o(i.etharp_input)
    i.etharp_output                          0x0800da10   Section        0  etharp.o(i.etharp_output)
    i.etharp_output_to_arp_index             0x0800dc34   Section        0  etharp.o(i.etharp_output_to_arp_index)
    etharp_output_to_arp_index               0x0800dc35   Thumb Code   212  etharp.o(i.etharp_output_to_arp_index)
    i.etharp_query                           0x0800dd9c   Section        0  etharp.o(i.etharp_query)
    i.etharp_raw                             0x0800e040   Section        0  etharp.o(i.etharp_raw)
    etharp_raw                               0x0800e041   Thumb Code   226  etharp.o(i.etharp_raw)
    i.etharp_request                         0x0800e1cc   Section        0  etharp.o(i.etharp_request)
    i.etharp_request_dst                     0x0800e1e4   Section        0  etharp.o(i.etharp_request_dst)
    etharp_request_dst                       0x0800e1e5   Thumb Code    38  etharp.o(i.etharp_request_dst)
    i.etharp_tmr                             0x0800e210   Section        0  etharp.o(i.etharp_tmr)
    i.etharp_update_arp_entry                0x0800e2ec   Section        0  etharp.o(i.etharp_update_arp_entry)
    etharp_update_arp_entry                  0x0800e2ed   Thumb Code   212  etharp.o(i.etharp_update_arp_entry)
    i.ethernet_input                         0x0800e448   Section        0  ethernet.o(i.ethernet_input)
    i.ethernet_output                        0x0800e50c   Section        0  ethernet.o(i.ethernet_output)
    i.ethernetif_init                        0x0800e610   Section        0  ethernetif.o(i.ethernetif_init)
    i.ethernetif_input                       0x0800e6a8   Section        0  ethernetif.o(i.ethernetif_input)
    i.ethernetif_notify_conn_changed         0x0800e6f4   Section        0  ethernetif.o(i.ethernetif_notify_conn_changed)
    i.ethernetif_set_link                    0x0800e6f8   Section        0  ethernetif.o(i.ethernetif_set_link)
    i.ethernetif_update_config               0x0800e750   Section        0  ethernetif.o(i.ethernetif_update_config)
    i.f_close                                0x0800e824   Section        0  ff.o(i.f_close)
    i.f_mkfs                                 0x0800e858   Section        0  ff.o(i.f_mkfs)
    i.f_mount                                0x0800eedc   Section        0  ff.o(i.f_mount)
    i.f_open                                 0x0800ef60   Section        0  ff.o(i.f_open)
    i.f_read                                 0x0800f198   Section        0  ff.o(i.f_read)
    i.f_sync                                 0x0800f398   Section        0  ff.o(i.f_sync)
    i.f_write                                0x0800f448   Section        0  ff.o(i.f_write)
    i.ff_cre_syncobj                         0x0800f68c   Section        0  syscall.o(i.ff_cre_syncobj)
    i.ff_del_syncobj                         0x0800f6ae   Section        0  syscall.o(i.ff_del_syncobj)
    i.ff_rel_grant                           0x0800f6bc   Section        0  syscall.o(i.ff_rel_grant)
    i.ff_req_grant                           0x0800f6c8   Section        0  syscall.o(i.ff_req_grant)
    i.fileSystemInit                         0x0800f6e0   Section        0  user_diskio.o(i.fileSystemInit)
    i.find_volume                            0x0800f734   Section        0  ff.o(i.find_volume)
    find_volume                              0x0800f735   Thumb Code   762  ff.o(i.find_volume)
    i.follow_path                            0x0800fa40   Section        0  ff.o(i.follow_path)
    follow_path                              0x0800fa41   Thumb Code   162  ff.o(i.follow_path)
    i.fputc                                  0x0800fae4   Section        0  main.o(i.fputc)
    i.free                                   0x0800fb00   Section        0  malloc.o(i.free)
    i.get_fat                                0x0800fb50   Section        0  ff.o(i.get_fat)
    get_fat                                  0x0800fb51   Thumb Code   224  ff.o(i.get_fat)
    i.get_fattime                            0x0800fc30   Section        0  fatfs.o(i.get_fattime)
    i.get_ldnumber                           0x0800fc34   Section        0  ff.o(i.get_ldnumber)
    get_ldnumber                             0x0800fc35   Thumb Code    72  ff.o(i.get_ldnumber)
    i.gfx_draw_fill                          0x0800fc7c   Section        0  lcd.o(i.gfx_draw_fill)
    i.gfx_draw_pixel                         0x0800fca2   Section        0  lcd.o(i.gfx_draw_pixel)
    i.icmp_dest_unreach                      0x0800fcb6   Section        0  icmp.o(i.icmp_dest_unreach)
    i.icmp_input                             0x0800fcc8   Section        0  icmp.o(i.icmp_input)
    i.icmp_send_response                     0x0800ff38   Section        0  icmp.o(i.icmp_send_response)
    icmp_send_response                       0x0800ff39   Thumb Code   142  icmp.o(i.icmp_send_response)
    i.icmp_time_exceeded                     0x08010054   Section        0  icmp.o(i.icmp_time_exceeded)
    i.inc_lock                               0x08010068   Section        0  ff.o(i.inc_lock)
    inc_lock                                 0x08010069   Thumb Code   182  ff.o(i.inc_lock)
    i.ip4_addr_isbroadcast_u32               0x08010124   Section        0  ip4_addr.o(i.ip4_addr_isbroadcast_u32)
    i.ip4_frag                               0x08010174   Section        0  ip4_frag.o(i.ip4_frag)
    i.ip4_input                              0x08010440   Section        0  ip4.o(i.ip4_input)
    i.ip4_input_accept                       0x080105cc   Section        0  ip4.o(i.ip4_input_accept)
    ip4_input_accept                         0x080105cd   Thumb Code    48  ip4.o(i.ip4_input_accept)
    i.ip4_output_if                          0x08010600   Section        0  ip4.o(i.ip4_output_if)
    i.ip4_output_if_src                      0x08010638   Section        0  ip4.o(i.ip4_output_if_src)
    i.ip4_reass                              0x080107d4   Section        0  ip4_frag.o(i.ip4_reass)
    i.ip4_route                              0x08010ad0   Section        0  ip4.o(i.ip4_route)
    i.ip_frag_alloc_pbuf_custom_ref          0x08010b64   Section        0  ip4_frag.o(i.ip_frag_alloc_pbuf_custom_ref)
    ip_frag_alloc_pbuf_custom_ref            0x08010b65   Thumb Code    10  ip4_frag.o(i.ip_frag_alloc_pbuf_custom_ref)
    i.ip_frag_free_pbuf_custom_ref           0x08010b70   Section        0  ip4_frag.o(i.ip_frag_free_pbuf_custom_ref)
    ip_frag_free_pbuf_custom_ref             0x08010b71   Thumb Code    40  ip4_frag.o(i.ip_frag_free_pbuf_custom_ref)
    i.ip_reass_chain_frag_into_datagram_and_validate 0x08010c08   Section        0  ip4_frag.o(i.ip_reass_chain_frag_into_datagram_and_validate)
    ip_reass_chain_frag_into_datagram_and_validate 0x08010c09   Thumb Code   530  ip4_frag.o(i.ip_reass_chain_frag_into_datagram_and_validate)
    i.ip_reass_dequeue_datagram              0x08010f0c   Section        0  ip4_frag.o(i.ip_reass_dequeue_datagram)
    ip_reass_dequeue_datagram                0x08010f0d   Thumb Code    62  ip4_frag.o(i.ip_reass_dequeue_datagram)
    i.ip_reass_enqueue_new_datagram          0x08010fd0   Section        0  ip4_frag.o(i.ip_reass_enqueue_new_datagram)
    ip_reass_enqueue_new_datagram            0x08010fd1   Thumb Code    80  ip4_frag.o(i.ip_reass_enqueue_new_datagram)
    i.ip_reass_free_complete_datagram        0x08011024   Section        0  ip4_frag.o(i.ip_reass_free_complete_datagram)
    ip_reass_free_complete_datagram          0x08011025   Thumb Code   274  ip4_frag.o(i.ip_reass_free_complete_datagram)
    i.ip_reass_remove_oldest_datagram        0x08011204   Section        0  ip4_frag.o(i.ip_reass_remove_oldest_datagram)
    ip_reass_remove_oldest_datagram          0x08011205   Thumb Code   130  ip4_frag.o(i.ip_reass_remove_oldest_datagram)
    i.ip_reass_tmr                           0x0801128c   Section        0  ip4_frag.o(i.ip_reass_tmr)
    i.ipfrag_free_pbuf_custom                0x080112c0   Section        0  ip4_frag.o(i.ipfrag_free_pbuf_custom)
    ipfrag_free_pbuf_custom                  0x080112c1   Thumb Code    76  ip4_frag.o(i.ipfrag_free_pbuf_custom)
    i.ld_clust                               0x08011388   Section        0  ff.o(i.ld_clust)
    ld_clust                                 0x08011389   Thumb Code    38  ff.o(i.ld_clust)
    i.ld_dword                               0x080113ae   Section        0  ff.o(i.ld_dword)
    ld_dword                                 0x080113af   Thumb Code    24  ff.o(i.ld_dword)
    i.ld_word                                0x080113c6   Section        0  ff.o(i.ld_word)
    ld_word                                  0x080113c7   Thumb Code    12  ff.o(i.ld_word)
    i.lock_fs                                0x080113d2   Section        0  ff.o(i.lock_fs)
    lock_fs                                  0x080113d3   Thumb Code    22  ff.o(i.lock_fs)
    i.low_level_init                         0x080113e8   Section        0  ethernetif.o(i.low_level_init)
    low_level_init                           0x080113e9   Thumb Code   300  ethernetif.o(i.low_level_init)
    i.low_level_input                        0x0801153c   Section        0  ethernetif.o(i.low_level_input)
    low_level_input                          0x0801153d   Thumb Code   256  ethernetif.o(i.low_level_input)
    i.low_level_output                       0x08011640   Section        0  ethernetif.o(i.low_level_output)
    low_level_output                         0x08011641   Thumb Code   226  ethernetif.o(i.low_level_output)
    i.lwip_cyclic_timer                      0x08011728   Section        0  timeouts.o(i.lwip_cyclic_timer)
    lwip_cyclic_timer                        0x08011729   Thumb Code    70  timeouts.o(i.lwip_cyclic_timer)
    i.lwip_htonl                             0x08011778   Section        0  def.o(i.lwip_htonl)
    i.lwip_htons                             0x08011792   Section        0  def.o(i.lwip_htons)
    i.lwip_init                              0x080117a0   Section        0  init.o(i.lwip_init)
    i.main                                   0x0801183c   Section        0  main.o(i.main)
    i.malloc                                 0x080118dc   Section        0  malloc.o(i.malloc)
    i.mem_cmp                                0x08011948   Section        0  ff.o(i.mem_cmp)
    mem_cmp                                  0x08011949   Thumb Code    36  ff.o(i.mem_cmp)
    i.mem_cpy                                0x0801196c   Section        0  ff.o(i.mem_cpy)
    mem_cpy                                  0x0801196d   Thumb Code    26  ff.o(i.mem_cpy)
    i.mem_free                               0x08011988   Section        0  mem.o(i.mem_free)
    i.mem_init                               0x08011b98   Section        0  mem.o(i.mem_init)
    i.mem_link_valid                         0x08011c8c   Section        0  mem.o(i.mem_link_valid)
    mem_link_valid                           0x08011c8d   Thumb Code    82  mem.o(i.mem_link_valid)
    i.mem_malloc                             0x08011ce4   Section        0  mem.o(i.mem_malloc)
    i.mem_set                                0x08011fa0   Section        0  ff.o(i.mem_set)
    mem_set                                  0x08011fa1   Thumb Code    18  ff.o(i.mem_set)
    i.mem_to_ptr                             0x08011fb4   Section        0  mem.o(i.mem_to_ptr)
    mem_to_ptr                               0x08011fb5   Thumb Code    12  mem.o(i.mem_to_ptr)
    i.mem_trim                               0x08011fc4   Section        0  mem.o(i.mem_trim)
    i.memp_free                              0x08012214   Section        0  memp.o(i.memp_free)
    i.memp_init                              0x080122c4   Section        0  memp.o(i.memp_init)
    i.memp_init_pool                         0x080122e4   Section        0  memp.o(i.memp_init_pool)
    i.memp_malloc                            0x08012310   Section        0  memp.o(i.memp_malloc)
    i.move_window                            0x080123c0   Section        0  ff.o(i.move_window)
    move_window                              0x080123c1   Thumb Code    52  ff.o(i.move_window)
    i.netif_add                              0x080123f4   Section        0  netif.o(i.netif_add)
    i.netif_do_ip_addr_changed               0x08012624   Section        0  netif.o(i.netif_do_ip_addr_changed)
    netif_do_ip_addr_changed                 0x08012625   Thumb Code    16  netif.o(i.netif_do_ip_addr_changed)
    i.netif_do_set_gw                        0x08012634   Section        0  netif.o(i.netif_do_set_gw)
    netif_do_set_gw                          0x08012635   Thumb Code    38  netif.o(i.netif_do_set_gw)
    i.netif_do_set_ipaddr                    0x0801265c   Section        0  netif.o(i.netif_do_set_ipaddr)
    netif_do_set_ipaddr                      0x0801265d   Thumb Code   130  netif.o(i.netif_do_set_ipaddr)
    i.netif_do_set_netmask                   0x0801274c   Section        0  netif.o(i.netif_do_set_netmask)
    netif_do_set_netmask                     0x0801274d   Thumb Code    38  netif.o(i.netif_do_set_netmask)
    i.netif_get_by_index                     0x08012774   Section        0  netif.o(i.netif_get_by_index)
    i.netif_init                             0x0801279c   Section        0  netif.o(i.netif_init)
    i.netif_issue_reports                    0x080127a0   Section        0  netif.o(i.netif_issue_reports)
    netif_issue_reports                      0x080127a1   Thumb Code    86  netif.o(i.netif_issue_reports)
    i.netif_null_output_ip4                  0x08012878   Section        0  netif.o(i.netif_null_output_ip4)
    netif_null_output_ip4                    0x08012879   Thumb Code     8  netif.o(i.netif_null_output_ip4)
    i.netif_set_addr                         0x08012880   Section        0  netif.o(i.netif_set_addr)
    i.netif_set_default                      0x080128e0   Section        0  netif.o(i.netif_set_default)
    i.netif_set_down                         0x080128ec   Section        0  netif.o(i.netif_set_down)
    i.netif_set_link_callback                0x080129c4   Section        0  netif.o(i.netif_set_link_callback)
    i.netif_set_link_down                    0x080129cc   Section        0  netif.o(i.netif_set_link_down)
    i.netif_set_link_up                      0x08012a98   Section        0  netif.o(i.netif_set_link_up)
    i.netif_set_up                           0x08012b6c   Section        0  netif.o(i.netif_set_up)
    i.osDelay                                0x08012c38   Section        0  cmsis_os2.o(i.osDelay)
    i.osKernelGetTickCount                   0x08012c70   Section        0  cmsis_os2.o(i.osKernelGetTickCount)
    i.osKernelInitialize                     0x08012ca4   Section        0  cmsis_os2.o(i.osKernelInitialize)
    i.osKernelStart                          0x08012ce4   Section        0  cmsis_os2.o(i.osKernelStart)
    i.osMessageQueueGet                      0x08012d2c   Section        0  cmsis_os2.o(i.osMessageQueueGet)
    i.osMessageQueueNew                      0x08012dc4   Section        0  cmsis_os2.o(i.osMessageQueueNew)
    i.osMessageQueuePut                      0x08012e78   Section        0  cmsis_os2.o(i.osMessageQueuePut)
    i.osMutexAcquire                         0x08012f14   Section        0  cmsis_os2.o(i.osMutexAcquire)
    i.osMutexNew                             0x08012f90   Section        0  cmsis_os2.o(i.osMutexNew)
    i.osMutexRelease                         0x0801305c   Section        0  cmsis_os2.o(i.osMutexRelease)
    i.osSemaphoreAcquire                     0x080130c4   Section        0  cmsis_os2.o(i.osSemaphoreAcquire)
    i.osSemaphoreDelete                      0x08013148   Section        0  cmsis_os2.o(i.osSemaphoreDelete)
    i.osSemaphoreNew                         0x0801318c   Section        0  cmsis_os2.o(i.osSemaphoreNew)
    i.osSemaphoreRelease                     0x08013274   Section        0  cmsis_os2.o(i.osSemaphoreRelease)
    i.osThreadNew                            0x080132e8   Section        0  cmsis_os2.o(i.osThreadNew)
    i.osTimerNew                             0x080133bc   Section        0  cmsis_os2.o(i.osTimerNew)
    i.osTimerStart                           0x08013484   Section        0  cmsis_os2.o(i.osTimerStart)
    i.pbuf_add_header                        0x080134d8   Section        0  pbuf.o(i.pbuf_add_header)
    i.pbuf_add_header_impl                   0x080134ec   Section        0  pbuf.o(i.pbuf_add_header_impl)
    pbuf_add_header_impl                     0x080134ed   Thumb Code   130  pbuf.o(i.pbuf_add_header_impl)
    i.pbuf_alloc                             0x080135d4   Section        0  pbuf.o(i.pbuf_alloc)
    i.pbuf_alloc_reference                   0x08013874   Section        0  pbuf.o(i.pbuf_alloc_reference)
    i.pbuf_alloced_custom                    0x08013930   Section        0  pbuf.o(i.pbuf_alloced_custom)
    i.pbuf_cat                               0x08013984   Section        0  pbuf.o(i.pbuf_cat)
    i.pbuf_clen                              0x08013ad4   Section        0  pbuf.o(i.pbuf_clen)
    i.pbuf_clone                             0x08013ae8   Section        0  pbuf.o(i.pbuf_clone)
    i.pbuf_copy                              0x08013b98   Section        0  pbuf.o(i.pbuf_copy)
    i.pbuf_copy_partial                      0x08013dc0   Section        0  pbuf.o(i.pbuf_copy_partial)
    i.pbuf_free                              0x08013f00   Section        0  pbuf.o(i.pbuf_free)
    i.pbuf_free_ooseq                        0x080140a8   Section        0  pbuf.o(i.pbuf_free_ooseq)
    pbuf_free_ooseq                          0x080140a9   Thumb Code    52  pbuf.o(i.pbuf_free_ooseq)
    i.pbuf_free_ooseq_callback               0x080140e4   Section        0  pbuf.o(i.pbuf_free_ooseq_callback)
    pbuf_free_ooseq_callback                 0x080140e5   Thumb Code    10  pbuf.o(i.pbuf_free_ooseq_callback)
    i.pbuf_header_force                      0x080140ee   Section        0  pbuf.o(i.pbuf_header_force)
    i.pbuf_header_impl                       0x08014100   Section        0  pbuf.o(i.pbuf_header_impl)
    pbuf_header_impl                         0x08014101   Thumb Code    34  pbuf.o(i.pbuf_header_impl)
    i.pbuf_init_alloced_pbuf                 0x08014122   Section        0  pbuf.o(i.pbuf_init_alloced_pbuf)
    pbuf_init_alloced_pbuf                   0x08014123   Thumb Code    30  pbuf.o(i.pbuf_init_alloced_pbuf)
    i.pbuf_pool_is_empty                     0x08014140   Section        0  pbuf.o(i.pbuf_pool_is_empty)
    pbuf_pool_is_empty                       0x08014141   Thumb Code    60  pbuf.o(i.pbuf_pool_is_empty)
    i.pbuf_realloc                           0x08014184   Section        0  pbuf.o(i.pbuf_realloc)
    i.pbuf_ref                               0x080142ec   Section        0  pbuf.o(i.pbuf_ref)
    i.pbuf_remove_header                     0x08014394   Section        0  pbuf.o(i.pbuf_remove_header)
    i.plug_holes                             0x08014488   Section        0  mem.o(i.plug_holes)
    plug_holes                               0x08014489   Thumb Code   248  mem.o(i.plug_holes)
    i.prvAddCurrentTaskToDelayedList         0x08014660   Section        0  tasks.o(i.prvAddCurrentTaskToDelayedList)
    prvAddCurrentTaskToDelayedList           0x08014661   Thumb Code   100  tasks.o(i.prvAddCurrentTaskToDelayedList)
    i.prvAddNewTaskToReadyList               0x080146dc   Section        0  tasks.o(i.prvAddNewTaskToReadyList)
    prvAddNewTaskToReadyList                 0x080146dd   Thumb Code   154  tasks.o(i.prvAddNewTaskToReadyList)
    i.prvCheckForValidListAndQueue           0x08014794   Section        0  timers.o(i.prvCheckForValidListAndQueue)
    prvCheckForValidListAndQueue             0x08014795   Thumb Code    78  timers.o(i.prvCheckForValidListAndQueue)
    i.prvCheckTasksWaitingTermination        0x08014808   Section        0  tasks.o(i.prvCheckTasksWaitingTermination)
    prvCheckTasksWaitingTermination          0x08014809   Thumb Code    60  tasks.o(i.prvCheckTasksWaitingTermination)
    i.prvCopyDataFromQueue                   0x08014850   Section        0  queue.o(i.prvCopyDataFromQueue)
    prvCopyDataFromQueue                     0x08014851   Thumb Code    42  queue.o(i.prvCopyDataFromQueue)
    i.prvCopyDataToQueue                     0x0801487a   Section        0  queue.o(i.prvCopyDataToQueue)
    prvCopyDataToQueue                       0x0801487b   Thumb Code   126  queue.o(i.prvCopyDataToQueue)
    i.prvDeleteTCB                           0x080148f8   Section        0  tasks.o(i.prvDeleteTCB)
    prvDeleteTCB                             0x080148f9   Thumb Code    80  tasks.o(i.prvDeleteTCB)
    i.prvGetDisinheritPriorityAfterTimeout   0x08014948   Section        0  queue.o(i.prvGetDisinheritPriorityAfterTimeout)
    prvGetDisinheritPriorityAfterTimeout     0x08014949   Thumb Code    20  queue.o(i.prvGetDisinheritPriorityAfterTimeout)
    i.prvGetNextExpireTime                   0x0801495c   Section        0  timers.o(i.prvGetNextExpireTime)
    prvGetNextExpireTime                     0x0801495d   Thumb Code    36  timers.o(i.prvGetNextExpireTime)
    i.prvHeapInit                            0x08014984   Section        0  heap_4.o(i.prvHeapInit)
    prvHeapInit                              0x08014985   Thumb Code    98  heap_4.o(i.prvHeapInit)
    i.prvIdleTask                            0x08014a00   Section        0  tasks.o(i.prvIdleTask)
    prvIdleTask                              0x08014a01   Thumb Code    32  tasks.o(i.prvIdleTask)
    i.prvInitialiseMutex                     0x08014a28   Section        0  queue.o(i.prvInitialiseMutex)
    prvInitialiseMutex                       0x08014a29   Thumb Code    30  queue.o(i.prvInitialiseMutex)
    i.prvInitialiseNewQueue                  0x08014a46   Section        0  queue.o(i.prvInitialiseNewQueue)
    prvInitialiseNewQueue                    0x08014a47   Thumb Code    42  queue.o(i.prvInitialiseNewQueue)
    i.prvInitialiseNewTask                   0x08014a70   Section        0  tasks.o(i.prvInitialiseNewTask)
    prvInitialiseNewTask                     0x08014a71   Thumb Code   190  tasks.o(i.prvInitialiseNewTask)
    i.prvInitialiseNewTimer                  0x08014b2e   Section        0  timers.o(i.prvInitialiseNewTimer)
    prvInitialiseNewTimer                    0x08014b2f   Thumb Code    90  timers.o(i.prvInitialiseNewTimer)
    i.prvInitialiseTaskLists                 0x08014b88   Section        0  tasks.o(i.prvInitialiseTaskLists)
    prvInitialiseTaskLists                   0x08014b89   Thumb Code    70  tasks.o(i.prvInitialiseTaskLists)
    i.prvInsertBlockIntoFreeList             0x08014bf0   Section        0  heap_4.o(i.prvInsertBlockIntoFreeList)
    prvInsertBlockIntoFreeList               0x08014bf1   Thumb Code    96  heap_4.o(i.prvInsertBlockIntoFreeList)
    i.prvInsertTimerInActiveList             0x08014c58   Section        0  timers.o(i.prvInsertTimerInActiveList)
    prvInsertTimerInActiveList               0x08014c59   Thumb Code    80  timers.o(i.prvInsertTimerInActiveList)
    i.prvIsQueueEmpty                        0x08014cb0   Section        0  queue.o(i.prvIsQueueEmpty)
    prvIsQueueEmpty                          0x08014cb1   Thumb Code    26  queue.o(i.prvIsQueueEmpty)
    i.prvIsQueueFull                         0x08014cca   Section        0  queue.o(i.prvIsQueueFull)
    prvIsQueueFull                           0x08014ccb   Thumb Code    30  queue.o(i.prvIsQueueFull)
    i.prvProcessExpiredTimer                 0x08014ce8   Section        0  timers.o(i.prvProcessExpiredTimer)
    prvProcessExpiredTimer                   0x08014ce9   Thumb Code   110  timers.o(i.prvProcessExpiredTimer)
    i.prvProcessReceivedCommands             0x08014d5c   Section        0  timers.o(i.prvProcessReceivedCommands)
    prvProcessReceivedCommands               0x08014d5d   Thumb Code   350  timers.o(i.prvProcessReceivedCommands)
    i.prvProcessTimerOrBlockTask             0x08014ec0   Section        0  timers.o(i.prvProcessTimerOrBlockTask)
    prvProcessTimerOrBlockTask               0x08014ec1   Thumb Code   102  timers.o(i.prvProcessTimerOrBlockTask)
    i.prvResetNextTaskUnblockTime            0x08014f34   Section        0  tasks.o(i.prvResetNextTaskUnblockTime)
    prvResetNextTaskUnblockTime              0x08014f35   Thumb Code    42  tasks.o(i.prvResetNextTaskUnblockTime)
    i.prvSampleTimeNow                       0x08014f68   Section        0  timers.o(i.prvSampleTimeNow)
    prvSampleTimeNow                         0x08014f69   Thumb Code    40  timers.o(i.prvSampleTimeNow)
    i.prvSwitchTimerLists                    0x08014f94   Section        0  timers.o(i.prvSwitchTimerLists)
    prvSwitchTimerLists                      0x08014f95   Thumb Code   154  timers.o(i.prvSwitchTimerLists)
    i.prvTaskExitError                       0x08015038   Section        0  port.o(i.prvTaskExitError)
    prvTaskExitError                         0x08015039   Thumb Code    60  port.o(i.prvTaskExitError)
    i.prvTimerTask                           0x08015078   Section        0  timers.o(i.prvTimerTask)
    prvTimerTask                             0x08015079   Thumb Code    26  timers.o(i.prvTimerTask)
    i.prvUnlockQueue                         0x08015092   Section        0  queue.o(i.prvUnlockQueue)
    prvUnlockQueue                           0x08015093   Thumb Code   126  queue.o(i.prvUnlockQueue)
    i.ptr_to_mem                             0x08015110   Section        0  mem.o(i.ptr_to_mem)
    ptr_to_mem                               0x08015111   Thumb Code    10  mem.o(i.ptr_to_mem)
    i.put_fat                                0x08015120   Section        0  ff.o(i.put_fat)
    put_fat                                  0x08015121   Thumb Code   312  ff.o(i.put_fat)
    i.pvPortMalloc                           0x08015258   Section        0  heap_4.o(i.pvPortMalloc)
    i.pvTaskIncrementMutexHeldCount          0x08015394   Section        0  tasks.o(i.pvTaskIncrementMutexHeldCount)
    i.pvTimerGetTimerID                      0x080153b4   Section        0  timers.o(i.pvTimerGetTimerID)
    i.pxPortInitialiseStack                  0x080153e0   Section        0  port.o(i.pxPortInitialiseStack)
    i.read_file                              0x0801540c   Section        0  user_diskio.o(i.read_file)
    i.remove_chain                           0x08015470   Section        0  ff.o(i.remove_chain)
    remove_chain                             0x08015471   Thumb Code   154  ff.o(i.remove_chain)
    i.st_clust                               0x0801550a   Section        0  ff.o(i.st_clust)
    st_clust                                 0x0801550b   Thumb Code    36  ff.o(i.st_clust)
    i.st_dword                               0x0801552e   Section        0  ff.o(i.st_dword)
    st_dword                                 0x0801552f   Thumb Code    24  ff.o(i.st_dword)
    i.st_word                                0x08015546   Section        0  ff.o(i.st_word)
    st_word                                  0x08015547   Thumb Code    12  ff.o(i.st_word)
    i.startHelloNets                         0x08015552   Section        0  uicode.o(i.startHelloNets)
    i.sync_fs                                0x08015570   Section        0  ff.o(i.sync_fs)
    sync_fs                                  0x08015571   Thumb Code   134  ff.o(i.sync_fs)
    i.sync_window                            0x08015600   Section        0  ff.o(i.sync_window)
    sync_window                              0x08015601   Thumb Code    82  ff.o(i.sync_window)
    i.sys_arch_mbox_fetch                    0x08015652   Section        0  sys_arch.o(i.sys_arch_mbox_fetch)
    i.sys_arch_protect                       0x0801569c   Section        0  sys_arch.o(i.sys_arch_protect)
    i.sys_arch_unprotect                     0x080156b4   Section        0  sys_arch.o(i.sys_arch_unprotect)
    i.sys_check_timeouts                     0x080156c8   Section        0  timeouts.o(i.sys_check_timeouts)
    i.sys_init                               0x0801571c   Section        0  sys_arch.o(i.sys_init)
    i.sys_mbox_new                           0x08015730   Section        0  sys_arch.o(i.sys_mbox_new)
    i.sys_mbox_trypost                       0x08015750   Section        0  sys_arch.o(i.sys_mbox_trypost)
    i.sys_mbox_valid                         0x0801576e   Section        0  sys_arch.o(i.sys_mbox_valid)
    i.sys_mutex_lock                         0x0801577c   Section        0  sys_arch.o(i.sys_mutex_lock)
    i.sys_mutex_new                          0x0801578c   Section        0  sys_arch.o(i.sys_mutex_new)
    i.sys_mutex_unlock                       0x080157a6   Section        0  sys_arch.o(i.sys_mutex_unlock)
    i.sys_now                                0x080157b2   Section        0  ethernetif.o(i.sys_now)
    i.sys_thread_new                         0x080157ba   Section        0  sys_arch.o(i.sys_thread_new)
    i.sys_timeout                            0x080157ec   Section        0  timeouts.o(i.sys_timeout)
    i.sys_timeout_abs                        0x080158bc   Section        0  timeouts.o(i.sys_timeout_abs)
    sys_timeout_abs                          0x080158bd   Thumb Code   160  timeouts.o(i.sys_timeout_abs)
    i.sys_timeouts_init                      0x080159fc   Section        0  timeouts.o(i.sys_timeouts_init)
    i.sys_timeouts_sleeptime                 0x08015a24   Section        0  timeouts.o(i.sys_timeouts_sleeptime)
    i.tcp_abandon                            0x08015af0   Section        0  tcp.o(i.tcp_abandon)
    i.tcp_abort                              0x08015cc4   Section        0  tcp.o(i.tcp_abort)
    i.tcp_accept                             0x08015cd2   Section        0  tcp.o(i.tcp_accept)
    i.tcp_accept_null                        0x08015ce4   Section        0  tcp.o(i.tcp_accept_null)
    tcp_accept_null                          0x08015ce5   Thumb Code    46  tcp.o(i.tcp_accept_null)
    i.tcp_alloc                              0x08015d8c   Section        0  tcp.o(i.tcp_alloc)
    i.tcp_bind                               0x08015e4c   Section        0  tcp.o(i.tcp_bind)
    i.tcp_close                              0x08015fbc   Section        0  tcp.o(i.tcp_close)
    i.tcp_close_shutdown                     0x0801606c   Section        0  tcp.o(i.tcp_close_shutdown)
    tcp_close_shutdown                       0x0801606d   Thumb Code   354  tcp.o(i.tcp_close_shutdown)
    i.tcp_close_shutdown_fin                 0x08016278   Section        0  tcp.o(i.tcp_close_shutdown_fin)
    tcp_close_shutdown_fin                   0x08016279   Thumb Code   132  tcp.o(i.tcp_close_shutdown_fin)
    i.tcp_connect                            0x08016360   Section        0  tcp.o(i.tcp_connect)
    i.tcp_create_segment                     0x080165bc   Section        0  tcp_out.o(i.tcp_create_segment)
    tcp_create_segment                       0x080165bd   Thumb Code   282  tcp_out.o(i.tcp_create_segment)
    i.tcp_eff_send_mss_netif                 0x08016790   Section        0  tcp.o(i.tcp_eff_send_mss_netif)
    i.tcp_enqueue_flags                      0x08016864   Section        0  tcp_out.o(i.tcp_enqueue_flags)
    i.tcp_err                                0x08016b24   Section        0  tcp.o(i.tcp_err)
    i.tcp_fasttmr                            0x08016bd0   Section        0  tcp.o(i.tcp_fasttmr)
    i.tcp_free                               0x08016c6c   Section        0  tcp.o(i.tcp_free)
    i.tcp_free_acked_segments                0x08016d00   Section        0  tcp_in.o(i.tcp_free_acked_segments)
    tcp_free_acked_segments                  0x08016d01   Thumb Code   176  tcp_in.o(i.tcp_free_acked_segments)
    i.tcp_free_listen                        0x08016e5c   Section        0  tcp.o(i.tcp_free_listen)
    tcp_free_listen                          0x08016e5d   Thumb Code    40  tcp.o(i.tcp_free_listen)
    i.tcp_free_ooseq                         0x08016ef8   Section        0  tcp.o(i.tcp_free_ooseq)
    i.tcp_get_next_optbyte                   0x08016f0c   Section        0  tcp_in.o(i.tcp_get_next_optbyte)
    tcp_get_next_optbyte                     0x08016f0d   Thumb Code    54  tcp_in.o(i.tcp_get_next_optbyte)
    i.tcp_handle_closepend                   0x08016f54   Section        0  tcp.o(i.tcp_handle_closepend)
    tcp_handle_closepend                     0x08016f55   Thumb Code    48  tcp.o(i.tcp_handle_closepend)
    i.tcp_init                               0x08016f88   Section        0  tcp.o(i.tcp_init)
    i.tcp_input                              0x08016fa0   Section        0  tcp_in.o(i.tcp_input)
    i.tcp_input_delayed_close                0x080177b8   Section        0  tcp_in.o(i.tcp_input_delayed_close)
    tcp_input_delayed_close                  0x080177b9   Thumb Code    92  tcp_in.o(i.tcp_input_delayed_close)
    i.tcp_keepalive                          0x080178a0   Section        0  tcp_out.o(i.tcp_keepalive)
    i.tcp_kill_prio                          0x0801797c   Section        0  tcp.o(i.tcp_kill_prio)
    tcp_kill_prio                            0x0801797d   Thumb Code    96  tcp.o(i.tcp_kill_prio)
    i.tcp_kill_state                         0x080179e4   Section        0  tcp.o(i.tcp_kill_state)
    tcp_kill_state                           0x080179e5   Thumb Code    94  tcp.o(i.tcp_kill_state)
    i.tcp_kill_timewait                      0x08017ab4   Section        0  tcp.o(i.tcp_kill_timewait)
    tcp_kill_timewait                        0x08017ab5   Thumb Code    50  tcp.o(i.tcp_kill_timewait)
    i.tcp_listen_closed                      0x08017af0   Section        0  tcp.o(i.tcp_listen_closed)
    tcp_listen_closed                        0x08017af1   Thumb Code    82  tcp.o(i.tcp_listen_closed)
    i.tcp_listen_input                       0x08017bc4   Section        0  tcp_in.o(i.tcp_listen_input)
    tcp_listen_input                         0x08017bc5   Thumb Code   342  tcp_in.o(i.tcp_listen_input)
    i.tcp_listen_with_backlog                0x08017db8   Section        0  tcp.o(i.tcp_listen_with_backlog)
    i.tcp_listen_with_backlog_and_err        0x08017dcc   Section        0  tcp.o(i.tcp_listen_with_backlog_and_err)
    i.tcp_netif_ip_addr_changed              0x08017f90   Section        0  tcp.o(i.tcp_netif_ip_addr_changed)
    i.tcp_netif_ip_addr_changed_pcblist      0x08017fdc   Section        0  tcp.o(i.tcp_netif_ip_addr_changed_pcblist)
    tcp_netif_ip_addr_changed_pcblist        0x08017fdd   Thumb Code    68  tcp.o(i.tcp_netif_ip_addr_changed_pcblist)
    i.tcp_new                                0x080180ac   Section        0  tcp.o(i.tcp_new)
    i.tcp_new_port                           0x080180b8   Section        0  tcp.o(i.tcp_new_port)
    tcp_new_port                             0x080180b9   Thumb Code    96  tcp.o(i.tcp_new_port)
    i.tcp_next_iss                           0x08018120   Section        0  tcp.o(i.tcp_next_iss)
    i.tcp_oos_insert_segment                 0x080181d0   Section        0  tcp_in.o(i.tcp_oos_insert_segment)
    tcp_oos_insert_segment                   0x080181d1   Thumb Code   164  tcp_in.o(i.tcp_oos_insert_segment)
    i.tcp_output                             0x080182fc   Section        0  tcp_out.o(i.tcp_output)
    i.tcp_output_alloc_header                0x08018660   Section        0  tcp_out.o(i.tcp_output_alloc_header)
    tcp_output_alloc_header                  0x08018661   Thumb Code    86  tcp_out.o(i.tcp_output_alloc_header)
    i.tcp_output_alloc_header_common         0x0801873c   Section        0  tcp_out.o(i.tcp_output_alloc_header_common)
    tcp_output_alloc_header_common           0x0801873d   Thumb Code   152  tcp_out.o(i.tcp_output_alloc_header_common)
    i.tcp_output_control_segment             0x08018860   Section        0  tcp_out.o(i.tcp_output_control_segment)
    tcp_output_control_segment               0x08018861   Thumb Code   114  tcp_out.o(i.tcp_output_control_segment)
    i.tcp_output_fill_options                0x0801895c   Section        0  tcp_out.o(i.tcp_output_fill_options)
    tcp_output_fill_options                  0x0801895d   Thumb Code   140  tcp_out.o(i.tcp_output_fill_options)
    i.tcp_output_segment                     0x08018a80   Section        0  tcp_out.o(i.tcp_output_segment)
    tcp_output_segment                       0x08018a81   Thumb Code   372  tcp_out.o(i.tcp_output_segment)
    i.tcp_output_segment_busy                0x08018ccc   Section        0  tcp_out.o(i.tcp_output_segment_busy)
    tcp_output_segment_busy                  0x08018ccd   Thumb Code    46  tcp_out.o(i.tcp_output_segment_busy)
    i.tcp_parseopt                           0x08018d80   Section        0  tcp_in.o(i.tcp_parseopt)
    tcp_parseopt                             0x08018d81   Thumb Code   174  tcp_in.o(i.tcp_parseopt)
    i.tcp_pbuf_prealloc                      0x08018eb0   Section        0  tcp_out.o(i.tcp_pbuf_prealloc)
    tcp_pbuf_prealloc                        0x08018eb1   Thumb Code   194  tcp_out.o(i.tcp_pbuf_prealloc)
    i.tcp_pcb_purge                          0x08019028   Section        0  tcp.o(i.tcp_pcb_purge)
    i.tcp_pcb_remove                         0x08019104   Section        0  tcp.o(i.tcp_pcb_remove)
    i.tcp_poll                               0x080192dc   Section        0  tcp.o(i.tcp_poll)
    i.tcp_process                            0x080193b8   Section        0  tcp_in.o(i.tcp_process)
    tcp_process                              0x080193b9   Thumb Code  1818  tcp_in.o(i.tcp_process)
    i.tcp_process_refused_data               0x08019afc   Section        0  tcp.o(i.tcp_process_refused_data)
    i.tcp_receive                            0x08019c30   Section        0  tcp_in.o(i.tcp_receive)
    tcp_receive                              0x08019c31   Thumb Code  3136  tcp_in.o(i.tcp_receive)
    i.tcp_recv                               0x0801a8ac   Section        0  tcp.o(i.tcp_recv)
    i.tcp_recv_null                          0x0801a958   Section        0  tcp.o(i.tcp_recv_null)
    i.tcp_recved                             0x0801aa1c   Section        0  tcp.o(i.tcp_recved)
    i.tcp_remove_listener                    0x0801ab38   Section        0  tcp.o(i.tcp_remove_listener)
    tcp_remove_listener                      0x0801ab39   Thumb Code    52  tcp.o(i.tcp_remove_listener)
    i.tcp_rexmit                             0x0801abec   Section        0  tcp_out.o(i.tcp_rexmit)
    i.tcp_rexmit_fast                        0x0801acf0   Section        0  tcp_out.o(i.tcp_rexmit_fast)
    i.tcp_rexmit_rto                         0x0801adfc   Section        0  tcp_out.o(i.tcp_rexmit_rto)
    i.tcp_rexmit_rto_commit                  0x0801aea4   Section        0  tcp_out.o(i.tcp_rexmit_rto_commit)
    i.tcp_rexmit_rto_prepare                 0x0801af5c   Section        0  tcp_out.o(i.tcp_rexmit_rto_prepare)
    i.tcp_route                              0x0801b074   Section        0  tcp_out.o(i.tcp_route)
    tcp_route                                0x0801b075   Thumb Code    30  tcp_out.o(i.tcp_route)
    i.tcp_rst                                0x0801b094   Section        0  tcp_out.o(i.tcp_rst)
    i.tcp_seg_copy                           0x0801b1bc   Section        0  tcp.o(i.tcp_seg_copy)
    i.tcp_seg_free                           0x0801b270   Section        0  tcp.o(i.tcp_seg_free)
    i.tcp_segs_free                          0x0801b28a   Section        0  tcp.o(i.tcp_segs_free)
    i.tcp_send_empty_ack                     0x0801b2a4   Section        0  tcp_out.o(i.tcp_send_empty_ack)
    i.tcp_send_fin                           0x0801b3e4   Section        0  tcp_out.o(i.tcp_send_fin)
    i.tcp_slowtmr                            0x0801b4c4   Section        0  tcp.o(i.tcp_slowtmr)
    i.tcp_split_unsent_seg                   0x0801bbf8   Section        0  tcp_out.o(i.tcp_split_unsent_seg)
    i.tcp_timer_needed                       0x0801bec8   Section        0  timeouts.o(i.tcp_timer_needed)
    i.tcp_timewait_input                     0x0801bf00   Section        0  tcp_in.o(i.tcp_timewait_input)
    tcp_timewait_input                       0x0801bf01   Thumb Code   170  tcp_in.o(i.tcp_timewait_input)
    i.tcp_tmr                                0x0801c044   Section        0  tcp.o(i.tcp_tmr)
    i.tcp_trigger_input_pcb_close            0x0801c068   Section        0  tcp_in.o(i.tcp_trigger_input_pcb_close)
    i.tcp_update_rcv_ann_wnd                 0x0801c07c   Section        0  tcp.o(i.tcp_update_rcv_ann_wnd)
    i.tcp_write                              0x0801c194   Section        0  tcp_out.o(i.tcp_write)
    i.tcp_write_checks                       0x0801c9b8   Section        0  tcp_out.o(i.tcp_write_checks)
    tcp_write_checks                         0x0801c9b9   Thumb Code   198  tcp_out.o(i.tcp_write_checks)
    i.tcp_zero_window_probe                  0x0801cb6c   Section        0  tcp_out.o(i.tcp_zero_window_probe)
    i.tcpecho_accept                         0x0801ccdc   Section        0  tcp_server.o(i.tcpecho_accept)
    tcpecho_accept                           0x0801ccdd   Thumb Code    20  tcp_server.o(i.tcpecho_accept)
    i.tcpecho_recv                           0x0801ccf4   Section        0  tcp_server.o(i.tcpecho_recv)
    tcpecho_recv                             0x0801ccf5   Thumb Code   110  tcp_server.o(i.tcpecho_recv)
    i.tcpip_init                             0x0801cd84   Section        0  tcpip.o(i.tcpip_init)
    i.tcpip_inpkt                            0x0801ceb0   Section        0  tcpip.o(i.tcpip_inpkt)
    i.tcpip_input                            0x0801cf7c   Section        0  tcpip.o(i.tcpip_input)
    i.tcpip_tcp_timer                        0x0801cfac   Section        0  timeouts.o(i.tcpip_tcp_timer)
    tcpip_tcp_timer                          0x0801cfad   Thumb Code    40  timeouts.o(i.tcpip_tcp_timer)
    i.tcpip_thread                           0x0801cfe4   Section        0  tcpip.o(i.tcpip_thread)
    tcpip_thread                             0x0801cfe5   Thumb Code    72  tcpip.o(i.tcpip_thread)
    i.tcpip_thread_handle_msg                0x0801d0b4   Section        0  tcpip.o(i.tcpip_thread_handle_msg)
    tcpip_thread_handle_msg                  0x0801d0b5   Thumb Code    92  tcpip.o(i.tcpip_thread_handle_msg)
    i.tcpip_timeouts_mbox_fetch              0x0801d188   Section        0  tcpip.o(i.tcpip_timeouts_mbox_fetch)
    tcpip_timeouts_mbox_fetch                0x0801d189   Thumb Code    92  tcpip.o(i.tcpip_timeouts_mbox_fetch)
    i.tcpip_try_callback                     0x0801d1e8   Section        0  tcpip.o(i.tcpip_try_callback)
    i.unlock_fs                              0x0801d2ac   Section        0  ff.o(i.unlock_fs)
    unlock_fs                                0x0801d2ad   Thumb Code    28  ff.o(i.unlock_fs)
    i.uxListRemove                           0x0801d2c8   Section        0  list.o(i.uxListRemove)
    i.vApplicationGetIdleTaskMemory          0x0801d2f0   Section        0  cmsis_os2.o(i.vApplicationGetIdleTaskMemory)
    i.vApplicationGetTimerTaskMemory         0x0801d308   Section        0  cmsis_os2.o(i.vApplicationGetTimerTaskMemory)
    i.vListInitialise                        0x0801d320   Section        0  list.o(i.vListInitialise)
    i.vListInitialiseItem                    0x0801d33a   Section        0  list.o(i.vListInitialiseItem)
    i.vListInsert                            0x0801d340   Section        0  list.o(i.vListInsert)
    i.vListInsertEnd                         0x0801d374   Section        0  list.o(i.vListInsertEnd)
    i.vPortEnterCritical                     0x0801d38c   Section        0  port.o(i.vPortEnterCritical)
    i.vPortExitCritical                      0x0801d3e0   Section        0  port.o(i.vPortExitCritical)
    i.vPortFree                              0x0801d41c   Section        0  heap_4.o(i.vPortFree)
    i.vPortSetupTimerInterrupt               0x0801d4b0   Section        0  port.o(i.vPortSetupTimerInterrupt)
    i.vPortValidateInterruptPriority         0x0801d4d8   Section        0  port.o(i.vPortValidateInterruptPriority)
    i.vQueueAddToRegistry                    0x0801d550   Section        0  queue.o(i.vQueueAddToRegistry)
    i.vQueueDelete                           0x0801d57c   Section        0  queue.o(i.vQueueDelete)
    i.vQueueUnregisterQueue                  0x0801d5b0   Section        0  queue.o(i.vQueueUnregisterQueue)
    i.vQueueWaitForMessageRestricted         0x0801d5e0   Section        0  queue.o(i.vQueueWaitForMessageRestricted)
    i.vTaskDelay                             0x0801d62c   Section        0  tasks.o(i.vTaskDelay)
    i.vTaskInternalSetTimeOutState           0x0801d688   Section        0  tasks.o(i.vTaskInternalSetTimeOutState)
    i.vTaskMissedYield                       0x0801d6a0   Section        0  tasks.o(i.vTaskMissedYield)
    i.vTaskPlaceOnEventList                  0x0801d6ac   Section        0  tasks.o(i.vTaskPlaceOnEventList)
    i.vTaskPlaceOnEventListRestricted        0x0801d6e4   Section        0  tasks.o(i.vTaskPlaceOnEventListRestricted)
    i.vTaskPriorityDisinheritAfterTimeout    0x0801d724   Section        0  tasks.o(i.vTaskPriorityDisinheritAfterTimeout)
    i.vTaskStartScheduler                    0x0801d7f4   Section        0  tasks.o(i.vTaskStartScheduler)
    i.vTaskSuspendAll                        0x0801d8ac   Section        0  tasks.o(i.vTaskSuspendAll)
    i.vTaskSwitchContext                     0x0801d8bc   Section        0  tasks.o(i.vTaskSwitchContext)
    i.validate                               0x0801d94c   Section        0  ff.o(i.validate)
    validate                                 0x0801d94d   Thumb Code    82  ff.o(i.validate)
    i.xPortStartScheduler                    0x0801d9a0   Section        0  port.o(i.xPortStartScheduler)
    i.xQueueCreateCountingSemaphore          0x0801db08   Section        0  queue.o(i.xQueueCreateCountingSemaphore)
    i.xQueueCreateCountingSemaphoreStatic    0x0801db64   Section        0  queue.o(i.xQueueCreateCountingSemaphoreStatic)
    i.xQueueCreateMutex                      0x0801dbc8   Section        0  queue.o(i.xQueueCreateMutex)
    i.xQueueCreateMutexStatic                0x0801dbea   Section        0  queue.o(i.xQueueCreateMutexStatic)
    i.xQueueGenericCreate                    0x0801dc14   Section        0  queue.o(i.xQueueGenericCreate)
    i.xQueueGenericCreateStatic              0x0801dc74   Section        0  queue.o(i.xQueueGenericCreateStatic)
    i.xQueueGenericReset                     0x0801dd54   Section        0  queue.o(i.xQueueGenericReset)
    i.xQueueGenericSend                      0x0801ddec   Section        0  queue.o(i.xQueueGenericSend)
    i.xQueueGenericSendFromISR               0x0801df94   Section        0  queue.o(i.xQueueGenericSendFromISR)
    i.xQueueGiveFromISR                      0x0801e08c   Section        0  queue.o(i.xQueueGiveFromISR)
    i.xQueueGiveMutexRecursive               0x0801e16c   Section        0  queue.o(i.xQueueGiveMutexRecursive)
    i.xQueueReceive                          0x0801e1b4   Section        0  queue.o(i.xQueueReceive)
    i.xQueueReceiveFromISR                   0x0801e31c   Section        0  queue.o(i.xQueueReceiveFromISR)
    i.xQueueSemaphoreTake                    0x0801e3e8   Section        0  queue.o(i.xQueueSemaphoreTake)
    i.xQueueTakeMutexRecursive               0x0801e5a0   Section        0  queue.o(i.xQueueTakeMutexRecursive)
    i.xTaskCheckForTimeOut                   0x0801e5f0   Section        0  tasks.o(i.xTaskCheckForTimeOut)
    i.xTaskCreate                            0x0801e67c   Section        0  tasks.o(i.xTaskCreate)
    i.xTaskCreateStatic                      0x0801e6e0   Section        0  tasks.o(i.xTaskCreateStatic)
    i.xTaskGetCurrentTaskHandle              0x0801e79c   Section        0  tasks.o(i.xTaskGetCurrentTaskHandle)
    i.xTaskGetSchedulerState                 0x0801e7a8   Section        0  tasks.o(i.xTaskGetSchedulerState)
    i.xTaskGetTickCount                      0x0801e7c8   Section        0  tasks.o(i.xTaskGetTickCount)
    i.xTaskGetTickCountFromISR               0x0801e7d4   Section        0  tasks.o(i.xTaskGetTickCountFromISR)
    i.xTaskIncrementTick                     0x0801e7e8   Section        0  tasks.o(i.xTaskIncrementTick)
    i.xTaskPriorityDisinherit                0x0801e92c   Section        0  tasks.o(i.xTaskPriorityDisinherit)
    i.xTaskPriorityInherit                   0x0801e9d0   Section        0  tasks.o(i.xTaskPriorityInherit)
    i.xTaskRemoveFromEventList               0x0801ea74   Section        0  tasks.o(i.xTaskRemoveFromEventList)
    i.xTaskResumeAll                         0x0801eb0c   Section        0  tasks.o(i.xTaskResumeAll)
    i.xTimerCreate                           0x0801ec10   Section        0  timers.o(i.xTimerCreate)
    i.xTimerCreateStatic                     0x0801ec46   Section        0  timers.o(i.xTimerCreateStatic)
    i.xTimerCreateTimerTask                  0x0801ecb8   Section        0  timers.o(i.xTimerCreateTimerTask)
    i.xTimerGenericCommand                   0x0801ed30   Section        0  timers.o(i.xTimerGenericCommand)
    .constdata                               0x0801edb4   Section       88  freertos.o(.constdata)
    .constdata                               0x0801ee0c   Section        8  stm32f4xx_hal_dma.o(.constdata)
    flagBitshiftOffset                       0x0801ee0c   Data           8  stm32f4xx_hal_dma.o(.constdata)
    .constdata                               0x0801ee14   Section       24  system_stm32f4xx.o(.constdata)
    .constdata                               0x0801ee2c   Section       12  ethernet.o(.constdata)
    .constdata                               0x0801ee38   Section      192  memp.o(.constdata)
    .constdata                               0x0801eef8   Section       80  tcp.o(.constdata)
    tcp_state_str                            0x0801eef8   Data          44  tcp.o(.constdata)
    tcp_backoff                              0x0801ef24   Data          13  tcp.o(.constdata)
    tcp_persist_backoff                      0x0801ef31   Data           7  tcp.o(.constdata)
    .constdata                               0x0801ef48   Section       28  timeouts.o(.constdata)
    .constdata                               0x0801ef64   Section        8  ip4_addr.o(.constdata)
    .constdata                               0x0801ef6c   Section       28  ff.o(.constdata)
    cst                                      0x0801ef6c   Data          14  ff.o(.constdata)
    cst32                                    0x0801ef7a   Data          14  ff.o(.constdata)
    .constdata                               0x0801ef88   Section       36  usbd_storage_if.o(.constdata)
    .constdata__ZTV10c_keyboard              0x0801efac   Section       52  uicode.o(.constdata__ZTV10c_keyboard)
    .constdata__ZTV15c_font_operator         0x0801efe0   Section       28  uicode.o(.constdata__ZTV15c_font_operator)
    .constdata__ZTV16c_image_operator        0x0801effc   Section       16  uicode.o(.constdata__ZTV16c_image_operator)
    .constdata__ZTV17c_bitmap_operator       0x0801f00c   Section       16  uicode.o(.constdata__ZTV17c_bitmap_operator)
    .constdata__ZTV17c_keyboard_button       0x0801f01c   Section       52  uicode.o(.constdata__ZTV17c_keyboard_button)
    .constdata__ZTV17c_lattice_font_op       0x0801f050   Section       28  uicode.o(.constdata__ZTV17c_lattice_font_op)
    .constdata__ZTV5c_wnd                    0x0801f06c   Section       52  uicode.o(.constdata__ZTV5c_wnd)
    .constdata__ZTV8c_button                 0x0801f0a0   Section       52  uicode.o(.constdata__ZTV8c_button)
    .constdata__ZTV9c_display                0x0801f0d4   Section       20  uicode.o(.constdata__ZTV9c_display)
    .constdata__ZTV9c_surface                0x0801f0e8   Section       24  uicode.o(.constdata__ZTV9c_surface)
    .constdata__ZZN6c_rect8set_rectEiiiiEs   0x0801f100   Section       25  uicode.o(.constdata__ZZN6c_rect8set_rectEiiiiEs)
    .constdata__ZZN9c_surface10draw_pixelEiijjEs 0x0801f119   Section       25  uicode.o(.constdata__ZZN9c_surface10draw_pixelEiijjEs)
    .constdata__ZZN9c_surface11set_surfaceE13Z_ORDER_LEVEL6c_rectEs 0x0801f132   Section       25  uicode.o(.constdata__ZZN9c_surface11set_surfaceE13Z_ORDER_LEVEL6c_rectEs)
    .constdata__ZZN9c_surface14attach_displayEP9c_displayEs 0x0801f14b   Section       25  uicode.o(.constdata__ZZN9c_surface14attach_displayEP9c_displayEs)
    .conststring                             0x0801f164   Section       38  freertos.o(.conststring)
    .conststring                             0x0801f18c   Section       65  init.o(.conststring)
    .conststring                             0x0801f1d0   Section      117  tcp.o(.conststring)
    .conststring                             0x0801f248   Section       85  tcp_out.o(.conststring)
    .conststring                             0x0801f2a0   Section       65  etharp.o(.conststring)
    .init_array                              0x0801f304   Section        4  uicode.o(.init_array)
    .init_array                              0x0801f308   Section        0  cpp_init.o(.init_array)
    .data                                    0x20000000   Section       12  main.o(.data)
    .data                                    0x2000000c   Section       30  freertos.o(.data)
    Acel                                     0x20000018   Data           6  freertos.o(.data)
    Gyro                                     0x2000001e   Data           6  freertos.o(.data)
    Temp                                     0x20000024   Data           4  freertos.o(.data)
    time_cnt                                 0x20000028   Data           2  freertos.o(.data)
    .data                                    0x2000002c   Section        9  stm32f4xx_hal.o(.data)
    .data                                    0x20000038   Section        4  system_stm32f4xx.o(.data)
    .data                                    0x2000003c   Section       20  bsp_can.o(.data)
    .data                                    0x20000050   Section       16  bsp_spi.o(.data)
    .data                                    0x20000060   Section        4  ethernetif.o(.data)
    .data                                    0x20000064   Section       36  lwip.o(.data)
    .data                                    0x20000088   Section       16  tcpip.o(.data)
    tcpip_init_done                          0x20000088   Data           4  tcpip.o(.data)
    tcpip_init_done_arg                      0x2000008c   Data           4  tcpip.o(.data)
    tcpip_mbox                               0x20000090   Data           4  tcpip.o(.data)
    .data                                    0x20000098   Section       16  mem.o(.data)
    ram                                      0x20000098   Data           4  mem.o(.data)
    ram_end                                  0x2000009c   Data           4  mem.o(.data)
    mem_mutex                                0x200000a0   Data           4  mem.o(.data)
    lfree                                    0x200000a4   Data           4  mem.o(.data)
    .data                                    0x200000a8   Section       48  memp.o(.data)
    memp_tab_TCP_PCB                         0x200000a8   Data           4  memp.o(.data)
    memp_tab_TCP_PCB_LISTEN                  0x200000ac   Data           4  memp.o(.data)
    memp_tab_TCP_SEG                         0x200000b0   Data           4  memp.o(.data)
    memp_tab_REASSDATA                       0x200000b4   Data           4  memp.o(.data)
    memp_tab_FRAG_PBUF                       0x200000b8   Data           4  memp.o(.data)
    memp_tab_NETBUF                          0x200000bc   Data           4  memp.o(.data)
    memp_tab_NETCONN                         0x200000c0   Data           4  memp.o(.data)
    memp_tab_TCPIP_MSG_API                   0x200000c4   Data           4  memp.o(.data)
    memp_tab_TCPIP_MSG_INPKT                 0x200000c8   Data           4  memp.o(.data)
    memp_tab_SYS_TIMEOUT                     0x200000cc   Data           4  memp.o(.data)
    memp_tab_PBUF                            0x200000d0   Data           4  memp.o(.data)
    memp_tab_PBUF_POOL                       0x200000d4   Data           4  memp.o(.data)
    .data                                    0x200000d8   Section        9  netif.o(.data)
    netif_num                                0x200000e0   Data           1  netif.o(.data)
    .data                                    0x200000e1   Section        1  pbuf.o(.data)
    .data                                    0x200000e4   Section       32  tcp.o(.data)
    tcp_port                                 0x200000e4   Data           2  tcp.o(.data)
    tcp_timer                                0x200000fd   Data           1  tcp.o(.data)
    tcp_timer_ctr                            0x200000fe   Data           1  tcp.o(.data)
    iss                                      0x20000100   Data           4  tcp.o(.data)
    .data                                    0x20000104   Section       40  tcp_in.o(.data)
    tcphdr                                   0x20000104   Data           4  tcp_in.o(.data)
    tcphdr_optlen                            0x20000108   Data           2  tcp_in.o(.data)
    tcphdr_opt1len                           0x2000010a   Data           2  tcp_in.o(.data)
    tcphdr_opt2                              0x2000010c   Data           4  tcp_in.o(.data)
    tcp_optidx                               0x20000110   Data           2  tcp_in.o(.data)
    seqno                                    0x20000114   Data           4  tcp_in.o(.data)
    ackno                                    0x20000118   Data           4  tcp_in.o(.data)
    recv_acked                               0x2000011c   Data           2  tcp_in.o(.data)
    tcplen                                   0x2000011e   Data           2  tcp_in.o(.data)
    flags                                    0x20000120   Data           1  tcp_in.o(.data)
    recv_flags                               0x20000121   Data           1  tcp_in.o(.data)
    recv_data                                0x20000124   Data           4  tcp_in.o(.data)
    .data                                    0x2000012c   Section       12  timeouts.o(.data)
    next_timeout                             0x2000012c   Data           4  timeouts.o(.data)
    current_timeout_due_time                 0x20000130   Data           4  timeouts.o(.data)
    tcpip_tcp_timer_active                   0x20000134   Data           4  timeouts.o(.data)
    .data                                    0x20000138   Section        1  etharp.o(.data)
    etharp_cached_entry                      0x20000138   Data           1  etharp.o(.data)
    .data                                    0x2000013a   Section        2  ip4.o(.data)
    ip_id                                    0x2000013a   Data           2  ip4.o(.data)
    .data                                    0x2000013c   Section        6  ip4_frag.o(.data)
    reassdatagrams                           0x2000013c   Data           4  ip4_frag.o(.data)
    ip_reass_pbufcount                       0x20000140   Data           2  ip4_frag.o(.data)
    .data                                    0x20000144   Section        8  sys_arch.o(.data)
    .data                                    0x2000014c   Section       60  tasks.o(.data)
    pxDelayedTaskList                        0x20000150   Data           4  tasks.o(.data)
    pxOverflowDelayedTaskList                0x20000154   Data           4  tasks.o(.data)
    uxDeletedTasksWaitingCleanUp             0x20000158   Data           4  tasks.o(.data)
    uxCurrentNumberOfTasks                   0x2000015c   Data           4  tasks.o(.data)
    xTickCount                               0x20000160   Data           4  tasks.o(.data)
    uxTopReadyPriority                       0x20000164   Data           4  tasks.o(.data)
    xSchedulerRunning                        0x20000168   Data           4  tasks.o(.data)
    uxPendedTicks                            0x2000016c   Data           4  tasks.o(.data)
    xYieldPending                            0x20000170   Data           4  tasks.o(.data)
    xNumOfOverflows                          0x20000174   Data           4  tasks.o(.data)
    uxTaskNumber                             0x20000178   Data           4  tasks.o(.data)
    xNextTaskUnblockTime                     0x2000017c   Data           4  tasks.o(.data)
    xIdleTaskHandle                          0x20000180   Data           4  tasks.o(.data)
    uxSchedulerSuspended                     0x20000184   Data           4  tasks.o(.data)
    .data                                    0x20000188   Section       20  timers.o(.data)
    pxCurrentTimerList                       0x20000188   Data           4  timers.o(.data)
    pxOverflowTimerList                      0x2000018c   Data           4  timers.o(.data)
    xTimerQueue                              0x20000190   Data           4  timers.o(.data)
    xTimerTaskHandle                         0x20000194   Data           4  timers.o(.data)
    xLastTime                                0x20000198   Data           4  timers.o(.data)
    .data                                    0x2000019c   Section        4  cmsis_os2.o(.data)
    KernelState                              0x2000019c   Data           4  cmsis_os2.o(.data)
    .data                                    0x200001a0   Section       24  heap_4.o(.data)
    xStart                                   0x200001a0   Data           8  heap_4.o(.data)
    pxEnd                                    0x200001a8   Data           4  heap_4.o(.data)
    xFreeBytesRemaining                      0x200001ac   Data           4  heap_4.o(.data)
    xMinimumEverFreeBytesRemaining           0x200001b0   Data           4  heap_4.o(.data)
    xBlockAllocatedBit                       0x200001b4   Data           4  heap_4.o(.data)
    .data                                    0x200001b8   Section       12  port.o(.data)
    uxCriticalNesting                        0x200001b8   Data           4  port.o(.data)
    ucMaxSysCallPriority                     0x200001bc   Data           1  port.o(.data)
    ulMaxPRIGROUPValue                       0x200001c0   Data           4  port.o(.data)
    .data                                    0x200001c4   Section       72  user_diskio.o(.data)
    Stat                                     0x200001c4   Data           1  user_diskio.o(.data)
    .data                                    0x2000020c   Section        5  fatfs.o(.data)
    .data                                    0x20000214   Section        6  ff.o(.data)
    FatFs                                    0x20000214   Data           4  ff.o(.data)
    Fsid                                     0x20000218   Data           2  ff.o(.data)
    .data                                    0x2000021c   Section       78  usbd_desc.o(.data)
    .data                                    0x2000026c   Section       32  usbd_storage_if.o(.data)
    .data                                    0x2000028c   Section        1  usbd_ctlreq.o(.data)
    cfgidx                                   0x2000028c   Data           1  usbd_ctlreq.o(.data)
    .data                                    0x20000290   Section      162  usbd_msc.o(.data)
    USBD_MSC_CfgHSDesc                       0x200002c8   Data          32  usbd_msc.o(.data)
    USBD_MSC_CfgFSDesc                       0x200002e8   Data          32  usbd_msc.o(.data)
    USBD_MSC_OtherSpeedCfgDesc               0x20000308   Data          32  usbd_msc.o(.data)
    USBD_MSC_DeviceQualifierDesc             0x20000328   Data          10  usbd_msc.o(.data)
    .data                                    0x20000332   Section       64  usbd_msc_data.o(.data)
    .data                                    0x20000374   Section     1220  uicode.o(.data)
    do_assert                                0x2000037c   Data           4  uicode.o(.data)
    do_log_out                               0x20000380   Data           4  uicode.o(.data)
    s_display                                0x2000081c   Data           4  uicode.o(.data)
    s_surface                                0x20000820   Data           4  uicode.o(.data)
    _ZGVdisplay                              0x2000082c   Data           4  uicode.o(.data)
    _ZGVsurface                              0x20000830   Data           4  uicode.o(.data)
    count                                    0x20000834   Data           4  uicode.o(.data)
    .data                                    0x20000838   Section        4  rand.o(.data)
    _rand_state                              0x20000838   Data           4  rand.o(.data)
    .data                                    0x2000083c   Section        4  stdout.o(.data)
    .data                                    0x20000840   Section        4  mvars.o(.data)
    .data                                    0x20000844   Section        4  mvars.o(.data)
    .data                                    0x20000848   Section        4  errno.o(.data)
    _errno                                   0x20000848   Data           4  errno.o(.data)
    .data                                    0x2000084c   Section        4  cpp_dtor.o(.data)
    ddtor_pointer                            0x2000084c   Data           4  cpp_dtor.o(.data)
    .bss                                     0x20000850   Section       40  can.o(.bss)
    .bss                                     0x20000878   Section       84  i2c.o(.bss)
    .bss                                     0x200008cc   Section       88  spi.o(.bss)
    .bss                                     0x20000924   Section      160  usart.o(.bss)
    .bss                                     0x200009c4   Section       64  stm32f4xx_hal_timebase_tim.o(.bss)
    .bss                                     0x20000a04   Section       60  bsp_uart.o(.bss)
    .bss                                     0x20000a40   Section       52  bsp_can.o(.bss)
    .bss                                     0x20000a74   Section     4096  bsp_spi.o(.bss)
    .bss                                     0x20001a74   Section    12520  ethernetif.o(.bss)
    .bss                                     0x20004b5c   Section       92  lwip.o(.bss)
    .bss                                     0x20004bb8   Section       24  ip.o(.bss)
    .bss                                     0x20004bd0   Section     1619  mem.o(.bss)
    .bss                                     0x20005223   Section    12296  memp.o(.bss)
    .bss                                     0x2000822c   Section       16  tcp_in.o(.bss)
    inseg                                    0x2000822c   Data          16  tcp_in.o(.bss)
    .bss                                     0x2000823c   Section      240  etharp.o(.bss)
    arp_table                                0x2000823c   Data         240  etharp.o(.bss)
    .bss                                     0x2000832c   Section       64  queue.o(.bss)
    .bss                                     0x2000836c   Section     1220  tasks.o(.bss)
    pxReadyTasksLists                        0x2000836c   Data        1120  tasks.o(.bss)
    xDelayedTaskList1                        0x200087cc   Data          20  tasks.o(.bss)
    xDelayedTaskList2                        0x200087e0   Data          20  tasks.o(.bss)
    xPendingReadyList                        0x200087f4   Data          20  tasks.o(.bss)
    xTasksWaitingTermination                 0x20008808   Data          20  tasks.o(.bss)
    xSuspendedTaskList                       0x2000881c   Data          20  tasks.o(.bss)
    .bss                                     0x20008830   Section      280  timers.o(.bss)
    xActiveTimerList1                        0x20008830   Data          20  timers.o(.bss)
    xActiveTimerList2                        0x20008844   Data          20  timers.o(.bss)
    xStaticTimerQueue                        0x20008858   Data          80  timers.o(.bss)
    ucStaticTimerQueueStorage                0x200088a8   Data         160  timers.o(.bss)
    .bss                                     0x20008948   Section     1720  cmsis_os2.o(.bss)
    Idle_TCB                                 0x20008948   Data          92  cmsis_os2.o(.bss)
    Idle_Stack                               0x200089a4   Data         512  cmsis_os2.o(.bss)
    Timer_TCB                                0x20008ba4   Data          92  cmsis_os2.o(.bss)
    Timer_Stack                              0x20008c00   Data        1024  cmsis_os2.o(.bss)
    .bss                                     0x20009000   Section    15360  heap_4.o(.bss)
    ucHeap                                   0x20009000   Data       15360  heap_4.o(.bss)
    .bss                                     0x2000cc00   Section     5120  user_diskio.o(.bss)
    .bss                                     0x2000e000   Section     8292  fatfs.o(.bss)
    .bss                                     0x20010064   Section       32  ff.o(.bss)
    Files                                    0x20010064   Data          32  ff.o(.bss)
    .bss                                     0x20010084   Section       12  ff_gen_drv.o(.bss)
    .bss                                     0x20010090   Section      720  usb_device.o(.bss)
    .bss                                     0x20010360   Section      512  usbd_desc.o(.bss)
    .bss                                     0x20010560   Section     1032  usbd_conf.o(.bss)
    .bss                                     0x20010968   Section    18456  uicode.o(.bss)
    s_key_0                                  0x20010968   Data          80  uicode.o(.bss)
    s_key_1                                  0x200109b8   Data          80  uicode.o(.bss)
    s_key_2                                  0x20010a08   Data          80  uicode.o(.bss)
    s_key_3                                  0x20010a58   Data          80  uicode.o(.bss)
    s_key_4                                  0x20010aa8   Data          80  uicode.o(.bss)
    s_key_5                                  0x20010af8   Data          80  uicode.o(.bss)
    s_key_6                                  0x20010b48   Data          80  uicode.o(.bss)
    s_key_7                                  0x20010b98   Data          80  uicode.o(.bss)
    s_key_8                                  0x20010be8   Data          80  uicode.o(.bss)
    s_key_9                                  0x20010c38   Data          80  uicode.o(.bss)
    s_key_A                                  0x20010c88   Data          80  uicode.o(.bss)
    s_key_B                                  0x20010cd8   Data          80  uicode.o(.bss)
    s_key_C                                  0x20010d28   Data          80  uicode.o(.bss)
    s_key_D                                  0x20010d78   Data          80  uicode.o(.bss)
    s_key_E                                  0x20010dc8   Data          80  uicode.o(.bss)
    s_key_F                                  0x20010e18   Data          80  uicode.o(.bss)
    s_key_G                                  0x20010e68   Data          80  uicode.o(.bss)
    s_key_H                                  0x20010eb8   Data          80  uicode.o(.bss)
    s_key_I                                  0x20010f08   Data          80  uicode.o(.bss)
    s_key_J                                  0x20010f58   Data          80  uicode.o(.bss)
    s_key_K                                  0x20010fa8   Data          80  uicode.o(.bss)
    s_key_L                                  0x20010ff8   Data          80  uicode.o(.bss)
    s_key_M                                  0x20011048   Data          80  uicode.o(.bss)
    s_key_N                                  0x20011098   Data          80  uicode.o(.bss)
    s_key_O                                  0x200110e8   Data          80  uicode.o(.bss)
    s_key_P                                  0x20011138   Data          80  uicode.o(.bss)
    s_key_Q                                  0x20011188   Data          80  uicode.o(.bss)
    s_key_R                                  0x200111d8   Data          80  uicode.o(.bss)
    s_key_S                                  0x20011228   Data          80  uicode.o(.bss)
    s_key_T                                  0x20011278   Data          80  uicode.o(.bss)
    s_key_U                                  0x200112c8   Data          80  uicode.o(.bss)
    s_key_V                                  0x20011318   Data          80  uicode.o(.bss)
    s_key_W                                  0x20011368   Data          80  uicode.o(.bss)
    s_key_X                                  0x200113b8   Data          80  uicode.o(.bss)
    s_key_Y                                  0x20011408   Data          80  uicode.o(.bss)
    s_key_Z                                  0x20011458   Data          80  uicode.o(.bss)
    s_key_dot                                0x200114a8   Data          80  uicode.o(.bss)
    s_key_caps                               0x200114f8   Data          80  uicode.o(.bss)
    s_key_space                              0x20011548   Data          80  uicode.o(.bss)
    s_key_enter                              0x20011598   Data          80  uicode.o(.bss)
    s_key_del                                0x200115e8   Data          80  uicode.o(.bss)
    s_key_esc                                0x20011638   Data          80  uicode.o(.bss)
    s_key_num_switch                         0x20011688   Data          80  uicode.o(.bss)
    surface                                  0x200150b4   Data         140  uicode.o(.bss)
    display                                  0x20015140   Data          64  uicode.o(.bss)
    HEAP                                     0x20015180   Section     8192  startup_stm32f429xx.o(HEAP)
    STACK                                    0x20017180   Section     8192  startup_stm32f429xx.o(STACK)

    Global Symbols

    Symbol Name                              Value     Ov Type        Size  Object(Section)

    BuildAttributes$$THM_ISAv4$E$P$D$K$B$S$7EM$VFPi3$EXTD16$VFPS$VFMA$PE$A:L22UL41UL21$X:L11$S22US41US21$IEEE1$IW$USESV6$~STKCKD$USESV7$~SHL$OTIME$ROPI$IEEEJ$EBA8$UX$MICROLIB$REQ8$PRES8$EABIv2 0x00000000   Number         0  anon$$obj.o ABSOLUTE
    __ARM_use_no_argv                        0x00000000   Number         0  main.o ABSOLUTE
    _printf_a                                0x00000000   Number         0  stubs.o ABSOLUTE
    _printf_c                                0x00000000   Number         0  stubs.o ABSOLUTE
    _printf_charcount                        0x00000000   Number         0  stubs.o ABSOLUTE
    _printf_d                                0x00000000   Number         0  stubs.o ABSOLUTE
    _printf_e                                0x00000000   Number         0  stubs.o ABSOLUTE
    _printf_f                                0x00000000   Number         0  stubs.o ABSOLUTE
    _printf_flags                            0x00000000   Number         0  stubs.o ABSOLUTE
    _printf_fp_dec                           0x00000000   Number         0  stubs.o ABSOLUTE
    _printf_fp_hex                           0x00000000   Number         0  stubs.o ABSOLUTE
    _printf_g                                0x00000000   Number         0  stubs.o ABSOLUTE
    _printf_i                                0x00000000   Number         0  stubs.o ABSOLUTE
    _printf_int_dec                          0x00000000   Number         0  stubs.o ABSOLUTE
    _printf_l                                0x00000000   Number         0  stubs.o ABSOLUTE
    _printf_lc                               0x00000000   Number         0  stubs.o ABSOLUTE
    _printf_ll                               0x00000000   Number         0  stubs.o ABSOLUTE
    _printf_lld                              0x00000000   Number         0  stubs.o ABSOLUTE
    _printf_lli                              0x00000000   Number         0  stubs.o ABSOLUTE
    _printf_llo                              0x00000000   Number         0  stubs.o ABSOLUTE
    _printf_llu                              0x00000000   Number         0  stubs.o ABSOLUTE
    _printf_llx                              0x00000000   Number         0  stubs.o ABSOLUTE
    _printf_longlong_dec                     0x00000000   Number         0  stubs.o ABSOLUTE
    _printf_longlong_hex                     0x00000000   Number         0  stubs.o ABSOLUTE
    _printf_longlong_oct                     0x00000000   Number         0  stubs.o ABSOLUTE
    _printf_ls                               0x00000000   Number         0  stubs.o ABSOLUTE
    _printf_mbtowc                           0x00000000   Number         0  stubs.o ABSOLUTE
    _printf_n                                0x00000000   Number         0  stubs.o ABSOLUTE
    _printf_o                                0x00000000   Number         0  stubs.o ABSOLUTE
    _printf_p                                0x00000000   Number         0  stubs.o ABSOLUTE
    _printf_percent                          0x00000000   Number         0  stubs.o ABSOLUTE
    _printf_pre_padding                      0x00000000   Number         0  stubs.o ABSOLUTE
    _printf_return_value                     0x00000000   Number         0  stubs.o ABSOLUTE
    _printf_s                                0x00000000   Number         0  stubs.o ABSOLUTE
    _printf_sizespec                         0x00000000   Number         0  stubs.o ABSOLUTE
    _printf_str                              0x00000000   Number         0  stubs.o ABSOLUTE
    _printf_truncate_signed                  0x00000000   Number         0  stubs.o ABSOLUTE
    _printf_truncate_unsigned                0x00000000   Number         0  stubs.o ABSOLUTE
    _printf_u                                0x00000000   Number         0  stubs.o ABSOLUTE
    _printf_wc                               0x00000000   Number         0  stubs.o ABSOLUTE
    _printf_wctomb                           0x00000000   Number         0  stubs.o ABSOLUTE
    _printf_widthprec                        0x00000000   Number         0  stubs.o ABSOLUTE
    _printf_x                                0x00000000   Number         0  stubs.o ABSOLUTE
    SHT$$ARM_EXIDX$$Base                      - Undefined Reference
    SHT$$ARM_EXIDX$$Limit                     - Undefined Reference
    __ARM::default_unexpected_handler()       - Undefined Weak Reference
    __ARM_exceptions_buffer_required          - Undefined Weak Reference
    __aeabi_unwind_cpp_pr1                    - Undefined Weak Reference
    __aeabi_unwind_cpp_pr2                    - Undefined Weak Reference
    __arm_fini_                               - Undefined Weak Reference
    __cxa_begin_cleanup                       - Undefined Weak Reference
    __cxa_type_match                          - Undefined Weak Reference
    _clock_init                               - Undefined Weak Reference
    _microlib_exit                            - Undefined Weak Reference
    __Vectors_Size                           0x000001ac   Number         0  startup_stm32f429xx.o ABSOLUTE
    __Vectors                                0x08000000   Data           4  startup_stm32f429xx.o(RESET)
    __dso_handle                             0x08000000   Number         0  startup_stm32f429xx.o(RESET)
    __Vectors_End                            0x080001ac   Data           0  startup_stm32f429xx.o(RESET)
    __main                                   0x080001ad   Thumb Code     0  entry.o(.ARM.Collect$$$$00000000)
    _main_stk                                0x080001ad   Thumb Code     0  entry2.o(.ARM.Collect$$$$00000001)
    _main_scatterload                        0x080001b1   Thumb Code     0  entry5.o(.ARM.Collect$$$$00000004)
    __main_after_scatterload                 0x080001b5   Thumb Code     0  entry5.o(.ARM.Collect$$$$00000004)
    _main_clock                              0x080001b5   Thumb Code     0  entry7b.o(.ARM.Collect$$$$00000008)
    _main_cpp_init$empty                     0x080001b5   Thumb Code     0  entry8a.o(.ARM.Collect$$$$00000009)
    _main_cpp_init                           0x080001b9   Thumb Code     0  entry8b.o(.ARM.Collect$$$$0000000A)
    _main_init                               0x080001b9   Thumb Code     0  entry9a.o(.ARM.Collect$$$$0000000B)
    __rt_lib_shutdown_fini                   0x080001c1   Thumb Code     0  entry12b.o(.ARM.Collect$$$$0000000E)
    __rt_final_cpp                           0x080001c5   Thumb Code     0  entry10a.o(.ARM.Collect$$$$0000000F)
    __rt_final_cpp$nonempty                  0x080001c5   Thumb Code     0  entry10b.o(.ARM.Collect$$$$00000010)
    __rt_final_exit                          0x080001c9   Thumb Code     0  entry11a.o(.ARM.Collect$$$$00000011)
    SVC_Handler                              0x080001cd   Thumb Code    28  port.o(.emb_text)
    __asm___6_port_c_39a90d8d__prvStartFirstTask 0x080001ed   Thumb Code    36  port.o(.emb_text)
    __asm___6_port_c_39a90d8d__prvEnableVFP  0x08000215   Thumb Code    16  port.o(.emb_text)
    PendSV_Handler                           0x08000229   Thumb Code    88  port.o(.emb_text)
    vPortGetIPSR                             0x08000285   Thumb Code     6  port.o(.emb_text)
    Reset_Handler                            0x0800028d   Thumb Code     8  startup_stm32f429xx.o(.text)
    ADC_IRQHandler                           0x080002a7   Thumb Code     0  startup_stm32f429xx.o(.text)
    CAN1_RX1_IRQHandler                      0x080002a7   Thumb Code     0  startup_stm32f429xx.o(.text)
    CAN1_SCE_IRQHandler                      0x080002a7   Thumb Code     0  startup_stm32f429xx.o(.text)
    CAN1_TX_IRQHandler                       0x080002a7   Thumb Code     0  startup_stm32f429xx.o(.text)
    CAN2_RX0_IRQHandler                      0x080002a7   Thumb Code     0  startup_stm32f429xx.o(.text)
    CAN2_RX1_IRQHandler                      0x080002a7   Thumb Code     0  startup_stm32f429xx.o(.text)
    CAN2_SCE_IRQHandler                      0x080002a7   Thumb Code     0  startup_stm32f429xx.o(.text)
    CAN2_TX_IRQHandler                       0x080002a7   Thumb Code     0  startup_stm32f429xx.o(.text)
    DCMI_IRQHandler                          0x080002a7   Thumb Code     0  startup_stm32f429xx.o(.text)
    DMA1_Stream0_IRQHandler                  0x080002a7   Thumb Code     0  startup_stm32f429xx.o(.text)
    DMA1_Stream1_IRQHandler                  0x080002a7   Thumb Code     0  startup_stm32f429xx.o(.text)
    DMA1_Stream2_IRQHandler                  0x080002a7   Thumb Code     0  startup_stm32f429xx.o(.text)
    DMA1_Stream3_IRQHandler                  0x080002a7   Thumb Code     0  startup_stm32f429xx.o(.text)
